Component: ARM Compiler 5.06 update 6 (build 750) Tool: armlink [4d35ed]

==============================================================================

Section Cross References

    startup_stm32f107xc.o(RESET) refers to startup_stm32f107xc.o(STACK) for __initial_sp
    startup_stm32f107xc.o(RESET) refers to startup_stm32f107xc.o(.text) for Reset_Handler
    startup_stm32f107xc.o(RESET) refers to stm32f1xx_it.o(i.NMI_Handler) for NMI_Handler
    startup_stm32f107xc.o(RESET) refers to context_rvds.o(.text) for HardFault_Handler
    startup_stm32f107xc.o(RESET) refers to stm32f1xx_it.o(i.MemManage_Handler) for MemManage_Handler
    startup_stm32f107xc.o(RESET) refers to stm32f1xx_it.o(i.BusFault_Handler) for BusFault_Handler
    startup_stm32f107xc.o(RESET) refers to stm32f1xx_it.o(i.UsageFault_Handler) for UsageFault_Handler
    startup_stm32f107xc.o(RESET) refers to stm32f1xx_it.o(i.DebugMon_Handler) for DebugMon_Handler
    startup_stm32f107xc.o(RESET) refers to board.o(i.SysTick_Handler) for SysTick_Handler
    startup_stm32f107xc.o(RESET) refers to stm32f1xx_it.o(i.DMA1_Channel1_IRQHandler) for DMA1_Channel1_IRQHandler
    startup_stm32f107xc.o(RESET) refers to stm32f1xx_it.o(i.DMA1_Channel2_IRQHandler) for DMA1_Channel2_IRQHandler
    startup_stm32f107xc.o(RESET) refers to stm32f1xx_it.o(i.DMA1_Channel3_IRQHandler) for DMA1_Channel3_IRQHandler
    startup_stm32f107xc.o(RESET) refers to stm32f1xx_it.o(i.DMA1_Channel4_IRQHandler) for DMA1_Channel4_IRQHandler
    startup_stm32f107xc.o(RESET) refers to stm32f1xx_it.o(i.DMA1_Channel5_IRQHandler) for DMA1_Channel5_IRQHandler
    startup_stm32f107xc.o(RESET) refers to stm32f1xx_it.o(i.DMA1_Channel6_IRQHandler) for DMA1_Channel6_IRQHandler
    startup_stm32f107xc.o(RESET) refers to stm32f1xx_it.o(i.DMA1_Channel7_IRQHandler) for DMA1_Channel7_IRQHandler
    startup_stm32f107xc.o(RESET) refers to stm32f1xx_it.o(i.CAN1_RX0_IRQHandler) for CAN1_RX0_IRQHandler
    startup_stm32f107xc.o(RESET) refers to stm32f1xx_it.o(i.USART1_IRQHandler) for USART1_IRQHandler
==============================================================================

Removing Unused input sections from the image.

    Removing startup_stm32f107xc.o(HEAP), (512 bytes).
    Removing gbt_verneg_1.o(.rev16_text), (4 bytes).
    Removing gbt_verneg_1.o(.revsh_text), (4 bytes).
    Removing gbt_verneg_1.o(.rrx_text), (6 bytes).
    Removing gbt_verneg_1.o(i.InitializeVersionNegotiateData), (36 bytes).
    Removing gbt_verneg_1.o(i.IsSupportedVersion), (44 bytes).
    Removing gbt_verneg_1.o(i.ProcessVersionNegotiateResponse), (180 bytes).
    Removing gbt_verneg_1.o(i.ReceiveVersionNegotiate), (44 bytes).
    Removing gbt_verneg_1.o(i.SendPileVersionNegotiate), (118 bytes).
    Removing gbt_verneg_1.o(.data), (6 bytes).
    Removing flashdb_app.o(i.flashdb_app), (288 bytes).
    Removing flashdb_app.o(i.get_time), (16 bytes).
    Removing general.o(.rev16_text), (4 bytes).
    Removing general.o(.revsh_text), (4 bytes).
    Removing general.o(.rrx_text), (6 bytes).
    Removing general.o(i.Boot_FileNameWrite), (408 bytes).
    Removing general.o(i.HexNumToASCII), (36 bytes).
    Removing general.o(i.ModbusCRC16_Cal), (66 bytes).
==============================================================================

Image Symbol Table

    Local Symbols

    Symbol Name                              Value     Ov Type        Size  Object(Section)

    ../Core/Src/adc.c                        0x00000000   Number         0  adc.o ABSOLUTE
    ../Core/Src/can.c                        0x00000000   Number         0  can.o ABSOLUTE
    ../Core/Src/dma.c                        0x00000000   Number         0  dma.o ABSOLUTE
    ../Core/Src/gpio.c                       0x00000000   Number         0  gpio.o ABSOLUTE
    ../Core/Src/main.c                       0x00000000   Number         0  main.o ABSOLUTE
    ../Core/Src/rtc.c                        0x00000000   Number         0  rtc.o ABSOLUTE
    ../Core/Src/spi.c                        0x00000000   Number         0  spi.o ABSOLUTE
    ../Core/Src/stm32f1xx_hal_msp.c          0x00000000   Number         0  stm32f1xx_hal_msp.o ABSOLUTE
    ../Core/Src/stm32f1xx_hal_timebase_tim.c 0x00000000   Number         0  stm32f1xx_hal_timebase_tim.o ABSOLUTE
    ../Core/Src/stm32f1xx_it.c               0x00000000   Number         0  stm32f1xx_it.o ABSOLUTE
    ../Core/Src/system_stm32f1xx.c           0x00000000   Number         0  system_stm32f1xx.o ABSOLUTE
    ../Core/Src/usart.c                      0x00000000   Number         0  usart.o ABSOLUTE
    ../Drivers/STM32F1xx_HAL_Driver/Src/stm32f1xx_hal.c 0x00000000   Number         0  stm32f1xx_hal.o ABSOLUTE
    ../Drivers/STM32F1xx_HAL_Driver/Src/stm32f1xx_hal_adc.c 0x00000000   Number         0  stm32f1xx_hal_adc.o ABSOLUTE
    ../Drivers/STM32F1xx_HAL_Driver/Src/stm32f1xx_hal_adc_ex.c 0x00000000   Number         0  stm32f1xx_hal_adc_ex.o ABSOLUTE
    ../Drivers/STM32F1xx_HAL_Driver/Src/stm32f1xx_hal_can.c 0x00000000   Number         0  stm32f1xx_hal_can.o ABSOLUTE
    ../Drivers/STM32F1xx_HAL_Driver/Src/stm32f1xx_hal_cortex.c 0x00000000   Number         0  stm32f1xx_hal_cortex.o ABSOLUTE
    ../Drivers/STM32F1xx_HAL_Driver/Src/stm32f1xx_hal_dma.c 0x00000000   Number         0  stm32f1xx_hal_dma.o ABSOLUTE
    ../Drivers/STM32F1xx_HAL_Driver/Src/stm32f1xx_hal_exti.c 0x00000000   Number         0  stm32f1xx_hal_exti.o ABSOLUTE
    ../Drivers/STM32F1xx_HAL_Driver/Src/stm32f1xx_hal_flash.c 0x00000000   Number         0  stm32f1xx_hal_flash.o ABSOLUTE
    ../Drivers/STM32F1xx_HAL_Driver/Src/stm32f1xx_hal_flash_ex.c 0x00000000   Number         0  stm32f1xx_hal_flash_ex.o ABSOLUTE
    ../Drivers/STM32F1xx_HAL_Driver/Src/stm32f1xx_hal_gpio.c 0x00000000   Number         0  stm32f1xx_hal_gpio.o ABSOLUTE
    ../Drivers/STM32F1xx_HAL_Driver/Src/stm32f1xx_hal_gpio_ex.c 0x00000000   Number         0  stm32f1xx_hal_gpio_ex.o ABSOLUTE
    ../Drivers/STM32F1xx_HAL_Driver/Src/stm32f1xx_hal_pwr.c 0x00000000   Number         0  stm32f1xx_hal_pwr.o ABSOLUTE
    ../Drivers/STM32F1xx_HAL_Driver/Src/stm32f1xx_hal_rcc.c 0x00000000   Number         0  stm32f1xx_hal_rcc.o ABSOLUTE
    ../Drivers/STM32F1xx_HAL_Driver/Src/stm32f1xx_hal_rcc_ex.c 0x00000000   Number         0  stm32f1xx_hal_rcc_ex.o ABSOLUTE
    ../Drivers/STM32F1xx_HAL_Driver/Src/stm32f1xx_hal_rtc.c 0x00000000   Number         0  stm32f1xx_hal_rtc.o ABSOLUTE
    ../Drivers/STM32F1xx_HAL_Driver/Src/stm32f1xx_hal_rtc_ex.c 0x00000000   Number         0  stm32f1xx_hal_rtc_ex.o ABSOLUTE
    ../Drivers/STM32F1xx_HAL_Driver/Src/stm32f1xx_hal_spi.c 0x00000000   Number         0  stm32f1xx_hal_spi.o ABSOLUTE
    ../Drivers/STM32F1xx_HAL_Driver/Src/stm32f1xx_hal_tim.c 0x00000000   Number         0  stm32f1xx_hal_tim.o ABSOLUTE
    ../Drivers/STM32F1xx_HAL_Driver/Src/stm32f1xx_hal_tim_ex.c 0x00000000   Number         0  stm32f1xx_hal_tim_ex.o ABSOLUTE
    ../Drivers/STM32F1xx_HAL_Driver/Src/stm32f1xx_hal_uart.c 0x00000000   Number         0  stm32f1xx_hal_uart.o ABSOLUTE
    ../Middlewares/Third_Party/RealThread_RTOS/bsp/_template/cubemx_config/board.c 0x00000000   Number         0  board.o ABSOLUTE
    ../Middlewares/Third_Party/RealThread_RTOS/components/finsh/cmd.c 0x00000000   Number         0  cmd.o ABSOLUTE
    ../Middlewares/Third_Party/RealThread_RTOS/components/finsh/finsh_port.c 0x00000000   Number         0  finsh_port.o ABSOLUTE
    ../Middlewares/Third_Party/RealThread_RTOS/components/finsh/msh.c 0x00000000   Number         0  msh.o ABSOLUTE
    ../Middlewares/Third_Party/RealThread_RTOS/components/finsh/shell.c 0x00000000   Number         0  shell.o ABSOLUTE
    ../Middlewares/Third_Party/RealThread_RTOS/libcpu/arm/cortex-m3/context_rvds.S 0x00000000   Number         0  context_rvds.o ABSOLUTE
    ../Middlewares/Third_Party/RealThread_RTOS/libcpu/arm/cortex-m3/cpuport.c 0x00000000   Number         0  cpuport.o ABSOLUTE
    ../Middlewares/Third_Party/RealThread_RTOS/src/clock.c 0x00000000   Number         0  clock.o ABSOLUTE
    ../Middlewares/Third_Party/RealThread_RTOS/src/components.c 0x00000000   Number         0  components.o ABSOLUTE
    ../Middlewares/Third_Party/RealThread_RTOS/src/cpu.c 0x00000000   Number         0  cpu.o ABSOLUTE
    ../Middlewares/Third_Party/RealThread_RTOS/src/idle.c 0x00000000   Number         0  idle.o ABSOLUTE
    ../Middlewares/Third_Party/RealThread_RTOS/src/ipc.c 0x00000000   Number         0  ipc.o ABSOLUTE
    ../Middlewares/Third_Party/RealThread_RTOS/src/irq.c 0x00000000   Number         0  irq.o ABSOLUTE
    ../Middlewares/Third_Party/RealThread_RTOS/src/kservice.c 0x00000000   Number         0  kservice.o ABSOLUTE
    ../Middlewares/Third_Party/RealThread_RTOS/src/mem.c 0x00000000   Number         0  mem.o ABSOLUTE
    ../Middlewares/Third_Party/RealThread_RTOS/src/memheap.c 0x00000000   Number         0  memheap.o ABSOLUTE
    ../Middlewares/Third_Party/RealThread_RTOS/src/mempool.c 0x00000000   Number         0  mempool.o ABSOLUTE
    ../Middlewares/Third_Party/RealThread_RTOS/src/object.c 0x00000000   Number         0  object.o ABSOLUTE
    ../Middlewares/Third_Party/RealThread_RTOS/src/scheduler.c 0x00000000   Number         0  scheduler.o ABSOLUTE
    ../Middlewares/Third_Party/RealThread_RTOS/src/slab.c 0x00000000   Number         0  slab.o ABSOLUTE
    ../Middlewares/Third_Party/RealThread_RTOS/src/thread.c 0x00000000   Number         0  thread.o ABSOLUTE
    ../Middlewares/Third_Party/RealThread_RTOS/src/timer.c 0x00000000   Number         0  timer.o ABSOLUTE
    ../clib/../cmprslib/zerorunl2.c          0x00000000   Number         0  __dczerorl2.o ABSOLUTE
    ../clib/microlib/ctype/ctype.c           0x00000000   Number         0  isupper_o.o ABSOLUTE
    ../clib/microlib/ctype/ctype.c           0x00000000   Number         0  ctype_c.o ABSOLUTE
    ../clib/microlib/ctype/ctype.c           0x00000000   Number         0  isxdigit_o.o ABSOLUTE
    ../clib/microlib/ctype/ctype.c           0x00000000   Number         0  isspace_o.o ABSOLUTE
    ../clib/microlib/ctype/ctype.c           0x00000000   Number         0  ispunct_o.o ABSOLUTE
    ../clib/microlib/ctype/ctype.c           0x00000000   Number         0  isprint_o.o ABSOLUTE
    ../clib/microlib/ctype/ctype.c           0x00000000   Number         0  islower_o.o ABSOLUTE
    ../clib/microlib/ctype/ctype.c           0x00000000   Number         0  isgraph_o.o ABSOLUTE
    ../clib/microlib/ctype/ctype.c           0x00000000   Number         0  isdigit_o.o ABSOLUTE
    ../clib/microlib/ctype/ctype.c           0x00000000   Number         0  iscntrl_o.o ABSOLUTE
    ../clib/microlib/ctype/ctype.c           0x00000000   Number         0  isblank_o.o ABSOLUTE
    ../clib/microlib/ctype/ctype.c           0x00000000   Number         0  isalpha_o.o ABSOLUTE
    ../clib/microlib/ctype/ctype.c           0x00000000   Number         0  isalnum_o.o ABSOLUTE
    ../clib/microlib/ctype/ctype.c           0x00000000   Number         0  ctype_o.o ABSOLUTE
    ../clib/microlib/ctype/ctype.c           0x00000000   Number         0  isspace_c.o ABSOLUTE
    ../clib/microlib/division.c              0x00000000   Number         0  uidiv.o ABSOLUTE
    ../clib/microlib/division.c              0x00000000   Number         0  uldiv.o ABSOLUTE
    ../clib/microlib/errno.c                 0x00000000   Number         0  errno.o ABSOLUTE
    ../clib/microlib/init/entry.s            0x00000000   Number         0  entry7b.o ABSOLUTE
    ../clib/microlib/init/entry.s            0x00000000   Number         0  entry11b.o ABSOLUTE
    ../clib/microlib/init/entry.s            0x00000000   Number         0  entry8a.o ABSOLUTE
    ../clib/microlib/init/entry.s            0x00000000   Number         0  entry9a.o ABSOLUTE
    ../clib/microlib/init/entry.s            0x00000000   Number         0  entry10b.o ABSOLUTE
    ../clib/microlib/init/entry.s            0x00000000   Number         0  entry11a.o ABSOLUTE
    ../clib/microlib/init/entry.s            0x00000000   Number         0  entry7a.o ABSOLUTE
    ../clib/microlib/init/entry.s            0x00000000   Number         0  entry8b.o ABSOLUTE
    ../clib/microlib/init/entry.s            0x00000000   Number         0  entry2.o ABSOLUTE
    ../clib/microlib/init/entry.s            0x00000000   Number         0  entry10a.o ABSOLUTE
    ../clib/microlib/init/entry.s            0x00000000   Number         0  entry5.o ABSOLUTE
    ../clib/microlib/init/entry.s            0x00000000   Number         0  entry9b.o ABSOLUTE
    ../clib/microlib/init/entry.s            0x00000000   Number         0  entry.o ABSOLUTE
    ../clib/microlib/longlong.c              0x00000000   Number         0  llsshr.o ABSOLUTE
    ../clib/microlib/longlong.c              0x00000000   Number         0  llshl.o ABSOLUTE
    ../clib/microlib/longlong.c              0x00000000   Number         0  llushr.o ABSOLUTE
    ../clib/microlib/malloc/malloc.c         0x00000000   Number         0  malloca.o ABSOLUTE
    ../clib/microlib/malloc/malloc.c         0x00000000   Number         0  malloc.o ABSOLUTE
    ../clib/microlib/malloc/malloc.c         0x00000000   Number         0  mallocra.o ABSOLUTE
    ../clib/microlib/malloc/malloc.c         0x00000000   Number         0  mallocr.o ABSOLUTE
    ../clib/microlib/malloc/mvars.c          0x00000000   Number         0  mvars.o ABSOLUTE
    ../clib/microlib/printf/printf.c         0x00000000   Number         0  printfb.o ABSOLUTE
    ../clib/microlib/printf/printf.c         0x00000000   Number         0  printf4.o ABSOLUTE
    ../clib/microlib/printf/printf.c         0x00000000   Number         0  printf6.o ABSOLUTE
    ../clib/microlib/printf/printf.c         0x00000000   Number         0  printf0.o ABSOLUTE
    ../clib/microlib/printf/printf.c         0x00000000   Number         0  printf1.o ABSOLUTE
    ../clib/microlib/printf/printf.c         0x00000000   Number         0  printfa.o ABSOLUTE
    ../clib/microlib/printf/printf.c         0x00000000   Number         0  printf2.o ABSOLUTE
    ../clib/microlib/printf/printf.c         0x00000000   Number         0  printf5.o ABSOLUTE
    ../clib/microlib/printf/printf.c         0x00000000   Number         0  printf3.o ABSOLUTE
    ../clib/microlib/printf/printf.c         0x00000000   Number         0  printf8.o ABSOLUTE
    ../clib/microlib/printf/printf.c         0x00000000   Number         0  printf7.o ABSOLUTE
    ../clib/microlib/printf/stubs.s          0x00000000   Number         0  stubs.o ABSOLUTE
    ../clib/microlib/stdio/streams.c         0x00000000   Number         0  stdout.o ABSOLUTE
    ../clib/microlib/string/memcmp.c         0x00000000   Number         0  memcmp.o ABSOLUTE
    ../clib/microlib/string/memcpy.c         0x00000000   Number         0  memcpyb.o ABSOLUTE
    ../clib/microlib/string/memcpy.c         0x00000000   Number         0  memcpya.o ABSOLUTE
    ../clib/microlib/string/memset.c         0x00000000   Number         0  memseta.o ABSOLUTE
    ../clib/microlib/string/strcat.c         0x00000000   Number         0  strcat.o ABSOLUTE
    ../clib/microlib/string/strcmp.c         0x00000000   Number         0  strcmp.o ABSOLUTE
    ../clib/microlib/string/strcpy.c         0x00000000   Number         0  strcpy.o ABSOLUTE
    ../clib/microlib/string/strlen.c         0x00000000   Number         0  strlen.o ABSOLUTE
    ../clib/microlib/string/strncmp.c        0x00000000   Number         0  strncmp.o ABSOLUTE
    ../clib/microlib/string/strncpy.c        0x00000000   Number         0  strncpy.o ABSOLUTE
    ../clib/microlib/stubs.s                 0x00000000   Number         0  iusefp.o ABSOLUTE
    ../clib/microlib/time/localtime.c        0x00000000   Number         0  localtime_w.o ABSOLUTE
    ../clib/microlib/time/localtime.c        0x00000000   Number         0  localtime_i.o ABSOLUTE
    ../clib/microlib/time/mktime.c           0x00000000   Number         0  mktime.o ABSOLUTE
    ../clib/scanf.c                          0x00000000   Number         0  strtol.o ABSOLUTE
    ../clib/scanf.c                          0x00000000   Number         0  scanf_char.o ABSOLUTE
    ../clib/scanf.c                          0x00000000   Number         0  atoi.o ABSOLUTE
    ../clib/scanf.c                          0x00000000   Number         0  _chval.o ABSOLUTE
    ../clib/scanf.c                          0x00000000   Number         0  _scanf_int.o ABSOLUTE
    ../clib/scanf.c                          0x00000000   Number         0  _strtoul.o ABSOLUTE
    ../clib/scanf.c                          0x00000000   Number         0  _scanf.o ABSOLUTE
    ../clib/scanf.c                          0x00000000   Number         0  __0sscanf.o ABSOLUTE
    ../clib/scanf.c                          0x00000000   Number         0  _sgetc.o ABSOLUTE
    ../fplib/microlib/fpadd.c                0x00000000   Number         0  dadd.o ABSOLUTE
    ../fplib/microlib/fpdiv.c                0x00000000   Number         0  ddiv.o ABSOLUTE
    ../fplib/microlib/fpepilogue.c           0x00000000   Number         0  depilogue.o ABSOLUTE
    ../fplib/microlib/fpfix.c                0x00000000   Number         0  dfixui.o ABSOLUTE
    ../fplib/microlib/fpfix.c                0x00000000   Number         0  dfixul.o ABSOLUTE
    ../fplib/microlib/fpflt.c                0x00000000   Number         0  dfltui.o ABSOLUTE
    ../fplib/microlib/fpmul.c                0x00000000   Number         0  dmul.o ABSOLUTE
    ..\Core\Src\adc.c                        0x00000000   Number         0  adc.o ABSOLUTE
    ..\Core\Src\can.c                        0x00000000   Number         0  can.o ABSOLUTE
    ..\Core\Src\dma.c                        0x00000000   Number         0  dma.o ABSOLUTE
    ..\Core\Src\gpio.c                       0x00000000   Number         0  gpio.o ABSOLUTE
    ..\Core\Src\main.c                       0x00000000   Number         0  main.o ABSOLUTE
    ..\Core\Src\rtc.c                        0x00000000   Number         0  rtc.o ABSOLUTE
    ..\Core\Src\spi.c                        0x00000000   Number         0  spi.o ABSOLUTE
    ..\Core\Src\stm32f1xx_hal_msp.c          0x00000000   Number         0  stm32f1xx_hal_msp.o ABSOLUTE
    ..\Core\Src\stm32f1xx_hal_timebase_tim.c 0x00000000   Number         0  stm32f1xx_hal_timebase_tim.o ABSOLUTE
    ..\Core\Src\stm32f1xx_it.c               0x00000000   Number         0  stm32f1xx_it.o ABSOLUTE
    ..\Core\Src\syscall_armlibc.c            0x00000000   Number         0  syscall_armlibc.o ABSOLUTE
    ..\Core\Src\system_stm32f1xx.c           0x00000000   Number         0  system_stm32f1xx.o ABSOLUTE
    ..\Core\Src\usart.c                      0x00000000   Number         0  usart.o ABSOLUTE
    ..\Drivers\STM32F1xx_HAL_Driver\Src\stm32f1xx_hal.c 0x00000000   Number         0  stm32f1xx_hal.o ABSOLUTE
    ..\Drivers\STM32F1xx_HAL_Driver\Src\stm32f1xx_hal_adc.c 0x00000000   Number         0  stm32f1xx_hal_adc.o ABSOLUTE
    ..\Drivers\STM32F1xx_HAL_Driver\Src\stm32f1xx_hal_adc_ex.c 0x00000000   Number         0  stm32f1xx_hal_adc_ex.o ABSOLUTE
    ..\Drivers\STM32F1xx_HAL_Driver\Src\stm32f1xx_hal_can.c 0x00000000   Number         0  stm32f1xx_hal_can.o ABSOLUTE
    ..\Drivers\STM32F1xx_HAL_Driver\Src\stm32f1xx_hal_cortex.c 0x00000000   Number         0  stm32f1xx_hal_cortex.o ABSOLUTE
    ..\Drivers\STM32F1xx_HAL_Driver\Src\stm32f1xx_hal_dma.c 0x00000000   Number         0  stm32f1xx_hal_dma.o ABSOLUTE
    ..\Drivers\STM32F1xx_HAL_Driver\Src\stm32f1xx_hal_exti.c 0x00000000   Number         0  stm32f1xx_hal_exti.o ABSOLUTE
    ..\Drivers\STM32F1xx_HAL_Driver\Src\stm32f1xx_hal_flash.c 0x00000000   Number         0  stm32f1xx_hal_flash.o ABSOLUTE
    ..\Drivers\STM32F1xx_HAL_Driver\Src\stm32f1xx_hal_flash_ex.c 0x00000000   Number         0  stm32f1xx_hal_flash_ex.o ABSOLUTE
    ..\Drivers\STM32F1xx_HAL_Driver\Src\stm32f1xx_hal_gpio.c 0x00000000   Number         0  stm32f1xx_hal_gpio.o ABSOLUTE
    ..\Drivers\STM32F1xx_HAL_Driver\Src\stm32f1xx_hal_gpio_ex.c 0x00000000   Number         0  stm32f1xx_hal_gpio_ex.o ABSOLUTE
    ..\Drivers\STM32F1xx_HAL_Driver\Src\stm32f1xx_hal_pwr.c 0x00000000   Number         0  stm32f1xx_hal_pwr.o ABSOLUTE
    ..\Drivers\STM32F1xx_HAL_Driver\Src\stm32f1xx_hal_rcc.c 0x00000000   Number         0  stm32f1xx_hal_rcc.o ABSOLUTE
    ..\Drivers\STM32F1xx_HAL_Driver\Src\stm32f1xx_hal_rcc_ex.c 0x00000000   Number         0  stm32f1xx_hal_rcc_ex.o ABSOLUTE
    ..\Drivers\STM32F1xx_HAL_Driver\Src\stm32f1xx_hal_rtc.c 0x00000000   Number         0  stm32f1xx_hal_rtc.o ABSOLUTE
    ..\Drivers\STM32F1xx_HAL_Driver\Src\stm32f1xx_hal_rtc_ex.c 0x00000000   Number         0  stm32f1xx_hal_rtc_ex.o ABSOLUTE
    ..\Drivers\STM32F1xx_HAL_Driver\Src\stm32f1xx_hal_spi.c 0x00000000   Number         0  stm32f1xx_hal_spi.o ABSOLUTE
    ..\Drivers\STM32F1xx_HAL_Driver\Src\stm32f1xx_hal_tim.c 0x00000000   Number         0  stm32f1xx_hal_tim.o ABSOLUTE
    ..\Drivers\STM32F1xx_HAL_Driver\Src\stm32f1xx_hal_tim_ex.c 0x00000000   Number         0  stm32f1xx_hal_tim_ex.o ABSOLUTE
    ..\Drivers\STM32F1xx_HAL_Driver\Src\stm32f1xx_hal_uart.c 0x00000000   Number         0  stm32f1xx_hal_uart.o ABSOLUTE
    ..\FlashDB\fal\fal.c                     0x00000000   Number         0  fal.o ABSOLUTE
    ..\FlashDB\fal\fal_flash.c               0x00000000   Number         0  fal_flash.o ABSOLUTE
    ..\FlashDB\fal\fal_flash_sfud_port.c     0x00000000   Number         0  fal_flash_sfud_port.o ABSOLUTE
    ..\FlashDB\fal\fal_flash_stm32f1_port.c  0x00000000   Number         0  fal_flash_stm32f1_port.o ABSOLUTE
    ..\FlashDB\fal\fal_partition.c           0x00000000   Number         0  fal_partition.o ABSOLUTE
    ..\FlashDB\fal\fal_rtt.c                 0x00000000   Number         0  fal_rtt.o ABSOLUTE
    ..\FlashDB\flashDB\fdb.c                 0x00000000   Number         0  fdb.o ABSOLUTE
    ..\FlashDB\flashDB\fdb_kvdb.c            0x00000000   Number         0  fdb_kvdb.o ABSOLUTE
    ..\FlashDB\flashDB\fdb_tsdb.c            0x00000000   Number         0  fdb_tsdb.o ABSOLUTE
    ..\FlashDB\flashDB\fdb_utils.c           0x00000000   Number         0  fdb_utils.o ABSOLUTE
    ..\FlashDB\sfud\drv_spi_flash.c          0x00000000   Number         0  drv_spi_flash.o ABSOLUTE
    ..\FlashDB\sfud\sfud.c                   0x00000000   Number         0  sfud.o ABSOLUTE
    ..\FlashDB\sfud\sfud_port.c              0x00000000   Number         0  sfud_port.o ABSOLUTE
    ..\FlashDB\sfud\sfud_sfdp.c              0x00000000   Number         0  sfud_sfdp.o ABSOLUTE
    ..\Middlewares\Third_Party\RealThread_RTOS\bsp\_template\cubemx_config\board.c 0x00000000   Number         0  board.o ABSOLUTE
    ..\\Core\\Src\\syscall_armlibc.c         0x00000000   Number         0  syscall_armlibc.o ABSOLUTE
    ..\\FlashDB\\fal\\fal_flash_stm32f1_port.c 0x00000000   Number         0  fal_flash_stm32f1_port.o ABSOLUTE
    ..\\FlashDB\\sfud\\sfud_port.c           0x00000000   Number         0  sfud_port.o ABSOLUTE
    ..\\function\\board\\CH395\\CH395.c      0x00000000   Number         0  ch395.o ABSOLUTE
    ..\\function\\board\\CH395\\network.c    0x00000000   Number         0  network.o ABSOLUTE
    ..\\function\\board\\general.c           0x00000000   Number         0  general.o ABSOLUTE
    ..\\function\\board\\myboard.c           0x00000000   Number         0  myboard.o ABSOLUTE
    ..\\function\\charge\\ChargeRun.c        0x00000000   Number         0  chargerun.o ABSOLUTE
    ..\\function\\charge\\TransportProtocol.c 0x00000000   Number         0  transportprotocol.o ABSOLUTE
    ..\\function\\charge\\bms.c              0x00000000   Number         0  bms.o ABSOLUTE
    ..\\function\\charge\\dc_module.c        0x00000000   Number         0  dc_module.o ABSOLUTE
    ..\\function\\charge\\electric.c         0x00000000   Number         0  electric.o ABSOLUTE
    ..\\function\\charge\\gun.c              0x00000000   Number         0  gun.o ABSOLUTE
    ..\\function\\charge\\insulation.c       0x00000000   Number         0  insulation.o ABSOLUTE
    ..\\function\\charge\\led.c              0x00000000   Number         0  led.o ABSOLUTE
    ..\\function\\charge\\scram.c            0x00000000   Number         0  scram.o ABSOLUTE
    ..\\function\\ctrl\\ChargeCtrl.c         0x00000000   Number         0  chargectrl.o ABSOLUTE
    ..\\function\\ctrl\\NetPort.c            0x00000000   Number         0  netport.o ABSOLUTE
    ..\\function\\ctrl\\PowerDivider.c       0x00000000   Number         0  powerdivider.o ABSOLUTE
    ..\\function\\ctrl\\card.c               0x00000000   Number         0  card.o ABSOLUTE
    ..\\function\\ctrl\\dtu.c                0x00000000   Number         0  dtu.o ABSOLUTE
    ..\\function\\ctrl\\screen.c             0x00000000   Number         0  screen.o ABSOLUTE
    ..\\function\\module\\DCM3366D.c         0x00000000   Number         0  dcm3366d.o ABSOLUTE
    ..\\function\\module\\DJSU800X.c         0x00000000   Number         0  djsu800x.o ABSOLUTE
    ..\\function\\module\\DJZ1226.c          0x00000000   Number         0  djz1226.o ABSOLUTE
    ..\\function\\module\\GY_DCGUBC1LZ.c     0x00000000   Number         0  gy_dcgubc1lz.o ABSOLUTE
    ..\\function\\module\\IM1253E.c          0x00000000   Number         0  im1253e.o ABSOLUTE
    ..\\function\\module\\ModuleConfig.c     0x00000000   Number         0  moduleconfig.o ABSOLUTE
    ..\\function\\module\\TongHe_dcm.c       0x00000000   Number         0  tonghe_dcm.o ABSOLUTE
    ..\\function\\module\\YongLian_dcm.c     0x00000000   Number         0  yonglian_dcm.o ABSOLUTE
    ..\\function\\npcharge\\FunctionNegotiation.c 0x00000000   Number         0  functionnegotiation.o ABSOLUTE
    ..\\function\\npcharge\\GBT_VerNeg.c     0x00000000   Number         0  gbt_verneg_1.o ABSOLUTE
    ..\function\board\CH395\CH395.c          0x00000000   Number         0  ch395.o ABSOLUTE
    ..\function\board\CH395\network.c        0x00000000   Number         0  network.o ABSOLUTE
    ..\function\board\flashDB_app.c          0x00000000   Number         0  flashdb_app.o ABSOLUTE
    ..\function\board\general.c              0x00000000   Number         0  general.o ABSOLUTE
    ..\function\board\myboard.c              0x00000000   Number         0  myboard.o ABSOLUTE
    ..\function\charge\ChargeRun.c           0x00000000   Number         0  chargerun.o ABSOLUTE
    ..\function\charge\TransportProtocol.c   0x00000000   Number         0  transportprotocol.o ABSOLUTE
    ..\function\charge\bms.c                 0x00000000   Number         0  bms.o ABSOLUTE
    ..\function\charge\consume.c             0x00000000   Number         0  consume.o ABSOLUTE
    ..\function\charge\dc_module.c           0x00000000   Number         0  dc_module.o ABSOLUTE
    ..\function\charge\electric.c            0x00000000   Number         0  electric.o ABSOLUTE
    ..\function\charge\gun.c                 0x00000000   Number         0  gun.o ABSOLUTE
    ..\function\charge\insulation.c          0x00000000   Number         0  insulation.o ABSOLUTE
    ..\function\charge\led.c                 0x00000000   Number         0  led.o ABSOLUTE
    ..\function\charge\scram.c               0x00000000   Number         0  scram.o ABSOLUTE
    ..\function\ctrl\ChargeCtrl.c            0x00000000   Number         0  chargectrl.o ABSOLUTE
    ..\function\ctrl\NetPort.c               0x00000000   Number         0  netport.o ABSOLUTE
    ..\function\ctrl\PowerDivider.c          0x00000000   Number         0  powerdivider.o ABSOLUTE
    ..\function\ctrl\card.c                  0x00000000   Number         0  card.o ABSOLUTE
    ..\function\ctrl\dtu.c                   0x00000000   Number         0  dtu.o ABSOLUTE
    ..\function\ctrl\screen.c                0x00000000   Number         0  screen.o ABSOLUTE
    ..\function\module\DCM3366D.c            0x00000000   Number         0  dcm3366d.o ABSOLUTE
    ..\function\module\DJSU800X.c            0x00000000   Number         0  djsu800x.o ABSOLUTE
    ..\function\module\DJZ1226.c             0x00000000   Number         0  djz1226.o ABSOLUTE
    ..\function\module\GY_DCGUBC1LZ.c        0x00000000   Number         0  gy_dcgubc1lz.o ABSOLUTE
    ..\function\module\IM1253E.c             0x00000000   Number         0  im1253e.o ABSOLUTE
    ..\function\module\ModuleConfig.c        0x00000000   Number         0  moduleconfig.o ABSOLUTE
    ..\function\module\TongHe_dcm.c          0x00000000   Number         0  tonghe_dcm.o ABSOLUTE
    ..\function\module\YongLian_dcm.c        0x00000000   Number         0  yonglian_dcm.o ABSOLUTE
    ..\function\npcharge\FunctionNegotiation.c 0x00000000   Number         0  functionnegotiation.o ABSOLUTE
    ..\function\npcharge\GBT_VerNeg.c        0x00000000   Number         0  gbt_verneg_1.o ABSOLUTE
    ..\function\npcharge\application_layer.c 0x00000000   Number         0  application_layer.o ABSOLUTE
    ..\function\npcharge\charger_protocol.c  0x00000000   Number         0  charger_protocol.o ABSOLUTE
    cdcmple.s                                0x00000000   Number         0  cdcmple.o ABSOLUTE
    cdrcmple.s                               0x00000000   Number         0  cdrcmple.o ABSOLUTE
    dc.s                                     0x00000000   Number         0  dc.o ABSOLUTE
    handlers.s                               0x00000000   Number         0  handlers.o ABSOLUTE
    init.s                                   0x00000000   Number         0  init.o ABSOLUTE
    startup_stm32f107xc.s                    0x00000000   Number         0  startup_stm32f107xc.o ABSOLUTE
    RESET                                    0x08000000   Section      336  startup_stm32f107xc.o(RESET)
    .ARM.Collect$$$$00000000                 0x08000150   Section        0  entry.o(.ARM.Collect$$$$00000000)
    .ARM.Collect$$$$00000001                 0x08000150   Section        4  entry2.o(.ARM.Collect$$$$00000001)
    .ARM.Collect$$$$00000004                 0x08000154   Section        4  entry5.o(.ARM.Collect$$$$00000004)
    .ARM.Collect$$$$00000008                 0x08000158   Section        0  entry7b.o(.ARM.Collect$$$$00000008)
    .ARM.Collect$$$$0000000A                 0x08000158   Section        0  entry8b.o(.ARM.Collect$$$$0000000A)
    .ARM.Collect$$$$0000000B                 0x08000158   Section        8  entry9a.o(.ARM.Collect$$$$0000000B)
    .ARM.Collect$$$$0000000D                 0x08000160   Section        0  entry10a.o(.ARM.Collect$$$$0000000D)
    .ARM.Collect$$$$0000000F                 0x08000160   Section        0  entry11a.o(.ARM.Collect$$$$0000000F)
    .ARM.Collect$$$$00002712                 0x08000160   Section        4  entry2.o(.ARM.Collect$$$$00002712)
    __lit__00000000                          0x08000160   Data           4  entry2.o(.ARM.Collect$$$$00002712)
    .text                                    0x08000164   Section       36  startup_stm32f107xc.o(.text)
    .text                                    0x08000188   Section      244  context_rvds.o(.text)
    .text                                    0x0800027c   Section        0  uldiv.o(.text)
    .text                                    0x080002de   Section        0  llushr.o(.text)
    .text                                    0x08000300   Section        0  mktime.o(.text)
    .text                                    0x080003a8   Section        0  memcpya.o(.text)
    .text                                    0x080003cc   Section        0  memseta.o(.text)
    .text                                    0x080003f0   Section        0  strcat.o(.text)
    .text                                    0x08000408   Section        0  strncpy.o(.text)
    .text                                    0x08000420   Section        0  strlen.o(.text)
    .text                                    0x0800042e   Section        0  strcmp.o(.text)
    .text                                    0x0800044a   Section        0  memcmp.o(.text)
    .text                                    0x08000464   Section        0  strcpy.o(.text)
    .text                                    0x08000476   Section        0  strncmp.o(.text)
    .text                                    0x08000494   Section        0  __0sscanf.o(.text)
    .text                                    0x080004cc   Section        0  _scanf_int.o(.text)
    .text                                    0x08000618   Section        0  atoi.o(.text)
    .text                                    0x08000632   Section        0  dadd.o(.text)
    .text                                    0x08000780   Section        0  dmul.o(.text)
    .text                                    0x08000864   Section        0  ddiv.o(.text)
    .text                                    0x08000942   Section        0  dfltui.o(.text)
    .text                                    0x0800095c   Section        0  dfixui.o(.text)
    .text                                    0x08000990   Section       48  cdcmple.o(.text)
    .text                                    0x080009c0   Section       48  cdrcmple.o(.text)
    .text                                    0x080009f0   Section        0  uidiv.o(.text)
    .text                                    0x08000a1c   Section        0  llshl.o(.text)
    .text                                    0x08000a3a   Section        0  llsshr.o(.text)
    .text                                    0x08000a60   Section        0  localtime_i.o(.text)
    .text                                    0x08000aec   Section        0  _chval.o(.text)
    .text                                    0x08000b08   Section        0  scanf_char.o(.text)
    _scanf_char_input                        0x08000b09   Thumb Code    12  scanf_char.o(.text)
    .text                                    0x08000b30   Section        0  _sgetc.o(.text)
    .text                                    0x08000b70   Section        0  strtol.o(.text)
    .text                                    0x08000be0   Section        0  depilogue.o(.text)
    .text                                    0x08000be0   Section        0  iusefp.o(.text)
    .text                                    0x08000c9a   Section        0  dfixul.o(.text)
    .text                                    0x08000ccc   Section       36  init.o(.text)
    .text                                    0x08000cf0   Section        0  ctype_o.o(.text)
    .text                                    0x08000cf8   Section        0  isspace_o.o(.text)
    .text                                    0x08000d0c   Section        0  _scanf.o(.text)
    .text                                    0x08001038   Section        0  _strtoul.o(.text)
    .text                                    0x080010d6   Section        0  __dczerorl2.o(.text)
    i.$Sub$$main                             0x0800112c   Section        0  components.o(i.$Sub$$main)
    i.ADC_ConversionStop_Disable             0x08001136   Section        0  stm32f1xx_hal_adc.o(i.ADC_ConversionStop_Disable)
    i.ADC_DMAConvCplt                        0x08001192   Section        0  stm32f1xx_hal_adc.o(i.ADC_DMAConvCplt)
    i.ADC_DMAError                           0x080011e4   Section        0  stm32f1xx_hal_adc.o(i.ADC_DMAError)
    i.ADC_DMAHalfConvCplt                    0x08001202   Section        0  stm32f1xx_hal_adc.o(i.ADC_DMAHalfConvCplt)
    i.ADC_Enable                             0x08001210   Section        0  stm32f1xx_hal_adc.o(i.ADC_Enable)
    i.BMS_CanSendData                        0x080012a0   Section        0  bms.o(i.BMS_CanSendData)
    i.BMS_PileRece                           0x0800130c   Section        0  bms.o(i.BMS_PileRece)
    i.BMS_PileSend                           0x080015b6   Section        0  bms.o(i.BMS_PileSend)
    i.BMS_SendData                           0x08001958   Section        0  bms.o(i.BMS_SendData)
    i.BcdToDec                               0x08001978   Section        0  general.o(i.BcdToDec)
    i.Boot_ChangeFileRunFlag                 0x0800199c   Section        0  general.o(i.Boot_ChangeFileRunFlag)
    i.Boot_ReplyData                         0x08001ac0   Section        0  dtu.o(i.Boot_ReplyData)
    i.Boot_SendData                          0x08001ba0   Section        0  dtu.o(i.Boot_SendData)
    i.BusFault_Handler                       0x08001bb8   Section        0  stm32f1xx_it.o(i.BusFault_Handler)
    i.CAN1_RX0_IRQHandler                    0x08001bbc   Section        0  stm32f1xx_it.o(i.CAN1_RX0_IRQHandler)
    i.CAN2_RX0_IRQHandler                    0x08001bcc   Section        0  stm32f1xx_it.o(i.CAN2_RX0_IRQHandler)
    i.CH395CMDCheckExist                     0x08001bdc   Section        0  ch395.o(i.CH395CMDCheckExist)
    i.CH395CMDGetPHYStatus                   0x08001bfc   Section        0  ch395.o(i.CH395CMDGetPHYStatus)
    i.CH395CMDGetUnreachIPPT                 0x08001c14   Section        0  ch395.o(i.CH395CMDGetUnreachIPPT)
    i.CH395CMDInitCH395                      0x08001c3a   Section        0  ch395.o(i.CH395CMDInitCH395)
    i.CH395CMDReset                          0x08001c78   Section        0  ch395.o(i.CH395CMDReset)
    i.CH395CMDSetGWIPAddr                    0x08001c8e   Section        0  ch395.o(i.CH395CMDSetGWIPAddr)
    i.CH395CMDSetIPAddr                      0x08001cb2   Section        0  ch395.o(i.CH395CMDSetIPAddr)
    i.CH395CMDSetMASKAddr                    0x08001cd6   Section        0  ch395.o(i.CH395CMDSetMASKAddr)
    i.CH395CloseSocket                       0x08001cfc   Section        0  ch395.o(i.CH395CloseSocket)
    i.CH395DHCPEnable                        0x08001d44   Section        0  ch395.o(i.CH395DHCPEnable)
    i.CH395GetCmdStatus                      0x08001d8a   Section        0  ch395.o(i.CH395GetCmdStatus)
    i.CH395GetDHCPStatus                     0x08001da2   Section        0  ch395.o(i.CH395GetDHCPStatus)
    i.CH395GetRecvData                       0x08001dc0   Section        0  ch395.o(i.CH395GetRecvData)
    i.CH395GetRecvLength                     0x08001e04   Section        0  ch395.o(i.CH395GetRecvLength)
    i.CH395GetSocketInt                      0x08001e2e   Section        0  ch395.o(i.CH395GetSocketInt)
    i.CH395Init                              0x08001e54   Section        0  ch395.o(i.CH395Init)
    i.CH395OpenSocket                        0x08001ea0   Section        0  ch395.o(i.CH395OpenSocket)
    i.CH395SetSocketDesIP                    0x08001ee8   Section        0  ch395.o(i.CH395SetSocketDesIP)
    i.CH395SetSocketDesPort                  0x08001f1a   Section        0  ch395.o(i.CH395SetSocketDesPort)
    i.CH395SetSocketProtType                 0x08001f40   Section        0  ch395.o(i.CH395SetSocketProtType)
    i.CH395TCPConnect                        0x08001f60   Section        0  ch395.o(i.CH395TCPConnect)
    i.CH395TCPListen                         0x08001fa8   Section        0  ch395.o(i.CH395TCPListen)
    i.CH395_GetVer                           0x08001ff0   Section        0  ch395.o(i.CH395_GetVer)
    i.CH395_ReadByte                         0x08002008   Section        0  ch395.o(i.CH395_ReadByte)
    i.CH395_SPI_Init                         0x08002012   Section        0  ch395.o(i.CH395_SPI_Init)
    i.CH395_SendData                         0x08002026   Section        0  ch395.o(i.CH395_SendData)
    i.CH395_WriteByte                        0x08002066   Section        0  ch395.o(i.CH395_WriteByte)
    i.CH395_WriteCmd                         0x08002072   Section        0  ch395.o(i.CH395_WriteCmd)
    i.CH395_init                             0x08002098   Section        0  ch395.o(i.CH395_init)
    i.CH395_run                              0x08002138   Section        0  ch395.o(i.CH395_run)
    i.CardActivate                           0x0800215c   Section        0  card.o(i.CardActivate)
    i.CardBuzzer                             0x08002168   Section        0  card.o(i.CardBuzzer)
    i.CardCheckLeave                         0x08002178   Section        0  card.o(i.CardCheckLeave)
    i.CardComm_Send                          0x0800219c   Section        0  card.o(i.CardComm_Send)
    i.CardOperate                            0x080021cc   Section        0  card.o(i.CardOperate)
    i.CardProtocolProcess                    0x08002618   Section        0  card.o(i.CardProtocolProcess)
    i.CardReadMoney                          0x080026a0   Section        0  card.o(i.CardReadMoney)
    i.CardReadMoneySucceedCallback           0x080026b0   Section        0  card.o(i.CardReadMoneySucceedCallback)
    i.CardReadUserNum                        0x08003a08   Section        0  card.o(i.CardReadUserNum)
    i.CardWriteMoney                         0x08003a18   Section        0  card.o(i.CardWriteMoney)
    i.CardWriteMoneySucceedCallback          0x08003a28   Section        0  card.o(i.CardWriteMoneySucceedCallback)
    i.Card_IdleDmacallback_handler           0x08003e7c   Section        0  card.o(i.Card_IdleDmacallback_handler)
    i.ChargeCtrl_ChargeLineOff               0x08003f08   Section        0  chargerun.o(i.ChargeCtrl_ChargeLineOff)
    i.ChargeCtrl_ChargeStart                 0x08003f20   Section        0  chargectrl.o(i.ChargeCtrl_ChargeStart)
    i.ChargeCtrl_ChargeStop                  0x080043ac   Section        0  chargectrl.o(i.ChargeCtrl_ChargeStop)
    i.ChargeCtrl_CheckPileStop               0x08004780   Section        0  chargectrl.o(i.ChargeCtrl_CheckPileStop)
    i.ChargeCtrl_CheckTimeOut                0x0800478c   Section        0  chargerun.o(i.ChargeCtrl_CheckTimeOut)
    i.ChargeCtrl_Led                         0x0800479c   Section        0  chargerun.o(i.ChargeCtrl_Led)
    i.ChargeCtrl_OutVoltageUpdata            0x08004874   Section        0  chargerun.o(i.ChargeCtrl_OutVoltageUpdata)
    i.ChargeCtrl_PileBmsChargeDataInit       0x080048a8   Section        0  chargerun.o(i.ChargeCtrl_PileBmsChargeDataInit)
    i.ChargeCtrl_PileCtrlDataInit            0x080049d4   Section        0  chargerun.o(i.ChargeCtrl_PileCtrlDataInit)
    i.ChargeCtrl_PileIdentifyCar             0x08004a24   Section        0  chargerun.o(i.ChargeCtrl_PileIdentifyCar)
    i.ChargeCtrl_PileInsuCheck               0x08004b48   Section        0  chargerun.o(i.ChargeCtrl_PileInsuCheck)
    i.ChargeCtrl_PilePeriodSend              0x08005104   Section        0  chargerun.o(i.ChargeCtrl_PilePeriodSend)
    i.ChargeCtrl_PilePrechargeTest           0x0800514c   Section        0  chargerun.o(i.ChargeCtrl_PilePrechargeTest)
    i.ChargeCtrl_PileProcess                 0x0800559c   Section        0  chargerun.o(i.ChargeCtrl_PileProcess)
    i.ChargeCtrl_RxBCLProcess                0x08005a24   Section        0  chargerun.o(i.ChargeCtrl_RxBCLProcess)
    i.ChargeCtrl_RxBCPProcess                0x08005b14   Section        0  chargerun.o(i.ChargeCtrl_RxBCPProcess)
    i.ChargeCtrl_RxBCSProcess                0x08005bcc   Section        0  chargerun.o(i.ChargeCtrl_RxBCSProcess)
    i.ChargeCtrl_RxBEMProcess                0x08005ce8   Section        0  chargerun.o(i.ChargeCtrl_RxBEMProcess)
    i.ChargeCtrl_RxBHMProcess                0x08005d48   Section        0  chargerun.o(i.ChargeCtrl_RxBHMProcess)
    i.ChargeCtrl_RxBRMProcess                0x08005e1c   Section        0  chargerun.o(i.ChargeCtrl_RxBRMProcess)
    i.ChargeCtrl_RxBROProcess                0x08005ed0   Section        0  chargerun.o(i.ChargeCtrl_RxBROProcess)
    i.ChargeCtrl_RxBSDProcess                0x0800604c   Section        0  chargerun.o(i.ChargeCtrl_RxBSDProcess)
    i.ChargeCtrl_RxBSMProcess                0x080060ac   Section        0  chargerun.o(i.ChargeCtrl_RxBSMProcess)
    i.ChargeCtrl_RxBSTProcess                0x08006258   Section        0  chargerun.o(i.ChargeCtrl_RxBSTProcess)
    i.ChargeCtrl_ScramCheck                  0x080062d8   Section        0  chargerun.o(i.ChargeCtrl_ScramCheck)
    i.ChargeCtrl_SetPay                      0x08006338   Section        0  chargectrl.o(i.ChargeCtrl_SetPay)
    i.ChargeCtrl_StartCheck                  0x0800637c   Section        0  chargerun.o(i.ChargeCtrl_StartCheck)
    i.ChargeCtrl_StopChargeVoltageOut        0x080064c4   Section        0  chargerun.o(i.ChargeCtrl_StopChargeVoltageOut)
    i.ChargeCtrl_UpdataMyMsg                 0x080064cc   Section        0  chargectrl.o(i.ChargeCtrl_UpdataMyMsg)
    i.ChargeCtrl_task_init                   0x0800664c   Section        0  chargectrl.o(i.ChargeCtrl_task_init)
    i.ChargeMoneyCal                         0x080066d4   Section        0  chargerun.o(i.ChargeMoneyCal)
    i.ChargeRnn_ChargeStepCtrl               0x080069e4   Section        0  chargerun.o(i.ChargeRnn_ChargeStepCtrl)
    i.CostData_Init                          0x08006b04   Section        0  consume.o(i.CostData_Init)
    i.Cost_Cal                               0x08006b70   Section        0  consume.o(i.Cost_Cal)
    i.Cost_Fit                               0x08006bb2   Section        0  consume.o(i.Cost_Fit)
    i.Cost_TimeShare                         0x08006bf8   Section        0  consume.o(i.Cost_TimeShare)
    i.DCM_CanSendData                        0x08006e90   Section        0  dc_module.o(i.DCM_CanSendData)
    i.DCM_Heart                              0x08006ecc   Section        0  dc_module.o(i.DCM_Heart)
    i.DCM_OutputForInsuCheck                 0x08006edc   Section        0  dc_module.o(i.DCM_OutputForInsuCheck)
    i.DCM_OutputForPrecharge                 0x08006ef8   Section        0  dc_module.o(i.DCM_OutputForPrecharge)
    i.DCM_OutputStart                        0x08006f14   Section        0  dc_module.o(i.DCM_OutputStart)
    i.DCM_OutputStop                         0x08006f30   Section        0  dc_module.o(i.DCM_OutputStop)
    i.DCM_OutputUpdata                       0x08006f48   Section        0  dc_module.o(i.DCM_OutputUpdata)
    i.DCM_ProcessCmd                         0x08006f64   Section        0  dc_module.o(i.DCM_ProcessCmd)
    i.DCM_SendCmd                            0x08006f80   Section        0  dc_module.o(i.DCM_SendCmd)
    i.DCM_SendPeriodHeart                    0x08006f90   Section        0  dc_module.o(i.DCM_SendPeriodHeart)
    i.DMA1_Channel1_IRQHandler               0x08006fb0   Section        0  stm32f1xx_it.o(i.DMA1_Channel1_IRQHandler)
    i.DMA1_Channel2_IRQHandler               0x08006fc0   Section        0  stm32f1xx_it.o(i.DMA1_Channel2_IRQHandler)
    i.DMA1_Channel3_IRQHandler               0x08006fd0   Section        0  stm32f1xx_it.o(i.DMA1_Channel3_IRQHandler)
    i.DMA1_Channel4_IRQHandler               0x08006fe0   Section        0  stm32f1xx_it.o(i.DMA1_Channel4_IRQHandler)
    i.DMA1_Channel5_IRQHandler               0x08006ff0   Section        0  stm32f1xx_it.o(i.DMA1_Channel5_IRQHandler)
    i.DMA1_Channel6_IRQHandler               0x08007000   Section        0  stm32f1xx_it.o(i.DMA1_Channel6_IRQHandler)
    i.DMA1_Channel7_IRQHandler               0x08007010   Section        0  stm32f1xx_it.o(i.DMA1_Channel7_IRQHandler)
    i.DMA2_Channel3_IRQHandler               0x08007020   Section        0  stm32f1xx_it.o(i.DMA2_Channel3_IRQHandler)
    i.DMA2_Channel5_IRQHandler               0x08007030   Section        0  stm32f1xx_it.o(i.DMA2_Channel5_IRQHandler)
    i.DMA_SetConfig                          0x08007040   Section        0  stm32f1xx_hal_dma.o(i.DMA_SetConfig)
    DMA_SetConfig                            0x08007041   Thumb Code    44  stm32f1xx_hal_dma.o(i.DMA_SetConfig)
    i.DcmConfig_ProcessCmd                   0x0800706c   Section        0  moduleconfig.o(i.DcmConfig_ProcessCmd)
    i.DcmConfig_SendCmd                      0x080070b0   Section        0  moduleconfig.o(i.DcmConfig_SendCmd)
    i.DebugMon_Handler                       0x080070e0   Section        0  stm32f1xx_it.o(i.DebugMon_Handler)
    i.DecToBcd                               0x080070e2   Section        0  general.o(i.DecToBcd)
    i.DtuComm_AddList                        0x08007114   Section        0  dtu.o(i.DtuComm_AddList)
    i.DtuComm_Send                           0x08007160   Section        0  dtu.o(i.DtuComm_Send)
    i.DtuComm_SendList                       0x08007198   Section        0  dtu.o(i.DtuComm_SendList)
    i.DtuDataProcess                         0x08007224   Section        0  dtu.o(i.DtuDataProcess)
    i.DtuProtocolProcess                     0x080091a4   Section        0  dtu.o(i.DtuProtocolProcess)
    i.Dtu_CheckPileStop                      0x08009374   Section        0  dtu.o(i.Dtu_CheckPileStop)
    i.Dtu_IdleDmacallback_handler            0x080095f8   Section        0  dtu.o(i.Dtu_IdleDmacallback_handler)
    i.Dtu_Register_run                       0x080096ac   Section        0  dtu.o(i.Dtu_Register_run)
    i.Dtu_SendAskRateReply                   0x08009d80   Section        0  dtu.o(i.Dtu_SendAskRateReply)
    i.Dtu_SendBill                           0x08009d9c   Section        0  dtu.o(i.Dtu_SendBill)
    i.Dtu_SendBillCmd                        0x08009dc4   Section        0  dtu.o(i.Dtu_SendBillCmd)
    i.Dtu_SendHeart                          0x0800a6bc   Section        0  dtu.o(i.Dtu_SendHeart)
    i.Dtu_SendHeartCmd                       0x0800a6d8   Section        0  dtu.o(i.Dtu_SendHeartCmd)
    i.Dtu_SendNet                            0x0800abdc   Section        0  dtu.o(i.Dtu_SendNet)
    i.Dtu_SendRegist                         0x0800ac48   Section        0  dtu.o(i.Dtu_SendRegist)
    i.Dtu_SendRegistCmd                      0x0800ac64   Section        0  dtu.o(i.Dtu_SendRegistCmd)
    i.Dtu_SendRestartReply                   0x0800adf4   Section        0  dtu.o(i.Dtu_SendRestartReply)
    i.Dtu_SendSetRateReply                   0x0800ae06   Section        0  dtu.o(i.Dtu_SendSetRateReply)
    i.Dtu_SendSetTimeReply                   0x0800ae20   Section        0  dtu.o(i.Dtu_SendSetTimeReply)
    i.Dtu_SendStartReply                     0x0800ae3a   Section        0  dtu.o(i.Dtu_SendStartReply)
    i.Dtu_SendStopCmdReplay                  0x0800ae58   Section        0  dtu.o(i.Dtu_SendStopCmdReplay)
    i.Dtu_SendStopReply                      0x0800b0c0   Section        0  dtu.o(i.Dtu_SendStopReply)
    i.ElecComm_Send                          0x0800b0dc   Section        0  electric.o(i.ElecComm_Send)
    i.ElecConfig_DataProcess                 0x0800b10c   Section        0  moduleconfig.o(i.ElecConfig_DataProcess)
    i.ElecConfig_ReadData                    0x0800b158   Section        0  moduleconfig.o(i.ElecConfig_ReadData)
    i.ElecPeriodReadData                     0x0800b164   Section        0  electric.o(i.ElecPeriodReadData)
    i.ElecProtocolProcess                    0x0800b184   Section        0  electric.o(i.ElecProtocolProcess)
    i.ElecReadData                           0x0800b1a4   Section        0  electric.o(i.ElecReadData)
    i.Elec_IdleDmaCallback                   0x0800b1b0   Section        0  electric.o(i.Elec_IdleDmaCallback)
    i.Error_Handler                          0x0800b208   Section        0  main.o(i.Error_Handler)
    i.FLASH_MassErase                        0x0800b210   Section        0  stm32f1xx_hal_flash_ex.o(i.FLASH_MassErase)
    FLASH_MassErase                          0x0800b211   Thumb Code    30  stm32f1xx_hal_flash_ex.o(i.FLASH_MassErase)
    i.FLASH_PageErase                        0x0800b238   Section        0  stm32f1xx_hal_flash_ex.o(i.FLASH_PageErase)
    i.FLASH_Program_HalfWord                 0x0800b260   Section        0  stm32f1xx_hal_flash.o(i.FLASH_Program_HalfWord)
    FLASH_Program_HalfWord                   0x0800b261   Thumb Code    22  stm32f1xx_hal_flash.o(i.FLASH_Program_HalfWord)
    i.FLASH_SetErrorCode                     0x0800b280   Section        0  stm32f1xx_hal_flash.o(i.FLASH_SetErrorCode)
    FLASH_SetErrorCode                       0x0800b281   Thumb Code   124  stm32f1xx_hal_flash.o(i.FLASH_SetErrorCode)
    i.FLASH_WaitForLastOperation             0x0800b304   Section        0  stm32f1xx_hal_flash.o(i.FLASH_WaitForLastOperation)
    i.GY_ReceProcess                         0x0800b374   Section        0  gy_dcgubc1lz.o(i.GY_ReceProcess)
    i.GY_SendCmd                             0x0800b3ac   Section        0  gy_dcgubc1lz.o(i.GY_SendCmd)
    i.Gun_init                               0x0800b414   Section        0  gun.o(i.Gun_init)
    i.HAL_ADC_ConfigChannel                  0x0800b430   Section        0  stm32f1xx_hal_adc.o(i.HAL_ADC_ConfigChannel)
    i.HAL_ADC_ConvCpltCallback               0x0800b590   Section        0  stm32f1xx_hal_adc.o(i.HAL_ADC_ConvCpltCallback)
    i.HAL_ADC_ConvHalfCpltCallback           0x0800b592   Section        0  stm32f1xx_hal_adc.o(i.HAL_ADC_ConvHalfCpltCallback)
    i.HAL_ADC_ErrorCallback                  0x0800b594   Section        0  stm32f1xx_hal_adc.o(i.HAL_ADC_ErrorCallback)
    i.HAL_ADC_Init                           0x0800b598   Section        0  stm32f1xx_hal_adc.o(i.HAL_ADC_Init)
    i.HAL_ADC_MspInit                        0x0800b6dc   Section        0  adc.o(i.HAL_ADC_MspInit)
    i.HAL_ADC_Start_DMA                      0x0800b788   Section        0  stm32f1xx_hal_adc.o(i.HAL_ADC_Start_DMA)
    i.HAL_CAN_ActivateNotification           0x0800b908   Section        0  stm32f1xx_hal_can.o(i.HAL_CAN_ActivateNotification)
    i.HAL_CAN_AddTxMessage                   0x0800b932   Section        0  stm32f1xx_hal_can.o(i.HAL_CAN_AddTxMessage)
    i.HAL_CAN_ConfigFilter                   0x0800ba7c   Section        0  stm32f1xx_hal_can.o(i.HAL_CAN_ConfigFilter)
    i.HAL_CAN_ErrorCallback                  0x0800bba0   Section        0  stm32f1xx_hal_can.o(i.HAL_CAN_ErrorCallback)
    i.HAL_CAN_GetRxMessage                   0x0800bba2   Section        0  stm32f1xx_hal_can.o(i.HAL_CAN_GetRxMessage)
    i.HAL_CAN_IRQHandler                     0x0800bd36   Section        0  stm32f1xx_hal_can.o(i.HAL_CAN_IRQHandler)
    i.HAL_CAN_Init                           0x0800bf84   Section        0  stm32f1xx_hal_can.o(i.HAL_CAN_Init)
    i.HAL_CAN_MspInit                        0x0800c0f8   Section        0  can.o(i.HAL_CAN_MspInit)
    i.HAL_CAN_RxFifo0FullCallback            0x0800c27c   Section        0  stm32f1xx_hal_can.o(i.HAL_CAN_RxFifo0FullCallback)
    i.HAL_CAN_RxFifo0MsgPendingCallback      0x0800c280   Section        0  bms.o(i.HAL_CAN_RxFifo0MsgPendingCallback)
    i.HAL_CAN_RxFifo1FullCallback            0x0800c318   Section        0  stm32f1xx_hal_can.o(i.HAL_CAN_RxFifo1FullCallback)
    i.HAL_CAN_RxFifo1MsgPendingCallback      0x0800c31a   Section        0  stm32f1xx_hal_can.o(i.HAL_CAN_RxFifo1MsgPendingCallback)
    i.HAL_CAN_SleepCallback                  0x0800c31c   Section        0  stm32f1xx_hal_can.o(i.HAL_CAN_SleepCallback)
    i.HAL_CAN_Start                          0x0800c31e   Section        0  stm32f1xx_hal_can.o(i.HAL_CAN_Start)
    i.HAL_CAN_TxMailbox0AbortCallback        0x0800c37c   Section        0  stm32f1xx_hal_can.o(i.HAL_CAN_TxMailbox0AbortCallback)
    i.HAL_CAN_TxMailbox0CompleteCallback     0x0800c37e   Section        0  stm32f1xx_hal_can.o(i.HAL_CAN_TxMailbox0CompleteCallback)
    i.HAL_CAN_TxMailbox1AbortCallback        0x0800c380   Section        0  stm32f1xx_hal_can.o(i.HAL_CAN_TxMailbox1AbortCallback)
    i.HAL_CAN_TxMailbox1CompleteCallback     0x0800c382   Section        0  stm32f1xx_hal_can.o(i.HAL_CAN_TxMailbox1CompleteCallback)
    i.HAL_CAN_TxMailbox2AbortCallback        0x0800c384   Section        0  stm32f1xx_hal_can.o(i.HAL_CAN_TxMailbox2AbortCallback)
    i.HAL_CAN_TxMailbox2CompleteCallback     0x0800c386   Section        0  stm32f1xx_hal_can.o(i.HAL_CAN_TxMailbox2CompleteCallback)
    i.HAL_CAN_WakeUpFromRxMsgCallback        0x0800c388   Section        0  stm32f1xx_hal_can.o(i.HAL_CAN_WakeUpFromRxMsgCallback)
    i.HAL_DMA_Abort                          0x0800c38a   Section        0  stm32f1xx_hal_dma.o(i.HAL_DMA_Abort)
    i.HAL_FLASH_Lock                         0x0800c3e0   Section        0  stm32f1xx_hal_flash.o(i.HAL_FLASH_Lock)
    i.HAL_GPIO_WritePin                      0x0800c3f4   Section        0  stm32f1xx_hal_gpio.o(i.HAL_GPIO_WritePin)
    .ARM.__AT_0x0800C400                     0x0800c400   Section        2  general.o(.ARM.__AT_0x0800C400)
    i.HAL_GetTick                            0x0800c404   Section        0  stm32f1xx_hal.o(i.HAL_GetTick)
    .ARM.__AT_0x0800C410                     0x0800c410   Section        2  general.o(.ARM.__AT_0x0800C410)
    i.HAL_PWR_EnableBkUpAccess               0x0800c414   Section        0  stm32f1xx_hal_pwr.o(i.HAL_PWR_EnableBkUpAccess)
    .ARM.__AT_0x0800C420                     0x0800c420   Section       32  general.o(.ARM.__AT_0x0800C420)
    i.HAL_DMA_Init                           0x0800c440   Section        0  stm32f1xx_hal_dma.o(i.HAL_DMA_Init)
    i.HAL_GPIO_ReadPin                       0x0800c4cc   Section        0  stm32f1xx_hal_gpio.o(i.HAL_GPIO_ReadPin)
    i.HAL_GPIO_TogglePin                     0x0800c4dc   Section        0  stm32f1xx_hal_gpio.o(i.HAL_GPIO_TogglePin)
    .ARM.__AT_0x0800C4F0                     0x0800c4f0   Section        4  general.o(.ARM.__AT_0x0800C4F0)
    i.HAL_DMA_Abort_IT                       0x0800c4f4   Section        0  stm32f1xx_hal_dma.o(i.HAL_DMA_Abort_IT)
    i.HAL_DMA_IRQHandler                     0x0800c69c   Section        0  stm32f1xx_hal_dma.o(i.HAL_DMA_IRQHandler)
    i.HAL_DMA_Start_IT                       0x0800ca34   Section        0  stm32f1xx_hal_dma.o(i.HAL_DMA_Start_IT)
    i.HAL_Delay                              0x0800cad0   Section        0  stm32f1xx_hal.o(i.HAL_Delay)
    i.HAL_FLASHEx_Erase                      0x0800caf8   Section        0  stm32f1xx_hal_flash_ex.o(i.HAL_FLASHEx_Erase)
    i.HAL_FLASH_Program                      0x0800cba8   Section        0  stm32f1xx_hal_flash.o(i.HAL_FLASH_Program)
    i.HAL_FLASH_Unlock                       0x0800cc58   Section        0  stm32f1xx_hal_flash.o(i.HAL_FLASH_Unlock)
    i.HAL_GPIO_Init                          0x0800cc88   Section        0  stm32f1xx_hal_gpio.o(i.HAL_GPIO_Init)
    i.HAL_IncTick                            0x0800cfa8   Section        0  stm32f1xx_hal.o(i.HAL_IncTick)
    i.HAL_Init                               0x0800cfc0   Section        0  stm32f1xx_hal.o(i.HAL_Init)
    i.HAL_InitTick                           0x0800cfe8   Section        0  stm32f1xx_hal_timebase_tim.o(i.HAL_InitTick)
    i.HAL_MspInit                            0x0800d09c   Section        0  stm32f1xx_hal_msp.o(i.HAL_MspInit)
    i.HAL_NVIC_EnableIRQ                     0x0800d0f0   Section        0  stm32f1xx_hal_cortex.o(i.HAL_NVIC_EnableIRQ)
    i.HAL_NVIC_SetPriority                   0x0800d110   Section        0  stm32f1xx_hal_cortex.o(i.HAL_NVIC_SetPriority)
    i.HAL_NVIC_SetPriorityGrouping           0x0800d18c   Section        0  stm32f1xx_hal_cortex.o(i.HAL_NVIC_SetPriorityGrouping)
    i.HAL_NVIC_SystemReset                   0x0800d1b4   Section        0  stm32f1xx_hal_cortex.o(i.HAL_NVIC_SystemReset)
    i.HAL_RCCEx_GetPeriphCLKFreq             0x0800d1f8   Section        0  stm32f1xx_hal_rcc_ex.o(i.HAL_RCCEx_GetPeriphCLKFreq)
    i.HAL_RCCEx_PeriphCLKConfig              0x0800d3e4   Section        0  stm32f1xx_hal_rcc_ex.o(i.HAL_RCCEx_PeriphCLKConfig)
    i.HAL_RCC_ClockConfig                    0x0800d5f4   Section        0  stm32f1xx_hal_rcc.o(i.HAL_RCC_ClockConfig)
    i.HAL_RCC_GetClockConfig                 0x0800d780   Section        0  stm32f1xx_hal_rcc.o(i.HAL_RCC_GetClockConfig)
    i.HAL_RCC_GetHCLKFreq                    0x0800d7c4   Section        0  stm32f1xx_hal_rcc.o(i.HAL_RCC_GetHCLKFreq)
    i.HAL_RCC_GetPCLK1Freq                   0x0800d7d0   Section        0  stm32f1xx_hal_rcc.o(i.HAL_RCC_GetPCLK1Freq)
    i.HAL_RCC_GetPCLK2Freq                   0x0800d7f0   Section        0  stm32f1xx_hal_rcc.o(i.HAL_RCC_GetPCLK2Freq)
    i.HAL_RCC_GetSysClockFreq                0x0800d810   Section        0  stm32f1xx_hal_rcc.o(i.HAL_RCC_GetSysClockFreq)
    i.HAL_RCC_OscConfig                      0x0800d8fc   Section        0  stm32f1xx_hal_rcc.o(i.HAL_RCC_OscConfig)
    i.HAL_RTC_GetDate                        0x0800de68   Section        0  stm32f1xx_hal_rtc.o(i.HAL_RTC_GetDate)
    i.HAL_RTC_GetTime                        0x0800deba   Section        0  stm32f1xx_hal_rtc.o(i.HAL_RTC_GetTime)
    i.HAL_RTC_Init                           0x0800dfc0   Section        0  stm32f1xx_hal_rtc.o(i.HAL_RTC_Init)
    i.HAL_RTC_MspInit                        0x0800e080   Section        0  rtc.o(i.HAL_RTC_MspInit)
    i.HAL_RTC_SetDate                        0x0800e0c0   Section        0  stm32f1xx_hal_rtc.o(i.HAL_RTC_SetDate)
    i.HAL_RTC_SetTime                        0x0800e1b8   Section        0  stm32f1xx_hal_rtc.o(i.HAL_RTC_SetTime)
    i.HAL_RTC_WaitForSynchro                 0x0800e294   Section        0  stm32f1xx_hal_rtc.o(i.HAL_RTC_WaitForSynchro)
    i.HAL_SPI_GetState                       0x0800e2d4   Section        0  stm32f1xx_hal_spi.o(i.HAL_SPI_GetState)
    i.HAL_SPI_Init                           0x0800e2dc   Section        0  stm32f1xx_hal_spi.o(i.HAL_SPI_Init)
    i.HAL_SPI_MspInit                        0x0800e39c   Section        0  spi.o(i.HAL_SPI_MspInit)
    i.HAL_SPI_Receive                        0x0800e494   Section        0  stm32f1xx_hal_spi.o(i.HAL_SPI_Receive)
    i.HAL_SPI_Transmit                       0x0800e612   Section        0  stm32f1xx_hal_spi.o(i.HAL_SPI_Transmit)
    i.HAL_SPI_TransmitReceive                0x0800e7ce   Section        0  stm32f1xx_hal_spi.o(i.HAL_SPI_TransmitReceive)
    i.HAL_SYSTICK_Config                     0x0800ea0e   Section        0  stm32f1xx_hal_cortex.o(i.HAL_SYSTICK_Config)
    i.HAL_TIMEx_BreakCallback                0x0800ea42   Section        0  stm32f1xx_hal_tim_ex.o(i.HAL_TIMEx_BreakCallback)
    i.HAL_TIMEx_CommutCallback               0x0800ea44   Section        0  stm32f1xx_hal_tim_ex.o(i.HAL_TIMEx_CommutCallback)
    i.HAL_TIM_Base_Init                      0x0800ea46   Section        0  stm32f1xx_hal_tim.o(i.HAL_TIM_Base_Init)
    i.HAL_TIM_Base_MspInit                   0x0800eaac   Section        0  stm32f1xx_hal_tim.o(i.HAL_TIM_Base_MspInit)
    i.HAL_TIM_Base_Start_IT                  0x0800eab0   Section        0  stm32f1xx_hal_tim.o(i.HAL_TIM_Base_Start_IT)
    i.HAL_TIM_IC_CaptureCallback             0x0800eb34   Section        0  stm32f1xx_hal_tim.o(i.HAL_TIM_IC_CaptureCallback)
    i.HAL_TIM_IRQHandler                     0x0800eb36   Section        0  stm32f1xx_hal_tim.o(i.HAL_TIM_IRQHandler)
    i.HAL_TIM_OC_DelayElapsedCallback        0x0800eccc   Section        0  stm32f1xx_hal_tim.o(i.HAL_TIM_OC_DelayElapsedCallback)
    i.HAL_TIM_PWM_PulseFinishedCallback      0x0800ecce   Section        0  stm32f1xx_hal_tim.o(i.HAL_TIM_PWM_PulseFinishedCallback)
    i.HAL_TIM_PeriodElapsedCallback          0x0800ecd0   Section        0  main.o(i.HAL_TIM_PeriodElapsedCallback)
    i.HAL_TIM_TriggerCallback                0x0800ece8   Section        0  stm32f1xx_hal_tim.o(i.HAL_TIM_TriggerCallback)
    i.HAL_UARTEx_RxEventCallback             0x0800ecea   Section        0  stm32f1xx_hal_uart.o(i.HAL_UARTEx_RxEventCallback)
    i.HAL_UART_DMAStop                       0x0800ecec   Section        0  stm32f1xx_hal_uart.o(i.HAL_UART_DMAStop)
    i.HAL_UART_ErrorCallback                 0x0800ed76   Section        0  stm32f1xx_hal_uart.o(i.HAL_UART_ErrorCallback)
    i.HAL_UART_IRQHandler                    0x0800ed78   Section        0  stm32f1xx_hal_uart.o(i.HAL_UART_IRQHandler)
    i.HAL_UART_Init                          0x0800f05c   Section        0  stm32f1xx_hal_uart.o(i.HAL_UART_Init)
    i.HAL_UART_MspInit                       0x0800f0d4   Section        0  usart.o(i.HAL_UART_MspInit)
    i.HAL_UART_Receive_DMA                   0x0800f560   Section        0  stm32f1xx_hal_uart.o(i.HAL_UART_Receive_DMA)
    i.HAL_UART_RxCpltCallback                0x0800f58c   Section        0  stm32f1xx_hal_uart.o(i.HAL_UART_RxCpltCallback)
    i.HAL_UART_RxHalfCpltCallback            0x0800f58e   Section        0  stm32f1xx_hal_uart.o(i.HAL_UART_RxHalfCpltCallback)
    i.HAL_UART_Transmit                      0x0800f590   Section        0  stm32f1xx_hal_uart.o(i.HAL_UART_Transmit)
    i.HAL_UART_Transmit_DMA                  0x0800f644   Section        0  stm32f1xx_hal_uart.o(i.HAL_UART_Transmit_DMA)
    i.HAL_UART_TxCpltCallback                0x0800f6d0   Section        0  stm32f1xx_hal_uart.o(i.HAL_UART_TxCpltCallback)
    i.HAL_UART_TxHalfCpltCallback            0x0800f6d2   Section        0  stm32f1xx_hal_uart.o(i.HAL_UART_TxHalfCpltCallback)
    i.HexToAscii                             0x0800f6d4   Section        0  general.o(i.HexToAscii)
    i.IM1253E_ReceCmdProcess                 0x0800f714   Section        0  im1253e.o(i.IM1253E_ReceCmdProcess)
    i.IM1253E_SendCmd                        0x0800f770   Section        0  im1253e.o(i.IM1253E_SendCmd)
    i.InsuComm_Send                          0x0800f798   Section        0  insulation.o(i.InsuComm_Send)
    i.InsuConfig_ProtocolProcess             0x0800f7c8   Section        0  moduleconfig.o(i.InsuConfig_ProtocolProcess)
    i.InsuConfig_SendCmd                     0x0800f860   Section        0  moduleconfig.o(i.InsuConfig_SendCmd)
    i.InsuProtocolProcess                    0x0800f86c   Section        0  insulation.o(i.InsuProtocolProcess)
    i.Insu_IdleDmaCallback                   0x0800f8f8   Section        0  insulation.o(i.Insu_IdleDmaCallback)
    i.Insu_SendCmd                           0x0800f9a0   Section        0  insulation.o(i.Insu_SendCmd)
    i.Insu_SendPeriodRead                    0x0800f9ac   Section        0  insulation.o(i.Insu_SendPeriodRead)
    i.Led_Charge                             0x0800f9cc   Section        0  led.o(i.Led_Charge)
    i.Led_Err                                0x0800f9de   Section        0  led.o(i.Led_Err)
    i.Led_GunConn                            0x0800f9f0   Section        0  led.o(i.Led_GunConn)
    i.Led_Net                                0x0800fa02   Section        0  led.o(i.Led_Net)
    i.MX_ADC1_Init                           0x0800fa14   Section        0  adc.o(i.MX_ADC1_Init)
    i.MX_CAN1_Init                           0x0800faa0   Section        0  can.o(i.MX_CAN1_Init)
    i.MX_CAN2_Init                           0x0800fae4   Section        0  can.o(i.MX_CAN2_Init)
    i.MX_DMA_Init                            0x0800fb2c   Section        0  dma.o(i.MX_DMA_Init)
    i.MX_GPIO_Init                           0x0800fbfc   Section        0  gpio.o(i.MX_GPIO_Init)
    i.MX_RTC_Init                            0x0800fd90   Section        0  rtc.o(i.MX_RTC_Init)
    i.MX_SPI1_Init                           0x0800fe04   Section        0  spi.o(i.MX_SPI1_Init)
    i.MX_SPI2_Init                           0x0800fe48   Section        0  spi.o(i.MX_SPI2_Init)
    i.MX_UART4_Init                          0x0800fe8c   Section        0  usart.o(i.MX_UART4_Init)
    i.MX_UART5_Init                          0x0800fec4   Section        0  usart.o(i.MX_UART5_Init)
    i.MX_USART1_UART_Init                    0x0800fefc   Section        0  usart.o(i.MX_USART1_UART_Init)
    i.MX_USART2_UART_Init                    0x0800ff34   Section        0  usart.o(i.MX_USART2_UART_Init)
    i.MX_USART3_UART_Init                    0x0800ff6c   Section        0  usart.o(i.MX_USART3_UART_Init)
    i.Master_CheckActiveStop                 0x0800ffa4   Section        0  netport.o(i.Master_CheckActiveStop)
    i.Master_DataProcess                     0x08010244   Section        0  netport.o(i.Master_DataProcess)
    i.Master_ReplySend                       0x08010658   Section        0  netport.o(i.Master_ReplySend)
    i.Master_SendCharge                      0x0801088c   Section        0  netport.o(i.Master_SendCharge)
    i.Master_SendCmd                         0x08010902   Section        0  netport.o(i.Master_SendCmd)
    i.Master_SendDataRequeat                 0x0801093a   Section        0  netport.o(i.Master_SendDataRequeat)
    i.Master_SendElecMoney                   0x0801098a   Section        0  netport.o(i.Master_SendElecMoney)
    i.Master_SendHeart                       0x080109f4   Section        0  netport.o(i.Master_SendHeart)
    i.Master_SendOpenLock                    0x08010a3e   Section        0  netport.o(i.Master_SendOpenLock)
    i.Master_SendReadCodeMsg                 0x08010a92   Section        0  netport.o(i.Master_SendReadCodeMsg)
    i.Master_SendReset                       0x08010ae4   Section        0  netport.o(i.Master_SendReset)
    i.Master_SendSetData                     0x08010b2e   Section        0  netport.o(i.Master_SendSetData)
    i.Master_SendSetRate                     0x08010ba4   Section        0  netport.o(i.Master_SendSetRate)
    i.Master_SendStop                        0x08010c92   Section        0  netport.o(i.Master_SendStop)
    i.Master_SendUpdata                      0x08010cdc   Section        0  netport.o(i.Master_SendUpdata)
    i.MemManage_Handler                      0x08010d78   Section        0  stm32f1xx_it.o(i.MemManage_Handler)
    i.NETPORT_Process                        0x08010d7c   Section        0  netport.o(i.NETPORT_Process)
    i.NMI_Handler                            0x08010fc4   Section        0  stm32f1xx_it.o(i.NMI_Handler)
    i.PowerDiv_CheckEnv                      0x08010fc8   Section        0  powerdivider.o(i.PowerDiv_CheckEnv)
    i.PowerDiv_CtrlRun                       0x08011208   Section        0  powerdivider.o(i.PowerDiv_CtrlRun)
    i.PowerDiv_SwitchK                       0x08011480   Section        0  powerdivider.o(i.PowerDiv_SwitchK)
    i.RCC_Delay                              0x080114cc   Section        0  stm32f1xx_hal_rcc.o(i.RCC_Delay)
    RCC_Delay                                0x080114cd   Thumb Code    36  stm32f1xx_hal_rcc.o(i.RCC_Delay)
    i.RTC_Bcd2ToByte                         0x080114f4   Section        0  stm32f1xx_hal_rtc.o(i.RTC_Bcd2ToByte)
    RTC_Bcd2ToByte                           0x080114f5   Thumb Code    22  stm32f1xx_hal_rtc.o(i.RTC_Bcd2ToByte)
    i.RTC_ByteToBcd2                         0x0801150a   Section        0  stm32f1xx_hal_rtc.o(i.RTC_ByteToBcd2)
    RTC_ByteToBcd2                           0x0801150b   Thumb Code    26  stm32f1xx_hal_rtc.o(i.RTC_ByteToBcd2)
    i.RTC_DateUpdate                         0x08011524   Section        0  stm32f1xx_hal_rtc.o(i.RTC_DateUpdate)
    RTC_DateUpdate                           0x08011525   Thumb Code   182  stm32f1xx_hal_rtc.o(i.RTC_DateUpdate)
    i.RTC_EnterInitMode                      0x080115da   Section        0  stm32f1xx_hal_rtc.o(i.RTC_EnterInitMode)
    RTC_EnterInitMode                        0x080115db   Thumb Code    58  stm32f1xx_hal_rtc.o(i.RTC_EnterInitMode)
    i.RTC_ExitInitMode                       0x08011614   Section        0  stm32f1xx_hal_rtc.o(i.RTC_ExitInitMode)
    RTC_ExitInitMode                         0x08011615   Thumb Code    58  stm32f1xx_hal_rtc.o(i.RTC_ExitInitMode)
    i.RTC_IsLeapYear                         0x0801164e   Section        0  stm32f1xx_hal_rtc.o(i.RTC_IsLeapYear)
    RTC_IsLeapYear                           0x0801164f   Thumb Code    50  stm32f1xx_hal_rtc.o(i.RTC_IsLeapYear)
    i.RTC_ReadAlarmCounter                   0x08011680   Section        0  stm32f1xx_hal_rtc.o(i.RTC_ReadAlarmCounter)
    RTC_ReadAlarmCounter                     0x08011681   Thumb Code    24  stm32f1xx_hal_rtc.o(i.RTC_ReadAlarmCounter)
    i.RTC_ReadTimeCounter                    0x08011698   Section        0  stm32f1xx_hal_rtc.o(i.RTC_ReadTimeCounter)
    RTC_ReadTimeCounter                      0x08011699   Thumb Code    52  stm32f1xx_hal_rtc.o(i.RTC_ReadTimeCounter)
    i.RTC_WeekDayNum                         0x080116cc   Section        0  stm32f1xx_hal_rtc.o(i.RTC_WeekDayNum)
    RTC_WeekDayNum                           0x080116cd   Thumb Code   132  stm32f1xx_hal_rtc.o(i.RTC_WeekDayNum)
    i.RTC_WriteAlarmCounter                  0x08011750   Section        0  stm32f1xx_hal_rtc.o(i.RTC_WriteAlarmCounter)
    RTC_WriteAlarmCounter                    0x08011751   Thumb Code    46  stm32f1xx_hal_rtc.o(i.RTC_WriteAlarmCounter)
    i.RTC_WriteTimeCounter                   0x0801177e   Section        0  stm32f1xx_hal_rtc.o(i.RTC_WriteTimeCounter)
    RTC_WriteTimeCounter                     0x0801177f   Thumb Code    46  stm32f1xx_hal_rtc.o(i.RTC_WriteTimeCounter)
    i.SPI_EndRxTransaction                   0x080117ac   Section        0  stm32f1xx_hal_spi.o(i.SPI_EndRxTransaction)
    SPI_EndRxTransaction                     0x080117ad   Thumb Code   120  stm32f1xx_hal_spi.o(i.SPI_EndRxTransaction)
    i.SPI_EndRxTxTransaction                 0x08011824   Section        0  stm32f1xx_hal_spi.o(i.SPI_EndRxTxTransaction)
    SPI_EndRxTxTransaction                   0x08011825   Thumb Code    40  stm32f1xx_hal_spi.o(i.SPI_EndRxTxTransaction)
    i.SPI_WaitFlagStateUntilTimeout          0x0801184c   Section        0  stm32f1xx_hal_spi.o(i.SPI_WaitFlagStateUntilTimeout)
    SPI_WaitFlagStateUntilTimeout            0x0801184d   Thumb Code   210  stm32f1xx_hal_spi.o(i.SPI_WaitFlagStateUntilTimeout)
    i.Sc_CheckConnect                        0x08011924   Section        0  screen.o(i.Sc_CheckConnect)
    i.Sc_RxProcess                           0x080119cc   Section        0  screen.o(i.Sc_RxProcess)
    i.Sc_Send                                0x08011ed8   Section        0  screen.o(i.Sc_Send)
    i.Sc_TxProcess                           0x08011ef4   Section        0  screen.o(i.Sc_TxProcess)
    i.Scram_CheckState                       0x08011fe8   Section        0  scram.o(i.Scram_CheckState)
    i.Slave_Send                             0x08011ff0   Section        0  netport.o(i.Slave_Send)
    i.SysTick_Handler                        0x08012002   Section        0  board.o(i.SysTick_Handler)
    i.SystemClock_Config                     0x08012014   Section        0  main.o(i.SystemClock_Config)
    i.SystemCoreClockUpdate                  0x080120bc   Section        0  system_stm32f1xx.o(i.SystemCoreClockUpdate)
    i.SystemInit                             0x080121bc   Section        0  system_stm32f1xx.o(i.SystemInit)
    i.TIM7_IRQHandler                        0x080121cc   Section        0  stm32f1xx_it.o(i.TIM7_IRQHandler)
    i.TIM_Base_SetConfig                     0x080121dc   Section        0  stm32f1xx_hal_tim.o(i.TIM_Base_SetConfig)
    i.TongHe_ProcessCmd                      0x08012260   Section        0  tonghe_dcm.o(i.TongHe_ProcessCmd)
    i.TongHe_ProcessData                     0x080122cc   Section        0  tonghe_dcm.o(i.TongHe_ProcessData)
    i.TongHe_Send                            0x08012334   Section        0  tonghe_dcm.o(i.TongHe_Send)
    i.TongHe_SendProtocol                    0x08012364   Section        0  tonghe_dcm.o(i.TongHe_SendProtocol)
    i.TongHe_SendToDcm                       0x080123c8   Section        0  tonghe_dcm.o(i.TongHe_SendToDcm)
    i.TransP_MoreSend                        0x0801259c   Section        0  transportprotocol.o(i.TransP_MoreSend)
    i.TransP_ReceCan                         0x0801284c   Section        0  transportprotocol.o(i.TransP_ReceCan)
    i.TransP_Send                            0x08012ad0   Section        0  transportprotocol.o(i.TransP_Send)
    i.TransP_SingleSend                      0x08012b1a   Section        0  transportprotocol.o(i.TransP_SingleSend)
    i.TransP_Tx_CMABORT                      0x08012b5c   Section        0  transportprotocol.o(i.TransP_Tx_CMABORT)
    i.TransP_Tx_CMCTS                        0x08012bba   Section        0  transportprotocol.o(i.TransP_Tx_CMCTS)
    i.TransP_Tx_CMEND                        0x08012c28   Section        0  transportprotocol.o(i.TransP_Tx_CMEND)
    i.TransP_Tx_CMRTS                        0x08012c94   Section        0  transportprotocol.o(i.TransP_Tx_CMRTS)
    i.TransP_Tx_DT                           0x08012d00   Section        0  transportprotocol.o(i.TransP_Tx_DT)
    i.UART4_IRQHandler                       0x08012d70   Section        0  stm32f1xx_it.o(i.UART4_IRQHandler)
    i.UART_DMAAbortOnError                   0x08012df0   Section        0  stm32f1xx_hal_uart.o(i.UART_DMAAbortOnError)
    UART_DMAAbortOnError                     0x08012df1   Thumb Code    20  stm32f1xx_hal_uart.o(i.UART_DMAAbortOnError)
    i.UART_DMAError                          0x08012e04   Section        0  stm32f1xx_hal_uart.o(i.UART_DMAError)
    UART_DMAError                            0x08012e05   Thumb Code    80  stm32f1xx_hal_uart.o(i.UART_DMAError)
    i.UART_DMAReceiveCplt                    0x08012e54   Section        0  stm32f1xx_hal_uart.o(i.UART_DMAReceiveCplt)
    UART_DMAReceiveCplt                      0x08012e55   Thumb Code   180  stm32f1xx_hal_uart.o(i.UART_DMAReceiveCplt)
    i.UART_DMARxHalfCplt                     0x08012f08   Section        0  stm32f1xx_hal_uart.o(i.UART_DMARxHalfCplt)
    UART_DMARxHalfCplt                       0x08012f09   Thumb Code    36  stm32f1xx_hal_uart.o(i.UART_DMARxHalfCplt)
    i.UART_DMATransmitCplt                   0x08012f2c   Section        0  stm32f1xx_hal_uart.o(i.UART_DMATransmitCplt)
    UART_DMATransmitCplt                     0x08012f2d   Thumb Code    88  stm32f1xx_hal_uart.o(i.UART_DMATransmitCplt)
    i.UART_DMATxHalfCplt                     0x08012f84   Section        0  stm32f1xx_hal_uart.o(i.UART_DMATxHalfCplt)
    UART_DMATxHalfCplt                       0x08012f85   Thumb Code    14  stm32f1xx_hal_uart.o(i.UART_DMATxHalfCplt)
    i.UART_EndRxTransfer                     0x08012f92   Section        0  stm32f1xx_hal_uart.o(i.UART_EndRxTransfer)
    UART_EndRxTransfer                       0x08012f93   Thumb Code   108  stm32f1xx_hal_uart.o(i.UART_EndRxTransfer)
    i.UART_EndTransmit_IT                    0x08012ffe   Section        0  stm32f1xx_hal_uart.o(i.UART_EndTransmit_IT)
    UART_EndTransmit_IT                      0x08012fff   Thumb Code    32  stm32f1xx_hal_uart.o(i.UART_EndTransmit_IT)
    i.UART_EndTxTransfer                     0x0801301e   Section        0  stm32f1xx_hal_uart.o(i.UART_EndTxTransfer)
    UART_EndTxTransfer                       0x0801301f   Thumb Code    38  stm32f1xx_hal_uart.o(i.UART_EndTxTransfer)
    i.UART_Receive_IT                        0x08013044   Section        0  stm32f1xx_hal_uart.o(i.UART_Receive_IT)
    UART_Receive_IT                          0x08013045   Thumb Code   252  stm32f1xx_hal_uart.o(i.UART_Receive_IT)
    i.UART_SetConfig                         0x08013140   Section        0  stm32f1xx_hal_uart.o(i.UART_SetConfig)
    UART_SetConfig                           0x08013141   Thumb Code   248  stm32f1xx_hal_uart.o(i.UART_SetConfig)
    i.UART_Start_Receive_DMA                 0x0801323c   Section        0  stm32f1xx_hal_uart.o(i.UART_Start_Receive_DMA)
    i.UART_Transmit_IT                       0x08013304   Section        0  stm32f1xx_hal_uart.o(i.UART_Transmit_IT)
    UART_Transmit_IT                         0x08013305   Thumb Code    96  stm32f1xx_hal_uart.o(i.UART_Transmit_IT)
    i.UART_WaitOnFlagUntilTimeout            0x08013364   Section        0  stm32f1xx_hal_uart.o(i.UART_WaitOnFlagUntilTimeout)
    UART_WaitOnFlagUntilTimeout              0x08013365   Thumb Code   146  stm32f1xx_hal_uart.o(i.UART_WaitOnFlagUntilTimeout)
    i.USART1_IRQHandler                      0x080133f8   Section        0  stm32f1xx_it.o(i.USART1_IRQHandler)
    i.USART2_IRQHandler                      0x08013478   Section        0  stm32f1xx_it.o(i.USART2_IRQHandler)
    i.USART3_IRQHandler                      0x080134f8   Section        0  stm32f1xx_it.o(i.USART3_IRQHandler)
    i.UartBootDataProcess                    0x08013578   Section        0  dtu.o(i.UartBootDataProcess)
    i.UartBootProtocolProcess                0x080138a4   Section        0  dtu.o(i.UartBootProtocolProcess)
    i.UsageFault_Handler                     0x08013ac4   Section        0  stm32f1xx_it.o(i.UsageFault_Handler)
    i.ZLG600A_Activate                       0x08013ac8   Section        0  card.o(i.ZLG600A_Activate)
    i.ZLG600A_Buzzer                         0x08013b38   Section        0  card.o(i.ZLG600A_Buzzer)
    i.ZLG600A_RaedUserNum                    0x08013bac   Section        0  card.o(i.ZLG600A_RaedUserNum)
    i.ZLG600A_ReadMoney                      0x08013d2c   Section        0  card.o(i.ZLG600A_ReadMoney)
    i.ZLG600A_ReceCmdProcess                 0x08013e84   Section        0  card.o(i.ZLG600A_ReceCmdProcess)
    i.ZLG600A_SendCmd                        0x08013f60   Section        0  card.o(i.ZLG600A_SendCmd)
    i.ZLG600A_SendData                       0x08014260   Section        0  card.o(i.ZLG600A_SendData)
    i.ZLG600A_Verify                         0x08014270   Section        0  card.o(i.ZLG600A_Verify)
    i.ZLG600A_WriteMoney                     0x0801428c   Section        0  card.o(i.ZLG600A_WriteMoney)
    i.__0printf                              0x080143c8   Section        0  printfa.o(i.__0printf)
    i.__0vsnprintf                           0x080143e8   Section        0  printfa.o(i.__0vsnprintf)
    i.__INT_Hardware_Init                    0x08014414   Section        0  network.o(i.__INT_Hardware_Init)
    i.__INT_ReadState                        0x08014418   Section        0  network.o(i.__INT_ReadState)
    i.__NETWORK_ReceCallback                 0x0801442c   Section        0  network.o(i.__NETWORK_ReceCallback)
    i.__NVIC_GetPriorityGrouping             0x0801444c   Section        0  stm32f1xx_hal_cortex.o(i.__NVIC_GetPriorityGrouping)
    __NVIC_GetPriorityGrouping               0x0801444d   Thumb Code    10  stm32f1xx_hal_cortex.o(i.__NVIC_GetPriorityGrouping)
    i.__NVIC_SetPriority                     0x0801445c   Section        0  stm32f1xx_hal_cortex.o(i.__NVIC_SetPriority)
    __NVIC_SetPriority                       0x0801445d   Thumb Code    32  stm32f1xx_hal_cortex.o(i.__NVIC_SetPriority)
    i.__RST_Hardware_Init                    0x08014484   Section        0  network.o(i.__RST_Hardware_Init)
    i.__RST_SetH                             0x08014488   Section        0  network.o(i.__RST_SetH)
    i.__RST_SetL                             0x0801449c   Section        0  network.o(i.__RST_SetL)
    i.__SPI_CS_Set                           0x080144b0   Section        0  network.o(i.__SPI_CS_Set)
    i.__SPI_Hardware_Init                    0x080144d4   Section        0  network.o(i.__SPI_Hardware_Init)
    i.__SPI_WriteByte                        0x080144d8   Section        0  network.o(i.__SPI_WriteByte)
    i.__aeabi_errno_addr                     0x080144fc   Section        0  errno.o(i.__aeabi_errno_addr)
    i.__rt_ffs                               0x08014504   Section        0  kservice.o(i.__rt_ffs)
    i.__scatterload_copy                     0x08014550   Section       14  handlers.o(i.__scatterload_copy)
    i.__scatterload_null                     0x0801455e   Section        2  handlers.o(i.__scatterload_null)
    i.__scatterload_zeroinit                 0x08014560   Section       14  handlers.o(i.__scatterload_zeroinit)
    i._fdb_continue_ff_addr                  0x0801456e   Section        0  fdb_utils.o(i._fdb_continue_ff_addr)
    i._fdb_db_path                           0x080145dc   Section        0  fdb.o(i._fdb_db_path)
    i._fdb_flash_erase                       0x080145ec   Section        0  fdb_utils.o(i._fdb_flash_erase)
    i._fdb_flash_read                        0x08014616   Section        0  fdb_utils.o(i._fdb_flash_read)
    i._fdb_flash_write                       0x08014648   Section        0  fdb_utils.o(i._fdb_flash_write)
    i._fdb_get_status                        0x0801467e   Section        0  fdb_utils.o(i._fdb_get_status)
    i._fdb_read_status                       0x080146a8   Section        0  fdb_utils.o(i._fdb_read_status)
    i._fdb_set_status                        0x0801473c   Section        0  fdb_utils.o(i._fdb_set_status)
    i._fdb_write_status                      0x0801476c   Section        0  fdb_utils.o(i._fdb_write_status)
    i._fp_digits                             0x08014850   Section        0  printfa.o(i._fp_digits)
    _fp_digits                               0x08014851   Thumb Code   366  printfa.o(i._fp_digits)
    i._msh_exec_cmd                          0x080149d4   Section        0  msh.o(i._msh_exec_cmd)
    _msh_exec_cmd                            0x080149d5   Thumb Code   136  msh.o(i._msh_exec_cmd)
    i._printf_core                           0x08014a6c   Section        0  printfa.o(i._printf_core)
    _printf_core                             0x08014a6d   Thumb Code  1744  printfa.o(i._printf_core)
    i._printf_post_padding                   0x08015148   Section        0  printfa.o(i._printf_post_padding)
    _printf_post_padding                     0x08015149   Thumb Code    36  printfa.o(i._printf_post_padding)
    i._printf_pre_padding                    0x0801516c   Section        0  printfa.o(i._printf_pre_padding)
    _printf_pre_padding                      0x0801516d   Thumb Code    46  printfa.o(i._printf_pre_padding)
    i._rt_thread_init                        0x0801519c   Section        0  thread.o(i._rt_thread_init)
    _rt_thread_init                          0x0801519d   Thumb Code   138  thread.o(i._rt_thread_init)
    i._rt_timer_init                         0x08015258   Section        0  timer.o(i._rt_timer_init)
    _rt_timer_init                           0x08015259   Thumb Code    66  timer.o(i._rt_timer_init)
    i._rt_timer_remove                       0x0801529a   Section        0  timer.o(i._rt_timer_remove)
    _rt_timer_remove                         0x0801529b   Thumb Code    28  timer.o(i._rt_timer_remove)
    i._snputc                                0x080152b6   Section        0  printfa.o(i._snputc)
    _snputc                                  0x080152b7   Thumb Code    22  printfa.o(i._snputc)
    i._thread_cleanup_execute                0x080152cc   Section        0  thread.o(i._thread_cleanup_execute)
    _thread_cleanup_execute                  0x080152cd   Thumb Code    28  thread.o(i._thread_cleanup_execute)
    i.align_write                            0x080152e8   Section        0  fdb_kvdb.o(i.align_write)
    align_write                              0x080152e9   Thumb Code   104  fdb_kvdb.o(i.align_write)
    i.alloc_kv                               0x08015350   Section        0  fdb_kvdb.o(i.alloc_kv)
    alloc_kv                                 0x08015351   Thumb Code   188  fdb_kvdb.o(i.alloc_kv)
    i.alloc_kv_cb                            0x08015488   Section        0  fdb_kvdb.o(i.alloc_kv_cb)
    alloc_kv_cb                              0x08015489   Thumb Code    56  fdb_kvdb.o(i.alloc_kv_cb)
    i.atk_mo395q_Connect                     0x080154c0   Section        0  ch395.o(i.atk_mo395q_Connect)
    i.atk_mo395q_cmd_get_glob_int_status_all 0x080157d0   Section        0  ch395.o(i.atk_mo395q_cmd_get_glob_int_status_all)
    i.atk_mo395q_cmd_get_ip_inf              0x080157fc   Section        0  ch395.o(i.atk_mo395q_cmd_get_ip_inf)
    i.atk_mo395q_cmd_get_remot_ipp_sn        0x08015832   Section        0  ch395.o(i.atk_mo395q_cmd_get_remot_ipp_sn)
    i.atk_mo395q_cmd_set_keep_live_cnt       0x0801587e   Section        0  ch395.o(i.atk_mo395q_cmd_set_keep_live_cnt)
    i.atk_mo395q_cmd_set_keep_live_idle      0x08015896   Section        0  ch395.o(i.atk_mo395q_cmd_set_keep_live_idle)
    i.atk_mo395q_cmd_set_keep_live_intvl     0x080158c4   Section        0  ch395.o(i.atk_mo395q_cmd_set_keep_live_intvl)
    i.atk_mo395q_cmd_set_keep_live_sn        0x080158f2   Section        0  ch395.o(i.atk_mo395q_cmd_set_keep_live_sn)
    i.atk_mo395q_cmd_set_sour_port_sn        0x08015912   Section        0  ch395.o(i.atk_mo395q_cmd_set_sour_port_sn)
    i.atk_mo395q_cmd_set_ttl                 0x08015938   Section        0  ch395.o(i.atk_mo395q_cmd_set_ttl)
    i.atk_mo395q_global_interrupt_handler    0x08015958   Section        0  ch395.o(i.atk_mo395q_global_interrupt_handler)
    atk_mo395q_global_interrupt_handler      0x08015959   Thumb Code   146  ch395.o(i.atk_mo395q_global_interrupt_handler)
    i.atk_mo395q_keeplive_init               0x080159f0   Section        0  ch395.o(i.atk_mo395q_keeplive_init)
    atk_mo395q_keeplive_init                 0x080159f1   Thumb Code    26  ch395.o(i.atk_mo395q_keeplive_init)
    i.atk_mo395q_net_config                  0x08015a0c   Section        0  ch395.o(i.atk_mo395q_net_config)
    i.atk_mo395q_parameter_init              0x08015a68   Section        0  ch395.o(i.atk_mo395q_parameter_init)
    atk_mo395q_parameter_init                0x08015a69   Thumb Code    62  ch395.o(i.atk_mo395q_parameter_init)
    i.atk_mo395q_socket_config               0x08015aac   Section        0  ch395.o(i.atk_mo395q_socket_config)
    i.atk_mo395q_socket_interrupt_handler    0x08015ad4   Section        0  ch395.o(i.atk_mo395q_socket_interrupt_handler)
    atk_mo395q_socket_interrupt_handler      0x08015ad5   Thumb Code   384  ch395.o(i.atk_mo395q_socket_interrupt_handler)
    i.bleeder_close                          0x08015c58   Section        0  myboard.o(i.bleeder_close)
    i.bleeder_close_cmd                      0x08015c64   Section        0  myboard.o(i.bleeder_close_cmd)
    i.bleeder_open                           0x08015ca4   Section        0  myboard.o(i.bleeder_open)
    i.bleeder_open_cmd                       0x08015cb0   Section        0  myboard.o(i.bleeder_open_cmd)
    i.bms_task_entry                         0x08015cec   Section        0  bms.o(i.bms_task_entry)
    i.bms_task_init                          0x08015e10   Section        0  bms.o(i.bms_task_init)
    i.board_t                                0x08015e88   Section        0  myboard.o(i.board_t)
    i.board_t_cmd                            0x08015eb4   Section        0  myboard.o(i.board_t_cmd)
    i.bus_fault_track                        0x08015efc   Section        0  cpuport.o(i.bus_fault_track)
    bus_fault_track                          0x08015efd   Thumb Code   130  cpuport.o(i.bus_fault_track)
    i.buzzer_close                           0x08015ff8   Section        0  myboard.o(i.buzzer_close)
    i.buzzer_close_cmd                       0x08016014   Section        0  myboard.o(i.buzzer_close_cmd)
    i.buzzer_open                            0x08016060   Section        0  myboard.o(i.buzzer_open)
    i.buzzer_open_cmd                        0x0801607c   Section        0  myboard.o(i.buzzer_open_cmd)
    i.card_run_entry                         0x080160c4   Section        0  card.o(i.card_run_entry)
    i.card_rx_task_entry                     0x080160d4   Section        0  card.o(i.card_rx_task_entry)
    i.card_task_init                         0x08016198   Section        0  card.o(i.card_task_init)
    i.ch395_cmd_hard_reset                   0x08016288   Section        0  ch395.o(i.ch395_cmd_hard_reset)
    i.charge_ctrl_timer_entry                0x080162a0   Section        0  chargectrl.o(i.charge_ctrl_timer_entry)
    charge_ctrl_timer_entry                  0x080162a1   Thumb Code   120  chargectrl.o(i.charge_ctrl_timer_entry)
    i.charge_run_entry                       0x08016330   Section        0  chargerun.o(i.charge_run_entry)
    charge_run_entry                         0x08016331   Thumb Code   114  chargerun.o(i.charge_run_entry)
    i.charge_run_timer_entry                 0x080163ec   Section        0  chargerun.o(i.charge_run_timer_entry)
    charge_run_timer_entry                   0x080163ed   Thumb Code   292  chargerun.o(i.charge_run_timer_entry)
    i.chargectrl_task_entry                  0x0801652c   Section        0  chargectrl.o(i.chargectrl_task_entry)
    i.chragectrl_task_init                   0x080165d4   Section        0  chargerun.o(i.chragectrl_task_init)
    i.cmd_free                               0x08016620   Section        0  msh.o(i.cmd_free)
    i.cmd_ps                                 0x0801662e   Section        0  msh.o(i.cmd_ps)
    i.create_kv_blob                         0x0801663c   Section        0  fdb_kvdb.o(i.create_kv_blob)
    create_kv_blob                           0x0801663d   Thumb Code   652  fdb_kvdb.o(i.create_kv_blob)
    i.dcm_task_entry                         0x08016988   Section        0  dc_module.o(i.dcm_task_entry)
    i.dcm_task_init                          0x08016ab8   Section        0  dc_module.o(i.dcm_task_init)
    i.del_kv                                 0x08016af8   Section        0  fdb_kvdb.o(i.del_kv)
    del_kv                                   0x08016af9   Thumb Code   304  fdb_kvdb.o(i.del_kv)
    i.demo_dhcp_success_cb                   0x08016c88   Section        0  ch395.o(i.demo_dhcp_success_cb)
    demo_dhcp_success_cb                     0x08016c89   Thumb Code     6  ch395.o(i.demo_dhcp_success_cb)
    i.demo_phy_conn_cb                       0x08016c8e   Section        0  ch395.o(i.demo_phy_conn_cb)
    demo_phy_conn_cb                         0x08016c8f   Thumb Code    42  ch395.o(i.demo_phy_conn_cb)
    i.demo_phy_disconn_cb                    0x08016cb8   Section        0  ch395.o(i.demo_phy_disconn_cb)
    demo_phy_disconn_cb                      0x08016cb9   Thumb Code     2  ch395.o(i.demo_phy_disconn_cb)
    i.demo_socket_send_buf_free_cb           0x08016cbc   Section        0  ch395.o(i.demo_socket_send_buf_free_cb)
    demo_socket_send_buf_free_cb             0x08016cbd   Thumb Code    18  ch395.o(i.demo_socket_send_buf_free_cb)
    i.demp_socket_recv_cb                    0x08016cd4   Section        0  ch395.o(i.demp_socket_recv_cb)
    demp_socket_recv_cb                      0x08016cd5   Thumb Code    60  ch395.o(i.demp_socket_recv_cb)
    i.dev_reset                              0x08016d10   Section        0  general.o(i.dev_reset)
    i.do_gc                                  0x08016d18   Section        0  fdb_kvdb.o(i.do_gc)
    do_gc                                    0x08016d19   Thumb Code   262  fdb_kvdb.o(i.do_gc)
    i.door_st                                0x08016eb0   Section        0  myboard.o(i.door_st)
    i.door_st_cmd                            0x08016edc   Section        0  myboard.o(i.door_st_cmd)
    i.dtu_Restart                            0x08016f24   Section        0  dtu.o(i.dtu_Restart)
    i.dtu_task_entry                         0x08016f40   Section        0  dtu.o(i.dtu_task_entry)
    i.dtu_task_init                          0x080170ac   Section        0  dtu.o(i.dtu_task_init)
    i.elec_task_entry                        0x08017124   Section        0  electric.o(i.elec_task_entry)
    i.elec_task_init                         0x080171c4   Section        0  electric.o(i.elec_task_init)
    i.erase                                  0x08017208   Section        0  fal_flash_stm32f1_port.o(i.erase)
    erase                                    0x08017209   Thumb Code   106  fal_flash_stm32f1_port.o(i.erase)
    i.fal_partition_erase                    0x08017278   Section        0  fal_partition.o(i.fal_partition_erase)
    i.fal_partition_read                     0x080173e8   Section        0  fal_partition.o(i.fal_partition_read)
    i.fal_partition_write                    0x08017570   Section        0  fal_partition.o(i.fal_partition_write)
    i.fan_close                              0x080176fc   Section        0  myboard.o(i.fan_close)
    i.fan_open                               0x08017718   Section        0  myboard.o(i.fan_open)
    i.fcc                                    0x08017734   Section        0  myboard.o(i.fcc)
    i.fdb_blob_make                          0x0801777c   Section        0  fdb_utils.o(i.fdb_blob_make)
    i.fdb_blob_read                          0x08017782   Section        0  fdb_utils.o(i.fdb_blob_read)
    i.fdb_calc_crc32                         0x080177a8   Section        0  fdb_utils.o(i.fdb_calc_crc32)
    i.fdb_kv_get_blob                        0x080177d4   Section        0  fdb_kvdb.o(i.fdb_kv_get_blob)
    i.fdb_kv_set_blob                        0x08017884   Section        0  fdb_kvdb.o(i.fdb_kv_set_blob)
    i.fdb_tsl_append                         0x0801792c   Section        0  fdb_tsdb.o(i.fdb_tsl_append)
    i.fdb_tsl_clean                          0x080179d0   Section        0  fdb_tsdb.o(i.fdb_tsl_clean)
    i.fdb_tsl_iter                           0x080179f8   Section        0  fdb_tsdb.o(i.fdb_tsl_iter)
    i.fdb_tsl_iter_by_time                   0x08017b20   Section        0  fdb_tsdb.o(i.fdb_tsl_iter_by_time)
    i.fdb_tsl_query_count                    0x08017cec   Section        0  fdb_tsdb.o(i.fdb_tsl_query_count)
    i.fdb_tsl_to_blob                        0x08017d88   Section        0  fdb_tsdb.o(i.fdb_tsl_to_blob)
    i.feed_dog                               0x08017d9a   Section        0  fal_flash_stm32f1_port.o(i.feed_dog)
    i.find_kv                                0x08017d9c   Section        0  fdb_kvdb.o(i.find_kv)
    find_kv                                  0x08017d9d   Thumb Code    80  fdb_kvdb.o(i.find_kv)
    i.find_kv_cb                             0x08017dec   Section        0  fdb_kvdb.o(i.find_kv_cb)
    find_kv_cb                               0x08017ded   Thumb Code    70  fdb_kvdb.o(i.find_kv_cb)
    i.find_kv_no_cache                       0x08017e34   Section        0  fdb_kvdb.o(i.find_kv_no_cache)
    find_kv_no_cache                         0x08017e35   Thumb Code    34  fdb_kvdb.o(i.find_kv_no_cache)
    i.find_next_kv_addr                      0x08017e5c   Section        0  fdb_kvdb.o(i.find_next_kv_addr)
    find_next_kv_addr                        0x08017e5d   Thumb Code   168  fdb_kvdb.o(i.find_next_kv_addr)
    i.finsh_get_prompt                       0x08017f08   Section        0  shell.o(i.finsh_get_prompt)
    i.finsh_getchar                          0x08017f7c   Section        0  shell.o(i.finsh_getchar)
    finsh_getchar                            0x08017f7d   Thumb Code     8  shell.o(i.finsh_getchar)
    i.finsh_set_prompt_mode                  0x08017f84   Section        0  shell.o(i.finsh_set_prompt_mode)
    i.finsh_system_function_init             0x08017fcc   Section        0  shell.o(i.finsh_system_function_init)
    i.finsh_system_init                      0x08017fe0   Section        0  shell.o(i.finsh_system_init)
    i.finsh_thread_entry                     0x0801807c   Section        0  shell.o(i.finsh_thread_entry)
    i.flash_device_find_by_part              0x08018444   Section        0  fal_partition.o(i.flash_device_find_by_part)
    flash_device_find_by_part                0x08018445   Thumb Code    74  fal_partition.o(i.flash_device_find_by_part)
    i.foc                                    0x0801850c   Section        0  myboard.o(i.foc)
    i.format_all_cb                          0x08018558   Section        0  fdb_tsdb.o(i.format_all_cb)
    format_all_cb                            0x08018559   Thumb Code    26  fdb_tsdb.o(i.format_all_cb)
    i.format_sector                          0x08018574   Section        0  fdb_kvdb.o(i.format_sector)
    format_sector                            0x08018575   Thumb Code   198  fdb_kvdb.o(i.format_sector)
    i.format_sector                          0x080186a0   Section        0  fdb_tsdb.o(i.format_sector)
    format_sector                            0x080186a1   Thumb Code   146  fdb_tsdb.o(i.format_sector)
    i.fputc                                  0x08018794   Section        0  syscall_armlibc.o(i.fputc)
    i.gc_check_cb                            0x080187ae   Section        0  fdb_kvdb.o(i.gc_check_cb)
    gc_check_cb                              0x080187af   Thumb Code    22  fdb_kvdb.o(i.gc_check_cb)
    i.gc_collect_by_free_size                0x080187c4   Section        0  fdb_kvdb.o(i.gc_collect_by_free_size)
    gc_collect_by_free_size                  0x080187c5   Thumb Code   128  fdb_kvdb.o(i.gc_collect_by_free_size)
    i.get_kv                                 0x080188c8   Section        0  fdb_kvdb.o(i.get_kv)
    get_kv                                   0x080188c9   Thumb Code    78  fdb_kvdb.o(i.get_kv)
    i.get_kv_from_cache                      0x08018916   Section        0  fdb_kvdb.o(i.get_kv_from_cache)
    get_kv_from_cache                        0x08018917   Thumb Code   194  fdb_kvdb.o(i.get_kv_from_cache)
    i.get_last_sector_addr                   0x080189d8   Section        0  fdb_tsdb.o(i.get_last_sector_addr)
    get_last_sector_addr                     0x080189d9   Thumb Code    44  fdb_tsdb.o(i.get_last_sector_addr)
    i.get_last_tsl_addr                      0x08018a04   Section        0  fdb_tsdb.o(i.get_last_tsl_addr)
    get_last_tsl_addr                        0x08018a05   Thumb Code    46  fdb_tsdb.o(i.get_last_tsl_addr)
    i.get_next_kv_addr                       0x08018a32   Section        0  fdb_kvdb.o(i.get_next_kv_addr)
    get_next_kv_addr                         0x08018a33   Thumb Code   122  fdb_kvdb.o(i.get_next_kv_addr)
    i.get_next_sector_addr                   0x08018aac   Section        0  fdb_kvdb.o(i.get_next_sector_addr)
    get_next_sector_addr                     0x08018aad   Thumb Code    58  fdb_kvdb.o(i.get_next_sector_addr)
    i.get_next_sector_addr                   0x08018ae6   Section        0  fdb_tsdb.o(i.get_next_sector_addr)
    get_next_sector_addr                     0x08018ae7   Thumb Code    44  fdb_tsdb.o(i.get_next_sector_addr)
    i.get_next_tsl_addr                      0x08018b12   Section        0  fdb_tsdb.o(i.get_next_tsl_addr)
    get_next_tsl_addr                        0x08018b13   Thumb Code    46  fdb_tsdb.o(i.get_next_tsl_addr)
    i.get_sector_from_cache                  0x08018b40   Section        0  fdb_kvdb.o(i.get_sector_from_cache)
    get_sector_from_cache                    0x08018b41   Thumb Code    52  fdb_kvdb.o(i.get_sector_from_cache)
    i.gun_PeriodReadState                    0x08018b74   Section        0  gun.o(i.gun_PeriodReadState)
    i.gun_close                              0x08018b98   Section        0  gun.o(i.gun_close)
    i.gun_connst                             0x08018c24   Section        0  gun.o(i.gun_connst)
    i.gun_lockst                             0x08018c4c   Section        0  gun.o(i.gun_lockst)
    i.gun_open                               0x08018c74   Section        0  gun.o(i.gun_open)
    i.gun_t                                  0x08018cfc   Section        0  gun.o(i.gun_t)
    i.hard_fault_track                       0x08018d28   Section        0  cpuport.o(i.hard_fault_track)
    hard_fault_track                         0x08018d29   Thumb Code    82  cpuport.o(i.hard_fault_track)
    i.hardware_init                          0x08018da8   Section        0  sfud.o(i.hardware_init)
    hardware_init                            0x08018da9   Thumb Code   508  sfud.o(i.hardware_init)
    i.hello                                  0x080190b8   Section        0  cmd.o(i.hello)
    i.init                                   0x080190d8   Section        0  fal_flash_stm32f1_port.o(i.init)
    init                                     0x080190d9   Thumb Code     4  fal_flash_stm32f1_port.o(i.init)
    i.insu_back                              0x080190dc   Section        0  insulation.o(i.insu_back)
    i.insu_close                             0x080190f0   Section        0  insulation.o(i.insu_close)
    i.insu_front                             0x080190fc   Section        0  insulation.o(i.insu_front)
    i.insu_open                              0x08019110   Section        0  insulation.o(i.insu_open)
    i.insu_task_entry                        0x0801911c   Section        0  insulation.o(i.insu_task_entry)
    i.insu_task_init                         0x080191bc   Section        0  insulation.o(i.insu_task_init)
    i.k12cc                                  0x08019200   Section        0  myboard.o(i.k12cc)
    i.k12oc                                  0x08019250   Section        0  myboard.o(i.k12oc)
    i.k1k2_close                             0x080192a0   Section        0  myboard.o(i.k1k2_close)
    i.k1k2_open                              0x080192c8   Section        0  myboard.o(i.k1k2_open)
    i.k1k2_st                                0x080192f0   Section        0  myboard.o(i.k1k2_st)
    i.k1k2_st_cmd                            0x08019314   Section        0  myboard.o(i.k1k2_st_cmd)
    i.k34cc                                  0x08019368   Section        0  myboard.o(i.k34cc)
    i.k34oc                                  0x080193b8   Section        0  myboard.o(i.k34oc)
    i.k3k4_close                             0x08019408   Section        0  myboard.o(i.k3k4_close)
    i.k3k4_open                              0x08019430   Section        0  myboard.o(i.k3k4_open)
    i.k3k4_st                                0x0801945c   Section        0  myboard.o(i.k3k4_st)
    i.k3k4_st_cmd                            0x08019480   Section        0  myboard.o(i.k3k4_st_cmd)
    i.kv_iterator                            0x080194d4   Section        0  fdb_kvdb.o(i.kv_iterator)
    kv_iterator                              0x080194d5   Thumb Code   146  fdb_kvdb.o(i.kv_iterator)
    i.kvdb_get                               0x08019568   Section        0  flashdb_app.o(i.kvdb_get)
    i.kvdb_set                               0x08019628   Section        0  flashdb_app.o(i.kvdb_set)
    i.lcc                                    0x080196f8   Section        0  myboard.o(i.lcc)
    i.lco                                    0x0801973c   Section        0  myboard.o(i.lco)
    i.lec                                    0x0801977c   Section        0  myboard.o(i.lec)
    i.led_chargeclose                        0x080197c0   Section        0  myboard.o(i.led_chargeclose)
    i.led_chargeopen                         0x080197dc   Section        0  myboard.o(i.led_chargeopen)
    i.led_errclose                           0x080197f8   Section        0  myboard.o(i.led_errclose)
    i.led_erropen                            0x08019814   Section        0  myboard.o(i.led_erropen)
    i.led_gunclose                           0x08019830   Section        0  myboard.o(i.led_gunclose)
    i.led_gunclose_cmd                       0x0801984c   Section        0  myboard.o(i.led_gunclose_cmd)
    i.led_gunopen                            0x08019894   Section        0  myboard.o(i.led_gunopen)
    i.led_gunopen_cmd                        0x080198b0   Section        0  myboard.o(i.led_gunopen_cmd)
    i.led_netclose                           0x080198f4   Section        0  myboard.o(i.led_netclose)
    i.led_netclose_cmd                       0x08019910   Section        0  myboard.o(i.led_netclose_cmd)
    i.led_netopen                            0x08019958   Section        0  myboard.o(i.led_netopen)
    i.led_netopen_cmd                        0x08019974   Section        0  myboard.o(i.led_netopen_cmd)
    i.leo                                    0x080199b8   Section        0  myboard.o(i.leo)
    i.list                                   0x080199f8   Section        0  cmd.o(i.list)
    i.list_find_init                         0x08019a60   Section        0  cmd.o(i.list_find_init)
    list_find_init                           0x08019a61   Thumb Code    42  cmd.o(i.list_find_init)
    i.list_get_next                          0x08019a8a   Section        0  cmd.o(i.list_get_next)
    list_get_next                            0x08019a8b   Thumb Code   136  cmd.o(i.list_get_next)
    i.list_mem                               0x08019b14   Section        0  mem.o(i.list_mem)
    i.list_sem                               0x08019b8c   Section        0  cmd.o(i.list_sem)
    i.list_thread                            0x08019ccc   Section        0  cmd.o(i.list_thread)
    i.list_timer                             0x08019eb0   Section        0  cmd.o(i.list_timer)
    i.main                                   0x0801a010   Section        0  main.o(i.main)
    i.main_thread_entry                      0x0801a0dc   Section        0  components.o(i.main_thread_entry)
    i.mem_manage_fault_track                 0x0801a0ec   Section        0  cpuport.o(i.mem_manage_fault_track)
    mem_manage_fault_track                   0x0801a0ed   Thumb Code   114  cpuport.o(i.mem_manage_fault_track)
    i.move_kv                                0x0801a1d4   Section        0  fdb_kvdb.o(i.move_kv)
    move_kv                                  0x0801a1d5   Thumb Code   398  fdb_kvdb.o(i.move_kv)
    i.msh_auto_complete                      0x0801a3d8   Section        0  msh.o(i.msh_auto_complete)
    i.msh_exec                               0x0801a478   Section        0  msh.o(i.msh_exec)
    i.msh_get_cmd                            0x0801a4e4   Section        0  msh.o(i.msh_get_cmd)
    msh_get_cmd                              0x0801a4e5   Thumb Code    76  msh.o(i.msh_get_cmd)
    i.msh_help                               0x0801a540   Section        0  msh.o(i.msh_help)
    i.msh_is_used                            0x0801a5c0   Section        0  msh.o(i.msh_is_used)
    i.msh_split                              0x0801a5c4   Section        0  msh.o(i.msh_split)
    msh_split                                0x0801a5c5   Thumb Code   202  msh.o(i.msh_split)
    i.netport_task_entry                     0x0801a6b4   Section        0  netport.o(i.netport_task_entry)
    i.netport_task_init                      0x0801a784   Section        0  netport.o(i.netport_task_init)
    i.new_kv                                 0x0801a808   Section        0  fdb_kvdb.o(i.new_kv)
    new_kv                                   0x0801a809   Thumb Code   134  fdb_kvdb.o(i.new_kv)
    i.new_kv_ex                              0x0801a8e8   Section        0  fdb_kvdb.o(i.new_kv_ex)
    new_kv_ex                                0x0801a8e9   Thumb Code    52  fdb_kvdb.o(i.new_kv_ex)
    i.object_split                           0x0801a91c   Section        0  cmd.o(i.object_split)
    object_split                             0x0801a91d   Thumb Code    22  cmd.o(i.object_split)
    i.plug_holes                             0x0801a938   Section        0  mem.o(i.plug_holes)
    plug_holes                               0x0801a939   Thumb Code   160  mem.o(i.plug_holes)
    i.power_div                              0x0801aa44   Section        0  myboard.o(i.power_div)
    i.power_div_check                        0x0801aa54   Section        0  myboard.o(i.power_div_check)
    i.power_div_cmd                          0x0801aa74   Section        0  myboard.o(i.power_div_cmd)
    i.print_char                             0x0801ab14   Section        0  syscall_armlibc.o(i.print_char)
    i.print_number                           0x0801ab28   Section        0  kservice.o(i.print_number)
    print_number                             0x0801ab29   Thumb Code   400  kservice.o(i.print_number)
    i.query_by_time_cb                       0x0801acc0   Section        0  flashdb_app.o(i.query_by_time_cb)
    query_by_time_cb                         0x0801acc1   Thumb Code    72  flashdb_app.o(i.query_by_time_cb)
    i.query_cb                               0x0801ad54   Section        0  flashdb_app.o(i.query_cb)
    query_cb                                 0x0801ad55   Thumb Code    66  flashdb_app.o(i.query_cb)
    i.query_count_cb                         0x0801ade0   Section        0  fdb_tsdb.o(i.query_count_cb)
    query_count_cb                           0x0801ade1   Thumb Code    24  fdb_tsdb.o(i.query_count_cb)
    i.read                                   0x0801adf8   Section        0  fal_flash_stm32f1_port.o(i.read)
    read                                     0x0801adf9   Thumb Code    58  fal_flash_stm32f1_port.o(i.read)
    i.read_basic_header                      0x0801ae40   Section        0  sfud_sfdp.o(i.read_basic_header)
    read_basic_header                        0x0801ae41   Thumb Code   202  sfud_sfdp.o(i.read_basic_header)
    i.read_basic_table                       0x0801afa8   Section        0  sfud_sfdp.o(i.read_basic_table)
    read_basic_table                         0x0801afa9   Thumb Code   854  sfud_sfdp.o(i.read_basic_table)
    i.read_jedec_id                          0x0801b5b8   Section        0  sfud.o(i.read_jedec_id)
    read_jedec_id                            0x0801b5b9   Thumb Code   116  sfud.o(i.read_jedec_id)
    i.read_kv                                0x0801b6a0   Section        0  fdb_kvdb.o(i.read_kv)
    read_kv                                  0x0801b6a1   Thumb Code   464  fdb_kvdb.o(i.read_kv)
    i.read_sector_info                       0x0801b8f0   Section        0  fdb_kvdb.o(i.read_sector_info)
    read_sector_info                         0x0801b8f1   Thumb Code   458  fdb_kvdb.o(i.read_sector_info)
    i.read_sector_info                       0x0801bb24   Section        0  fdb_tsdb.o(i.read_sector_info)
    read_sector_info                         0x0801bb25   Thumb Code   406  fdb_tsdb.o(i.read_sector_info)
    i.read_sfdp_data                         0x0801bd44   Section        0  sfud_sfdp.o(i.read_sfdp_data)
    read_sfdp_data                           0x0801bd45   Thumb Code   158  sfud_sfdp.o(i.read_sfdp_data)
    i.read_sfdp_header                       0x0801be60   Section        0  sfud_sfdp.o(i.read_sfdp_header)
    read_sfdp_header                         0x0801be61   Thumb Code   172  sfud_sfdp.o(i.read_sfdp_header)
    i.read_tsl                               0x0801bff0   Section        0  fdb_tsdb.o(i.read_tsl)
    read_tsl                                 0x0801bff1   Thumb Code    74  fdb_tsdb.o(i.read_tsl)
    i.reset                                  0x0801c03c   Section        0  sfud.o(i.reset)
    reset                                    0x0801c03d   Thumb Code   146  sfud.o(i.reset)
    i.restart                                0x0801c154   Section        0  myboard.o(i.restart)
    i.retry_delay_100us                      0x0801c19c   Section        0  sfud_port.o(i.retry_delay_100us)
    retry_delay_100us                        0x0801c19d   Thumb Code    14  sfud_port.o(i.retry_delay_100us)
    i.rt_application_init                    0x0801c1ac   Section        0  components.o(i.rt_application_init)
    i.rt_assert_handler                      0x0801c1fc   Section        0  kservice.o(i.rt_assert_handler)
    i.rt_calloc                              0x0801c270   Section        0  mem.o(i.rt_calloc)
    i.rt_components_board_init               0x0801c294   Section        0  components.o(i.rt_components_board_init)
    i.rt_components_init                     0x0801c2e0   Section        0  components.o(i.rt_components_init)
    i.rt_enter_critical                      0x0801c350   Section        0  scheduler.o(i.rt_enter_critical)
    i.rt_exit_critical                       0x0801c370   Section        0  scheduler.o(i.rt_exit_critical)
    i.rt_free                                0x0801c3b4   Section        0  mem.o(i.rt_free)
    i.rt_heap_begin_get                      0x0801c5a4   Section        0  board.o(i.rt_heap_begin_get)
    i.rt_heap_end_get                        0x0801c5ac   Section        0  board.o(i.rt_heap_end_get)
    i.rt_hw_board_init                       0x0801c5b4   Section        0  board.o(i.rt_hw_board_init)
    i.rt_hw_console_getchar                  0x0801c5ec   Section        0  board.o(i.rt_hw_console_getchar)
    i.rt_hw_console_output                   0x0801c618   Section        0  board.o(i.rt_hw_console_output)
    i.rt_hw_hard_fault_exception             0x0801c668   Section        0  cpuport.o(i.rt_hw_hard_fault_exception)
    i.rt_hw_stack_init                       0x0801c874   Section        0  cpuport.o(i.rt_hw_stack_init)
    i.rt_interrupt_enter                     0x0801c8c0   Section        0  irq.o(i.rt_interrupt_enter)
    i.rt_interrupt_get_nest                  0x0801c8e4   Section        0  irq.o(i.rt_interrupt_get_nest)
    i.rt_interrupt_leave                     0x0801c900   Section        0  irq.o(i.rt_interrupt_leave)
    i.rt_ipc_list_suspend                    0x0801c924   Section        0  ipc.o(i.rt_ipc_list_suspend)
    rt_ipc_list_suspend                      0x0801c925   Thumb Code   110  ipc.o(i.rt_ipc_list_suspend)
    i.rt_ipc_object_init                     0x0801c992   Section        0  ipc.o(i.rt_ipc_object_init)
    rt_ipc_object_init                       0x0801c993   Thumb Code    16  ipc.o(i.rt_ipc_object_init)
    i.rt_kprintf                             0x0801c9a4   Section        0  kservice.o(i.rt_kprintf)
    i.rt_list_init                           0x0801c9d4   Section        0  scheduler.o(i.rt_list_init)
    rt_list_init                             0x0801c9d5   Thumb Code     6  scheduler.o(i.rt_list_init)
    i.rt_list_init                           0x0801c9da   Section        0  timer.o(i.rt_list_init)
    rt_list_init                             0x0801c9db   Thumb Code     6  timer.o(i.rt_list_init)
    i.rt_list_insert_after                   0x0801c9e0   Section        0  object.o(i.rt_list_insert_after)
    rt_list_insert_after                     0x0801c9e1   Thumb Code    14  object.o(i.rt_list_insert_after)
    i.rt_list_insert_after                   0x0801c9ee   Section        0  thread.o(i.rt_list_insert_after)
    rt_list_insert_after                     0x0801c9ef   Thumb Code    14  thread.o(i.rt_list_insert_after)
    i.rt_list_insert_after                   0x0801c9fc   Section        0  timer.o(i.rt_list_insert_after)
    rt_list_insert_after                     0x0801c9fd   Thumb Code    14  timer.o(i.rt_list_insert_after)
    i.rt_list_insert_before                  0x0801ca0a   Section        0  ipc.o(i.rt_list_insert_before)
    rt_list_insert_before                    0x0801ca0b   Thumb Code    14  ipc.o(i.rt_list_insert_before)
    i.rt_list_isempty                        0x0801ca18   Section        0  ipc.o(i.rt_list_isempty)
    rt_list_isempty                          0x0801ca19   Thumb Code    16  ipc.o(i.rt_list_isempty)
    i.rt_list_isempty                        0x0801ca28   Section        0  timer.o(i.rt_list_isempty)
    rt_list_isempty                          0x0801ca29   Thumb Code    16  timer.o(i.rt_list_isempty)
    i.rt_list_len                            0x0801ca38   Section        0  cmd.o(i.rt_list_len)
    rt_list_len                              0x0801ca39   Thumb Code    20  cmd.o(i.rt_list_len)
    i.rt_list_remove                         0x0801ca4c   Section        0  object.o(i.rt_list_remove)
    rt_list_remove                           0x0801ca4d   Thumb Code    18  object.o(i.rt_list_remove)
    i.rt_list_remove                         0x0801ca5e   Section        0  thread.o(i.rt_list_remove)
    rt_list_remove                           0x0801ca5f   Thumb Code    18  thread.o(i.rt_list_remove)
    i.rt_list_remove                         0x0801ca70   Section        0  timer.o(i.rt_list_remove)
    rt_list_remove                           0x0801ca71   Thumb Code    18  timer.o(i.rt_list_remove)
    i.rt_malloc                              0x0801ca84   Section        0  mem.o(i.rt_malloc)
    i.rt_memmove                             0x0801cd24   Section        0  kservice.o(i.rt_memmove)
    i.rt_memset                              0x0801cd66   Section        0  kservice.o(i.rt_memset)
    i.rt_object_allocate                     0x0801cdb0   Section        0  object.o(i.rt_object_allocate)
    i.rt_object_delete                       0x0801ce84   Section        0  object.o(i.rt_object_delete)
    i.rt_object_detach                       0x0801cf10   Section        0  object.o(i.rt_object_detach)
    i.rt_object_get_information              0x0801cf54   Section        0  object.o(i.rt_object_get_information)
    i.rt_object_get_type                     0x0801cf7c   Section        0  object.o(i.rt_object_get_type)
    i.rt_object_init                         0x0801cfb0   Section        0  object.o(i.rt_object_init)
    i.rt_object_is_systemobject              0x0801d058   Section        0  object.o(i.rt_object_is_systemobject)
    i.rt_schedule                            0x0801d094   Section        0  scheduler.o(i.rt_schedule)
    i.rt_schedule_insert_thread              0x0801d120   Section        0  scheduler.o(i.rt_schedule_insert_thread)
    i.rt_schedule_remove_thread              0x0801d19c   Section        0  scheduler.o(i.rt_schedule_remove_thread)
    i.rt_sem_create                          0x0801d21c   Section        0  ipc.o(i.rt_sem_create)
    i.rt_sem_init                            0x0801d2c8   Section        0  ipc.o(i.rt_sem_init)
    i.rt_sem_release                         0x0801d334   Section        0  ipc.o(i.rt_sem_release)
    i.rt_sem_take                            0x0801d3d8   Section        0  ipc.o(i.rt_sem_take)
    i.rt_show_version                        0x0801d550   Section        0  kservice.o(i.rt_show_version)
    i.rt_soft_timer_check                    0x0801d600   Section        0  timer.o(i.rt_soft_timer_check)
    i.rt_strlen                              0x0801d6c8   Section        0  kservice.o(i.rt_strlen)
    i.rt_strncpy                             0x0801d6da   Section        0  kservice.o(i.rt_strncpy)
    i.rt_system_heap_init                    0x0801d710   Section        0  mem.o(i.rt_system_heap_init)
    i.rt_system_scheduler_init               0x0801d864   Section        0  scheduler.o(i.rt_system_scheduler_init)
    i.rt_system_scheduler_start              0x0801d8b4   Section        0  scheduler.o(i.rt_system_scheduler_start)
    i.rt_system_timer_init                   0x0801d8e4   Section        0  timer.o(i.rt_system_timer_init)
    i.rt_system_timer_thread_init            0x0801d900   Section        0  timer.o(i.rt_system_timer_thread_init)
    i.rt_thread_create                       0x0801d954   Section        0  thread.o(i.rt_thread_create)
    i.rt_thread_delay                        0x0801d9a4   Section        0  thread.o(i.rt_thread_delay)
    i.rt_thread_exit                         0x0801d9b0   Section        0  thread.o(i.rt_thread_exit)
    i.rt_thread_idle_entry                   0x0801da08   Section        0  idle.o(i.rt_thread_idle_entry)
    rt_thread_idle_entry                     0x0801da09   Thumb Code     8  idle.o(i.rt_thread_idle_entry)
    i.rt_thread_idle_excute                  0x0801da10   Section        0  idle.o(i.rt_thread_idle_excute)
    i.rt_thread_idle_init                    0x0801dac8   Section        0  idle.o(i.rt_thread_idle_init)
    i.rt_thread_init                         0x0801db04   Section        0  thread.o(i.rt_thread_init)
    i.rt_thread_mdelay                       0x0801db80   Section        0  thread.o(i.rt_thread_mdelay)
    i.rt_thread_resume                       0x0801db94   Section        0  thread.o(i.rt_thread_resume)
    i.rt_thread_self                         0x0801dc18   Section        0  thread.o(i.rt_thread_self)
    i.rt_thread_sleep                        0x0801dc24   Section        0  thread.o(i.rt_thread_sleep)
    i.rt_thread_startup                      0x0801dca8   Section        0  thread.o(i.rt_thread_startup)
    i.rt_thread_suspend                      0x0801dd6c   Section        0  thread.o(i.rt_thread_suspend)
    i.rt_thread_timeout                      0x0801ddf8   Section        0  thread.o(i.rt_thread_timeout)
    i.rt_thread_timer_entry                  0x0801deac   Section        0  timer.o(i.rt_thread_timer_entry)
    rt_thread_timer_entry                    0x0801dead   Thumb Code    62  timer.o(i.rt_thread_timer_entry)
    i.rt_thread_yield                        0x0801def0   Section        0  thread.o(i.rt_thread_yield)
    i.rt_tick_from_millisecond               0x0801df54   Section        0  clock.o(i.rt_tick_from_millisecond)
    i.rt_tick_get                            0x0801df8c   Section        0  clock.o(i.rt_tick_get)
    i.rt_tick_increase                       0x0801df98   Section        0  clock.o(i.rt_tick_increase)
    i.rt_timer_check                         0x0801dfc8   Section        0  timer.o(i.rt_timer_check)
    i.rt_timer_control                       0x0801e078   Section        0  timer.o(i.rt_timer_control)
    i.rt_timer_create                        0x0801e154   Section        0  timer.o(i.rt_timer_create)
    i.rt_timer_detach                        0x0801e18c   Section        0  timer.o(i.rt_timer_detach)
    i.rt_timer_init                          0x0801e268   Section        0  timer.o(i.rt_timer_init)
    i.rt_timer_list_next_timeout             0x0801e2bc   Section        0  timer.o(i.rt_timer_list_next_timeout)
    rt_timer_list_next_timeout               0x0801e2bd   Thumb Code    44  timer.o(i.rt_timer_list_next_timeout)
    i.rt_timer_start                         0x0801e2e8   Section        0  timer.o(i.rt_timer_start)
    i.rt_timer_stop                          0x0801e4c4   Section        0  timer.o(i.rt_timer_stop)
    i.rt_vsnprintf                           0x0801e56c   Section        0  kservice.o(i.rt_vsnprintf)
    i.rti_board_end                          0x0801e8ac   Section        0  components.o(i.rti_board_end)
    rti_board_end                            0x0801e8ad   Thumb Code     4  components.o(i.rti_board_end)
    i.rti_board_start                        0x0801e8b0   Section        0  components.o(i.rti_board_start)
    rti_board_start                          0x0801e8b1   Thumb Code     4  components.o(i.rti_board_start)
    i.rti_end                                0x0801e8b4   Section        0  components.o(i.rti_end)
    rti_end                                  0x0801e8b5   Thumb Code     4  components.o(i.rti_end)
    i.rti_start                              0x0801e8b8   Section        0  components.o(i.rti_start)
    rti_start                                0x0801e8b9   Thumb Code     4  components.o(i.rti_start)
    i.rtthread_startup                       0x0801e8bc   Section        0  components.o(i.rtthread_startup)
    i.sc                                     0x0801e8e8   Section        0  screen.o(i.sc)
    i.sc_SendCard                            0x0801e944   Section        0  screen.o(i.sc_SendCard)
    i.sc_SendCharge                          0x0801ea70   Section        0  screen.o(i.sc_SendCharge)
    i.sc_SendConn                            0x0801ed2a   Section        0  screen.o(i.sc_SendConn)
    i.sc_SendDetailed                        0x0801ee00   Section        0  screen.o(i.sc_SendDetailed)
    i.sc_SendFault                           0x0801f0e0   Section        0  screen.o(i.sc_SendFault)
    i.sc_SendQR                              0x0801f242   Section        0  screen.o(i.sc_SendQR)
    i.sc_SendRead                            0x0801f336   Section        0  screen.o(i.sc_SendRead)
    i.sc_SendSwitchGun                       0x0801f61c   Section        0  screen.o(i.sc_SendSwitchGun)
    i.sc_SendSwitchPage                      0x0801f684   Section        0  screen.o(i.sc_SendSwitchPage)
    i.sc_SendUpdata                          0x0801f70a   Section        0  screen.o(i.sc_SendUpdata)
    i.sc_SetReplay                           0x0801f784   Section        0  screen.o(i.sc_SetReplay)
    i.sc_dataUpdata                          0x0801f7b4   Section        0  screen.o(i.sc_dataUpdata)
    i.scram_st                               0x0801faa0   Section        0  myboard.o(i.scram_st)
    i.scram_st_cmd                           0x0801facc   Section        0  myboard.o(i.scram_st_cmd)
    i.search_start_tsl_addr                  0x0801fb14   Section        0  fdb_tsdb.o(i.search_start_tsl_addr)
    search_start_tsl_addr                    0x0801fb15   Thumb Code   132  fdb_tsdb.o(i.search_start_tsl_addr)
    i.sector_iterator                        0x0801fb98   Section        0  fdb_kvdb.o(i.sector_iterator)
    sector_iterator                          0x0801fb99   Thumb Code   114  fdb_kvdb.o(i.sector_iterator)
    i.sector_iterator                        0x0801fc0a   Section        0  fdb_tsdb.o(i.sector_iterator)
    sector_iterator                          0x0801fc0b   Thumb Code   114  fdb_tsdb.o(i.sector_iterator)
    i.sector_statistics_cb                   0x0801fc7c   Section        0  fdb_kvdb.o(i.sector_statistics_cb)
    sector_statistics_cb                     0x0801fc7d   Thumb Code    46  fdb_kvdb.o(i.sector_statistics_cb)
    i.set_4_byte_address_mode                0x0801fcac   Section        0  sfud.o(i.set_4_byte_address_mode)
    set_4_byte_address_mode                  0x0801fcad   Thumb Code   134  sfud.o(i.set_4_byte_address_mode)
    i.set_kv                                 0x0801fdd8   Section        0  fdb_kvdb.o(i.set_kv)
    set_kv                                   0x0801fdd9   Thumb Code   216  fdb_kvdb.o(i.set_kv)
    i.set_write_enabled                      0x0801feb0   Section        0  sfud.o(i.set_write_enabled)
    set_write_enabled                        0x0801feb1   Thumb Code   126  sfud.o(i.set_write_enabled)
    i.sfud_device_init                       0x0801ffbc   Section        0  sfud.o(i.sfud_device_init)
    i.sfud_log_debug                         0x0802004c   Section        0  sfud_port.o(i.sfud_log_debug)
    i.sfud_log_info                          0x080200a0   Section        0  sfud_port.o(i.sfud_log_info)
    i.sfud_read_sfdp                         0x080200e4   Section        0  sfud_sfdp.o(i.sfud_read_sfdp)
    i.sfud_read_status                       0x08020174   Section        0  sfud.o(i.sfud_read_status)
    i.sfud_spi_port_init                     0x08020210   Section        0  sfud_port.o(i.sfud_spi_port_init)
    i.sfud_write_status                      0x08020290   Section        0  sfud.o(i.sfud_write_status)
    i.shell_auto_complete                    0x0802037c   Section        0  shell.o(i.shell_auto_complete)
    shell_auto_complete                      0x0802037d   Thumb Code    42  shell.o(i.shell_auto_complete)
    i.show_wait_queue                        0x080203b4   Section        0  cmd.o(i.show_wait_queue)
    show_wait_queue                          0x080203b5   Thumb Code    40  cmd.o(i.show_wait_queue)
    i.skip_atoi                              0x080203e4   Section        0  kservice.o(i.skip_atoi)
    skip_atoi                                0x080203e5   Thumb Code    38  kservice.o(i.skip_atoi)
    i.software_init                          0x0802040c   Section        0  sfud.o(i.software_init)
    software_init                            0x0802040d   Thumb Code    34  sfud.o(i.software_init)
    i.spi_configuration                      0x08020474   Section        0  sfud_port.o(i.spi_configuration)
    spi_configuration                        0x08020475   Thumb Code    62  sfud_port.o(i.spi_configuration)
    i.spi_flash_init                         0x080204b4   Section        0  drv_spi_flash.o(i.spi_flash_init)
    i.spi_lock                               0x080204cc   Section        0  sfud_port.o(i.spi_lock)
    spi_lock                                 0x080204cd   Thumb Code     4  sfud_port.o(i.spi_lock)
    i.spi_unlock                             0x080204d0   Section        0  sfud_port.o(i.spi_unlock)
    spi_unlock                               0x080204d1   Thumb Code     4  sfud_port.o(i.spi_unlock)
    i.spi_write_read                         0x080204d4   Section        0  sfud_port.o(i.spi_write_read)
    spi_write_read                           0x080204d5   Thumb Code   182  sfud_port.o(i.spi_write_read)
    i.start_test                             0x080205e4   Section        0  chargectrl.o(i.start_test)
    i.stm32flash_Read                        0x080205f0   Section        0  fal_flash_stm32f1_port.o(i.stm32flash_Read)
    i.stm32flash_Write                       0x0802060c   Section        0  fal_flash_stm32f1_port.o(i.stm32flash_Write)
    i.stop_test                              0x0802065c   Section        0  chargectrl.o(i.stop_test)
    i.str_common                             0x08020668   Section        0  msh.o(i.str_common)
    str_common                               0x08020669   Thumb Code    32  msh.o(i.str_common)
    i.tgc                                    0x08020688   Section        0  myboard.o(i.tgc)
    i.time_count                             0x080206fc   Section        0  myboard.o(i.time_count)
    i.time_count_cmd                         0x08020748   Section        0  myboard.o(i.time_count_cmd)
    i.time_get                               0x08020790   Section        0  myboard.o(i.time_get)
    i.time_set                               0x080207b4   Section        0  myboard.o(i.time_set)
    i.time_set_cmd                           0x080207d0   Section        0  myboard.o(i.time_set_cmd)
    i.tsdb_append                            0x0802092c   Section        0  flashdb_app.o(i.tsdb_append)
    i.tsdb_clear                             0x080209e4   Section        0  flashdb_app.o(i.tsdb_clear)
    i.tsdb_query_all                         0x08020a54   Section        0  flashdb_app.o(i.tsdb_query_all)
    i.tsdb_query_time                        0x08020a6c   Section        0  flashdb_app.o(i.tsdb_query_time)
    i.tsl_append                             0x08020ba4   Section        0  fdb_tsdb.o(i.tsl_append)
    tsl_append                               0x08020ba5   Thumb Code   304  fdb_tsdb.o(i.tsl_append)
    i.tsl_format_all                         0x08020d44   Section        0  fdb_tsdb.o(i.tsl_format_all)
    tsl_format_all                           0x08020d45   Thumb Code    88  fdb_tsdb.o(i.tsl_format_all)
    i.uart_init                              0x08020ddc   Section        0  board.o(i.uart_init)
    uart_init                                0x08020ddd   Thumb Code    48  board.o(i.uart_init)
    i.update_kv_cache                        0x08020e14   Section        0  fdb_kvdb.o(i.update_kv_cache)
    update_kv_cache                          0x08020e15   Thumb Code   288  fdb_kvdb.o(i.update_kv_cache)
    i.update_sec_status                      0x08020f34   Section        0  fdb_kvdb.o(i.update_sec_status)
    update_sec_status                        0x08020f35   Thumb Code   130  fdb_kvdb.o(i.update_sec_status)
    i.update_sec_status                      0x08020fb6   Section        0  fdb_tsdb.o(i.update_sec_status)
    update_sec_status                        0x08020fb7   Thumb Code   560  fdb_tsdb.o(i.update_sec_status)
    i.update_sector_cache                    0x080211e6   Section        0  fdb_kvdb.o(i.update_sector_cache)
    update_sector_cache                      0x080211e7   Thumb Code   140  fdb_kvdb.o(i.update_sector_cache)
    i.update_sector_empty_addr_cache         0x08021272   Section        0  fdb_kvdb.o(i.update_sector_empty_addr_cache)
    update_sector_empty_addr_cache           0x08021273   Thumb Code    40  fdb_kvdb.o(i.update_sector_empty_addr_cache)
    i.update_sector_status_store_cache       0x0802129a   Section        0  fdb_kvdb.o(i.update_sector_status_store_cache)
    update_sector_status_store_cache         0x0802129b   Thumb Code    28  fdb_kvdb.o(i.update_sector_status_store_cache)
    i.usage_fault_track                      0x080212b8   Section        0  cpuport.o(i.usage_fault_track)
    usage_fault_track                        0x080212b9   Thumb Code   122  cpuport.o(i.usage_fault_track)
    i.version                                0x080213a0   Section        0  cmd.o(i.version)
    i.wait_busy                              0x080213ac   Section        0  sfud.o(i.wait_busy)
    wait_busy                                0x080213ad   Thumb Code   104  sfud.o(i.wait_busy)
    i.write                                  0x08021480   Section        0  fal_flash_stm32f1_port.o(i.write)
    write                                    0x08021481   Thumb Code   112  fal_flash_stm32f1_port.o(i.write)
    i.write_kv_hdr                           0x080214fc   Section        0  fdb_kvdb.o(i.write_kv_hdr)
    write_kv_hdr                             0x080214fd   Thumb Code    68  fdb_kvdb.o(i.write_kv_hdr)
    i.write_tsl                              0x08021540   Section        0  fdb_tsdb.o(i.write_tsl)
    write_tsl                                0x08021541   Thumb Code   172  fdb_tsdb.o(i.write_tsl)
    .constdata                               0x080215ec   Section       14  bms.o(.constdata)
    .constdata                               0x080215fa   Section       14  dc_module.o(.constdata)
    .constdata                               0x08021608   Section       15  electric.o(.constdata)
    .constdata                               0x08021617   Section       15  insulation.o(.constdata)
    .constdata                               0x08021626   Section       21  chargerun.o(.constdata)
    .constdata                               0x0802163c   Section       28  card.o(.constdata)
    .constdata                               0x08021658   Section       21  chargectrl.o(.constdata)
    .constdata                               0x08021670   Section       18  dtu.o(.constdata)
    .constdata                               0x08021682   Section       18  netport.o(.constdata)
    .constdata                               0x08021694   Section       30  stm32f1xx_hal_rcc.o(.constdata)
    aPLLMULFactorTable                       0x08021694   Data          14  stm32f1xx_hal_rcc.o(.constdata)
    aPredivFactorTable                       0x080216a2   Data          16  stm32f1xx_hal_rcc.o(.constdata)
    .constdata                               0x080216b2   Section       30  stm32f1xx_hal_rcc_ex.o(.constdata)
    aPLLMULFactorTable                       0x080216b2   Data          14  stm32f1xx_hal_rcc_ex.o(.constdata)
    aPredivFactorTable                       0x080216c0   Data          16  stm32f1xx_hal_rcc_ex.o(.constdata)
    .constdata                               0x080216d0   Section       24  system_stm32f1xx.o(.constdata)
    .constdata                               0x080216e8   Section       56  fal_flash_stm32f1_port.o(.constdata)
    .constdata                               0x08021720   Section      313  fal_partition.o(.constdata)
    partition_table_def                      0x08021720   Data         128  fal_partition.o(.constdata)
    __func__                                 0x080217a0   Data          28  fal_partition.o(.constdata)
    __func__                                 0x080217bc   Data          19  fal_partition.o(.constdata)
    __func__                                 0x080217cf   Data          26  fal_partition.o(.constdata)
    __func__                                 0x080217e9   Data          24  fal_partition.o(.constdata)
    __func__                                 0x08021801   Data          29  fal_partition.o(.constdata)
    __func__                                 0x0802181e   Data          19  fal_partition.o(.constdata)
    __func__                                 0x08021831   Data          20  fal_partition.o(.constdata)
    __func__                                 0x08021845   Data          20  fal_partition.o(.constdata)
    .constdata                               0x0802185c   Section      861  sfud.o(.constdata)
    mf_table                                 0x0802185c   Data         128  sfud.o(.constdata)
    flash_chip_table                         0x080218dc   Data         504  sfud.o(.constdata)
    __FUNCTION__                             0x08021ad4   Data          14  sfud.o(.constdata)
    __FUNCTION__                             0x08021ae2   Data          14  sfud.o(.constdata)
    __FUNCTION__                             0x08021af0   Data          10  sfud.o(.constdata)
    __FUNCTION__                             0x08021afa   Data          16  sfud.o(.constdata)
    __FUNCTION__                             0x08021b0a   Data          11  sfud.o(.constdata)
    __FUNCTION__                             0x08021b15   Data          24  sfud.o(.constdata)
    __FUNCTION__                             0x08021b2d   Data          10  sfud.o(.constdata)
    __FUNCTION__                             0x08021b37   Data           6  sfud.o(.constdata)
    __FUNCTION__                             0x08021b3d   Data          14  sfud.o(.constdata)
    __FUNCTION__                             0x08021b4b   Data          18  sfud.o(.constdata)
    __FUNCTION__                             0x08021b5d   Data          24  sfud.o(.constdata)
    __FUNCTION__                             0x08021b75   Data          17  sfud.o(.constdata)
    __FUNCTION__                             0x08021b86   Data          10  sfud.o(.constdata)
    __FUNCTION__                             0x08021b90   Data          23  sfud.o(.constdata)
    __FUNCTION__                             0x08021ba7   Data          18  sfud.o(.constdata)
    .constdata                               0x08021bb9   Section       15  sfud_port.o(.constdata)
    __FUNCTION__                             0x08021bb9   Data          15  sfud_port.o(.constdata)
    .constdata                               0x08021bc8   Section      112  sfud_sfdp.o(.constdata)
    __FUNCTION__                             0x08021bc8   Data          15  sfud_sfdp.o(.constdata)
    __FUNCTION__                             0x08021bd7   Data          17  sfud_sfdp.o(.constdata)
    __FUNCTION__                             0x08021be8   Data          18  sfud_sfdp.o(.constdata)
    __FUNCTION__                             0x08021bfa   Data          17  sfud_sfdp.o(.constdata)
    __FUNCTION__                             0x08021c0b   Data          15  sfud_sfdp.o(.constdata)
    __FUNCTION__                             0x08021c1a   Data          30  sfud_sfdp.o(.constdata)
    .constdata                               0x08021c38   Section       87  fdb_kvdb.o(.constdata)
    __func__                                 0x08021c38   Data          17  fdb_kvdb.o(.constdata)
    __func__                                 0x08021c49   Data          14  fdb_kvdb.o(.constdata)
    __func__                                 0x08021c70   Data          17  fdb_kvdb.o(.constdata)
    __func__                                 0x08021c81   Data          14  fdb_kvdb.o(.constdata)
    .constdata                               0x08021c8f   Section       62  fdb_tsdb.o(.constdata)
    __func__                                 0x08021c8f   Data          17  fdb_tsdb.o(.constdata)
    __func__                                 0x08021ca0   Data          14  fdb_tsdb.o(.constdata)
    __func__                                 0x08021cae   Data          17  fdb_tsdb.o(.constdata)
    __func__                                 0x08021cbf   Data          14  fdb_tsdb.o(.constdata)
    .constdata                               0x08021cd0   Section     1059  fdb_utils.o(.constdata)
    crc32_table                              0x08021cd0   Data        1024  fdb_utils.o(.constdata)
    __func__                                 0x080220d0   Data          18  fdb_utils.o(.constdata)
    __func__                                 0x080220e2   Data          17  fdb_utils.o(.constdata)
    .constdata                               0x080220f3   Section       68  components.o(.constdata)
    __FUNCTION__                             0x08022123   Data          20  components.o(.constdata)
    .constdata                               0x08022137   Section       22  idle.o(.constdata)
    __FUNCTION__                             0x08022137   Data          22  idle.o(.constdata)
    .constdata                               0x0802214d   Section       96  ipc.o(.constdata)
    __FUNCTION__                             0x0802214d   Data          12  ipc.o(.constdata)
    __FUNCTION__                             0x08022159   Data          14  ipc.o(.constdata)
    __FUNCTION__                             0x08022167   Data          14  ipc.o(.constdata)
    __FUNCTION__                             0x08022175   Data          14  ipc.o(.constdata)
    __FUNCTION__                             0x08022183   Data          12  ipc.o(.constdata)
    __FUNCTION__                             0x0802218f   Data          15  ipc.o(.constdata)
    __FUNCTION__                             0x0802219e   Data          15  ipc.o(.constdata)
    .constdata                               0x080221ad   Section      290  kservice.o(.constdata)
    small_digits                             0x080222ad   Data          17  kservice.o(.constdata)
    large_digits                             0x080222be   Data          17  kservice.o(.constdata)
    .constdata                               0x080222cf   Section       60  mem.o(.constdata)
    __FUNCTION__                             0x080222cf   Data          11  mem.o(.constdata)
    __FUNCTION__                             0x080222da   Data          20  mem.o(.constdata)
    __FUNCTION__                             0x080222ee   Data          10  mem.o(.constdata)
    __FUNCTION__                             0x080222f8   Data          11  mem.o(.constdata)
    __FUNCTION__                             0x08022303   Data           8  mem.o(.constdata)
    .constdata                               0x0802230b   Section      128  object.o(.constdata)
    __FUNCTION__                             0x0802230b   Data          15  object.o(.constdata)
    __FUNCTION__                             0x0802231a   Data          17  object.o(.constdata)
    __FUNCTION__                             0x0802232b   Data          19  object.o(.constdata)
    __FUNCTION__                             0x0802233e   Data          17  object.o(.constdata)
    __FUNCTION__                             0x0802234f   Data          26  object.o(.constdata)
    __FUNCTION__                             0x08022369   Data          19  object.o(.constdata)
    __FUNCTION__                             0x0802237c   Data          15  object.o(.constdata)
    .constdata                               0x0802238b   Section       52  scheduler.o(.constdata)
    __FUNCTION__                             0x0802238b   Data          26  scheduler.o(.constdata)
    __FUNCTION__                             0x080223a5   Data          26  scheduler.o(.constdata)
    .constdata                               0x080223bf   Section      192  thread.o(.constdata)
    __FUNCTION__                             0x080223bf   Data          16  thread.o(.constdata)
    __FUNCTION__                             0x080223cf   Data          15  thread.o(.constdata)
    __FUNCTION__                             0x080223de   Data          18  thread.o(.constdata)
    __FUNCTION__                             0x080223f0   Data          17  thread.o(.constdata)
    __FUNCTION__                             0x08022401   Data          17  thread.o(.constdata)
    __FUNCTION__                             0x08022412   Data          16  thread.o(.constdata)
    __FUNCTION__                             0x08022422   Data          22  thread.o(.constdata)
    __FUNCTION__                             0x08022438   Data          18  thread.o(.constdata)
    __FUNCTION__                             0x0802244a   Data          18  thread.o(.constdata)
    __FUNCTION__                             0x0802245c   Data          17  thread.o(.constdata)
    __FUNCTION__                             0x0802246d   Data          18  thread.o(.constdata)
    .constdata                               0x0802247f   Section       92  timer.o(.constdata)
    __FUNCTION__                             0x0802247f   Data          14  timer.o(.constdata)
    __FUNCTION__                             0x0802248d   Data          16  timer.o(.constdata)
    __FUNCTION__                             0x0802249d   Data          16  timer.o(.constdata)
    __FUNCTION__                             0x080224ad   Data          15  timer.o(.constdata)
    __FUNCTION__                             0x080224bc   Data          14  timer.o(.constdata)
    __FUNCTION__                             0x080224ca   Data          17  timer.o(.constdata)
    .constdata                               0x080224db   Section       10  board.o(.constdata)
    .constdata                               0x080224e5   Section       14  msh.o(.constdata)
    __FUNCTION__                             0x080224e5   Data          14  msh.o(.constdata)
    .constdata                               0x080224f3   Section       92  shell.o(.constdata)
    __FUNCTION__                             0x08022505   Data          22  shell.o(.constdata)
    __FUNCTION__                             0x0802251b   Data          22  shell.o(.constdata)
    __FUNCTION__                             0x08022531   Data          15  shell.o(.constdata)
    __FUNCTION__                             0x08022540   Data          15  shell.o(.constdata)
    .constdata                               0x0802254f   Section       12  mktime.o(.constdata)
    monlen                                   0x0802254f   Data          12  mktime.o(.constdata)
    .constdata                               0x0802255b   Section       12  localtime_i.o(.constdata)
    monlen                                   0x0802255b   Data          12  localtime_i.o(.constdata)
    .constdata                               0x08022567   Section      129  ctype_o.o(.constdata)
    .constdata                               0x080225e8   Section        4  ctype_o.o(.constdata)
    table                                    0x080225e8   Data           4  ctype_o.o(.constdata)
    .conststring                             0x080225ec   Section       79  flashdb_app.o(.conststring)
    .conststring                             0x0802263c   Section       42  network.o(.conststring)
    .conststring                             0x08022668   Section      213  chargerun.o(.conststring)
    .conststring                             0x08022740   Section      159  card.o(.conststring)
    .conststring                             0x080227e0   Section      211  chargectrl.o(.conststring)
    .conststring                             0x080228b4   Section       69  dtu.o(.conststring)
    .conststring                             0x080228fc   Section      226  fal_partition.o(.conststring)
    .conststring                             0x080229e0   Section       29  drv_spi_flash.o(.conststring)
    .conststring                             0x08022a00   Section      441  sfud.o(.conststring)
    .conststring                             0x08022bbc   Section      911  sfud_sfdp.o(.conststring)
    .conststring                             0x08022f4c   Section       76  fdb_kvdb.o(.conststring)
    .conststring                             0x08022f98   Section      208  fdb_tsdb.o(.conststring)
    .conststring                             0x08023068   Section       69  ipc.o(.conststring)
    .conststring                             0x080230b0   Section      235  mem.o(.conststring)
    .conststring                             0x0802319c   Section       66  thread.o(.conststring)
    .conststring                             0x080231e0   Section       68  cmd.o(.conststring)
    .rodata.name                             0x08023224   Section      203  flashdb_app.o(.rodata.name)
    .rodata.name                             0x080232ef   Section       29  general.o(.rodata.name)
    .rodata.name                             0x0802330c   Section      919  myboard.o(.rodata.name)
    .rodata.name                             0x080236a3   Section      164  gun.o(.rodata.name)
    .rodata.name                             0x08023747   Section      122  insulation.o(.rodata.name)
    .rodata.name                             0x080237c1   Section       32  screen.o(.rodata.name)
    .rodata.name                             0x080237e1   Section       58  chargectrl.o(.rodata.name)
    .rodata.name                             0x0802381b   Section       39  mem.o(.rodata.name)
    .rodata.name                             0x08023842   Section      371  cmd.o(.rodata.name)
    .rodata.name                             0x080239b5   Section      118  msh.o(.rodata.name)
    .rti_fn.0                                0x08023a2c   Section        8  components.o(.rti_fn.0)
    __tagsym$$used                           0x08023a2c   Number         0  components.o(.rti_fn.0)
    .rti_fn.0.end                            0x08023a34   Section        8  components.o(.rti_fn.0.end)
    __tagsym$$used                           0x08023a34   Number         0  components.o(.rti_fn.0.end)
    .rti_fn.1                                0x08023a3c   Section        8  board.o(.rti_fn.1)
    __tagsym$$used                           0x08023a3c   Number         0  board.o(.rti_fn.1)
    .rti_fn.1.end                            0x08023a44   Section        8  components.o(.rti_fn.1.end)
    __tagsym$$used                           0x08023a44   Number         0  components.o(.rti_fn.1.end)
    .rti_fn.6                                0x08023a4c   Section        8  bms.o(.rti_fn.6)
    __tagsym$$used                           0x08023a4c   Number         0  bms.o(.rti_fn.6)
    .rti_fn.6                                0x08023a54   Section        8  dc_module.o(.rti_fn.6)
    __tagsym$$used                           0x08023a54   Number         0  dc_module.o(.rti_fn.6)
    .rti_fn.6                                0x08023a5c   Section        8  electric.o(.rti_fn.6)
    __tagsym$$used                           0x08023a5c   Number         0  electric.o(.rti_fn.6)
    .rti_fn.6                                0x08023a64   Section        8  insulation.o(.rti_fn.6)
    __tagsym$$used                           0x08023a64   Number         0  insulation.o(.rti_fn.6)
    .rti_fn.6                                0x08023a6c   Section        8  chargerun.o(.rti_fn.6)
    __tagsym$$used                           0x08023a6c   Number         0  chargerun.o(.rti_fn.6)
    .rti_fn.6                                0x08023a74   Section        8  card.o(.rti_fn.6)
    __tagsym$$used                           0x08023a74   Number         0  card.o(.rti_fn.6)
    .rti_fn.6                                0x08023a7c   Section        8  chargectrl.o(.rti_fn.6)
    __tagsym$$used                           0x08023a7c   Number         0  chargectrl.o(.rti_fn.6)
    .rti_fn.6                                0x08023a84   Section        8  dtu.o(.rti_fn.6)
    __tagsym$$used                           0x08023a84   Number         0  dtu.o(.rti_fn.6)
    .rti_fn.6                                0x08023a8c   Section        8  netport.o(.rti_fn.6)
    __tagsym$$used                           0x08023a8c   Number         0  netport.o(.rti_fn.6)
    .rti_fn.6                                0x08023a94   Section        8  shell.o(.rti_fn.6)
    __tagsym$$used                           0x08023a94   Number         0  shell.o(.rti_fn.6)
    .rti_fn.6.end                            0x08023a9c   Section        8  components.o(.rti_fn.6.end)
    __tagsym$$used                           0x08023a9c   Number         0  components.o(.rti_fn.6.end)
    FSymTab                                  0x08023aa4   Section       72  flashdb_app.o(FSymTab)
    __tagsym$$used                           0x08023aa4   Number         0  flashdb_app.o(FSymTab)
    __tagsym$$used                           0x08023ab0   Number         0  flashdb_app.o(FSymTab)
    __tagsym$$used                           0x08023abc   Number         0  flashdb_app.o(FSymTab)
    __tagsym$$used                           0x08023ac8   Number         0  flashdb_app.o(FSymTab)
    __tagsym$$used                           0x08023ad4   Number         0  flashdb_app.o(FSymTab)
    __tagsym$$used                           0x08023ae0   Number         0  flashdb_app.o(FSymTab)
    FSymTab                                  0x08023aec   Section       12  general.o(FSymTab)
    __tagsym$$used                           0x08023aec   Number         0  general.o(FSymTab)
    FSymTab                                  0x08023af8   Section      348  myboard.o(FSymTab)
    __tagsym$$used                           0x08023af8   Number         0  myboard.o(FSymTab)
    __tagsym$$used                           0x08023b04   Number         0  myboard.o(FSymTab)
    __tagsym$$used                           0x08023b10   Number         0  myboard.o(FSymTab)
    __tagsym$$used                           0x08023b1c   Number         0  myboard.o(FSymTab)
    __tagsym$$used                           0x08023b28   Number         0  myboard.o(FSymTab)
    __tagsym$$used                           0x08023b34   Number         0  myboard.o(FSymTab)
    __tagsym$$used                           0x08023b40   Number         0  myboard.o(FSymTab)
    __tagsym$$used                           0x08023b4c   Number         0  myboard.o(FSymTab)
    __tagsym$$used                           0x08023b58   Number         0  myboard.o(FSymTab)
    __tagsym$$used                           0x08023b64   Number         0  myboard.o(FSymTab)
    __tagsym$$used                           0x08023b70   Number         0  myboard.o(FSymTab)
    __tagsym$$used                           0x08023b7c   Number         0  myboard.o(FSymTab)
    __tagsym$$used                           0x08023b88   Number         0  myboard.o(FSymTab)
    __tagsym$$used                           0x08023b94   Number         0  myboard.o(FSymTab)
    __tagsym$$used                           0x08023ba0   Number         0  myboard.o(FSymTab)
    __tagsym$$used                           0x08023bac   Number         0  myboard.o(FSymTab)
    __tagsym$$used                           0x08023bb8   Number         0  myboard.o(FSymTab)
    __tagsym$$used                           0x08023bc4   Number         0  myboard.o(FSymTab)
    __tagsym$$used                           0x08023bd0   Number         0  myboard.o(FSymTab)
    __tagsym$$used                           0x08023bdc   Number         0  myboard.o(FSymTab)
    __tagsym$$used                           0x08023be8   Number         0  myboard.o(FSymTab)
    __tagsym$$used                           0x08023bf4   Number         0  myboard.o(FSymTab)
    __tagsym$$used                           0x08023c00   Number         0  myboard.o(FSymTab)
    __tagsym$$used                           0x08023c0c   Number         0  myboard.o(FSymTab)
    __tagsym$$used                           0x08023c18   Number         0  myboard.o(FSymTab)
    __tagsym$$used                           0x08023c24   Number         0  myboard.o(FSymTab)
    __tagsym$$used                           0x08023c30   Number         0  myboard.o(FSymTab)
    __tagsym$$used                           0x08023c3c   Number         0  myboard.o(FSymTab)
    __tagsym$$used                           0x08023c48   Number         0  myboard.o(FSymTab)
    FSymTab                                  0x08023c54   Section       60  gun.o(FSymTab)
    __tagsym$$used                           0x08023c54   Number         0  gun.o(FSymTab)
    __tagsym$$used                           0x08023c60   Number         0  gun.o(FSymTab)
    __tagsym$$used                           0x08023c6c   Number         0  gun.o(FSymTab)
    __tagsym$$used                           0x08023c78   Number         0  gun.o(FSymTab)
    __tagsym$$used                           0x08023c84   Number         0  gun.o(FSymTab)
    FSymTab                                  0x08023c90   Section       48  insulation.o(FSymTab)
    __tagsym$$used                           0x08023c90   Number         0  insulation.o(FSymTab)
    __tagsym$$used                           0x08023c9c   Number         0  insulation.o(FSymTab)
    __tagsym$$used                           0x08023ca8   Number         0  insulation.o(FSymTab)
    __tagsym$$used                           0x08023cb4   Number         0  insulation.o(FSymTab)
    FSymTab                                  0x08023cc0   Section       12  screen.o(FSymTab)
    __tagsym$$used                           0x08023cc0   Number         0  screen.o(FSymTab)
    FSymTab                                  0x08023ccc   Section       24  chargectrl.o(FSymTab)
    __tagsym$$used                           0x08023ccc   Number         0  chargectrl.o(FSymTab)
    __tagsym$$used                           0x08023cd8   Number         0  chargectrl.o(FSymTab)
    FSymTab                                  0x08023ce4   Section       12  mem.o(FSymTab)
    __tagsym$$used                           0x08023ce4   Number         0  mem.o(FSymTab)
    FSymTab                                  0x08023cf0   Section      132  cmd.o(FSymTab)
    __tagsym$$used                           0x08023cf0   Number         0  cmd.o(FSymTab)
    __tagsym$$used                           0x08023cfc   Number         0  cmd.o(FSymTab)
    __tagsym$$used                           0x08023d08   Number         0  cmd.o(FSymTab)
    __tagsym$$used                           0x08023d14   Number         0  cmd.o(FSymTab)
    __tagsym$$used                           0x08023d20   Number         0  cmd.o(FSymTab)
    __tagsym$$used                           0x08023d2c   Number         0  cmd.o(FSymTab)
    __tagsym$$used                           0x08023d38   Number         0  cmd.o(FSymTab)
    __tagsym$$used                           0x08023d44   Number         0  cmd.o(FSymTab)
    __tagsym$$used                           0x08023d50   Number         0  cmd.o(FSymTab)
    __tagsym$$used                           0x08023d5c   Number         0  cmd.o(FSymTab)
    __tagsym$$used                           0x08023d68   Number         0  cmd.o(FSymTab)
    FSymTab                                  0x08023d74   Section       36  msh.o(FSymTab)
    __tagsym$$used                           0x08023d74   Number         0  msh.o(FSymTab)
    __tagsym$$used                           0x08023d80   Number         0  msh.o(FSymTab)
    __tagsym$$used                           0x08023d8c   Number         0  msh.o(FSymTab)
    .data                                    0x20000000   Section       20  flashdb_app.o(.data)
    boot_count                               0x20000000   Data           4  flashdb_app.o(.data)
    default_kv_table                         0x20000004   Data          12  flashdb_app.o(.data)
    counts                                   0x20000010   Data           4  flashdb_app.o(.data)
    .data                                    0x20000014   Section       38  ch395.o(.data)
    socket0_send_buf                         0x20000020   Data          22  ch395.o(.data)
    socket0_send_done                        0x20000036   Data           1  ch395.o(.data)
    last_phy_status                          0x20000037   Data           1  ch395.o(.data)
    last_dhcp_status                         0x20000038   Data           1  ch395.o(.data)
    last_static_status                       0x20000039   Data           1  ch395.o(.data)
    .data                                    0x2000003c   Section       73  network.o(.data)
    .data                                    0x20000086   Section        8  gy_dcgubc1lz.o(.data)
    .data                                    0x2000008e   Section        1  tonghe_dcm.o(.data)
    .data                                    0x2000008f   Section        1  transportprotocol.o(.data)
    TransPStep                               0x2000008f   Data           1  transportprotocol.o(.data)
    .data                                    0x20000090   Section       17  bms.o(.data)
    TempPf                                   0x200000a0   Data           1  bms.o(.data)
    .data                                    0x200000a4   Section       16  dc_module.o(.data)
    .data                                    0x200000b4   Section       10  electric.o(.data)
    .data                                    0x200000be   Section        6  gun.o(.data)
    .data                                    0x200000c4   Section       10  insulation.o(.data)
    .data                                    0x200000d0   Section       17  chargerun.o(.data)
    tempTxPf                                 0x200000d8   Data           1  chargerun.o(.data)
    TempCount                                0x200000d9   Data           1  chargerun.o(.data)
    DmsOutV                                  0x200000da   Data           2  chargerun.o(.data)
    IdentifyCarStep                          0x200000dc   Data           1  chargerun.o(.data)
    ChargeTestStep                           0x200000dd   Data           1  chargerun.o(.data)
    SwitchFlag                               0x200000de   Data           1  chargerun.o(.data)
    TempCount                                0x200000df   Data           1  chargerun.o(.data)
    StartFlash                               0x200000e0   Data           1  chargerun.o(.data)
    .data                                    0x200000e1   Section        1  consume.o(.data)
    KeepFlag                                 0x200000e1   Data           1  consume.o(.data)
    .data                                    0x200000e4   Section       19  card.o(.data)
    TempStep                                 0x200000f2   Data           1  card.o(.data)
    TempStep                                 0x200000f3   Data           1  card.o(.data)
    TempStep                                 0x200000f4   Data           1  card.o(.data)
    TempStep                                 0x200000f5   Data           1  card.o(.data)
    TempStep                                 0x200000f6   Data           1  card.o(.data)
    .data                                    0x200000f8   Section        8  screen.o(.data)
    TempConnect                              0x200000ff   Data           1  screen.o(.data)
    .data                                    0x20000100   Section        8  chargectrl.o(.data)
    .data                                    0x20000108   Section       44  dtu.o(.data)
    HeardOrder                               0x2000012e   Data           1  dtu.o(.data)
    BillOrder                                0x2000012f   Data           1  dtu.o(.data)
    RegistCount                              0x20000130   Data           4  dtu.o(.data)
    .data                                    0x20000134   Section        8  netport.o(.data)
    TempCmd                                  0x2000013a   Data           1  netport.o(.data)
    logFlag                                  0x2000013b   Data           1  netport.o(.data)
    .data                                    0x2000013c   Section        4  can.o(.data)
    HAL_RCC_CAN1_CLK_ENABLED                 0x2000013c   Data           4  can.o(.data)
    .data                                    0x20000140   Section        9  stm32f1xx_hal.o(.data)
    .data                                    0x2000014c   Section        4  system_stm32f1xx.o(.data)
    .data                                    0x20000150   Section       12  fal_flash_stm32f1_port.o(.data)
    ef_err_port_cnt                          0x20000150   Data           4  fal_flash_stm32f1_port.o(.data)
    .data                                    0x2000015c   Section       20  fal_partition.o(.data)
    partition_table                          0x2000015c   Data           4  fal_partition.o(.data)
    part_flash_cache                         0x20000160   Data           8  fal_partition.o(.data)
    init_ok                                  0x20000168   Data           1  fal_partition.o(.data)
    partition_table_len                      0x2000016c   Data           4  fal_partition.o(.data)
    .data                                    0x20000170   Section      116  drv_spi_flash.o(.data)
    .data                                    0x200001e4   Section       16  sfud_port.o(.data)
    spi2                                     0x200001e4   Data          16  sfud_port.o(.data)
    .data                                    0x200001f4   Section        4  clock.o(.data)
    rt_tick                                  0x200001f4   Data           4  clock.o(.data)
    .data                                    0x200001f8   Section        1  irq.o(.data)
    .data                                    0x200001fc   Section        8  kservice.o(.data)
    __rt_errno                               0x200001fc   Data           4  kservice.o(.data)
    .data                                    0x20000204   Section       24  mem.o(.data)
    heap_ptr                                 0x20000204   Data           4  mem.o(.data)
    heap_end                                 0x20000208   Data           4  mem.o(.data)
    lfree                                    0x2000020c   Data           4  mem.o(.data)
    mem_size_aligned                         0x20000210   Data           4  mem.o(.data)
    used_mem                                 0x20000214   Data           4  mem.o(.data)
    max_mem                                  0x20000218   Data           4  mem.o(.data)
    .data                                    0x2000021c   Section       48  object.o(.data)
    rt_object_container                      0x2000021c   Data          48  object.o(.data)
    .data                                    0x2000024c   Section       24  scheduler.o(.data)
    rt_scheduler_lock_nest                   0x20000250   Data           2  scheduler.o(.data)
    .data                                    0x20000264   Section       24  timer.o(.data)
    rt_timer_list                            0x20000264   Data           8  timer.o(.data)
    soft_timer_status                        0x2000026c   Data           1  timer.o(.data)
    rt_soft_timer_list                       0x20000270   Data           8  timer.o(.data)
    random_nr                                0x20000278   Data           4  timer.o(.data)
    .data                                    0x2000027c   Section       16  cpuport.o(.data)
    rt_exception_hook                        0x20000288   Data           4  cpuport.o(.data)
    .data                                    0x2000028c   Section       24  shell.o(.data)
    finsh_prompt_custom                      0x200002a0   Data           4  shell.o(.data)
    .data                                    0x200002a4   Section        4  stdout.o(.data)
    .data                                    0x200002a8   Section        4  errno.o(.data)
    _errno                                   0x200002a8   Data           4  errno.o(.data)
    .bss                                     0x200002ac   Section     1104  flashdb_app.o(.bss)
    _global_kvdb                             0x200002ac   Data         876  flashdb_app.o(.bss)
    .bss                                     0x200006fc   Section       72  general.o(.bss)
    .bss                                     0x20000744   Section     1784  ch395.o(.bss)
    socket0_recv_buf                         0x20000744   Data        1024  ch395.o(.bss)
    .bss                                     0x20000e3c   Section       36  myboard.o(.bss)
    .bss                                     0x20000e60   Section       16  im1253e.o(.bss)
    .bss                                     0x20000e70   Section      130  tonghe_dcm.o(.bss)
    .bss                                     0x20000ef4   Section     4544  transportprotocol.o(.bss)
    .bss                                     0x200020b4   Section     1396  bms.o(.bss)
    .bss                                     0x20002628   Section       52  dc_module.o(.bss)
    .bss                                     0x2000265c   Section      540  electric.o(.bss)
    .bss                                     0x20002878   Section       12  gun.o(.bss)
    .bss                                     0x20002884   Section      536  insulation.o(.bss)
    .bss                                     0x20002a9c   Section       80  chargerun.o(.bss)
    .bss                                     0x20002aec   Section      168  consume.o(.bss)
    .bss                                     0x20002b94   Section      768  card.o(.bss)
    .bss                                     0x20002e94   Section      452  screen.o(.bss)
    .bss                                     0x20003058   Section      276  chargectrl.o(.bss)
    .bss                                     0x2000316c   Section     5642  dtu.o(.bss)
    .bss                                     0x20004778   Section      764  netport.o(.bss)
    .bss                                     0x20004a74   Section       28  powerdivider.o(.bss)
    .bss                                     0x20004a90   Section       16  main.o(.bss)
    .bss                                     0x20004aa0   Section      116  adc.o(.bss)
    .bss                                     0x20004b14   Section       80  can.o(.bss)
    .bss                                     0x20004b64   Section       20  rtc.o(.bss)
    .bss                                     0x20004b78   Section      176  spi.o(.bss)
    .bss                                     0x20004c28   Section      904  usart.o(.bss)
    .bss                                     0x20004fb0   Section     1300  stm32f1xx_it.o(.bss)
    .bss                                     0x200054c4   Section       72  stm32f1xx_hal_timebase_tim.o(.bss)
    .bss                                     0x20005510   Section       32  stm32f1xx_hal_flash.o(.bss)
    .bss                                     0x20005530   Section      344  sfud_port.o(.bss)
    log_buf                                  0x20005530   Data         256  sfud_port.o(.bss)
    hspi2                                    0x20005630   Data          88  sfud_port.o(.bss)
    .bss                                     0x20005688   Section      376  idle.o(.bss)
    idle                                     0x20005688   Data         120  idle.o(.bss)
    rt_thread_stack                          0x20005700   Data         256  idle.o(.bss)
    .bss                                     0x20005800   Section      128  kservice.o(.bss)
    rt_log_buf                               0x20005800   Data         128  kservice.o(.bss)
    .bss                                     0x20005880   Section       32  mem.o(.bss)
    heap_sem                                 0x20005880   Data          32  mem.o(.bss)
    .bss                                     0x200058a0   Section      256  scheduler.o(.bss)
    .bss                                     0x200059a0   Section      632  timer.o(.bss)
    timer_thread                             0x200059a0   Data         120  timer.o(.bss)
    timer_thread_stack                       0x20005a18   Data         512  timer.o(.bss)
    .bss                                     0x20005c18   Section    15432  board.o(.bss)
    rt_heap                                  0x20005c18   Data       15360  board.o(.bss)
    UartHandle                               0x20009818   Data          72  board.o(.bss)
    .bss                                     0x20009860   Section      129  shell.o(.bss)
    finsh_prompt                             0x20009860   Data         129  shell.o(.bss)
    STACK                                    0x200098e8   Section     1024  startup_stm32f107xc.o(STACK)

    Global Symbols

    Symbol Name                              Value     Ov Type        Size  Object(Section)

    BuildAttributes$$THM_ISAv4$P$D$K$B$S$PE$A:L22UL41UL21$X:L11$S22US41US21$IEEE1$IW$USESV6$~STKCKD$USESV7$~SHL$OSPACE$ROPI$EBA8$MICROLIB$REQ8$PRES8$EABIv2 0x00000000   Number         0  anon$$obj.o ABSOLUTE
    __ARM_use_no_argv                        0x00000000   Number         0  main.o ABSOLUTE
    _printf_a                                0x00000000   Number         0  stubs.o ABSOLUTE
    _printf_c                                0x00000000   Number         0  stubs.o ABSOLUTE
    _printf_charcount                        0x00000000   Number         0  stubs.o ABSOLUTE
    _printf_d                                0x00000000   Number         0  stubs.o ABSOLUTE
    _printf_e                                0x00000000   Number         0  stubs.o ABSOLUTE
    _printf_f                                0x00000000   Number         0  stubs.o ABSOLUTE
    _printf_flags                            0x00000000   Number         0  stubs.o ABSOLUTE
    _printf_fp_dec                           0x00000000   Number         0  stubs.o ABSOLUTE
    _printf_fp_hex                           0x00000000   Number         0  stubs.o ABSOLUTE
    _printf_g                                0x00000000   Number         0  stubs.o ABSOLUTE
    _printf_i                                0x00000000   Number         0  stubs.o ABSOLUTE
    _printf_int_dec                          0x00000000   Number         0  stubs.o ABSOLUTE
    _printf_l                                0x00000000   Number         0  stubs.o ABSOLUTE
    _printf_lc                               0x00000000   Number         0  stubs.o ABSOLUTE
    _printf_ll                               0x00000000   Number         0  stubs.o ABSOLUTE
    _printf_lld                              0x00000000   Number         0  stubs.o ABSOLUTE
    _printf_lli                              0x00000000   Number         0  stubs.o ABSOLUTE
    _printf_llo                              0x00000000   Number         0  stubs.o ABSOLUTE
    _printf_llu                              0x00000000   Number         0  stubs.o ABSOLUTE
    _printf_llx                              0x00000000   Number         0  stubs.o ABSOLUTE
    _printf_longlong_dec                     0x00000000   Number         0  stubs.o ABSOLUTE
    _printf_longlong_hex                     0x00000000   Number         0  stubs.o ABSOLUTE
    _printf_longlong_oct                     0x00000000   Number         0  stubs.o ABSOLUTE
    _printf_ls                               0x00000000   Number         0  stubs.o ABSOLUTE
    _printf_mbtowc                           0x00000000   Number         0  stubs.o ABSOLUTE
    _printf_n                                0x00000000   Number         0  stubs.o ABSOLUTE
    _printf_o                                0x00000000   Number         0  stubs.o ABSOLUTE
    _printf_p                                0x00000000   Number         0  stubs.o ABSOLUTE
    _printf_percent                          0x00000000   Number         0  stubs.o ABSOLUTE
    _printf_pre_padding                      0x00000000   Number         0  stubs.o ABSOLUTE
    _printf_return_value                     0x00000000   Number         0  stubs.o ABSOLUTE
    _printf_s                                0x00000000   Number         0  stubs.o ABSOLUTE
    _printf_sizespec                         0x00000000   Number         0  stubs.o ABSOLUTE
    _printf_str                              0x00000000   Number         0  stubs.o ABSOLUTE
    _printf_truncate_signed                  0x00000000   Number         0  stubs.o ABSOLUTE
    _printf_truncate_unsigned                0x00000000   Number         0  stubs.o ABSOLUTE
    _printf_u                                0x00000000   Number         0  stubs.o ABSOLUTE
    _printf_wc                               0x00000000   Number         0  stubs.o ABSOLUTE
    _printf_wctomb                           0x00000000   Number         0  stubs.o ABSOLUTE
    _printf_widthprec                        0x00000000   Number         0  stubs.o ABSOLUTE
    _printf_x                                0x00000000   Number         0  stubs.o ABSOLUTE
    __cpp_initialize__aeabi_                  - Undefined Weak Reference
    __cxa_finalize                            - Undefined Weak Reference
    _clock_init                               - Undefined Weak Reference
    _microlib_exit                            - Undefined Weak Reference
    _scanf_longlong                           - Undefined Weak Reference
    _scanf_real                               - Undefined Weak Reference
    _scanf_string                             - Undefined Weak Reference
    __Vectors_Size                           0x00000150   Number         0  startup_stm32f107xc.o ABSOLUTE
    __Vectors                                0x08000000   Data           4  startup_stm32f107xc.o(RESET)
    __Vectors_End                            0x08000150   Data           0  startup_stm32f107xc.o(RESET)
    __main                                   0x08000151   Thumb Code     0  entry.o(.ARM.Collect$$$$00000000)
    _main_stk                                0x08000151   Thumb Code     0  entry2.o(.ARM.Collect$$$$00000001)
    _main_scatterload                        0x08000155   Thumb Code     0  entry5.o(.ARM.Collect$$$$00000004)
    __main_after_scatterload                 0x08000159   Thumb Code     0  entry5.o(.ARM.Collect$$$$00000004)
    _main_clock                              0x08000159   Thumb Code     0  entry7b.o(.ARM.Collect$$$$00000008)
    _main_cpp_init                           0x08000159   Thumb Code     0  entry8b.o(.ARM.Collect$$$$0000000A)
    _main_init                               0x08000159   Thumb Code     0  entry9a.o(.ARM.Collect$$$$0000000B)
    __rt_final_cpp                           0x08000161   Thumb Code     0  entry10a.o(.ARM.Collect$$$$0000000D)
    __rt_final_exit                          0x08000161   Thumb Code     0  entry11a.o(.ARM.Collect$$$$0000000F)
    Reset_Handler                            0x08000165   Thumb Code     8  startup_stm32f107xc.o(.text)
    SVC_Handler                              0x08000177   Thumb Code     2  startup_stm32f107xc.o(.text)
    ADC1_2_IRQHandler                        0x0800017f   Thumb Code     0  startup_stm32f107xc.o(.text)
    CAN1_RX1_IRQHandler                      0x0800017f   Thumb Code     0  startup_stm32f107xc.o(.text)
    CAN1_SCE_IRQHandler                      0x0800017f   Thumb Code     0  startup_stm32f107xc.o(.text)
    CAN1_TX_IRQHandler                       0x0800017f   Thumb Code     0  startup_stm32f107xc.o(.text)
    CAN2_RX1_IRQHandler                      0x0800017f   Thumb Code     0  startup_stm32f107xc.o(.text)
    CAN2_SCE_IRQHandler                      0x0800017f   Thumb Code     0  startup_stm32f107xc.o(.text)
    CAN2_TX_IRQHandler                       0x0800017f   Thumb Code     0  startup_stm32f107xc.o(.text)
    DMA2_Channel1_IRQHandler                 0x0800017f   Thumb Code     0  startup_stm32f107xc.o(.text)
    DMA2_Channel2_IRQHandler                 0x0800017f   Thumb Code     0  startup_stm32f107xc.o(.text)
    DMA2_Channel4_IRQHandler                 0x0800017f   Thumb Code     0  startup_stm32f107xc.o(.text)
    ETH_IRQHandler                           0x0800017f   Thumb Code     0  startup_stm32f107xc.o(.text)
    ETH_WKUP_IRQHandler                      0x0800017f   Thumb Code     0  startup_stm32f107xc.o(.text)
    EXTI0_IRQHandler                         0x0800017f   Thumb Code     0  startup_stm32f107xc.o(.text)
    EXTI15_10_IRQHandler                     0x0800017f   Thumb Code     0  startup_stm32f107xc.o(.text)
    EXTI1_IRQHandler                         0x0800017f   Thumb Code     0  startup_stm32f107xc.o(.text)
    EXTI2_IRQHandler                         0x0800017f   Thumb Code     0  startup_stm32f107xc.o(.text)
    EXTI3_IRQHandler                         0x0800017f   Thumb Code     0  startup_stm32f107xc.o(.text)
    EXTI4_IRQHandler                         0x0800017f   Thumb Code     0  startup_stm32f107xc.o(.text)
    EXTI9_5_IRQHandler                       0x0800017f   Thumb Code     0  startup_stm32f107xc.o(.text)
    FLASH_IRQHandler                         0x0800017f   Thumb Code     0  startup_stm32f107xc.o(.text)
    I2C1_ER_IRQHandler                       0x0800017f   Thumb Code     0  startup_stm32f107xc.o(.text)
    I2C1_EV_IRQHandler                       0x0800017f   Thumb Code     0  startup_stm32f107xc.o(.text)
    I2C2_ER_IRQHandler                       0x0800017f   Thumb Code     0  startup_stm32f107xc.o(.text)
    I2C2_EV_IRQHandler                       0x0800017f   Thumb Code     0  startup_stm32f107xc.o(.text)
    OTG_FS_IRQHandler                        0x0800017f   Thumb Code     0  startup_stm32f107xc.o(.text)
    OTG_FS_WKUP_IRQHandler                   0x0800017f   Thumb Code     0  startup_stm32f107xc.o(.text)
    PVD_IRQHandler                           0x0800017f   Thumb Code     0  startup_stm32f107xc.o(.text)
    RCC_IRQHandler                           0x0800017f   Thumb Code     0  startup_stm32f107xc.o(.text)
    RTC_Alarm_IRQHandler                     0x0800017f   Thumb Code     0  startup_stm32f107xc.o(.text)
    RTC_IRQHandler                           0x0800017f   Thumb Code     0  startup_stm32f107xc.o(.text)
    SPI1_IRQHandler                          0x0800017f   Thumb Code     0  startup_stm32f107xc.o(.text)
    SPI2_IRQHandler                          0x0800017f   Thumb Code     0  startup_stm32f107xc.o(.text)
    SPI3_IRQHandler                          0x0800017f   Thumb Code     0  startup_stm32f107xc.o(.text)
    TAMPER_IRQHandler                        0x0800017f   Thumb Code     0  startup_stm32f107xc.o(.text)
    TIM1_BRK_IRQHandler                      0x0800017f   Thumb Code     0  startup_stm32f107xc.o(.text)
    TIM1_CC_IRQHandler                       0x0800017f   Thumb Code     0  startup_stm32f107xc.o(.text)
    TIM1_TRG_COM_IRQHandler                  0x0800017f   Thumb Code     0  startup_stm32f107xc.o(.text)
    TIM1_UP_IRQHandler                       0x0800017f   Thumb Code     0  startup_stm32f107xc.o(.text)
    TIM2_IRQHandler                          0x0800017f   Thumb Code     0  startup_stm32f107xc.o(.text)
    TIM3_IRQHandler                          0x0800017f   Thumb Code     0  startup_stm32f107xc.o(.text)
    TIM4_IRQHandler                          0x0800017f   Thumb Code     0  startup_stm32f107xc.o(.text)
    TIM5_IRQHandler                          0x0800017f   Thumb Code     0  startup_stm32f107xc.o(.text)
    TIM6_IRQHandler                          0x0800017f   Thumb Code     0  startup_stm32f107xc.o(.text)
    UART5_IRQHandler                         0x0800017f   Thumb Code     0  startup_stm32f107xc.o(.text)
    WWDG_IRQHandler                          0x0800017f   Thumb Code     0  startup_stm32f107xc.o(.text)
    rt_hw_interrupt_disable                  0x08000189   Thumb Code     8  context_rvds.o(.text)
    rt_hw_interrupt_enable                   0x08000191   Thumb Code     6  context_rvds.o(.text)
    rt_hw_context_switch                     0x08000197   Thumb Code    32  context_rvds.o(.text)
    rt_hw_context_switch_interrupt           0x08000197   Thumb Code     0  context_rvds.o(.text)
    PendSV_Handler                           0x080001b7   Thumb Code    60  context_rvds.o(.text)
    rt_hw_context_switch_to                  0x080001f3   Thumb Code    56  context_rvds.o(.text)
    rt_hw_interrupt_thread_switch            0x0800022b   Thumb Code     2  context_rvds.o(.text)
    HardFault_Handler                        0x0800022d   Thumb Code    52  context_rvds.o(.text)
    __aeabi_uldivmod                         0x0800027d   Thumb Code    98  uldiv.o(.text)
    __aeabi_llsr                             0x080002df   Thumb Code    32  llushr.o(.text)
    _ll_ushift_r                             0x080002df   Thumb Code     0  llushr.o(.text)
    mktime                                   0x08000301   Thumb Code   150  mktime.o(.text)
    __aeabi_memcpy                           0x080003a9   Thumb Code    36  memcpya.o(.text)
    __aeabi_memcpy4                          0x080003a9   Thumb Code     0  memcpya.o(.text)
    __aeabi_memcpy8                          0x080003a9   Thumb Code     0  memcpya.o(.text)
    __aeabi_memset                           0x080003cd   Thumb Code    14  memseta.o(.text)
    __aeabi_memset4                          0x080003cd   Thumb Code     0  memseta.o(.text)
    __aeabi_memset8                          0x080003cd   Thumb Code     0  memseta.o(.text)
    __aeabi_memclr                           0x080003db   Thumb Code     4  memseta.o(.text)
    __aeabi_memclr4                          0x080003db   Thumb Code     0  memseta.o(.text)
    __aeabi_memclr8                          0x080003db   Thumb Code     0  memseta.o(.text)
    _memset$wrapper                          0x080003df   Thumb Code    18  memseta.o(.text)
    strcat                                   0x080003f1   Thumb Code    24  strcat.o(.text)
    strncpy                                  0x08000409   Thumb Code    24  strncpy.o(.text)
    strlen                                   0x08000421   Thumb Code    14  strlen.o(.text)
    strcmp                                   0x0800042f   Thumb Code    28  strcmp.o(.text)
    memcmp                                   0x0800044b   Thumb Code    26  memcmp.o(.text)
    strcpy                                   0x08000465   Thumb Code    18  strcpy.o(.text)
    strncmp                                  0x08000477   Thumb Code    30  strncmp.o(.text)
    __0sscanf                                0x08000495   Thumb Code    48  __0sscanf.o(.text)
    _scanf_int                               0x080004cd   Thumb Code   332  _scanf_int.o(.text)
    atoi                                     0x08000619   Thumb Code    26  atoi.o(.text)
    __aeabi_dadd                             0x08000633   Thumb Code   322  dadd.o(.text)
    __aeabi_dsub                             0x08000775   Thumb Code     6  dadd.o(.text)
    __aeabi_drsub                            0x0800077b   Thumb Code     6  dadd.o(.text)
    __aeabi_dmul                             0x08000781   Thumb Code   228  dmul.o(.text)
    __aeabi_ddiv                             0x08000865   Thumb Code   222  ddiv.o(.text)
    __aeabi_ui2d                             0x08000943   Thumb Code    26  dfltui.o(.text)
    __aeabi_d2uiz                            0x0800095d   Thumb Code    50  dfixui.o(.text)
    __aeabi_cdcmpeq                          0x08000991   Thumb Code     0  cdcmple.o(.text)
    __aeabi_cdcmple                          0x08000991   Thumb Code    48  cdcmple.o(.text)
    __aeabi_cdrcmple                         0x080009c1   Thumb Code    48  cdrcmple.o(.text)
    __aeabi_uidiv                            0x080009f1   Thumb Code     0  uidiv.o(.text)
    __aeabi_uidivmod                         0x080009f1   Thumb Code    44  uidiv.o(.text)
    __aeabi_llsl                             0x08000a1d   Thumb Code    30  llshl.o(.text)
    _ll_shift_l                              0x08000a1d   Thumb Code     0  llshl.o(.text)
    __aeabi_lasr                             0x08000a3b   Thumb Code    36  llsshr.o(.text)
    _ll_sshift_r                             0x08000a3b   Thumb Code     0  llsshr.o(.text)
    _localtime                               0x08000a61   Thumb Code   134  localtime_i.o(.text)
    _chval                                   0x08000aed   Thumb Code    28  _chval.o(.text)
    __vfscanf_char                           0x08000b15   Thumb Code    20  scanf_char.o(.text)
    _sgetc                                   0x08000b31   Thumb Code    30  _sgetc.o(.text)
    _sbackspace                              0x08000b4f   Thumb Code    34  _sgetc.o(.text)
    strtol                                   0x08000b71   Thumb Code   112  strtol.o(.text)
    __I$use$fp                               0x08000be1   Thumb Code     0  iusefp.o(.text)
    _double_round                            0x08000be1   Thumb Code    30  depilogue.o(.text)
    _double_epilogue                         0x08000bff   Thumb Code   156  depilogue.o(.text)
    __aeabi_d2ulz                            0x08000c9b   Thumb Code    48  dfixul.o(.text)
    __scatterload                            0x08000ccd   Thumb Code    28  init.o(.text)
    __scatterload_rt2                        0x08000ccd   Thumb Code     0  init.o(.text)
    __rt_ctype_table                         0x08000cf1   Thumb Code     4  ctype_o.o(.text)
    isspace                                  0x08000cf9   Thumb Code    18  isspace_o.o(.text)
    __vfscanf                                0x08000d0d   Thumb Code   808  _scanf.o(.text)
    _strtoul                                 0x08001039   Thumb Code   158  _strtoul.o(.text)
    __decompress                             0x080010d7   Thumb Code     0  __dczerorl2.o(.text)
    __decompress1                            0x080010d7   Thumb Code    86  __dczerorl2.o(.text)
    main                                     0x0800112d   Thumb Code    10  components.o(i.$Sub$$main)
    ADC_ConversionStop_Disable               0x08001137   Thumb Code    92  stm32f1xx_hal_adc.o(i.ADC_ConversionStop_Disable)
    ADC_DMAConvCplt                          0x08001193   Thumb Code    82  stm32f1xx_hal_adc.o(i.ADC_DMAConvCplt)
    ADC_DMAError                             0x080011e5   Thumb Code    30  stm32f1xx_hal_adc.o(i.ADC_DMAError)
    ADC_DMAHalfConvCplt                      0x08001203   Thumb Code    14  stm32f1xx_hal_adc.o(i.ADC_DMAHalfConvCplt)
    ADC_Enable                               0x08001211   Thumb Code   134  stm32f1xx_hal_adc.o(i.ADC_Enable)
    BMS_CanSendData                          0x080012a1   Thumb Code    76  bms.o(i.BMS_CanSendData)
    BMS_PileRece                             0x0800130d   Thumb Code   682  bms.o(i.BMS_PileRece)
    BMS_PileSend                             0x080015b7   Thumb Code   928  bms.o(i.BMS_PileSend)
    BMS_SendData                             0x08001959   Thumb Code    28  bms.o(i.BMS_SendData)
    BcdToDec                                 0x08001979   Thumb Code    34  general.o(i.BcdToDec)
    Boot_ChangeFileRunFlag                   0x0800199d   Thumb Code   230  general.o(i.Boot_ChangeFileRunFlag)
    Boot_ReplyData                           0x08001ac1   Thumb Code   224  dtu.o(i.Boot_ReplyData)
    Boot_SendData                            0x08001ba1   Thumb Code    18  dtu.o(i.Boot_SendData)
    BusFault_Handler                         0x08001bb9   Thumb Code     4  stm32f1xx_it.o(i.BusFault_Handler)
    CAN1_RX0_IRQHandler                      0x08001bbd   Thumb Code    10  stm32f1xx_it.o(i.CAN1_RX0_IRQHandler)
    CAN2_RX0_IRQHandler                      0x08001bcd   Thumb Code    10  stm32f1xx_it.o(i.CAN2_RX0_IRQHandler)
    CH395CMDCheckExist                       0x08001bdd   Thumb Code    32  ch395.o(i.CH395CMDCheckExist)
    CH395CMDGetPHYStatus                     0x08001bfd   Thumb Code    24  ch395.o(i.CH395CMDGetPHYStatus)
    CH395CMDGetUnreachIPPT                   0x08001c15   Thumb Code    38  ch395.o(i.CH395CMDGetUnreachIPPT)
    CH395CMDInitCH395                        0x08001c3b   Thumb Code    62  ch395.o(i.CH395CMDInitCH395)
    CH395CMDReset                            0x08001c79   Thumb Code    22  ch395.o(i.CH395CMDReset)
    CH395CMDSetGWIPAddr                      0x08001c8f   Thumb Code    36  ch395.o(i.CH395CMDSetGWIPAddr)
    CH395CMDSetIPAddr                        0x08001cb3   Thumb Code    36  ch395.o(i.CH395CMDSetIPAddr)
    CH395CMDSetMASKAddr                      0x08001cd7   Thumb Code    38  ch395.o(i.CH395CMDSetMASKAddr)
    CH395CloseSocket                         0x08001cfd   Thumb Code    72  ch395.o(i.CH395CloseSocket)
    CH395DHCPEnable                          0x08001d45   Thumb Code    70  ch395.o(i.CH395DHCPEnable)
    CH395GetCmdStatus                        0x08001d8b   Thumb Code    24  ch395.o(i.CH395GetCmdStatus)
    CH395GetDHCPStatus                       0x08001da3   Thumb Code    30  ch395.o(i.CH395GetDHCPStatus)
    CH395GetRecvData                         0x08001dc1   Thumb Code    68  ch395.o(i.CH395GetRecvData)
    CH395GetRecvLength                       0x08001e05   Thumb Code    42  ch395.o(i.CH395GetRecvLength)
    CH395GetSocketInt                        0x08001e2f   Thumb Code    38  ch395.o(i.CH395GetSocketInt)
    CH395Init                                0x08001e55   Thumb Code    72  ch395.o(i.CH395Init)
    CH395OpenSocket                          0x08001ea1   Thumb Code    72  ch395.o(i.CH395OpenSocket)
    CH395SetSocketDesIP                      0x08001ee9   Thumb Code    50  ch395.o(i.CH395SetSocketDesIP)
    CH395SetSocketDesPort                    0x08001f1b   Thumb Code    38  ch395.o(i.CH395SetSocketDesPort)
    CH395SetSocketProtType                   0x08001f41   Thumb Code    32  ch395.o(i.CH395SetSocketProtType)
    CH395TCPConnect                          0x08001f61   Thumb Code    72  ch395.o(i.CH395TCPConnect)
    CH395TCPListen                           0x08001fa9   Thumb Code    72  ch395.o(i.CH395TCPListen)
    CH395_GetVer                             0x08001ff1   Thumb Code    24  ch395.o(i.CH395_GetVer)
    CH395_ReadByte                           0x08002009   Thumb Code    10  ch395.o(i.CH395_ReadByte)
    CH395_SPI_Init                           0x08002013   Thumb Code    20  ch395.o(i.CH395_SPI_Init)
    CH395_SendData                           0x08002027   Thumb Code    64  ch395.o(i.CH395_SendData)
    CH395_WriteByte                          0x08002067   Thumb Code    12  ch395.o(i.CH395_WriteByte)
    CH395_WriteCmd                           0x08002073   Thumb Code    36  ch395.o(i.CH395_WriteCmd)
    CH395_init                               0x08002099   Thumb Code   130  ch395.o(i.CH395_init)
    CH395_run                                0x08002139   Thumb Code    28  ch395.o(i.CH395_run)
    CardActivate                             0x0800215d   Thumb Code    12  card.o(i.CardActivate)
    CardBuzzer                               0x08002169   Thumb Code    16  card.o(i.CardBuzzer)
    CardCheckLeave                           0x08002179   Thumb Code    34  card.o(i.CardCheckLeave)
    CardComm_Send                            0x0800219d   Thumb Code    34  card.o(i.CardComm_Send)
    CardOperate                              0x080021cd   Thumb Code   846  card.o(i.CardOperate)
    CardProtocolProcess                      0x08002619   Thumb Code    70  card.o(i.CardProtocolProcess)
    CardReadMoney                            0x080026a1   Thumb Code    16  card.o(i.CardReadMoney)
    CardReadMoneySucceedCallback             0x080026b1   Thumb Code  4788  card.o(i.CardReadMoneySucceedCallback)
    CardReadUserNum                          0x08003a09   Thumb Code    16  card.o(i.CardReadUserNum)
    CardWriteMoney                           0x08003a19   Thumb Code    16  card.o(i.CardWriteMoney)
    CardWriteMoneySucceedCallback            0x08003a29   Thumb Code   834  card.o(i.CardWriteMoneySucceedCallback)
    Card_IdleDmacallback_handler             0x08003e7d   Thumb Code    74  card.o(i.Card_IdleDmacallback_handler)
    ChargeCtrl_ChargeLineOff                 0x08003f09   Thumb Code    24  chargerun.o(i.ChargeCtrl_ChargeLineOff)
    ChargeCtrl_ChargeStart                   0x08003f21   Thumb Code   732  chargectrl.o(i.ChargeCtrl_ChargeStart)
    ChargeCtrl_ChargeStop                    0x080043ad   Thumb Code   658  chargectrl.o(i.ChargeCtrl_ChargeStop)
    ChargeCtrl_CheckPileStop                 0x08004781   Thumb Code     6  chargectrl.o(i.ChargeCtrl_CheckPileStop)
    ChargeCtrl_CheckTimeOut                  0x0800478d   Thumb Code    16  chargerun.o(i.ChargeCtrl_CheckTimeOut)
    ChargeCtrl_Led                           0x0800479d   Thumb Code   190  chargerun.o(i.ChargeCtrl_Led)
    ChargeCtrl_OutVoltageUpdata              0x08004875   Thumb Code    50  chargerun.o(i.ChargeCtrl_OutVoltageUpdata)
    ChargeCtrl_PileBmsChargeDataInit         0x080048a9   Thumb Code   288  chargerun.o(i.ChargeCtrl_PileBmsChargeDataInit)
    ChargeCtrl_PileCtrlDataInit              0x080049d5   Thumb Code    78  chargerun.o(i.ChargeCtrl_PileCtrlDataInit)
    ChargeCtrl_PileIdentifyCar               0x08004a25   Thumb Code   208  chargerun.o(i.ChargeCtrl_PileIdentifyCar)
    ChargeCtrl_PileInsuCheck                 0x08004b49   Thumb Code  1420  chargerun.o(i.ChargeCtrl_PileInsuCheck)
    ChargeCtrl_PilePeriodSend                0x08005105   Thumb Code    62  chargerun.o(i.ChargeCtrl_PilePeriodSend)
    ChargeCtrl_PilePrechargeTest             0x0800514d   Thumb Code   768  chargerun.o(i.ChargeCtrl_PilePrechargeTest)
    ChargeCtrl_PileProcess                   0x0800559d   Thumb Code   918  chargerun.o(i.ChargeCtrl_PileProcess)
    ChargeCtrl_RxBCLProcess                  0x08005a25   Thumb Code   180  chargerun.o(i.ChargeCtrl_RxBCLProcess)
