:020000040800F2
:10000000E89C002065010008C50F01082D020008CA
:10001000790D0108B91B0008C53A0108000000006D
:100020000000000000000000000000007701000850
:10003000E170000800000000B7010008032001087B
:100040007F0100087F0100087F0100087F01000890
:100050007F0100087F0100087F0100087F01000880
:100060007F0100087F0100087F010008B16F0008D0
:10007000C16F0008D16F0008E16F0008F16F000840
:1000800001700008117000087F0100087F0100085E
:10009000BD1B00087F0100087F0100087F010008E8
:1000A0007F0100087F0100087F0100087F01000830
:1000B0007F0100087F0100087F0100087F01000820
:1000C0007F0100087F0100087F0100087F01000810
:1000D0007F010008F933010879340108F934010877
:1000E0007F0100087F0100087F0100080000000078
:1000F0000000000000000000000000000000000000
:1001000000000000000000007F0100087F010008DF
:10011000712D01087F0100087F010008CD21010831
:100120007F0100087F010008217000087F0100089E
:10013000317000087F0100087F0100087F0100087E
:10014000CD1B00087F0100087F0100087F01000827
:10015000DFF80CD000F0BAFD004800472D11000870
:10016000E89C00200648804706480047FEE7FEE777
:10017000FEE7FEE7FEE7FEE7FEE7FEE7FEE7FEE757
:10018000BD21010851010008EFF3108072B67047DD
:1001900080F310887047324A1368012B04D04FF067
:1001A000010313602F4A10602F4A11602F484FF04F
:1001B000805101607047EFF3108272B628480168E1
:1001C00091B14FF0000101602648016829B1EFF3B9
:1001D000098121E9F00F0068016023490968096875
:1001E000B1E8F00F81F3098882F310884EF0040E15
:1001F00070471D4908601B494FF00000086018490E
:100200004FF0010008601A481A49D0F8002041EA6E
:100210000201016015484FF08051016016480068E6
:10022000006880F3088861B662B670471EF0040F5C
:100230000CBFEFF30880EFF3098020E9F00F40F8DE
:1002400004ED1EF0040F0CBF80F3088880F30988CA
:1002500000B51CF009FA5DF804EB4EF0040E70478F
:10026000840200207C0200208002002004ED00E0D7
:1002700020ED00E00000FFFF08ED00E02DE9F05F59
:100280000546002092469B46884606468146402405
:100290001BE0284641464746224600F020F85346D8
:1002A0005A46C01A914110D311461846224600F012
:1002B000B5FB2D1A67EB01084F46224601200021AD
:1002C00000F0ACFB17EB00094E41201EA4F1010425
:1002D000DFDC484631462A464346BDE8F09F202AE7
:1002E00004DB203A21FA02F00021704721FA02F3E0
:1002F000D040C2F1200291400843194670470000E7
:1003000038B5D0E90221491E01EB410102EBC101E0
:100310004268C1EB011102EB81010268C1EB0111DE
:1003200002EB8102D0E9043101EB410103EB8101D1
:100330003023A1F5527191FBF3F4174D6C4302EB9E
:10034000C41291FBF3F403FB141100921A2902DB8F
:10035000124B1A4400920C2291FBF2F3104C6343AF
:10036000009C04EBC313009391FBF2F302FB131107
:100370000C4A08E0491E40F2A324535C6343009CEE
:1003800004EBC31300930029F4DC0146684600F037
:1003900067FB009838BD00003F0C0F008051010042
:1003A00067C203004F25020840EA01039B0703D000
:1003B00009E008C9121F08C0042AFAD203E011F8A4
:1003C000013B00F8013B521EF9D27047D2B201E066
:1003D00000F8012B491EFBD270470022F6E710B54A
:1003E00013460A4604461946FFF7F0FF204610BDA3
:1003F000421E12F8013F002BFBD111F8013B02F81D
:10040000013B002BF9D1704710B5044604E00B788E
:1004100000F8013B03B1491C521EF8D2204610BD22
:10042000421C10F8011B0029FBD1801A704710B53F
:10043000002200E0521C835C8C5CA34201D1002BA3
:10044000F8D1D8B2E1B2401A10BD30B50446002050
:10045000034600E05B1C934203D2E05CCD5C401B92
:10046000F8D030BD034611F8012B00F8012B002A0B
:10047000F9D11846704730B505460020034600E024
:100480005B1C934205D2EC5CC85C201A01D1002CA5
:10049000F6D130BD0FB400B58DB010A909900B9006
:1004A00000914FF0FF300A9000200C900548069014
:1004B000054807906A4609A80F9900F02BFB0DB07C
:1004C0005DF814FB310B00084F0B00082DE9FF5FAE
:1004D0001D464FF0FF3BD5E9014691465F464FF080
:1004E0000008A9697F1C01988847296A82468847C5
:1004F0000028F6D1BAF1FF3F0CD024F4C064002EDE
:1005000019DD600614D5BAF12B0F09D0BAF12D0F01
:100510000ED103E0584604B0BDE8F09F44F4806477
:10052000A9697F1C01988847761E8246002E02DD4D
:10053000BAF1300F03D0B9F1000F26D032E0A9692B
:10054000761E44F400747F1C019888478246002E72
:1005500005DDBAF1780F06D0BAF1580F03D0B9F122
:10056000000F10D01EE0B9F1000F02D0B9F1100F4A
:1005700018D1A969761E24F400747F1C019888475D
:100580008246102002E0082000E00A20814609E0AF
:1005900008FB0908A969761E44F400747F1C0198C1
:1005A00088478246002E05DD4946504600F09EFAF7
:1005B0000028EDDAE96901988847A00502D46FF0B8
:1005C0000100A8E7E00725D1600613D5600502D534
:1005D000C8F1000000E0404629680A1D2A60096849
:1005E000220501D5087015E0220701D5088011E029
:1005F00008600FE02868011D29600068210502D508
:1006000080F8008006E0210702D5A0F8008001E014
:10061000C0F8008038467EE770B5064613F06EFFDE
:10062000046805460A220021304600F0A1FA2C6039
:1006300070BD2DE9FE4F804681EA0300C00F0C46D5
:10064000009021F0004123F00045B8EB0200A941E1
:1006500005D24046214690461C460B46024623F0F2
:100660000040104347D0270DC7F30A00C3F30A51D7
:100670000290401A019040286BDAC3F3130040F453
:10068000801B0098924620B10023D2EB030A63EB53
:100690000B0B01985946C0F14002504600F0BEF9DC
:1006A00006460D4650465946019A00F0C6F910EB31
:1006B00008006141002487EA115284EAE7731A4373
:1006C00040D0009A62B3019A012A4FEA075215DC22
:1006D000001B61EB02014FF0004202EA0752CDE934
:1006E0000042001C41F5801132462B4600F087FA8B
:1006F00003B0BDE8F08F40462146F9E7001B61EBEF
:100700000201001C41F5801300185B412018A2F57E
:10071000001747EB030140EAD570B6196D4111E0AF
:100720006D084FEA360645EAC0754FEA0752001BCE
:1007300061EB0201001C41F5801149084FEA3000CD
:100740000019514132462B4603B0BDE8F04F00F08E
:1007500047BA0098012240000023D0EB020263EB6D
:10076000E073009821464FEAE074B8EB000061EBBB
:100770000401E9E783F000435BE781F0004158E7BB
:100780002DE9FE4F81EA030404F0004421F000410A
:1007900000944FF0000B23F0004350EA01045ED0B8
:1007A00052EA03045BD0C3F30A54C1F30A552C4444
:1007B000A4F2F3340194A0FB0254C1F3130141F4F9
:1007C0008011C3F3130343F4801301FB024400FBC5
:1007D000034E840A970A44EA815447EA8357A4FBEC
:1007E000076802958D0A05FB07854FEA932C04FBE9
:1007F0000C542705029D4FEA065847EA1637B5EB19
:1008000008056EEB070C870E920E47EA811742EA45
:100810008312A7FB0201B6EB0B0164EB00042B0D66
:1008200043EA0C335E1844EB1C50DA465146E7FBB2
:100830000201C5F313044FEA0B3343EA14534FEAA2
:100840000432019C43EA0603A4F10C040294009CC8
:10085000CDE900B400F0D3F903B0BDE8F08F00207B
:100860000146F9E72DE9F04D81EA030404F0004B5D
:1008700021F0004514464FF0000A23F0004150EAF1
:10088000050220D054EA01021DD0C5F30A570246E2
:10089000C5F31303C1F31300C1F30A5640F48015E6
:1008A00043F48013A7EB0608101BD64608F2FD3868
:1008B00073EB050002D308F1010801E092185B41D7
:1008C000B8F1000F03DA00200146BDE8F08D0020EA
:1008D0004FF48011064684460EE0171B73EB0507A4
:1008E00005D3121B63EB050306434CEA010C4908D0
:1008F0004FEA300092185B4150EA0107EDD152EA0D
:10090000030012D082EA040083EA0501084305D0FF
:10091000101BAB4106D20122002306E000224FF05B
:10092000004302E06FF0010253101AEB06004CEB9B
:10093000085110EB0A0041EB0B01BDE8F04D00F04F
:100940004FB90EB540F2334102910021CDE90011BB
:100950000A460B4600F053F903B000BDC1F30A523A
:1009600010B5C1F3130140F2FF3341F480119A42F4
:1009700001DA002010BD40F233439A42A2F2334222
:1009800003DC5242FFF7ABFC10BD904010BD0000ED
:1009900030B5041E71F1000404DB4FF00044404206
:1009A00064EB0101141E73F1000405DB1C464FF0DB
:1009B0000043524263EB04038B4208BF824230BDC6
:1009C00030B5041E71F1000404DB4FF000444042D6
:1009D00064EB0101141E73F1000405DB1C464FF0AB
:1009E0000043524263EB0403994208BF904230BD7A
:1009F00030B50B46014600202022012409E021FAEF
:100A000002F59D4205D303FA02F5491B04FA02F5EB
:100A10002844151EA2F10102F1DC30BD202A04DBBE
:100A2000203A00FA02F1002070479140C2F1200301
:100A300020FA03F3194390407047202A06DBCB17B6
:100A4000203A41FA02F043EAE07306E041FA02F389
:100A5000D040C2F12002914008431946704700007F
:100A600010B500683C22B0FBF2F302FB1303B0FBAD
:100A7000F2F00B60B0FBF2F302FB1303B0FBF2F0F9
:100A800018224B60B0FBF2F302FB1303B0FBF2F051
:100A9000021D8B600723B2FBF3F403FB14228000DA
:100AA00040F2B55300F66C308A61B0FBF3F2B0FB54
:100AB000F3F403FB1400443280084A61C8613B2808
:100AC00002D3920700D0401C0022074C13460A6153
:100AD000E25C824203D8801A5B1C0B61F8E7401C81
:100AE000C860084610BD00005B2502083A2800D205
:100AF000303820F02002412A01D3A2F13700884289
:100B000001D34FF0FF307047026811441378016041
:100B100018467047D16004495161044911620021AF
:100B20001161114600F0F2B8090B0008F90C000839
:100B3000426842B1016811F8013B23B1521EC0E97D
:100B40000012184670470121C160881E7047426834
:100B50005AB1C368016843B983688B4205D0491E06
:100B6000521CC0E90012002070474FF0FF30704760
:100B70002DE9F04791460F4680460446002614F8BA
:100B8000015B2DB100F0B4F80068405DC007F6D1FC
:100B90002B2D02D02D2D18D0641E4A4639462046F2
:100BA00000F04AFA27B13968A14201D1C7F80080A4
:100BB00071054FF002040BD54042002803DD13F00D
:100BC0009DFC0460A007BDE8F08746F48066E4E77A
:100BD0000028F8DA13F092FC04606FF00040F2E7AE
:100BE00010B5141E73F1000408DA401C41F1000135
:100BF00092185B411A4301D120F0010010BD2DE98C
:100C0000F04D92469B4611B1B1FA81F202E0B0FA82
:100C100080F220329046FFF701FF04460F4640EA7B
:100C20000A0041EA0B0153465A46084313D01146C5
:100C300053EA010019D0C8F140025046FFF74FFBBC
:100C400005460E46504659464246FFF7E7FE084322
:100C500005D0012004E020463946BDE8F08D002093
:100C6000054346EAE0762C4337430A986305E40AD5
:100C7000A0EB08000022FD0A44EA47540A3002D5DE
:100C800000200146E9E7010510196941DDE9084541
:100C900000196941BDE8F04DA2E7C1F30A52C1F362
:100CA000130140F2FF3341F480119A4202DA00202E
:100CB0000146704740F233439A42A2F2334202DCCB
:100CC0005242FFF70CBBFFF7A9BE0000064C074DD0
:100CD00006E0E06840F0010394E80700984710340C
:100CE000AC42F6D3FFF738FA983D0208B83D020847
:100CF00000487047E825020810B50446FFF7F8FFE2
:100D00000068005D00F0010010BD00002DE9F34F08
:100D10008BB04FF0000801F10C000C464FF0010BB6
:100D200046460DF1080A0190626901210198904739
:100D3000051E2DD0252D2CD0216A8847C0B16269AF
:100D4000012101989047216A88470028F7D1411E68
:100D500062690198904700E0761CA1690B9888476A
:100D6000216A88470028F7D1E1690B988847DBE7BB
:100D7000A1690B9888470746A84201D1761CD3E7A2
:100D8000E1690B9888477F1C02D1B8F1000F6FD042
:100D900046E1002762693D463946019890472A2876
:100DA00004D162690121019890470125DFF88492FE
:100DB0006269012101989047A0F130010A290AD205
:100DC0004F45E5DC07EB870100EB4107303FDFD4FF
:100DD00045F01005ECE7E90601D46FF000476C28F8
:100DE0000AD04C2814D0682815D06A280DD0742851
:100DF0001CD07A281AD01DE0626901210198904721
:100E00006C2802D045F0040514E045F002050DE021
:100E100045F020050AE062690121019890476828A1
:100E200002D045F0080505E045F40065626901213E
:100E300001989047C4E9015765283DD019DC58282E
:100E40007AD00CDC452837D004DC252826D0412870
:100E500031D131E046282FD047282CD12CE05B2817
:100E600077D0612828D063287CD0642823D15AE029
:100E7000D0E06F2848D008DC66281DD067281BD03A
:100E8000692821D06E2816D127E0702845D0732814
:100E900068D0752847D078280DD14DE0A1690B980E
:100EA0008847054625283FF469AFE1690B988847D4
:100EB0006D1C3FF46AAFB3E023466A466FF0010051
:100EC0000B99AFF300809EE045F040006060A807FA
:100ED00023464FF0000236D43EE0E8077FF447AFE8
:100EE0002068011D21600068290501D506701BE7F7
:100EF000290701D5068017E7A90703D5F117C0E92F
:100F0000006111E706600FE745F040006060A80748
:100F100023464FF0080216D41EE040F60E0125EAE3
:100F20000100606016E045F040006060A8072346BD
:100F30004FF00A0207D40FE045F040006060A807B8
:100F400008D5234610226FF001000B99AFF3008003
:100F500059E007E0234610226FF001000B99FFF7DC
:100F6000B5FA50E04FF000094F464B46632802D0D7
:100F70005B2806D040E0E80601D40120A0600127EC
:100F80003AE062690121019890475E2805D14FF04F
:100F900001096269494601989047216939B90021E0
:100FA0000A46534643F82120491C0829FADBB0B30E
:100FB000216969B9C11700EBD16253110AEB8301B2
:100FC00022F01F02821A01200B68904003430B603D
:100FD00062690121019890475D28E8D1B9F1000FBD
:100FE00009D00020514651F82020D24341F820205A
:100FF000401C0828F7DB02AB224600976FF0010087
:101000000B99AFF3008000280CDA401C08D1BBF12B
:10101000000F05D04FF0FF300DB0BDE8F08FFFE7B7
:101020004046F9E7E90701D108F1010806444FF00D
:10103000000B79E6CCCCCC0C2DE9F05F8246007831
:10104000002715468B460AF10104B946302801D025
:101050009DB113E014F8010B0127782803D058281C
:1010600001D045B10AE00DB1102D07D100271025A0
:1010700014F8010B02E0082500E00A250026B0461E
:101080000EE005FB080005FB06F1012701EB104609
:101090001FFA80F8B6F5803F00D3B94614F8010B6B
:1010A0002946FFF723FD0028EBDABBF1000F05D03E
:1010B0000FB1641E00E05446CBF80040B9F1000FB8
:1010C00006D013F01BFA02210160C81EBDE8F09F94
:1010D00048EA0640FAE770B58C1810F8015B15F085
:1010E000070301D110F8013B2A1106D110F8012B9A
:1010F00003E010F8016B01F8016B5B1EF9D12B07BF
:1011000005D40023521E0DD401F8013BFAE710F874
:10111000013BCB1A921C03E013F8015B01F8015B61
:10112000521EF9D5A142D8D3002070BD10B51DF0D4
:10113000C5FB002010BD70B50446002520688068FE
:1011400000F0010018B32068806820F001002168D9
:1011500088600BF057F9054613E00BF053F9401B7C
:1011600002280ED92068806800F0010048B1A06A0A
:1011700040F01000A062E06A40F00100E06201204F
:1011800070BD2068806800F001000028E5D10020D3
:10119000F6E770B505466C6AA06A00F05000E0B949
:1011A000A06A40F40070A0622068806800F46020AB
:1011B000B0F5602F0DD1207B58B9A06A20F4807063
:1011C000A062A06A00F4805018B9A06A40F0010043
:1011D000A06220460AF0DCF903E0206A016B284691
:1011E000884770BD70B505466C6AA06A40F0400043
:1011F000A062E06A40F00400E06220460AF0CAF90A
:1012000070BD70B50446656A28460AF0C2F970BD23
:1012100038B504460025002000902068806800F062
:10122000010078BB2068806840F001002168886078
:10123000194800681949B0FBF1F0009002E00098ED
:10124000401E009000980028F9D10BF0DBF805460D
:1012500019E00BF0D7F8401B022814D920688068E9
:1012600000F0010078B9A06A40F01000A062E06AC6
:1012700040F00100E06200BF002084F8240000BFBD
:10128000012038BD05E02068806800F001000028DA
:10129000DFD00020F5E700004C01002040420F00A5
:1012A00070B588B004460D461646002001900294A1
:1012B000059604200390002004908DF8180007ABD9
:1012C0002A4601A909480AF034FB68B100BF08A00A
:1012D0001BF068FB09A01BF065FB0BA01BF062FB79
:1012E00000BF002008B070BD0120FBE7144B0020B8
:1012F0005B572F424D535D200000000063616E205C
:101300007478206661696C000A000000F0B504463C
:10131000164600220025A0781870A07815286ED0F7
:101320000EDC10286CD006DC022820D0062868D0FD
:10133000092867D1AFE0112871D01328F9D1EBE06B
:101340001C286DD006DC16286BD017286AD0192807
:10135000EFD1F8E01E2874D02728EAD108784F781A
:1013600040EA0720D8870020C3F8AC0020E1887845
:101370004F7840EA07200F7840EA074043F8400FD3
:10138000C878187108794F7940EA0720D8808879A1
:10139000CF7940EA07201881403B082E4DDD00221E
:1013A00007E002F108000F5C03F14A008754501C6B
:1013B00082B2042AF5DB087B4F7B40EA07208F7B53
:1013C00040EA0740CF7B40EA07601865002207E04B
:1013D00002F110000F5C03F154008754501C82B2DC
:1013E000032AF5DBC87C0F7D40EA07204F7D40EAE9
:1013F00007409865887D83F85C0000220BE09FE041
:1014000057E01FE0D3E002F118000F5C03F15D002C
:101410008754501C82B2112AF5DB00220BE05DE0FC
:10142000A1E08EE08EE002F129000F5C03F16E0076
:101430008754501C82B2082AF5DB0020C3F8B000A4
:10144000B6E0A7E008784F7840EA072023F8760F47
:101450008878CF7840EA0720C0F57A6085B25D8051
:1014600008794F7940EA072098808879CF7940EA57
:101470000720D880087A1872487A8F7A40EA0720C5
:101480005881C87A0F7B40EA072098810020C3F872
:101490003E00763B8CE0087883F8840093F8840063
:1014A00018B90020C3F8B80002E00020C3F8BC005F
:1014B0007EE008784F7840EA072023F8860F887886
:1014C000CF7840EA0720C0F57A6085B25D80087960
:1014D00018710020C3F83A00863B69E008784F781D
:1014E00040EA072023F88C0F8878CF7840EA07205D
:1014F000C0F57A6085B25D8008794F7940EA0720AF
:10150000988088799871C8790F7A40EA0720188105
:10151000002098638C3B4BE0087803F8960F4878DE
:10152000587088789870C878D87008791871487998
:101530005871887998710020C3F83200963B37E0E3
:1015400036E035E034E0087883F89D0048788F78FD
:1015500040EA0720A3F89E00C87883F8A000002086
:10156000C3F8CC0024E00878A23303F8010C4878D3
:101570008F7840EA07201880C8780F7940EA072062
:10158000588048791871887958710020C3F82E0066
:10159000A23B0DE0087883F8A8004F78A920C75433
:1015A0008F78AA20C754CF78AB20C75400E000BF83
:1015B00000BFA078F0BD70B5A2B005460C4600266D
:1015C00080216846FEF709FF122D7ED008DC012D30
:1015D0002FD0072D5ED0082D78D00A2D77D1D5E0F9
:1015E0001A2D75D01D2D74D01F2D73D0262DF5D139
:1015F00006208DF8800000208DF881008DF8825043
:10160000F4208DF8830056208DF884006068000C6B
:101610008DF80000A088000A8DF8010020798DF86F
:10162000020003236A46DDE9200100F095F9064631
:101630008DE106208DF8800000208DF881008DF866
:101640008250F4208DF8830056208DF88400207A93
:101650008DF80000207B8DF80100A089000A8DF82C
:101660000200E068000C8DF80300E068000E8DF8C1
:101670000400207C8DF80500607C8DF80600A07CBD
:101680008DF8070008236A46DDE9200100F064F9BF
:1016900006465CE106208DF8800000208DF8810070
:1016A0008DF88250F4208DF8830056208DF8840048
:1016B000607E8DF80000207E8DF80100E07D8DF8C1
:1016C0000200A07D8DF8030005E079E014E03DE123
:1016D000B7E0E0E014E1607D8DF80400207D8DF836
:1016E0000500E07C8DF8060007236A46DDE920014D
:1016F00000F032F906462AE106208DF8800000202D
:101700008DF881008DF88250F4208DF883005620EA
:101710008DF88400A07E8DF80000608B000A8DF8A3
:101720000100207F8DF80200A08B000A8DF80300D5
:10173000E08BB0F57A6F02DD40F63C70E083E08B21
:10174000C0F57A60C0B28DF80400E08BC0F57A6015
:10175000000A8DF80500208CB0F57A6F02DD40F6A6
:101760003C702084208CC0F57A60C0B28DF80600F1
:10177000208CC0F57A60000A8DF8070008236A46BD
:10178000DDE9200100F0E8F80646E0E004208DF8ED
:10179000800000208DF881008DF88250F4208DF8B3
:1017A000830056208DF8840094F822008DF8000004
:1017B00001236A46DDE9200100F0CEF80646C6E0C6
:1017C00006208DF8800000208DF881008DF8825071
:1017D000F4208DF8830056208DF8840094F82400BE
:1017E0008DF80000A08C000A8DF80100E08CB0F5A7
:1017F0007A6F02DD4FF4C370E084E08CC0F57A604C
:10180000C0B28DF80200E08CC0F57A60000A8DF855
:10181000030094F828008DF80400208D000A8DF84C
:10182000050094F82A0000F0030040F0FC008DF859
:10183000060007236A46DDE9200100F08DF8064620
:1018400085E004208DF8800000208DF881008DF85F
:101850008250F4208DF8830056208DF8840094F88F
:101860002B008DF8000094F82C008DF80100A08D5D
:10187000000A8DF8020094F82E0000F00F0040F0EE
:10188000F0008DF8030004236A46DDE9200100F032
:1018900063F806465BE006208DF8800000208DF896
:1018A00081008DF88250F4208DF8830056208DF849
:1018B000840014F8300F8DF800002088000A8DF89D
:1018C0000100A0788DF802006088000A8DF80300FE
:1018D00020798DF80400A088000A8DF80500606862
:1018E000000C8DF806006068303C000E8DF8070093
:1018F00008236A46DDE9200100F02EF8064626E0BE
:1019000002208DF8800000208DF881008DF8825033
:10191000F4208DF8830056208DF8840094F8380068
:101920008DF800003920005D8DF801003A20005D3F
:101930008DF802003B20005D8DF8030004236A4609
:10194000DDE9200100F008F8064600E000BF00BF16
:10195000304622B070BD00003FB581B014461D4630
:1019600004482B4622460090DDE9010111F0B0F851
:1019700005B030BDF40E002002460021002002F028
:101980000F01092900DC08461109092904DC01EBD3
:10199000810300EB4303D8B27047000070B5C0B0BC
:1019A00004460D464FF480716846FEF716FD00268A
:1019B0002A464FF4807168461EF01AFE9DF800001A
:1019C0009DF8011040EA01262E48068001464C8011
:1019D0009DF8F0009DF8F11040EA01209DF8F2100A
:1019E00040EA01409DF8F31040EA0160254948644F
:1019F0004FF480716846FEF7F0FC224800788DF8BD
:101A0000000020480088000A8DF801001D488078F9
:101A10008DF810001B484088000A8DF811000E2236
:101A20001849091D08A8FEF7BFFC164890F84400A5
:101A30008DF8F0001348B0F84400000A8DF8F1006A
:101A40001048406C000C8DF8F2000E48406C000EFF
:101A50008DF8F3002A464FF4807168461EF0D6FDDB
:101A60000848418808A01AF09DFF0649091D0CA0EE
:101A70001AF098FF0348416C0DA01AF093FF40B094
:101A800070BD0000FC0600207772697465207275D5
:101A90006E20666C61673D20307825780D0A000065
:101AA00066696C656E616D653D2025730D0A0000E9
:101AB000666C6173682073697A653D25640D0A0060
:101AC000F0B5A1B005460C4600260027802101A8EC
:101AD000FEF783FC3A208DF804008DF80650012DA6
:101AE0001BD103208DF8050094F888008DF80700BD
:101AF00094F889008DF80800F0B28DF80900300ADA
:101B00008DF80A000D208DF80B000A208DF80C00CE
:101B1000092101A800F044F840E0022D3ED194F8DC
:101B20008000401DC0B28DF80500002705E0E15D92
:101B3000F81C01AA1154781CC7B294F88000B8426E
:101B4000F5DC80346068000E2178C91C01AA50546D
:101B50006068C0F307412078001D1154A088C0F3CD
:101B600007212078401D115421792078801D1154BF
:101B70002078C01D1654310A2078083011540D21E8
:101B80002078093011540A2120780A30115414F8B1
:101B9000800900F10B0101A800F002F821B0F0BDAE
:101BA00070B504460D462A462146024809F016F84B
:101BB00070BD00008933002000BFFEE710B5024869
:101BC0000AF0B9F810BD0000144B002010B502480F
:101BD0000AF0B1F810BD00003C4B002070B504467F
:101BE000062000F046FA204600F03DFA00F00CFA1C
:101BF0000546012012F05CFC284670BD10B5262079
:101C000000F037FA00F000FA0446012012F050FC10
:101C1000204610BD70B50446282000F02AFA0025A1
:101C200005E000F0F1F904F8010B681CC5B2082DBD
:101C3000F7DB012012F03CFC70BD70B500250024DC
:101C4000272000F016FA012012F032FC0DE064208B
:101C50001BF096FF00F099F80446102C04D128469A
:101C6000691CCDB2C82800DD00E0F0E700BF0CB170
:101C7000012070BD2046FCE710B5052000F0F9F901
:101C8000012012F015FC64201BF07AFF10BD70B526
:101C90000546232000F0EDF9002404E0285D00F063
:101CA000E2F9601CC4B2042CF8DB012012F000FC45
:101CB00070BD70B50546222000F0DBF9002404E079
:101CC000285D00F0D0F9601CC4B2042CF8DB0120C0
:101CD00012F0EEFB70BD70B50446242000F0C9F987
:101CE000002505E014F8010B00F0BDF9681CC5B231
:101CF000042DF7DB012012F0DBFB70BD70B505464B
:101D0000002600243D2000F0B4F9284600F0ABF98D
:101D1000012012F0CDFB0EE04FF4FA701BF042FEF2
:101D200000F033F80446102C04D13046711CCEB2BA
:101D3000C82800DD00E0EFE700BF0CB1012070BD56
:101D40000020FCE770B505460026412000F091F91F
:101D5000284600F088F9012012F0AAFB0EE04FF4AB
:101D6000FA601BF01FFE00F010F80446102C04D19E
:101D70003046711CCEB2C82800DD00E0EFE700BF9E
:101D80000CB1012070BD0020FCE710B52C2000F044
:101D900070F900F039F90446012012F089FB204661
:101DA00010BD10B5422000F064F900F02DF9044692
:101DB000012012F07DFB0CB1012010BD0020FCE7DA
:101DC0002DE9F04107460C4616460CB9BDE8F081F6
:101DD0003C2000F04EF9384600F045F9E0B200F042
:101DE00042F9201200F03FF9002504E000F00CF960
:101DF0007055681C85B2A542F8DB012012F058FB33
:101E000000BFE3E770B505463B2000F032F92846F5
:101E100000F029F900F0F8F8044600F0F5F804EBBA
:101E2000002084B2012012F043FB204670BD70B543
:101E30000446302000F01DF9204600F014F902207D
:101E40001BF0B0FD00F0E0F80546012012F030FB79
:101E5000284670BD10B56520FFF7C0FE04469A2CD9
:101E600001D0012010BD13F0C3FDFFF705FF13F0F3
:101E7000BFFD4FF496701BF083FEFFF7DEFE0446B5
:101E80000CB10120EEE713F0EFFD04484078012883
:101E900002D1C8201BF074FE0020E3E7440B0020B1
:101EA00070B5054600260024352000F0E2F82846EB
:101EB00000F0D9F8012012F0FBFA0EE04FF4FA70AE
:101EC0001BF070FDFFF761FF0446102C04D1304673
:101ED000711CCEB2C82800DD00E0EFE700BF0CB1F6
:101EE000012070BD0020FCE770B505460C4631208E
:101EF00000F0BFF8284600F0B6F8207800F0B3F8FC
:101F0000607800F0B0F8A07800F0ADF8E07800F06C
:101F1000AAF8012012F0CCFA70BD70B505460C4647
:101F2000322000F0A6F8284600F09DF8E0B200F05C
:101F30009AF8201200F097F8012012F0B9FA70BD5B
:101F400070B505460C46342000F093F8284600F0A2
:101F50008AF8204600F087F8012012F0A9FA70BD37
:101F600070B5054600260024372000F082F8284688
:101F700000F079F8012012F09BFA0EE04FF4FA60BD
:101F80001BF010FDFFF701FF0446102C04D1304672
:101F9000711CCEB2C82800DD00E0EFE700BF0CB135
:101FA000012070BD0020FCE770B505460026002426
:101FB000362000F05EF8284600F055F8012012F0B7
:101FC00077FA0EE04FF4FA701BF0ECFCFFF7DDFE41
:101FD0000446102C04D13046711CCEB2C82800DD56
:101FE00000E0EFE700BF0CB1012070BD0020FCE76E
:101FF00010B5012000F03DF800F006F8044601207D
:1020000012F056FA204610BD10B5FF2012F064FA07
:1020100010BD10B512F05EFA12F0FCF912F032FAAF
:1020200012F032FA10BD2DE9F04107460D46144674
:10203000392000F01EF8384600F015F8E0B200F044
:1020400012F8201200F00FF8002605E015F8010B39
:1020500000F009F8701C86B2A642F7DB012012F0EE
:1020600027FABDE8F08110B50446204612F034FA94
:1020700010BD70B50546012012F01AFA002012F0CA
:1020800017FA2846FFF7EFFF002401E0601C84B236
:102090000A2CFBDB70BD000030B593B0402103A8D3
:1020A000FEF79BF914F0F0F8FFF7D4FE054615B1E2
:1020B000002013B030BD194819491A4A0023CDE950
:1020C000002102901A461946184613F09FFC002082
:1020D0008DF80C0001208DF80D0002208DF80E0007
:1020E0000020109011904FF47A70ADF816000E4851
:1020F0000890162109910D480A904FF480610B91C8
:102100000B480D900B480F9003A813F0CFFC04462A
:102110000CB90120CDE70020CBE70000896C010855
:10212000B96C01088F6C01082000002044070020D2
:10213000BD6C0108D56C010810B513F0C1F912F09F
:102140006BF908B913F008FC024890F8380002490E
:10215000087010BD440B00208400002010B54FF41F
:10216000C87011F0B1FC10BD70B504460D4629468B
:10217000204611F0E1FC70BD70B5002500244FF43D
:10218000C87011F0A1FC0446012C01D1022502E027
:10219000022C00D10125284670BD000070B505460F
:1021A0000C4607480480224629460648FEF7FCF8FC
:1021B00003480288034904480DF044FA70BD00004A
:1021C000F0000020142E0020284C002010B588B00C
:1021D0000024D248007806287BD2DFE800F0031FF5
:1021E0007BDAFEFDCD48806AC82816D3FFF7B6FF1C
:1021F00001280FD100BFCAA01AF0D4FBCBA01AF05F
:10220000D1FBCEA01AF0CEFB00BF0020C34948701E
:10221000012008700020C14988627BE1BF48806AC4
:10222000C82855D30020BD4981F824001031A1F100
:102230000A0001F0E9FB0446012C27D10020B74930
:1022400048700220087000BFB5A01AF0ABFBB3487D
:10225000C07BB249897BB14A527BB04B1B7BCDE935
:102260000332CDE90510AD48C17A807AAB4A527A83
:10227000CDE900200291A948037AC2798179B0485A
:102280001AF090FBADA01AF08DFB1EE0022C1CD1C1
:10229000A2484078401CA14948700846407803286D
:1022A00013DB00BFA7A01AF07DFBA9A01AF07AFBF0
:1022B000A2A01AF077FB00BF0020984948700220C6
:1022C0008870642088800420087000209349886208
:1022D00020E11BE19148806AC82859D38F49183101
:1022E000081F00F0DDF90446012C30D100BF8CA09E
:1022F0001AF058FB894841699CA01AF053FB8FA043
:102300001AF050FB00BF9F49844800F0D1F9834880
:1023100090F82400FF2814D100BF8AA01AF042FBD5
:1023200099A01AF03FFB85A01AF03CFB00BF0020EB
:102330007A494870032088706420888004200870DF
:1023400023E0002075494870032008701DE0022C2E
:102350001BD100BF7BA01AF025FB8FA01AF022FB37
:1023600076A01AF01FFB00BF6C484078401C6B49F8
:10237000487008464078032807DB00204870032097
:102380008870642088800420087000206349886277
:10239000C0E06248806AC82847D3604A116AD069A1
:1023A00001F03AFB0446012C1DD100BF5CA01AF0DD
:1023B000F9FA5A48C1697EA01AF0F4FA5FA01AF03F
:1023C000F1FA00BF6F49554801F02EFB0020534938
:1023D00048700120887001E060E027E06420888078
:1023E000042008701EE0022C1CD14C484078401C90
:1023F0004A49487008464078032813DB00BF51A0C3
:102400001AF0D0FA70A01AF0CDFA4CA01AF0CAFA5D
:1024100000BF0020414948700320887064208880F4
:102420000420087000203D49886273E03B48806AC0
:10243000C82832D3394A91889078FFF795FE044630
:10244000012C10D100BF36A01AF0ACFA64A01AF02B
:10245000A9FA3AA01AF0A6FA00BF00202F49487046
:102460000520087019E0022C17D100BF35A01AF022
:1024700099FA5EA01AF096FA30A01AF093FA00BF0B
:1024800026484078401C2549487008464078032873
:1024900003DB00204870052008703BE01F48806A7D
:1024A000C82832D3FFF768FE0446012C0FD100BFC5
:1024B0001BA01AF077FA51A01AF074FA1FA01AF0B4
:1024C00071FA00BF00201549487008701DE0022C09
:1024D0001BD112484078401C10494870084640788B
:1024E0003C280EDB00BF0EA01AF05CFA47A01AF0E1
:1024F00059FA12A01AF056FA00BF00200749487096
:1025000008704FF4FA701BF03BFB03E00020034916
:10251000087000BF00BF08B010BD0000E82D00200B
:102520005B492F434152445D2000000043617264C7
:102530002064657465637465640000000A0000002F
:10254000902702085B572F434152445D2000000052
:102550004361726420726561642055736572206EF8
:10256000616D65206661696C000000004361726402
:102570002072656164206D6F6E6579202564206F1F
:102580006B0000007C2C002043617264204D736757
:10259000206572726F72000043617264207265611F
:1025A00064204D6F6E6579206661696C00000000E3
:1025B00043617264207772697465206D6F6E65790E
:1025C000202564206F6B000043617264207772697C
:1025D0007465204D6F6E6579206661696C0000003E
:1025E0004361726420626565206F6B0043617264B1
:1025F00020626565206661696C0000004361726459
:10260000206C65617665206F6B0000004361726429
:10261000206C65617665000070B505460C465DB9B5
:1026200000BF0FA01AF0BEF910A01AF0BBF915A058
:102630001AF0B8F900BF70BD5CB900BF08A01AF06D
:10264000B1F911A01AF0AEF90EA01AF0ABF900BF63
:10265000F1E72146284611F015FC00BFEBE700002A
:102660005B572F434152445D200000004361726478
:10267000206E756C6C20706F696E74657220657267
:10268000726F72000A00000043617264206461741A
:1026900061206C656E3D30206572726F72000000C3
:1026A00070B504460D462946204611F03FFB70BD2B
:1026B000F0B5ABB005460C460027002600BFF8A0D9
:1026C0001AF070F9F9A01AF06DF9FEA01AF06AF983
:1026D00000BF00BF15E0C7EB071000EB4002201D54
:1026E00000EB820000F109010A22A81DFDF7ADFEF2
:1026F00028B985F82570012085F8240003E0781CAE
:10270000C7B2022FE7DB00BF95F8240001287CD177
:1027100000BFE3A01AF046F995F82510EAA01AF0D8
:1027200041F9E8A01AF03EF900BFA88A81B295F8F5
:102730002500C0EB001000EB4002201D00EB8200E2
:10274000A0F8AE1095F8250000287DD195F8250059
:10275000C0EB001000EB4001201D00EB810090F861
:102760002C0001280FD1E248B0F8A00081B295F802
:102770002500C0EB001000EB4002201D00EB8200A2
:10278000A0F8B01028E095F82500C0EB001000EB91
:102790004001201D00EB810090F82C0002280FD191
:1027A000D348B0F87C0081B295F82500C0EB00104A
:1027B00000EB4002201D00EB8200A0F8B0100BE0FF
:1027C000002195F82500C0EB001000EB4002201D11
:1027D00000EB8200A0F8B01095F82500C0EB0010C7
:1027E00000EB4001201D00EB8100B0F8AA1095F825
:1027F0002500C0EB001000EB4002201D00EB820022
:10280000B0F8B000814236DB00E0C4E295F8250064
:10281000C0EB001000EB4001201D00EB8100B0F880
:10282000AA1095F82500C0EB001000EB4002201D17
:1028300000EB8200B0F8B000081A86B200BF98A082
:102840001AF0B0F8314600E0FEE0AAA01AF0AAF8AB
:102850009CA01AF0A7F800BFA88A304481B295F86E
:102860002500C0EB001000EB4002201D00EB8200B1
:10287000A0F8B21031E095F82500C0EB001000EB95
:102880004001201D00EB8100B0F8B01095F8250044
:10289000C0EB001000EB4002201D00EB8200B0F8FE
:1028A000AA00081A86B200BF7DA01AF07BF8314654
:1028B0009CA01AF077F883A01AF074F800BFA88AD9
:1028C000801B81B295F82500C0EB001000EB4002A0
:1028D000201D00EB8200A0F8B21000BF70A01AF01B
:1028E00061F895F82500C0EB001000EB4002201DB8
:1028F00000EB8200B0F8AE1095A01AF053F871A06A
:102900001AF050F800BF00BF65A01AF04BF895F818
:102910002500C0EB001000EB4002201D00EB820000
:10292000B0F8B01090A01AF03DF866A01AF03AF88E
:1029300000BF00BF5AA01AF035F895F82500C0EB8B
:10294000001000EB4002201D00EB8200B0F8B21036
:102950008CA01AF027F85BA01AF024F800BFAD1D78
:10296000E87FC0EB001000EB4001201D00EB810070
:10297000B0F8B200C5F8160001208DF800002868F4
:10298000CDF801006868CDF805002889ADF8090088
:10299000E87FC0EB001000EB4001201D00EB810040
:1029A000B0F8A800ADF8A000E87FC0EB001000EB85
:1029B0004001201D00EB8100B0F8AA10ADF8A21074
:1029C000E87FC0EB001000EB4001201D00EB810010
:1029D000B0F8AC10ADF8A410E87FC0EB001000EB2D
:1029E0004001201D00EB8100B0F8AE10ADF8A6103C
:1029F000E87FC0EB001000EB4001201D00EB8100E0
:102A0000B0F8B010ADF8A810E87FAD1FC0EB001013
:102A100000EB4001201D00EB8100B0F8B210ADF8D2
:102A2000AA1069465E4801F0C1FC03F085FC00BFB6
:102A30001BA019F0B7FF5BA019F0B4FF21A019F09B
:102A4000B1FF00BF00F08CBF95F825000128F9D137
:102A50005A48B0F8A41015F8250FC0EB001000EB91
:102A60004002201D00EB8200A0F8B0102878C0EBD7
:102A7000001000EB4001201D00EB8100B0F8AA100F
:102A800015F82509C0EB001000EB4002201D00EBFB
:102A90008200B0F8B000814200DB91E0C6E00000A7
:102AA0005B492F434152445D200000005265616440
:102AB0002043617264204D6F6E65792053756363A6
:102AC000656564000A0000004361726420696E203D
:102AD0006C6973742025642C5468697320697320B1
:102AE00061206368617267652073746F7000000015
:102AF000EC2A0020436172642057697468686F6C27
:102B000064696E67206973206772656174657220FD
:102B10007468616E207370656E64696E67202564E9
:102B200000000000436172642057697468686F6C2C
:102B300064696E67206973206C65737320746861C3
:102B40006E207370656E64696E67202564000000F6
:102B50004361726420456E642052656164204D6F4C
:102B60006E6579203D25640043617264205573656C
:102B700072205370656E64204D6F6E6579203D251F
:102B8000640000004361726420456E6420577269DE
:102B90007465204D6F6E6579203D2564000000004E
:102BA00058300020636172642053746F7020677521
:102BB0006E20312063686172676500007C480020E8
:102BC00095F82500C0EB001000EB4001201D00EB44
:102BD0008100B0F8AA1095F82500C0EB001000EBBA
:102BE0004002201D00EB8200B0F8B000081A86B247
:102BF00000BFAFF2541019F0D5FE3146AFF20C1001
:102C000019F0D0FEAFF2441019F0CCFE00BFA88A34
:102C1000304481B295F82500C0EB001000EB400273
:102C2000201D00EB8200A0F8B21034E095F82500DA
:102C3000C0EB001000EB4001201D00EB8100B0F85C
:102C4000B01095F82500C0EB001000EB4002201DED
:102C500000EB8200B0F8AA00081A86B200BFAFF2FB
:102C6000C01019F09FFE3146AFF2481019F09AFEDD
:102C7000AFF2B01019F096FE00BFA88A801B81B297
:102C800095F82500C0EB001000EB4002201D00EB82
:102C90008200A0F8B21000BFAFF2FC1019F082FE63
:102CA00095F82500C0EB001000EB4002201D00EB62
:102CB0008200B0F8AE10AFF2681019F073FEAFF2F8
:102CC000FC1019F06FFE00BF00BFAFF22C2019F00E
:102CD00069FE95F82500C0EB001000EB4002201DB6
:102CE00000EB8200B0F8B010AFF2841019F05AFE79
:102CF000AFF2302019F056FE00BF00BFAFF26020E7
:102D000019F050FE95F82500C0EB001000EB4002D2
:102D1000201D00EB8200B0F8B210AFF2981019F04D
:102D200041FEAFF2602019F03DFE00BF95F825008E
:102D3000C0EB001000EB4001201D00EB8100B0F85B
:102D4000B200E861F94912200DF0DBFD00BFAFF2DF
:102D5000B02019F027FEF6A019F024FEAFF29C2057
:102D600019F020FE00BFC8201AF00AFFEF49172013
:102D70000DF0C7FD00BFAFF2D82019F013FEF2A08E
:102D800019F010FEAFF2C42019F00CFE00BF0020B5
:102D9000E649087256E6F2480078012842D1A88A2E
:102DA000F049A1F84600A87948310CF093FCE87985
:102DB000EC494A310CF08EFC287AEA494C310CF08F
:102DC00089FC687AE7494E310CF084FCA87AE54921
:102DD00050310CF07FFCE87AE24952310CF07AFC79
:102DE000287BE04954310CF075FC687BDD49563195
:102DF0000CF070FCA87BDB4958310CF06BFCE87BD5
:102E0000D8495A310CF066FC0520D64981F8860075
:102E1000082081F8870001201CF034FC4FF47A7000
:102E20001AF0C0FD00BFAFF2883019F0BBFDCEA094
:102E300019F0B8FDAFF2743019F0B4FD00BF686945
:102E400088B900BFAFF2A83019F0ACFDD0A019F0DE
:102E5000A9FDAFF2903019F0A5FD00BFFF2085F865
:102E600024002BB0F0BDCF4890F8AE00012854D11B
:102E7000AE4890F86A0000284FD100BFAFF2E030B2
:102E800019F090FDC8A019F08DFDAFF2C83019F00F
:102E900089FD00BFC34890F8AC0068BB00BFAFF22B
:102EA000004019F07FFDC4A019F07CFDAFF2EC30BA
:102EB00019F078FD00BF00202070A9480078012893
:102EC00019D1C0480078012815D000BFAFF23040BA
:102ED00019F068FDBCA019F065FDAFF2184019F0BB
:102EE00061FD00BF01219F4880F85A110146B54895
:102EF00000781CF093FB10E200BFAFF25C4019F0C9
:102F000051FDB7A019F04EFDAFF2484019F04AFD4F
:102F100000BFFF2085F82400A3E7A24890F8AE0088
:102F2000002853D1814890F86A0001284ED100BF93
:102F3000AFF2944019F036FDB3A019F033FDAFF2B3
:102F40007C4019F02FFD00BF784890F8680060BB06
:102F500000BFAFF2B44019F025FDAFA019F022FD7B
:102F6000AFF2A04019F01EFD00BF012020707C4888
:102F700000780128BFD1934800780228BBD000BF59
:102F8000AFF2E44019F00EFDA6A019F00BFDAFF270
:102F9000CC4019F007FD00BF0220724981F888007B
:102FA000884800781CF03AFBB7E100BFAFF2105040
:102FB00019F0F8FCA1A019F0F5FCAFF2F84019F0F7
:102FC000F1FC00BFFF2085F824004AE7754890F81F
:102FD000AE0001287DD1554890F86A000128F9D14A
:102FE00000BFAFF2445019F0DDFC9EA019F0DAFCEE
:102FF000AFF2305019F0D6FC00BF6A4890F8AC0030
:1030000090BB4A4890F8680001282ED100BFAFF26B
:10301000705019F0C7FC9AA019F0C4FCAFF25C50D4
:1030200019F0C0FC00BF002020704D480078012836
:10303000BAD1644800780128B6D000BFAFF2A050E2
:1030400019F0B0FC60A019F0ADFCAFF2885019F097
:10305000A9FC00BF0121434880F85A110146594894
:1030600000781CF0DBFA58E1FFE74E4890F8AC001E
:10307000012833D12D4890F8680058BB00BFAFF24B
:10308000E05019F08FFC4CA019F08CFCAFF2CC5042
:1030900019F088FC00BF0120207031480078012819
:1030A000E1D1484800780228DDD000BFAFF21060BF
:1030B00019F078FC5BA019F075FCAFF2F85019F02C
:1030C00071FC00BF0220274981F888003D48007844
:1030D00001E011E102E01CF0A1FA1EE1314890F894
:1030E000AC00002820D1114890F8680000281BD1BE
:1030F00000BFAFF2546019F055FC64A019F052FC07
:10310000AFF2406019F04EFC00BF1548007801286E
:103110000BD12C480078401E207000BFAFF28060B9
:1031200019F040FC2178BDE0D5E0C3E07C480020E8
:10313000636172642073746F702067756E20322033
:10314000636861726765000063617264206F706517
:103150006E2067756E2032206C6F636B000000007C
:10316000FD000020942E002043617264206E6F7475
:1031700020696E206C6973742C54686973206973BC
:1031800020612063686172676520737461727400E6
:103190005468652063617264206D6F6E6579206983
:1031A000732030005830002067756E203120636F27
:1031B0006E6E65637400000067756E203120667264
:1031C00065650000FE0000207377697463682073F2
:1031D000637265656E2073656C2067756E203100C3
:1031E00067756E203120636861726765696E672C50
:1031F000706C6561736520436F6E6E656374204704
:10320000554E20320000000067756E203220636F3B
:103210006E6E65637400000067756E203220667202
:103220006565000073776974636820736372656510
:103230006E2073656C2067756E203200706C65615E
:10324000736520436F6E6E6563742047554E203161
:103250002C67756E203220636861726765696E67DE
:103260000000000067756E203020636F6E6E65632E
:10327000742C67756E203120636F6E6E6563740009
:1032800067756E20302066726565000067756E2078
:103290003020667265652C67756E20312066726518
:1032A00065000000FAA019F07DFBAFF2E87019F09C
:1032B00079FB32E000BFAFF6180019F073FBFDA0F8
:1032C00019F070FBAFF6040019F06CFB00BFFF2093
:1032D00085F82400C5E500BFAFF63C0019F062FB9D
:1032E000F9A019F05FFBAFF6240019F05BFB00BFFB
:1032F000FF2085F82400B4E500BFAFF65C0019F0AC
:1033000051FBF8A019F04EFBAFF6480019F04AFB4C
:1033100000BFFF2085F82400A3E500BFAFF68000C2
:1033200019F040FB2178FCA019F03CFBAFF66C00D3
:1033300019F038FB00BF2078A0B9FE4890F8AE0025
:1033400040BB00BFAFF6A80019F02CFBFAA019F0A3
:1033500029FBAFF6900019F025FB00BFFF2085F890
:1033600024007EE52078012814D1FA4890F86A00FC
:1033700080B900BFAFF6D80019F014FBF6A019F021
:1033800011FBAFF6C00019F00DFB00BFFF2085F860
:10339000240066E56078022810DB00BFAFF600105D
:1033A00019F000FBF3A019F0FDFAAFF6E80019F0F0
:1033B000F9FA00BFFF2085F8240052E52078C0EB21
:1033C000001000EB4001201D00EB81000079002877
:1033D0007ED101212078C0EB001000EB4002201DBF
:1033E00000EB82000171207885F8250000BFAFF660
:1033F000501019F0D7FA2178E2A019F0D3FAAFF6FD
:103400003C1019F0CFFA00BF01212078C0EB00106A
:1034100000EB4002201D00EB820001722078C0EB1F
:10342000001000EB4001201D00EB8100D5F80610D4
:1034300040F8091FD5F80A104160E989018100BFF1
:10344000AFF6A41019F0AEFA2078C0EB001000EB34
:103450004002201D00EB8200017AD0A019F0A2FAF0
:10346000AFF6A01019F09EFA00BF00BFAFF6D01063
:1034700019F098FA2078C0EB001000EB4001201DF5
:1034800000EB8100817C2078C0EB001000EB400253
:10349000201D00EB8200427C2078C0EB001000EB86
:1034A0004003201D00EB8300037C2078C0EB00105C
:1034B00000EB400C201D00EB8C00C07BCDE90432FA
:1034C000069103902078C0EB001000EB400100E073
:1034D00046E2201D00EB8100817B2078C0EB0010CC
:1034E00000EB4002201D00EB8200427B2078C0EB05
:1034F000001000EB4003201D00EB8300007BCDE9B2
:10350000012100902078C0EB001000EB400C201D42
:1035100000EB8C00C37A2078C0EB001000EB400C6D
:10352000201D00EB8C00827A2078C0EB001000EBAD
:10353000400C201D00EB8C00417A9CA019F032FA5F
:10354000AFF6802019F02EFA00BF00BFAFF6B02012
:1035500019F028FAA5A019F025FAAFF6982019F06D
:1035600021FA00BF00212078C0EB001000EB4002E0
:10357000201D00EB820080F829102078C0EB00109D
:1035800000EB4002201D00EB8200418501212078E4
:10359000C0EB001000EB4002201D00EB820080F821
:1035A0002C1064212078C0EB001000EB4002201D9D
:1035B00000EB8200C18500212078C0EB001000EBF9
:1035C0004002201D00EB8200018600BFAFF63030C4
:1035D00019F0E8F92078C0EB001000EB4001201D45
:1035E00000EB8100008E2178C1EB011101EB41025B
:1035F000211D01EB8201C98DCDE900102078C0EBBF
:10360000001000EB400C201D00EB8C0090F82C30DB
:103610002078C0EB001000EB400C201D00EB8C006C
:10362000428D2078C0EB001000EB400C201D00EB19
:103630008C0090F82910734819F0B4F9AFF67C307B
:1036400019F0B0F900BFA88A81B22078C0EB001051
:1036500000EB4002201D00EB8200A0F8A8104FF400
:10366000FA712078C0EB001000EB4002201D00EB47
:103670008200A0F8AA102078C0EB001000EB4001F7
:10368000201D00EB8100B0F8A8102078BCE00000FD
:103690006765742073637265656E2047756E206E72
:1036A000756D3D25642066726F6D2073637265656C
:1036B0006E000000706C6561736520436F6E6E650F
:1036C0006374206F6E65000067756E20302063683C
:1036D000617267652C67756E20312063686172675F
:1036E00065000000416C6C2067756E20646973632F
:1036F0006F6E6E6563742C706C6561736520636FAB
:103700006E6E6563742067756E2031206F7220675E
:10371000756E203200000000636172642073656C76
:103720006563742047756E3D256420636861726728
:1037300065000000583000204361726420636865B2
:10374000636B2067756E203120646973636F6E6EE2
:10375000000000007C4800204361726420636865BB
:10376000636B2067756E203220646973636F6E6EC1
:103770000000000043617264206C697374206675F8
:103780006C6C00004361726420616464206C697336
:1037900074202564206974656D20000043617264A3
:1037A0002054797065203D256400000043617264F7
:1037B000204E616D65203D253032782025303278ED
:1037C000202530327820253032782025303278207C
:1037D0002530327820253032782025303278202567
:1037E0003032782025303278200000004361726446
:1037F000204765742064656661756C74206461742B
:103800006100000040270208C0EB001000EB4002FE
:10381000201D00EB8200B0F8AA0081422DDA00BF23
:10382000AFF6845019F0BEF84EA019F0BBF8AFF611
:103830006C5019F0B7F800BF2078C0EB001000EB17
:103840004001201D00EB8100B0F8A8102078C0EBEB
:10385000001000EB4002201D00EB8200A0F8AA102F
:1038600000BFAFF6C45019F09DF84CA019F09AF8BB
:10387000AFF6B05019F096F800BF2078C0EB0010FA
:1038800000EB4001201D00EB8100B0F8A81020786B
:10389000C0EB001000EB4002201D00EB8200B0F8EE
:1038A000AA00081A81B22078C0EB001000EB400299
:1038B000201D00EB8200A0F8AC1000BFAFF6206026
:1038C00019F070F82078C0EB001000EB4002201DCA
:1038D00000EB8200B0F8A81037A019F063F8AFF63B
:1038E0001C6019F05FF800BF00BFAFF64C6019F024
:1038F00059F82078C0EB001000EB4002201D00EBCF
:103900008200B0F8AA1033A019F04CF8AFF64C6062
:1039100019F048F800BF00BFAFF67C6019F042F81C
:103920002078C0EB001000EB4002201D00EB82006D
:10393000B0F8AC102DA019F035F8AFF6786019F09A
:1039400031F800BF2078C0EB001000EB4001201DD3
:1039500000EB8100B0F8AC00E8616078401C60705A
:1039600000BFB7E4546865206D6F6E657920696E9D
:10397000207468652063617264206973206C6573CC
:1039800073207468616E2074686520576974686874
:103990006F6C64204D6F6E65790000004361726446
:1039A0002044656475637420616C6C2074686520C4
:1039B0006D6F6E657900000043617264205374611D
:1039C00072742072656164206D6F6E657920256464
:1039D00000000000436172642057697468686F6C6E
:1039E00064204D6F6E657920256400004361726428
:1039F000205374617274205772697465204D6F6E24
:103A0000657920256400000070B504460D462946FE
:103A1000204610F0CBF870BD70B504460D4629461F
:103A2000204610F033FC70BD30B5ABB005460C46F7
:103A300095F82400012857D100BFCCA018F0B2FFA0
:103A400095F82500C0EB001000EB4003201D00EBB3
:103A50008300B0F8B010C8A0EA6918F0A3FFCFA0A7
:103A600018F0A0FF00BF95F82510C1EB011101EB84
:103A70004102211D01EB8200AC21FCF7AEFC607815
:103A8000401E607000BFB9A018F08CFF95F825109B
:103A9000C3A018F087FFC1A018F084FF00BFC5487D
:103AA000007801281FD195F8250021788842F9D1A6
:103AB00005202178C1EB0111C1EBC101BE4A02EB27
:103AC000410181F8860006202178C1EB0111C1EB8C
:103AD000C10102EB410181F887002178491CC8B27D
:103AE00011461BF0CFFD3EE100BFA0A018F05AFF29
:103AF0002078C0EB001000EB4003201D00EB83009A
:103B0000B0F8AA10ADA0EA6918F04CFFA3A018F015
:103B100049FF00BF2078401CB3490870B34890F8B3
:103B2000AE008875B14890F8AC10AF48C175B04888
:103B300090F86A10AC480176AD4890F86810AA4831
:103B400041760DF061FB00BF88A018F02BFFA6485E
:103B5000837A427A017AA7A018F024FF8FA018F088
:103B600021FF00BF00BF81A018F01CFF9E48837C8E
:103B7000427C017CA9A018F015FF88A018F012FF64
:103B800000BF207800287ED101208DF80000D5F8F4
:103B90000600CDF80100D5F80A00CDF80500E88947
:103BA000ADF809002078C0EB001000EB4001201DAB
:103BB00000EB810090F829008DF821002078C0EBFF
:103BC000001000EB4001201D00EB8100408DADF89E
:103BD00022002078C0EB001000EB4001201D00EB1C
:103BE000810090F82C008DF824002078C0EB0010A4
:103BF00000EB4001201D00EB8100C08DADF82600D8
:103C00002078C0EB001000EB4001201D00EB81008C
:103C1000008EADF828002078C0EB001000EB4001CA
:103C2000201D00EB8100B0F8A800ADF8A0002078BE
:103C3000C0EB001000EB4001201D00EB8100B0F84C
:103C4000AA10ADF8A2102078C0EB001000EB4001E4
:103C5000201D00EB8100B0F8AC10ADF8A410624854
:103C6000017A624880F811115F48417A5F4880F814
:103C700012115D48817A5D4880F81311694600F0A1
:103C80004FF940E0FFE70120594908722078C0EB66
:103C9000001000EB4001201D00EB810090F829008E
:103CA000534988742078C0EB001000EB4001201DC0
:103CB00000EB8100408D4E4988822078C0EB0010D7
:103CC00000EB4001201D00EB810090F82C004849DA
:103CD00088754548007CC8754348407C0876424852
:103CE000817C4348417600BF20A018F05BFE21781C
:103CF00054A018F057FE29A018F054FE00BF3C490C
:103D000011200CF0FEFD00BF18A018F04BFE21782A
:103D100053A018F047FE21A018F044FE00BF25482C
:103D2000007801281FD195F82500217888421AD102
:103D300005202178C1EB0111C1EBC1011E4A02EB44
:103D4000410181F8860009202178C1EB0111C1EB06
:103D5000C10102EB410181F887002178491CC8B2FA
:103D600011461BF08FFC2BB030BD00005B492F4388
:103D70004152445D200000006361726420706179EB
:103D80006D656E7420256420737563636573732C91
:103D90005772697465202564000000000A00000065
:103DA000636172642064656C657465204C6973742A
:103DB00020256400FD000020942E002063617264C1
:103DC000205375636365737366756C2064656475F1
:103DD0006374696F6E206F662025642C5772697456
:103DE0006520256400000000744A0020583000203F
:103DF0007C48002047554E203120536574204443B1
:103E00004D2047726F7570204E756D3D25642C41B5
:103E10006464723D256420256400000047554E20EF
:103E200032205365742044434D2047726F757020D3
:103E30004E756D3D25642C416464723D25642025DA
:103E4000640000006361726420746F206E6574709A
:103E50006F72742073746172742067756E20320003
:103E6000636172642053746172742047756E203DE3
:103E700025642063686172676500000070B50546BF
:103E80000C46802C12DD00BF0FA018F08BFD11A096
:103E900018F088FD19A018F085FD00BF0020184912
:103EA000A1F8800080211648FCF797FA224629469F
:103EB0001348FCF779FA1248A0F8804011480068CE
:103EC00019F038FA70BD00005B572F434152445D32
:103ED000200000006361726420627566666572206E
:103EE0006973206E6F7420656E6F7567682C736FD1
:103EF00020636C61657220616C6C00000A00000038
:103F0000942B0020E800002010B50024322C05D2AC
:103F100015F0C6F915F078FA012010BD0020FCE775
:103F200030B587B004460D4600BFB4A018F03AFD86
:103F3000B6A018F037FDBAA018F034FD00BF2878FD
:103F40002070D5F80100C4F80100D5F80500C4F8C8
:103F50000500B5F80900A4F8090095F8210084F8D7
:103F60002100688C608495F8240084F8240000BF48
:103F7000A2A018F017FD2178AAA018F013FDA8A0A0
:103F800018F010FD00BF00BF9CA018F00BFDA07A38
:103F9000617A227AE379CDE90332CDE90510A0797F
:103FA00061792279CDE900210290E378A2786178E5
:103FB000A0A018F0F7FC9AA018F0F4FC00BF00BF16
:103FC0008EA018F0EFFC94F82110AAA018F0EAFCDB
:103FD00093A018F0E7FC00BF00BF88A018F0E2FC37
:103FE000618CA9A018F0DEFC8DA018F0DBFC00BFEE
:103FF00000BF82A018F0D6FC94F82410A8A018F0F6
:10400000D1FC87A018F0CEFC00BF2078012830D169
:10401000B5F8A000A4F8A000A220415B0153A420A1
:10402000415B015300BF75A018F0BCFCB4F8A010B0
:104030009FA018F0B7FC7AA018F0B4FC00BF00BF36
:104040006EA018F0AFFCA220015B9FA018F0AAFCA4
:1040500073A018F0A7FC00BF00BF68A018F0A2FC76
:10406000A420015B9DA018F09DFC6DA018F09AFCA7
:1040700000BF94F8240001283DD1E88CE084288D0D
:1040800020851CF03BFBCC2108519B480168D020C7
:10409000015100BF59A018F085FCE18C97A018F0E1
:1040A00081FC5FA018F07EFC00BF00BF53A018F099
:1040B00079FC218D96A018F075FC59A018F072FCBF
:1040C00000BF00BF4DA018F06DFCCC20015995A099
:1040D00018F068FC52A018F065FC00BF00BF47A0B4
:1040E00018F060FCD020015993A018F05BFC4CA0A4
:1040F00018F058FC72E094F8240002286ED1688D04
:104100006085A98DA185E98DE185298E2186698E3D
:104110006186A98EA186E98EE186298F21870020FC
:1041200009E005F13A0131F8102004F13A0121F8D3
:104130001020411CC8B23028F3DB1CF029FB1421ED
:10414000C42001558348817E84F8C510017E84F81F
:10415000C610417E84F8C710C17E84F8C810017F64
:1041600084F8C910417F84F8CA1063480168D020E0
:10417000015100BF21A018F015FC77A018F012FC27
:1041800027A018F00FFC00BF00BF1CA018F00AFC0D
:1041900094F8CA1094F8C92094F8C830C720005D7C
:1041A000CDE901320391009094F8C63094F8C5200F
:1041B000C420015D6EA018F0F5FB19A018F0F2FB09
:1041C00000BF00BF0DA018F0EDFBD02001595AA090
:1041D00018F0E8FB12A018F0E5FB00BF01206D49C4
:1041E000887700BF05A018F0DDFB6BA018F0DAFBA4
:1041F0000BA018F0D7FB00BF07B030BD5B492F43C1
:1042000048415247454354524C5D200073746172DB
:1042100074207265636F7264206D73670000000024
:104220000A0000005553455220747970653D25649D
:104230000000000055534552204E616D653D25300C
:1042400032782025303278202530327820253032DF
:104250007820253032782025303278202530327889
:1042600020253032782025303278202530327820D1
:104270000000000055534552204368617267654D48
:104280006F64653D256400005553455220436861C5
:104290007267654D6F6465446174613D256400001B
:1042A00055534552207061796D656E743D256400EB
:1042B0005553455220636172642073746172742097
:1042C000726561643D2564005553455220636172F7
:1042D00064204465647563743D25640055534552FC
:1042E00020636172642073746172742077726974E0
:1042F000653D2564000000006027002055534552AD
:1043000020456C65634D6F6E65793D256400000046
:1043100055534552205365727665724D6F6E6579BF
:104320003D256400555345522053746172742054E6
:10433000696D653D256400005553455220537461F5
:10434000727420656E65726779206D657465723D63
:10435000256400003C0E0020555345522074696DC1
:1043600065207368617265206D6F646500000000F0
:10437000555345522053746172742054696D653DE4
:10438000256425642D25642D25642025643A256443
:104390003A2564009C2A00205553455220537461ED
:1043A00072742063686172676500000070B592B036
:1043B00004460D4600262878092801D1012670E020
:1043C0002078297888425FD100BF9DA018F0EAFAD2
:1043D00021789FA018F0E6FAA3A018F0E3FA00BF36
:1043E0000A22691C601CFCF730F8E8B900BF94A0F1
:1043F00018F0D8FAA07A617A227AE379CDE903320B
:10440000CDE90510A07961792279CDE900210290EA
:10441000E378A2786178954818F0C4FA92A018F071
:10442000C1FA00BF01263CE000BF91A018F0BAFA23
:10443000A87A697A2A7AEB79CDE90D32CDE90F10A5
:10444000A87969792A79EB78CDE90932CDE90B10A1
:10445000A8786978A27A637ACDE90532CDE90710A8
:10446000207AE179A2796379CDE90132CDE90310AF
:1044700020790090E378A2786178814818F092FA68
:1044800079A018F08FFA0CE000BF79A018F08AFA32
:104490002A7821787BA018F085FA73A018F082FAA8
:1044A00000BF012E70D100BF65A018F07BFA7EA07E
:1044B00018F078FA6CA018F075FA00BF207801287F
:1044C0003CD1A620415B0153A820415B0153AA20A7
:1044D000415B015300BF5AA018F064FAA620015BAB
:1044E00074A018F05FFA60A018F05CFA00BF00BF7B
:1044F00053A018F057FAA220015B74A018F052FAEA
:1045000059A018F04FFA00BF00BF4DA018F04AFAAA
:10451000A820015B73A018F045FA53A018F042FAE6
:1045200000BF00BF46A018F03DFAAA20015B72A0B0
:1045300018F038FA4CA018F035FA00BF94F82400AF
:10454000012822D11CF0DAF884F8DB0070480168F9
:10455000DC20015100BF3AA018F024FA94F8DB10D7
:104560006CA018F01FFA40A018F01CFA00BF00BFA2
:1045700033A018F017FADC2001596BA018F012FADA
:1045800039A018F00FFA4AE057E094F82400022806
:1045900045D11CF0FDF8142184F8D4106948817EBF
:1045A00084F8D510017E84F8D610417E84F8D710A7
:1045B000C17E84F8D810017F84F8D910417F84F837
:1045C000DA1053480168DC20015100BF1CA018F02C
:1045D000E9F994F8DA1094F8D92094F8D83094F8DE
:1045E000D700CDE901320391009094F8D63094F8C9
:1045F000D52094F8D41054A018F0D4F91AA018F0CB
:10460000D1F900BF00BF0EA018F0CCF9D02001599D
:1046100045A018F0C7F914A018F0C4F900BF002095
:104620005249887700BF06A018F0BCF950A018F0D6
:10463000B9F90DA018F0B6F900BF12B070BD0000B6
:104640005B492F4348415247454354524C5D20003B
:10465000636865636B2C73616D652075736572208B
:10466000747970653D2564000A0000006C2802081A
:104670005B572F4348415247454354524C5D2000FD
:10468000E0270208636865636B2C4469666665729F
:10469000656E74207573657220747970652C25645D
:1046A00020213D2025640000616C6C6F772C7374B1
:1046B0006F70000055534552206361726420656E2F
:1046C000642072656164203D2564000055534552A5
:1046D00020636172642057697468686F6C643D255B
:1046E000640000005553455220636172642073706A
:1046F000656E643D25640000555345522063617228
:104700006420656E642077726974653D25640000DD
:10471000602700205553455220656E642054696D12
:10472000653D2564000000005553455220656E64C8
:1047300020656E65726779206D657465723D2564CC
:10474000000000003C0E00205553455220656E6469
:104750002054696D653D256425642D25642D2564EF
:104760002025643A25643A25640000009C2A002034
:104770005553455220656E64206368617267650019
:104780000148807F704700009C2A00200246106884
:10479000884201D3012070470020FCE710B52F4864
:1047A0004078012802D10BF023F902E000200BF041
:1047B0001FF92B4890F84E03012802D10BF021F984
:1047C00002E000200BF01DF92648807F012805D16A
:1047D00012F0A2FF01200BF0F9F806E012F08EFFB4
:1047E00000200BF0F3F814F045FA00201D49086092
:1047F0001D4800694EF66021884205D919480068B5
:1048000040F00100174908601848C0684EF6602162
:10481000884205D91348006840F002001149086039
:10482000134800684EF66021884205D90D4800689B
:1048300040F004000B4908600A48C06828B90948DC
:10484000007C10B90748006818B101200BF0C7F8C8
:1048500002E000200BF0C3F810BD00007828002013
:10486000703200209C2A0020602700208829002028
:104870004426002070B505460C46B4F88600A08496
:10488000B4F88800E08495F84E0038B9E18CA08C2B
:1048900002F040FB012085F84E0003E0E18CA08C83
:1048A00002F052FB70BD000038B5044646A0006817
:1048B000009046486060002020724548E0609DF806
:1048C000000020749DF8011061749DF80210A1741D
:1048D00042F2107024F81A0F642060804FF4966042
:1048E000A0800A20E080002020726081A081E08109
:1048F0002074607460822075E08220833448C4F89C
:104900001A000020A0771A3C0021392001553A20D6
:1049100001553B2001550020403424F8020C206052
:104920002071E0802081C4F80A002061A082A07577
:10493000A0612077403C112104F15D00FBF74DFDA3
:1049400000207E3444F8100C44F80C0C24F8080CB9
:1049500024F8060C24F8040C24F8020C2070608063
:10496000A080A071208160812073E081208260821C
:104970002075E08220766076A076E07620776077FA
:10498000A077E077208484F8220084F82300A084B4
:10499000E08484F8280084F8290084F82A007E3C0A
:1049A0000021A9200155AA200155AB200155002066
:1049B00044F8B00F6060A060E06020616061A061B9
:1049C000E0612062B03C38BD3030300000010100B1
:1049D000040302010021103000F80C1C40F8041CF4
:1049E0000170416081604173C1730161017541755E
:1049F000816101774177817701624162816280F84C
:104A00002C1080F82D1080F82E10016380F83410DF
:104A1000816380F83C1080F83D1080F83E1010381B
:104A20007047000070B5044600253248007810B188
:104A300001285CD104E0002501202E49087056E0D1
:104A400001252D48B0F878002B49C98B884206DC37
:104A50002948B0F878002849098C88420ADA00BF52
:104A600026A017F09FFF294817F09CFF28A017F0F9
:104A700099FF00BF2048B0F87C001F49498B88424D
:104A800006DC1D48B0F87C001B49898B88420BDA94
:104A900000BF1AA017F086FF1E4817F083FF1CA066
:104AA00017F080FF00BF02251348B0F88000B0F572
:104AB0007A7F00DB02251048B0F882000E49498B4E
:104AC00088420BDD00BF0DA017F06CFF12A017F09D
:104AD00069FF0FA017F066FF00BF022500200549FF
:104AE0000870012D02D1012084F82D0000BF00BF05
:104AF000284670BDDC000020542500205B572F4362
:104B0000484152474552554E5D200000F8260208A4
:104B10000A000000B02602086361722042617474CA
:104B200065727920566F6C74616765203C207069EE
:104B30006C65204D6178204F757470757420566FC8
:104B40006C7461676500000070B504460D46002076
:104B500084F8250094F82400062847D2DFE800F006
:104B600003479DF0EFEEF848008896280EDA00BF64
:104B7000F6A017F017FFF9A017F014FFFAA017F02E
:104B800011FF00BF012084F824002FE040F6B83167
:104B9000A06A88422AD900BFECA017F003FFF3A057
:104BA00017F000FFF0A017F0FDFE00BF0020A0628C
:104BB000F3480078142814DB00BFE4A017F0F2FEDD
:104BC000F0A017F0EFFEE8A017F0ECFE00BF002009
:104BD000EB490870022084F82500002084F82400A6
:104BE00004E0E7480078401CE54908706EE214F0E4
:104BF0008FFA14F055FB688B002831D0E88F00281D
:104C00002ED0688BE98F88420EDBE88FE44908805C
:104C100000BFCEA017F0C6FEE98FE2A017F0C2FEDB
:104C2000D1A017F0BFFE0EE0688BDD49088000BF01
:104C3000C6A017F0B7FE698BE4A017F0B3FECAA0B8
:104C400017F0B0FE00BFD648008802F047F90020F8
:104C5000A062022084F824000020C94908701BE0EB
:104C600047F23051A06A884216D900BFB7A017F0AA
:104C700099FEEA8F698BDB4817F094FEBAA017F013
:104C800091FE00BF0020A062BD490870022084F898
:104C90002500002084F8240018E2AB48008828B1E1
:104CA0000020A062032084F824005FE0B44800786C
:104CB000142819DB0020B249087084F8240002206F
:104CC00084F8250000BFA1A017F06CFEC6A017F065
:104CD00069FEA5A017F066FE00BF02F029F914F0E6
:104CE00007FA14F0F1FA41E041F28831A06A8842F3
:104CF0003CD900BF95A017F055FEA9480188C0A077
:104D000017F050FE98A017F04DFE00BF9C480078A9
:104D1000401C9B490870688BE98F884211DBE88F43
:104D20009F49088000BF89A017F03CFEE98F9DA035
:104D300017F038FE8CA017F035FE11E0E7E0D1E067
:104D400015E0688B9649088000BF80A017F02AFE06
:104D5000698B9EA017F026FE83A017F023FE00BFEC
:104D60008F48008802F0BAF80020A062AEE17648D1
:104D700080884FF6FF71884257D07348C0888842B8
:104D800053D000BF71A017F00DFEA4A017F00AFECB
:104D900075A017F007FE00BF6B480089B0F5FA7FD9
:104DA00010DD00BF69A017F0FDFD9FA017F0FAFD10
:104DB0006DA017F0F7FD00BF0020A062042084F86A
:104DC00024008EE060480089642815DD5E48008973
:104DD000B0F5FA7F10DC00BF5CA017F0E3FD94A0F3
:104DE00017F0E0FD60A017F0DDFD00BF0020A0621D
:104DF000042084F8240074E000BF54A017F0D2FD12
:104E00008EA017F0CFFD58A017F0CCFD00BF02F028
:104E10008FF814F06DF914F043FA022084F825009D
:104E20000020A06284F824005BE055480078142834
:104E300019DB00205249087084F82400022084F80D
:104E4000250000BF41A017F0ADFD67A017F0AAFD37
:104E500045A017F0A7FD00BF02F06AF814F048F96A
:104E600014F01EFA3DE0A06AB0F5FA6F39D900BF20
:104E700036A017F097FD4A48018861A017F092FD0F
:104E800039A017F08FFD00BF3D480078401C3C4919
:104E900008700020A062688BE98F88420EDBE88FE3
:104EA0003F49088000BF29A017F07CFDE98F3DA095
:104EB00017F078FD2CA017F075FD0EE0688B3849CF
:104EC000088000BF21A017F06DFD698B3FA017F08F
:104ED00069FD25A017F066FD00BF3148008801F08C
:104EE000FDFFF3E000BF19A017F05CFD5AA017F01A
:104EF00059FD1DA017F056FD00BF02F019F814F07F
:104F0000F7F80020A062052084F82400DEE00E48B7
:104F10000088B0F5167F16DA00BF0CA017F042FD2E
:104F200050A017F03FFD10A017F03CFD00BF14F09B
:104F3000B7F9012024342072002060602070012025
:104F40006070243CC1E099E0882900205B492F4330
:104F5000484152474552554E5D200000496E7375D9
:104F600020563C31353000000A000000496E737550
:104F700020636865636B20563E31353000000000C9
:104F8000D9000020496E737520636865636B2056F5
:104F90003E3135302C74696D656F7574000000000A
:104FA000DA000020496E73752044434D206F7574FC
:104FB0002C6D617820616C6C6F7761626C65205636
:104FC0003D2564206F66206361720000496E737531
:104FD0002044434D206F75742C6D617820563D251B
:104FE0006420000068260208496E737520636865B6
:104FF000636B20496E7375206572726F72000000DA
:10500000496E737520726574727920636861726786
:1050100065206F757420256400000000496E73756B
:105020002076616C69642C00496E7375206F6B008B
:1050300020496E7375616C61726D0000496E737505
:10504000206572726F722C73746F7020496E737565
:1050500020636865636B0000636C6F736520496E45
:1050600073750000496E737520636865636B204932
:105070006E73753C3630302C6F6B0000154800782D
:10508000142814DB00201349087084F8240000BFA2
:1050900011A017F087FC14A017F084FCAFF23810B1
:1050A00017F080FC00BF022084F825000DE040F6D8
:1050B000B831A06A884208D906480078401C0549E2
:1050C000087001F035FF14F013F800BF00BF94F82A
:1050D000250070BDD90000205B572F43484152473F
:1050E0004552554E5D200000496E7375206368651A
:1050F000636B20496E73753C3630302C6572726F6D
:10510000720000002DE9F04104460D4616460027C6
:105110000C480078A04201D00A4804702868B042C8
:105120000DD309492046FCF746FA074600202860BF
:10513000012F02D10120BDE8F0810220FBE7002011
:10514000F9E70000D8000020542500202DE9F05F89
:1051500082464FF0000BBD48007820B1012876D080
:10516000022875D125E1BA480078A8B900BFB9A0D6
:1051700017F018FCBBA017F015FCC1A017F012FC2B
:1051800000BF13F0ABFF0020CAF83000CAF83800A7
:105190000120AF4908708FE0DAF83000B0F5FA6FFF
:1051A000F9D3B849B1F88200FBF7CBFB8046B64A89
:1051B000B64BFBF7E5FA04460D46B5490888FBF700
:1051C000C0FB064622462B46FBF7FAFB41D2AD490F
:1051D000B1F88200FBF7B5FB8046AE4AAE4BFBF759
:1051E000CFFA04460D46AA490888FBF7AAFB0646F3
:1051F00022462B46FBF7CCFB2BD200BF95A017F025
:10520000D1FBA6A017F0CEFB9DA017F0CBFB00BFF3
:1052100000BF90A017F0C6FBACA017F0C3FB98A08E
:1052200017F0C0FB00BF13F069FF9649B1F8820088
:10523000002101F061FE0020CAF8300001208349FE
:1052400008700020A74908708149087034E034E0F4
:10525000F2E0A44800781E2811DB00BF7DA017F003
:10526000A1FBA1A017F09EFB85A017F09BFB00BF40
:1052700000209C490870764908704FF0020BDAF85C
:105280003800B0F57A7F17D300BF72A017F08AFB01
:105290007C48B0F882207E48018898A017F082FBF5
:1052A00077A017F07FFB00BF8E480078401C8D4927
:1052B00008700020CAF83800C4E0DAF83400B0F50D
:1052C0007A7F08D36F49B1F88200002101F014FE03
:1052D0000020CAF8340040F6B831DAF830008842CD
:1052E00066D96849B1F88200FBF72BFB06464FF000
:1052F0006632884BFBF744FA04460D466449088839
:10530000FBF71FFB804622462B46FBF759FB2DD8A7
:105310005C49B1F88200FBF714FB80465A4A7E4B89
:10532000FBF72EFA04460D4659490888FBF709FB9E
:10533000064622462B46FBF72BFB17D200BF45A0A3
:1053400017F030FB75A017F02DFB4DA017F02AFBCE
:1053500000BF01F0EDFD13F0D1FE02203B490870C3
:10536000002060490870CAF8380021E05D480078E4
:10537000322812DB00BF72A017F014FB74A017F0E4
:1053800011FB3FA017F00EFB00BF0020554908702D
:105390002E4908704FF0020B0AE040F6B831DAF8F7
:1053A0003400884204D94F480078401C4D490870A9
:1053B00048E037480088B0F5167F15DA00BF25A011
:1053C00017F0F0FA69A017F0EDFA2DA017F0EAFA3D
:1053D00000BF13F079FF01208AF82E0000201B493E
:1053E00008704FF0010B26E03E480078322812DBAF
:1053F00000BF53A017F0D6FA63A017F0D3FA20A08D
:1054000017F0D0FA00BF0020364908700F49087025
:105410004FF0020B0FE040F6B831DAF83400884262
:1054200009D90020CAF8340001F082FD2D48007827
:10543000401C2C49087005E04FF0010B0020034987
:10544000087000BF00BF5846BDE8F09FDD00002097
:10545000DE0000205B492F43484152474552554EDC
:105460005D20000073776974636820496E7375204E
:10547000746F20626174746572790D0A0000000017
:105480000A00000054250020CDCCCCCCCCCCEC3F85
:10549000882900209A9999999999F13F74657374B4
:1054A00020766F6C67617465203E2062617474655C
:1054B0007279203935252C203C2062617474657224
:1054C00079202A313035250D0A0000007377697480
:1054D000636820496E737520746F206E6F726D6102
:1054E0006C0D0A00DF00002062617474657279201F
:1054F000562C6572726F720D0A0000007465737429
:1055000020563D25642C626174746572793D256472
:10551000000000006666EE3FCCCCF03F636861722D
:105520006765206D6F64756C65206F7574205620FB
:105530003D206261747465727920560D0A00000086
:105540005B572F43484152474552554E5D2000005E
:10555000436861726765206F757420566F6C676170
:105560007465206572726F720D0A20006368617243
:105570006765206D6F64756C65202056203C203671
:1055800030300D0A00000000426C656564657220D1
:105590006572726F720D0A200000000070B504463B
:1055A0000D462878002848D028782179884238D0BC
:1055B0002079272802D10020C5F8B00020790228E0
:1055C00002D10020C5F8B4002079062802D10020BD
:1055D000C5F8B8002079092805D1002045F8BC0F8E
:1055E0006860A860BC3D2079102802D10020C5F871
:1055F000C8002079112805D1002045F8C80FA860FF
:105600006860C83D2079132805D1002045F8C00FF7
:105610006860E860C03D2079192802D10020C5F8F3
:10562000D000287820710020287020791E2804D10D
:1056300094F84D00401C84F84D00A07F30BB94F8D6
:105640003E0018BB042085F82B000A2204F1080153
:105650001A20FFF757FD207919281BD041F2883115
:1056600004F11800FFF792F801280ED1A020207451
:105670000020207100BFAFA017F094F9B1A017F07F
:1056800091F9B5A017F08EF900BF70BD002084F825
:105690003E00A0612079132836D00CDC092824D0E4
:1056A00004DC022817D0062842D119E0102821D0A6
:1056B00011283DD123E019282BD01C282ED01E28DC
:1056C00031D0272834D12946204600F03DFB002068
:1056D00084F84D002DE02946204600F09FFB28E08D
:1056E0002946204600F016FA23E02946204600F01D
:1056F000EFFB1EE02946204600F094F919E0294608
:10570000204600F063FA14E02946204600F0CEFC63
:105710000FE02946204600F09FFD0AE0294620467A
:1057200000F094FC05E02946204600F0DDFA00E098
:1057300000BF00BF94F83D00012822D194F83C003E
:1057400001281ED1A06CB0F57A7F05D90020A06495
:1057500029462046FFF78EF8012084F844004EF6D3
:105760006021206CB0FBF1F02885322204F10801A1
:105770001220FFF7C7FC002084F83C0084F83D00AD
:1057800031E094F8440001282DD14FF47A7105F1ED
:10579000C000FEF7FBFF01280ED105202074002079
:1057A000207100BF63A017F0FDF86CA017F0FAF8A5
:1057B00069A017F0F7F800BF41F2883105F1C40085
:1057C000FEF7E4FF01280ED106202074002020718E
:1057D00000BF58A017F0E6F865A017F0E3F85EA048
:1057E00017F0E0F800BF0026207C00283FD000F032
:1057F00069FE94F84C00002839D100BF61A017F071
:10580000D1F894F84C1063A017F0CCF852A017F020
:10581000C9F800BFFA20A06000BFFA2204F1080115
:105820001F20FFF76FFCFEF76FFB84F84C0042F27D
:10583000107104F11400FEF7A9FF01280FD1082010
:10584000E0600020207100BF3AA017F0ABF857A02D
:1058500017F0A8F840A017F0A5F800BF0126052012
:1058600018F08EF994F84C0008B9002ED5D0E068F5
:1058700010B9607F00285AD000BF42A017F092F8FC
:10588000627F50A0E16817F08DF833A017F08AF816
:1058900000BF102085F82B000A20A0600A2204F126
:1058A00008011A20FFF72EFCE06809280FD100BF7D
:1058B00034A017F077F84DA017F074F826A017F071
:1058C00071F800BF01204F49086007F073FC00F039
:1058D000F9FD00204C49486100BFFEF715FB84F834
:1058E0004C0042F2107104F11400FEF74FFF012842
:1058F0000FD10820E0600020207100BF0DA017F03C
:1059000051F842A017F04EF813A017F04BF800BF63
:105910000126052018F034F994F84C0008B9002E3F
:10592000DBD094F84C00012801D10020207100BF89
:10593000ABE600005B572F43484152474552554E56
:105940005D20000070696C652073746F702054498D
:105950004D454F55540D0A000A000000526563651D
:105960002042434C5F54494D454F5554360000008A
:1059700052656365204243535F54494D454F55542A
:10598000360D0A005B492F43484152474552554E58
:105990005D20000070696C652072782074696D6507
:1059A0006F757420253032780D0A000063686563D6
:1059B0006B20424C4545445F4641554C54330D0ADB
:1059C00000000000636865636B204641554C54201D
:1059D000253032782C636865636B2041626E6F728C
:1059E0006D616C20253032780D0A0000534352411E
:1059F0004D206661756C74EFBC8C72657374617256
:105A0000740D0A00E00442429C2A0020636865632A
:105A10006B20424C4545445F4641554C54340D0A79
:105A20000000000070B504460D46012084F83C00DB
:105A3000A06CB0F57A7F05D90020A06429462046E5
:105A4000FEF718FF012084F844004EF66021206C18
:105A5000B0FBF1F02885322204F108011220FFF793
:105A600051FB94F8440040B9AA2085F82200FA229C
:105A700004F108010A20FFF745FB4FF47A7105F1A4
:105A8000C000FEF783FE01280ED1052020740020FF
:105A9000207100BF10A016F085FF13A016F082FF42
:105AA00016A016F07FFF00BF41F2883105F1C40057
:105AB000FEF76CFE01280ED1062020740020207114
:105AC00000BF05A016F06EFF0DA016F06BFF0BA037
:105AD00016F068FF00BF70BD5B572F434841524727
:105AE0004552554E5D200000526563652042434C8F
:105AF0005F54494D454F5554330000000A000000E3
:105B000052656365204243535F54494D454F555498
:105B1000330D0A0070B504460D46002694F82D009A
:105B200018B92046FEF77EFF0646012E03D094F8F2
:105B30002D0001281CD1FA2204F108010820FFF7EA
:105B4000E1FA4CF2503105F1B800FEF71FFE0128D2
:105B50001DD1042020740020207100BF0CA016F07D
:105B600021FF0FA016F01EFF12A016F01BFF0EE083
:105B7000022E0CD10420E06000BF05A016F012FF39
:105B80000DA016F00FFF0BA016F00CFF00BF70BDAC
:105B90005B572F43484152474552554E5D20000008
:105BA000526563652042524F30305F54494D454F36
:105BB000555400000A0000006964656E74696679D6
:105BC00020436172206572720000000070B50446C7
:105BD0000D46012084F83D0095F8920064281FD1FD
:105BE000012085F82B000A2204F108011A20FFF792
:105BF00089FA41F2883105F1CC00FEF7C7FD012892
:105C000048D1082020740020207100BF22A016F087
:105C1000C9FE25A016F0C6FE28A016F0C3FE39E086
:105C200094F8440040B9AA2085F82200FA2204F131
:105C300008010A20FFF766FA4FF47A7105F1C000F7
:105C4000FEF7A4FD01280ED105202074002020714C
:105C500000BF11A016F0A6FE19A016F0A3FE17A013
:105C600016F0A0FE00BF41F2883105F1C400FEF736
:105C70008DFD01280ED1062020740020207100BF68
:105C800005A016F08FFE13A016F08CFE0BA016F0E8
:105C900089FE00BF70BD00005B572F43484152474B
:105CA0004552554E5D2000005265636520425354B5
:105CB0005F54494D454F55540D0A00000A0000003D
:105CC000526563652042434C5F54494D454F5554DE
:105CD0003500000052656365204243535F54494DCF
:105CE000454F5554350D0A0070B504460E46002543
:105CF00000F0E8FB94F84C00C8B900BFFEF704F9C7
:105D000084F84C0042F2107104F11400FEF73EFDDD
:105D1000012804D10820E060002020710125052021
:105D200017F02EFF94F84C0008B9002DE6D0012D95
:105D300009D094F84D00032805DAFA2204F108018D
:105D40000120FFF7DFF970BD70B504460D4600264F
:105D500094F82C0020B929462046FEF7F5FE0646A9
:105D6000012E03D094F82C0001281ED100202872A7
:105D7000FA2204F108010120FFF7C4F94CF2503176
:105D800005F1B000FEF702FD012828D102202074A1
:105D90000020207100BF12A016F004FE14A016F01F
:105DA00001FE18A016F0FEFD19E0022E0ED1032010
:105DB000E0600020207100BF09A016F0F3FD12A0E2
:105DC00016F0F0FD0FA016F0EDFD08E0FA2204F148
:105DD00008012620FFF796F90020C5F8B00070BD35
:105DE0005B572F43484152474552554E5D200000B6
:105DF000526563652042524D5F54494D454F55549D
:105E00000D0A00000A000000636865636B20494EBC
:105E100053555F4552520D0A0000000070B505460B
:105E20000C466168206C88421FD1AA202072FA2299
:105E300005F108010120FFF765F94CF2503104F13A
:105E4000B400FEF7A3FC01281CD103202874002015
:105E5000287100BF0CA016F0A5FD0FA0616816F018
:105E6000A1FD13A016F09EFD0CE00220E86000BF2B
:105E700005A016F097FD0FA016F094FD0CA016F0EB
:105E800091FD00BF70BD00005B572F434841524752
:105E90004552554E5D2000005265636520424350D7
:105EA0005F54494D454F555420253378000000007C
:105EB0000A000000646966666572656E742070721F
:105EC0006F746F636F6C2076657273696F6E7300A9
:105ED00070B504460D46002695F88400D8B9FA221C
:105EE00004F108010820FFF70DF93E4905F1BC0057
:105EF000FEF74CFC012873D104202074002020718F
:105F000000BF39A016F04EFD3BA016F04BFD3FA0A0
:105F100016F048FD64E095F88400AA2860D194F852
:105F20002E0018B92046FFF711F90646012E03D0BE
:105F300094F82E00002836D0AA2085F82200FA22F4
:105F400004F108010A20FFF7DDF84FF47A7105F13A
:105F5000C000FEF71BFC01280ED105202074002094
:105F6000207100BF20A016F01DFD29A016F01AFD1B
:105F700026A016F017FD00BF41F2883105F1C400DC
:105F8000FEF704FC01282BD106202074002020718C
:105F900000BF15A016F006FD22A016F003FD1BA001
:105FA00016F000FD1CE0022E0CD10520E06000BFC1
:105FB0000DA016F0F7FC20A016F0F4FC13A016F0CC
:105FC000F1FC0DE0002085F82200FA2204F108011E
:105FD0000A20FFF797F80020C5F8C000C5F8C400F4
:105FE00070BD0000C02709005B572F43484152474E
:105FF0004552554E5D200000526563652042524F68
:1060000061615F54494D454F555400000A0000003E
:10601000526563652042434C5F54494D454F55548A
:106020003100000052656365204243535F54494D7F
:10603000454F5554310D0A0070726563686172678F
:1060400065207465737420657272000070B5044633
:106050000E460025FA20A0600020606100BFFA22F1
:1060600004F108011D20FFF74DF8FDF74DFF84F8FE
:106070004C0042F2107104F11400FEF787FB012876
:1060800004D10820E060002020710125052017F0D0
:1060900077FD94F84C0008B9002DE0D094F84C003E
:1060A000012801D10020207170BD000070B50446A8
:1060B0000D4695F89B0050B995F89C0000F00F0034
:1060C00028B995F89C0000F03000002839D100BFB5
:1060D00040A016F067FC43A016F064FC47A016F041
:1060E00061FC00BF00BF3BA016F05CFC95F89C2053
:1060F00095F89B1042A016F055FC40A016F052FCFB
:1061000000BF102085F82B000A2204F108011A2094
:10611000FEF7F8FF41F2883105F1CC00FEF736FBBF
:10612000012855D1082020740020207100BF29A02B
:1061300016F038FC39A016F035FC30A016F032FC11
:1061400046E0A06CB0F57A7F05D90020A06429460E
:106150002046FEF78FFB012084F844004EF66021B4
:10616000206CB0FBF1F02885322204F108011220E6
:10617000FEF7C8FF4FF47A7105F1C000FEF706FB89
:1061800001280ED1052020740020207100BF11A02D
:1061900016F008FC26A016F005FC18A016F002FC6C
:1061A00000BF41F2883105F1C400FEF7EFFA012883
:1061B0000ED1062020740020207100BF05A016F02B
:1061C000F1FB20A016F0EEFB0CA016F0EBFB00BFDD
:1061D00070BD00005B572F43484152474552554E12
:1061E0005D20000041626E6F726D616C20626174AF
:1061F00074657279207374617475730D0A00000000
:1062000041626E6F726D616C206461746120253033
:1062100032782C253032780D0A0000005265636513
:10622000204253545F54494D454F55540D0A0000C8
:10623000526563652042434C5F54494D454F555468
:106240003600000052656365204243535F54494D58
:10625000454F5554360D0A0070B504460D46A07FD3
:1062600048B1402085F82B000A2204F108011A20C9
:10627000FEF748FF02E0012084F83E0000F022F91A
:1062800042F2107105F1D000FEF780FA01280ED11C
:10629000092020740020207100BF05A016F082FBA9
:1062A00007A016F07FFB0BA016F07CFB00BF70BDB3
:1062B0005B572F43484152474552554E5D200000E1
:1062C00052656365204253445F54494D454F5554D0
:1062D0000D0A00000A00000010B50BF085FEA0B109
:1062E0000120124948770920C8601020104981F820
:1062F0002B000A200D4988600A2208311A20FEF777
:1063000001FF012009F06BFB0EE0002009F067FBA4
:106310000648C068092807D100200449C860012048
:106320000449086006F046FF10BD00009C2A0020CA
:1063300054250020E004424210B501200649C877E8
:1063400000BF06A016F02EFB08A016F02BFB0AA03B
:1063500016F028FB00BF10BD9C2A00205B492F438C
:1063600048415247454354524C5D200050617920CA
:106370006F6B20466C6167000A00000070B5044630
:106380000D463748FEF790FA2046FEF723FB607F64
:1063900060B100BF33A016F005FB36A016F002FB7B
:1063A00039A016F0FFFA00BF002070BD19F078FB8D
:1063B00001280CD100BF2BA016F0F4FA33A016F080
:1063C000F1FA31A016F0EEFA00BF0020EDE712F06E
:1063D00029FC01280CD000BF22A016F0E3FA2EA061
:1063E00016F0E0FA28A016F0DDFA00BF0020DCE786
:1063F00010F05EFD01280CD100BF1AA016F0D2FAF1
:1064000029A016F0CFFA20A016F0CCFA00BF002089
:10641000CBE7002020621BE012F0BEFB42F21071BD
:1064200004F12000FEF7B2F901280ED1E06000BFB0
:106430000CA016F0B7FA1FA016F0B4FA12A016F0CE
:10644000B1FA00BF00202062AFE7642017F098FB8C
:1064500012F0FCFB0028DFD012F0EAFF0120A4E7D5
:10646000542500205B572F43484152474552554E13
:106470005D20000050696C65206F74686572204172
:10648000626E6F726D616C000A000000736372616E
:106490006D2070726573730047756E206469736355
:1064A0006F6E6E6563740000646F6F72206F70654D
:1064B0006E0000004661696C75726520746F206C17
:1064C0006F636B0010B500F033FD10BD10B50446CE
:1064D00010F0EEFC84F810015748807F84F8AC007F
:1064E00012F0A0FBAE21085512F0B0FBAF21085509
:1064F0005148C168B020015150480168B420015191
:106500004E484168B82001514C488168BC20015177
:106510004B480188C020015194F8AC0001287CD17F
:1065200094F82400012814D14648D0F88800454941
:10653000D1F88410411AE42001514248B0F8A0007B
:1065400081B2E82001533F48B0F89C10A4F8EE1047
:1065500022E094F82400022817D13A488169406962
:10656000091AE42001513748B0F87C0081B2E820D4
:1065700001533448B0F8800081B2EA200153314819
:10658000B0F86410A4F8EE1006E00021E4200151F8
:10659000E8200153A4F8EE102B4890F8921084F8EC
:1065A000F0102548016CE02001512748B0F8941004
:1065B000A4F8EC10B0F88610A4F8F210B0F8881027
:1065C000A4F8F410818CA4F8F610C18CA4F8F8108B
:1065D00090F8441084F8FA10B0F88C10A4F8FC106D
:1065E000B0F88C10A4F8FE10B0F84810A4F8001110
:1065F000B0F87A10A4F80211B0F87A10A4F80411D7
:10660000B0F87C10A4F8061190F87E1084F80811F8
:10661000B0F87610A4F80A1100E007E090F89010A6
:1066200084F80C1190F8971084F80D11064890F832
:106630009D1084F80E1110BD9C2A002060270020B8
:1066400088290020EC2A0020542500201CB50520B4
:1066500015214FF480630022CDE900100D490EA0F2
:1066600017F078F90E4908600846006860B900BF65
:106670000CA016F097F90FA016F094F914A016F0DC
:1066800091F900BF00201CBD0548006817F00CFB05
:106690000020F8E72D6501084354524C000000002B
:1066A000000100205B572F43484152474543545255
:1066B0004C5D20007374617274207469645F636858
:1066C000617267656374726C206661696C000000BA
:1066D0000A00000070B500250026994890F8244073
:1066E0009848807F01287CD1002C7AD0022C64D17C
:1066F0009348418D944881839148818D9248C1830C
:106700008F48C18D904801848D48018E8E48418408
:1067100000BF08E08A483A3010F815108A48263041
:106720004155681CC5B2302DF4DB8548418E864842
:106730008184834890F8C50083498880804890F818
:10674000C610814881717E4890F8C7107E48C1719B
:106750007B4890F8C8107C480172794890F8C910BD
:1067600079484172764890F8CA10774881721AF0D9
:106770000FF87648807E00F5FA6073498881734887
:10678000017E714881737148417E6F48C1736F48C3
:10679000C17E6D4801746D48017F6B4841746B4840
:1067A000417F694881746648D0F8D01066484161DD
:1067B000674801686448816123E0012C21D1604869
:1067C000D0F8D0006049C1F88400614801685E4893
:1067D000C0F888105A48D0F8CC105B48C0F8901028
:1067E00000E0A3E019F08AFF5749C1F8940054482B
:1067F000C18C5548A0F89C105148018D5248A0F812
:106800009E105149204600F0B3F9022C07D14E48A2
:10681000B0F87C0081B24A48A0F8E81008E0012CEA
:1068200006D14948B0F8A00081B24548A0F8E81068
:10683000434890F82100012817D14148B0F8E800FA
:106840003F49498C884249DD00BF42A016F0AAF8B2
:106850003B48428CB0F8E81042A016F0A3F84CA0D8
:1068600016F0A0F800BF012638E0354890F8210066
:10687000022817D13248D0F8E4003149498C8842C7
:106880002CD900BF33A016F08DF82D48428CD0F8DB
:10689000E41040A016F086F83DA016F083F800BF83
:1068A00001261BE0264890F82100032816D1244831
:1068B000D0F8E0002249498C88420FD900BF25A0BA
:1068C00016F070F81E48428CD0F8E0103BA016F08D
:1068D00069F82FA016F066F800BF0126012E2ED110
:1068E000022C24D119F054FF1421154880F8D4103B
:1068F0001648817E124880F8D5101448017E104851
:1069000080F8D6101148417E0D4880F8D7100F4806
:10691000C17E0B4880F8D8100C48017F084880F8E9
:10692000D9100A48417F064880F8DA1007E0012CA8
:1069300005D119F0E3FEC1B2014880F8DB1070BD4B
:10694000583000209C2A0020EC2A00203C0E002019
:10695000602700205B572F43484152474552554E10
:106960005D200000436861726765204D6F6E657938
:106970003D2564203E204368617267654D6F646504
:10698000446174613D25642C73746F7000000000D5
:106990000A000000436861726765204B77683D25F7
:1069A00064203E204368617267654D6F6465446191
:1069B00074613D25642C73746F70000043686172CC
:1069C00067652054696D653D2564203E20436861FC
:1069D0007267654D6F6465446174613D25642C7315
:1069E000746F700010B53748007F20B101284AD07D
:1069F000022860D152E03348807F01283ED13249DD
:106A00003048FFF7BBFC70B900BF30A015F0CAFFDB
:106A100032A015F0C7FF36A015F0C4FF00BF00205C
:106A2000284988772EE0FA22264908312620FEF7E9
:106A300069FB25480078272805D1012021490877DE
:106A400012F0AAF81EE04CF250311F48AC30FDF7AE
:106A50009DFE012816D100BF1CA015F0A3FF25A0A4
:106A600015F0A0FF22A015F09DFF00BF12F0CCFC96
:106A700012F000F900201349887703E00020124942
:106A8000C1F8AC001BE010490E48FEF787FD0D4829
:106A9000007910B902200B49087710E0002009495D
:106AA00088770846C07F012804D112F0E3F800205F
:106AB0000449087703E000200249087700BF00BFBF
:106AC00010BD00009C2A0020542500205B572F4356
:106AD000484152474552554E5D2000005374617243
:106AE0007420636865636B206661696C757265000C
:106AF0000A00000072782042484D2054696D656F8D
:106B00007574000010B504466421A183E1832184DB
:106B10006184302104F12600F9F75FFC0021A18493
:106B20000020A080A171E17121726172A172A18126
:106B3000A173E17321746174A1746161A161216722
:106B4000A167E167C4F88400882001518C200151BD
:106B500090200151942001519820015164219C20E2
:106B6000015300219E200153A0200151012010BD9E
:106B700070B505460C4641F28831D4F8A40088422D
:106B800016D9012D05D1257004F1840000F011F80B
:106B90000BE0022D04D12570201D00F02DF804E03B
:106BA0001DB90021A0200151E1670020C4F8A40014
:106BB00070BD0146D1E90020801A8860D1E9032028
:106BC000801A4861886808B1486910B90020C86116
:106BD0000FE0088B8A68504342F21072B0FBF2F269
:106BE000488B4B6958434FF46163B0FBF3F010449A
:106BF000C861C869704700002DE9F04786B00446B7
:106C00004FF00009CA46E07AE178884254D1207BEF
:106C10002179884250D160791E2800DA01E04FF0D6
:106C2000010A607B1E280EDABAF1000F0BD100209A
:106C3000A067E067E0662067206960656069A0651D
:106C4000012060675EE0607B1E280EDBBAF1010F59
:106C50000BD10020A067E067E066206720696065CF
:106C60006069A065012060674CE0607B28B9A07B6B
:106C70000A2802DA6A48007840B1607B1E2812D1E7
:106C8000A07B0A280FDA6648007860B96069606501
:106C9000A06FE066E06F2067606F401C60670120B6
:106CA0005F49087005E0A07B0A2802DB00205C49F0
:106CB00008706069A06525E0607B28B9A07B0A2880
:106CC00002DA5748007840B1607B1E2812D1A07BC1
:106CD0000A280FDA5248007860B960696065A06FD1
:106CE000E066E06F2067606F401C606701204C49E0
:106CF000087005E0A07B0A2802DB002048490870E4
:106D00006069A065607B1E280BDA207B04F12201FC
:106D100011F8109004F1180030F81900A4F8600080
:106D20000CE0207B012101EB400104F1220010F86E
:106D300001900A3830F81900A4F86000B4F8600037
:106D4000F9F7FFFD07460022364BF9F772FC0546BE
:106D50000E46D4E91521881AF9F7F3FD2A46334681
:106D6000CDE90001F9F70CFD00222F4BCDE902011E
:106D7000F9F778FDCDE90401F9F7F0FD6066208CA4
:106D8000F9F7DFFD05460022264BF9F752FC0746CE
:106D90008846D4E91521881AF9F7D3FD3A464346C7
:106DA000CDE90001F9F7ECFC00221F4BCDE902010F
:106DB000F9F758FDCDE90401F9F7D0FDA066E16EC1
:106DC000606E0844A067216FA06E0844E06700BFB2
:106DD00016A015F0E7FDB4F86010606FCDE9001063
:106DE00015A0E36E626EA16F15F0DCFD1CA015F01E
:106DF000D9FD00BF00BF0DA015F0D4FD218C606F40
:106E0000CDE9001017A0236FA26EE16F15F0CAFD47
:106E100013A015F0C7FD00BFA06F06B0BDE8F08756
:106E2000E10000200000F83F0088C3405B492F4389
:106E30004F53545D20000000746F74616C20656CCA
:106E40006563206D6F6E6579202564203D20256483
:106E5000202B202564202B202564202A2564000077
:106E60000A000000746F74616C205365727665725D
:106E7000206D6F6E6579202564203D202564202BD0
:106E8000202564202B202564202A25640000000092
:106E900070B588B004460D46164600200190029455
:106EA000059604200390002004908DF8180007AB8D
:106EB0002A4601A9044804F03CFD10B1002008B0A6
:106EC00070BD0120FBE700003C4B002010B50249DB
:106ED000002000F055F810BD4426002010B50446EF
:106EE00004484481002003498881012000F048F8CB
:106EF00010BD00004426002070B505460C4604482D
:106F0000458184810146022000F03AF870BD0000FE
:106F10004426002070B505460C460448458184810E
:106F20000146022000F02CF870BD0000442600202D
:106F300010B50020034948818881032000F020F823
:106F400010BD00004426002070B505460C460448DC
:106F5000458184810146042000F012F870BD0000D4
:106F6000442600202DE9F04104460D4616461F46F2
:106F70003B4632462946204600F078F8BDE8F081CD
:106F800070B504460D462946204600F091F870BDC4
:106F900010B50648406840F6B831884204D3FFF780
:106FA00095FF00200149486010BD000044260020E4
:106FB00010B5024805F072FB10BD0000D04A002059
:106FC00010B5024805F06AFB10BD00006C4F0020B0
:106FD00010B5024805F062FB10BD0000284F0020EC
:106FE00010B5024805F05AFB10BD00005C4E0020B1
:106FF00010B5024805F052FB10BD0000184E0020ED
:1070000010B5024805F04AFB10BD0000A04E00205C
:1070100010B5024805F042FB10BD0000E44E002010
:1070200010B5024805F03AFB10BD0000904D00205D
:1070300010B5024805F032FB10BD0000D44D002011
:1070400030B590F840500124AC40C56B6C600468CA
:1070500063604468102C04D10468A2600468E16095
:1070600003E00468A1600468E26030BD2DE9F041EE
:1070700004460D4616461F460B4B3246294620460F
:107080000BF024F90848C08A084908820648008B9A
:10709000C8810548408A0449898A40EA0120034999
:1070A0004861BDE8F08100008A0E002044260020DF
:1070B00070B504460D460848007A0849087006482D
:1070C000408948800448808988800A462146A0205B
:1070D0000BF048F970BD000044260020700E00201F
:1070E000704710B5014600220023642901DBFF2010
:1070F00010BD0A2091FBF0F400FB1410C2B213463D
:107100000A2091FBF0F0C2B243EA0210C3B2184663
:10711000EEE7000070B505460C46104800781028D0
:107120001ADA0E48007800EBC0110C48801C20F8D9
:107130001140811E097801EBC112014601EB4201A9
:10714000881C22462946F9F72FF904480078401C8C
:1071500002490870012070BD0020FCE75436002071
:1071600070B505460C460948048022462946084861
:10717000F9F71AF915F0ECF80448028804490548B3
:1071800008F060FA15F0F4F870BD00002601002048
:1071900076460020484D002070B521480078002830
:1071A0003CD01F484188001DFFF7DAFF1C480078DB
:1071B000012803D100201A4908702FE0002424E0A0
:1071C000631C03EBC315164B9B1C33F81520631C83
:1071D00003EBC315124B9B1C03EB4503991C04EBFB
:1071E000C4150F4B9B1C03EB4503981CF9F7DCF807
:1071F000601C00EBC0110A48801C30F8111004EB31
:10720000C41220F81210601CC4B205480078A042D5
:10721000D6DA03480078401E0149087070BD0000AE
:10722000543600201FB5B8B000203790AC210CA810
:10723000F9F7D3F800200B9008223B9800F59171E4
:1072400038980930F9F701F960B100BFF8A015F0DE
:10725000A9FBFAA015F0A6FBFEA015F0A3FB00BF4A
:107260003CB010BD3898407C382801F0BB841CDC51
:10727000182801F02D810BDC102834D012287DD085
:10728000142801F02381162841F0428701F01FB92C
:10729000302801F0DA81322801F0D881342801F059
:1072A000D6813628F0D101F0CEBB902801F0B5860A
:1072B0000CDC522801F0B286552801F0B4867628FD
:1072C00001F0E9867728DFD101F0A6BEA22801F0FF
:1072D000E386A42801F00B87E02801F00987F12854
:1072E000D2D101F00DBF00BFDBA015F05BFB3998D8
:1072F0000078024610210A90DAA015F053FBD5A0C1
:1073000015F050FB00BF399800783790379800EBA4
:107310004010C0EBC0013B9800F59970084416225C
:107320000A903999F9F740F8379818B90120D449EB
:10733000087005E03798012802D10220D049087072
:10734000D04890F8AE00CE498875CE4890F8AC1081
:10735000CB48C175CC4890F86A10C9480176CA4834
:1073600090F86810C648417609F04EFF00BFBAA0F9
:1073700015F018FBC248807A0A9000E0DAE3C048B2
:10738000407A0990BE48007A08900146BFA0DDE926
:10739000092315F007FBAFA015F004FB00BF00BFE9
:1073A000ADA015F0FFFAB648807C0A90B448407C46
:1073B0000990B348007C08900146BEA0DDE909238E
:1073C00015F0F0FAA3A015F0EDFA00BF37980028E9
:1073D0007ED103208DF83000379800EB4010C0EBD1
:1073E000C0013B9800F59970084450F80A1FCDF889
:1073F00031104168CDF835100089ADF83900379863
:1074000000EB4010C0EBC0013B9800F599700844B8
:1074100040788DF851009DF85100012803D10220D9
:107420008DF8510012E09DF85100022803D103208D
:107430008DF851000AE09DF85100032803D1012086
:107440008DF8510002E000208DF85100379800EBD4
:107450004010C0EBC0013B9800F59970084440888B
:1074600080B2ADF8520002208DF854003B98B0F87D
:10747000670280B2ADF85A003B98B0F86B0281B257
:107480000CA881853B98B0F86F0281B20CA8C18529
:107490003B98B0F8730281B20CA801863B98B0F813
:1074A000770281B20CA841863B98B0F87B0281B28A
:1074B0000CA881863B98B0F87F0281B20CA8C186E7
:1074C0003B98B0F8830281B20CA80187002000E04D
:1074D000BAE20A900CE03B9800F287200A99425CDD
:1074E0000DF16A0020F811200A98401CC0B20A90E1
:1074F0000A983028EFDB00BF57A015F053FA77A0A9
:10750000379915F04FFA53A015F04CFA00BF00BFA1
:1075100051A015F047FA379800EB4010C0EBC001BE
:107520003B9800F599700844C17C379800EB4010F7
:10753000C0EBC0023B9800F599701044827C3798EC
:1075400000EB4010C0EBC0033B9800F59970184465
:10755000437C379800EB4010C0EBC0043B9800F52B
:1075600099702044007CCDE904320691039037984D
:1075700000EB4010C0EBC0013B9800F59970084447
:10758000C27B379800EB4010C0EBC0013B9800F580
:1075900099700844817B379800EB4010C0EBC00322
:1075A0003B9800F599701844407B8DE807003798A8
:1075B00000EB4010C0EBC0013B9800F59970084407
:1075C000007B0A90379800EB4010C0EBC0013B985D
:1075D00000F599700844C07A0990379800EB401084
:1075E000C0EBC0013B9800F599700844807A089080
:1075F00001463FA0DDE9092315F0D4F915A015F0E7
:10760000D1F900BF00BF14A015F0CCF99DF85100CE
:1076100001460A9042A015F0C5F90EA015F0C2F976
:1076200000BF00BF0CA015F0BDF9BDF8520083E00B
:107630005B572F4454555D20000000006474752092
:107640006465766963652061646472206572726F37
:10765000720D0A000A0000005B492F4454555D205A
:1076600000000000445455205278207374617274F5
:107670002025303278202C20253032780000000080
:10768000744A0020583000207C48002047554E2086
:1076900031205365742044434D2047726F7570202C
:1076A0004E756D3D25642C416464723D2564202532
:1076B0006400000047554E20322053657420444337
:1076C0004D2047726F7570204E756D3D25642C41BD
:1076D0006464723D256420256400000044545520F4
:1076E00072782047756E4E756D3D25640000000070
:1076F0004454552072782055736572204E616D6533
:107700003D2025782025782025782025782025788B
:1077100020257820257820257820257820257800B8
:10772000445455207278204368617267652054790B
:1077300070653D256400000001460A90FEA015F02A
:1077400031F9AFF2F00015F02DF900BF00BFAFF234
:10775000F80015F027F99DF8540001460A90FCA0A6
:1077600015F020F9AFF2141015F01CF900BF00BF9E
:10777000AFF21C1015F016F90CA8008E00900CA8A2
:10778000C08D0A900CA8808D0990BDF85A00089011
:107790000146F5A0DDE9092315F004F9AFF24C101C
:1077A00015F000F900BF00BFAFF2541015F0FAF861
:1077B0000CA8008F00900CA8C08E0A900CA8808E98
:1077C00009900CA8408E08900146EDA0DDE9092340
:1077D00015F0E8F8AFF2841015F0E4F800BF00BF30
:1077E000AFF28C1015F0DEF8EEA015F0DBF8AFF27A
:1077F0009C1015F0D7F800BFF048017AF04880F8E7
:107800001111EE48417AEE4880F81211EB48817A66
:10781000EB4880F813110CA9FCF782FB01213B987F
:1078200080F8171268213B9880F8191140213B9885
:1078300080F81A1100213B9880F81B113B9890F8B2
:107840004E1380F81C1100213B9880F81D113B98C5
:1078500080F81E113B9880F81F11DA4801783B9898
:1078600080F82011D74841783B9880F82111D648FC
:1078700001783B9880F82211D34841783B9880F8F2
:107880002311D14881783B9880F82411CE48C178E3
:107890003B9880F82511CC4801793B9880F8261157
:1078A000C94841793B9880F82711C74881793B98AE
:1078B00080F82811C448C1793B9880F8291111211A
:1078C0003B9880F82A1118F063FF1420FFF709FC99
:1078D00001463B9880F82B11BC48807E0A90FFF748
:1078E00000FC01463B9880F82C11B848007E0A90B5
:1078F000FFF7F7FB01463B9880F82D11B348407E17
:107900000A90FFF7EEFB01463B9880F82E11AF4836
:10791000C07E0A90FFF7E5FB01463B9880F82F11E7
:10792000AA48007F0A90FFF7DCFB01463B9880F8ED
:107930003011A648407F0A90FFF7D3FB01463B98E1
:1079400080F8311100213B9880F848119DF85110C2
:107950003B9880F84911BDF852103B98C0F84A1185
:107960003B9800F59970DDF831100162DDF83510B3
:107970004162BDF839100185FF2211213B9800F5C5
:10798000AE70F8F723FDFF213B9880F86D113B980E
:10799000C0F86E113B98C0F872113B98A0F87611B0
:1079A0003B9880F878113B9880F879113B9880F8E3
:1079B0007A1100213B9880F87B1140F60D213B980D
:1079C000A0F886113B9901F599713B9800F21910C6
:1079D00003F033FA00BFAFF2803014F0E3FF11215F
:1079E0007BA014F0DFFFAFF2943014F0DBFF00BF98
:1079F0007B480078012826D17A480078012815D0E4
:107A000000BFAFF2AC3014F0CDFF77A014F0CAFF86
:107A1000AFF2C03014F0C6FF00BF0121784880F8F3
:107A20005A1101466F48007817F0F8FD322016F021
:107A3000A7F80520724981F88600092081F887009F
:107A4000012017F01FFE04E237980128FBD1032024
:107A50006C490872379800EB4010C0EBC0013B98AE
:107A600000F5997008444078664988740846807C1F
:107A7000012802D10220887412E06248807C02282A
:107A800003D103205F4988740AE05E48807C0328A4
:107A900003D101205B49887402E0002059498874B1
:107AA000379800EB4010C0EBC0013B9800F599708F
:107AB0000844408853498882022088753F48007CEA
:107AC000C8753E48407C08763C48817C4D484176EC
:107AD00018F05EFE14214B4880F880103B48817EF0
:107AE000484880F881103948017E464880F8821065
:107AF0003648417E434880F883103448C17E41486F
:107B000080F884103148017F3E4880F885102F4866
:107B1000417F3C4880F88610D0F8A010C0F88C1047
:107B20000146112008F0EDFE00BFAFF2D44014F082
:107B300039FF69E08FE100004454552072782043FA
:107B4000686172676520446174613D2564000000CE
:107B5000445455207278204D6F6E6579204D6F64C6
:107B6000653D256400000000445455207278205281
:107B70006174653D2564202564202564202564000A
:107B800044545520727820536572766572206D6F6B
:107B90006E6579203D2564202564202564202564B8
:107BA00000000000445455205374617274204755FE
:107BB0004E2030206368617267650000744A0020BF
:107BC0005830002014010020160100203C0E002037
:107BD000445455207265706C79202530327800004D
:107BE000FD000020FE000020737769746368207335
:107BF000637265656E2073656C2067756E20310059
:107C0000942E00207C480020FEA014F0CBFEAFF2A2
:107C1000BC5014F0C7FE00BF01213B9880F8FE1253
:107C2000FE480078012826D1FD480078022814D0AB
:107C300000BFAFF2DC5014F0B5FEFAA014F0B2FEB3
:107C4000AFF2F05014F0AEFE00BF0220FB4981F805
:107C50008800F348007817F0E1FC322015F090FF1F
:107C60000521F64880F85811092180F8591101467C
:107C7000022017F007FD68213B9880F81911402178
:107C80003B9880F81A1100213B9880F81B113B9813
:107C900090F84E1380F81C1100213B9880F81D11BC
:107CA0003B9880F81E113B9880F81F11E44801783A
:107CB0003B9880F82011E24841783B9880F82111E8
:107CC000E04801783B9880F82211DE4841783B98E3
:107CD00080F82311DB4881783B9880F82411D9483B
:107CE000C1783B9880F82511D64801793B9880F8F7
:107CF0002611D44841793B9880F82711D1488179E1
:107D00003B9880F82811CF48C1793B9880F8291119
:107D100011213B9880F82A1118F03AFD1420FFF742
:107D2000E0F901463B9880F82B11C748807E0A9005
:107D3000FFF7D7F901463B9880F82C11C248007E26
:107D40000A90FFF7CEF901463B9880F82D11BE4806
:107D5000407E0A90FFF7C5F901463B9880F82E1146
:107D6000B948C07E0A90FFF7BCF901463B9880F8FD
:107D70002F11B548007F0A90FFF7B3F901463B98F1
:107D800080F83011B048407F0A90FFF7AAF9014609
:107D90003B9880F8311101213B9880F82F12AB48B5
:107DA000817C3B9880F83012A848818A3B98C0F8C3
:107DB0003112379800EB4010C0EBC0013B9800F542
:107DC000997001443B9800F2192051F80A2F026281
:107DD0004A68426209890185FF2211213B9800F21D
:107DE0004320F8F7F3FAFF213B9880F854123B98B0
:107DF000C0F855123B98C0F859123B98A0F85D1294
:107E00003B9880F85F123B9880F860123B9880F8AE
:107E1000611200213B9880F8621240F60D213B98D8
:107E2000A0F86D123B9901F599713B9800F2191079
:107E300003F003F800BFAFF2E07014F0B3FD1121BE
:107E4000AFF2742014F0AEFDAFF2F87014F0AAFD9A
:107E500000BF01F05EB900BFAFF6040014F0A2FD50
:107E600039980078024612210A9079A014F09AFD00
:107E7000AFF6200014F096FD00BF399800783790D7
:107E8000379800EB4010C0EBC0013B9800F59970AB
:107E9000084456300E220A903999F8F785FA379837
:107EA00000287DD103208DF83000379800EB40107A
:107EB000C0EBC0013B9800F599700844816DCDF886
:107EC0003110C16DCDF83510B0F86000ADF8390053
:107ED00000BFAFF67C0014F065FDAFF600003799E7
:107EE00014F060FDAFF6940014F05CFD00BF00BF1D
:107EF000AFF69C0014F056FD379800EB4010C0EB35
:107F0000C0013B9800F59970084490F861103798CB
:107F100000EB4010C0EBC0023B9800F59970104494
:107F200090F86020379800EB4010C0EBC0033B98FE
:107F300000F59970184490F85F30379800EB4010C6
:107F4000C0EBC0043B9800F59970204490F85E00A7
:107F5000CDE9043206910390379800EB4010C0EB56
:107F6000C0013B9800F59970084490F85D1037986F
:107F700000EB4010C0EBC0023B9800F59970104434
:107F800090F85C20379800EB4010C0EBC0033B98A2
:107F900000F59970184490F85B00CDE9012100E0EC
:107FA00056E10090379800EB4010C0EBC0013B98C1
:107FB00000F59970084490F85A000A90379800EB41
:107FC0004010C0EBC0013B9800F59970084490F850
:107FD00059000990379800EB4010C0EBC0013B9866
:107FE00000F59970084490F8580008900146AFF6E3
:107FF0000010DDE9092314F0D5FCAFF6A81014F049
:10800000D1FC33E0445455205374617274204755B9
:108010004E2032206368617267650000FD00002019
:10802000FE0000207377697463682073637265656E
:108030006E2073656C2067756E203200942E0020D0
:1080400014010020160100203C0E00207C48002076
:10805000445455207278202073746F70202530327C
:1080600078202C20253032780000000000BF00214D
:10807000379800EB4010C0EBC0023B9800F59970B8
:10808000104480F8E5100CA9FE48FCF78FF900BFFA
:10809000AFF63C2014F086FCFBA014F083FCAFF696
:1080A0004C2014F07FFC00BF68213B9880F8191128
:1080B00011213B9880F81A1100213B9880F81B1180
:1080C0003B9890F84E1380F81C1100213B9880F8E3
:1080D0001D113B9880F81E113B9880F81F11F04845
:1080E00001783B9880F82011ED4841783B9880F862
:1080F0002111EC4801783B9880F82211E948417839
:108100003B9880F82311E74881783B9880F8241148
:10811000E448C1783B9880F82511E24801793B9802
:1081200080F82611DF4841793B9880F82711DD4817
:1081300081793B9880F82811DA48C1793B9880F81A
:10814000291113213B9880F82A1118F021FB1420E3
:10815000FEF7C7FF01463B9880F82B11D248807E7E
:108160000A90FEF7BEFF01463B9880F82C11CE48DE
:10817000007E0A90FEF7B5FF01463B9880F82D116E
:10818000C948407E0A90FEF7ACFF01463B9880F854
:108190002E11C548C07E0A90FEF7A3FF01463B980A
:1081A00080F82F11C048007F0A90FEF79AFF014621
:1081B0003B9880F83011BC48407F0A90FEF791FF51
:1081C00001463B9880F8311100213B9880F89611C8
:1081D000AC4890F821103B9880F897113B98DDF857
:1081E000311000F5CC700160DDF835104160BDF84C
:1081F00039100181A348B0F8E00081B23B98A0F8A3
:10820000A211A04890F8F0103B9880F8A41140F615
:108210000D213B98A0F8A51100BFAFF6C43014F0B3
:10822000C1FB1321AFF2586014F0BCFBAFF6DC3099
:1082300014F0B8FB00BF3B9901F599713B9800F22F
:10824000191002F03DFF0121984880F8101218E142
:1082500037980128FBD100BFAFF6044014F0A2FB11
:1082600093A014F09FFBAFF6144014F09BFB00BFEB
:108270000021379800EB4010C0EBC0023B9800F59E
:108280009970104480F8E51018F082FA14218E4895
:1082900080F890108448817E8B4880F89110824845
:1082A000017E894880F892107F48417E864880F898
:1082B00093107D48C17E844880F894107A48017FED
:1082C000814880F895107848417F7F4880F8961063
:1082D000D0F8A01001670146122008F012FB6821B7
:1082E0003B9880F8191111213B9880F81A11002150
:1082F0003B9880F81B113B9890F84E1380F81C11A6
:1083000000213B9880F81D113B9880F81E113B9886
:1083100080F81F11624801783B9880F8201160486E
:1083200041783B9880F821115E4801783B9880F8AD
:1083300022115C4841783B9880F823115948817894
:108340003B9880F824115748C1783B9880F8251154
:10835000544801793B9880F82611524841793B985E
:1083600080F827114F4881793B9880F828114D48B3
:10837000C1793B9880F8291113213B9880F82A1184
:1083800018F006FA1420FEF7ACFE01463B9880F880
:108390002B114548807E0A90FEF7A3FE01463B98CC
:1083A00080F82C114048007E0A90FEF79AFE0146A4
:1083B0003B9880F82D113C48407E0A90FEF791FED4
:1083C00001463B9880F82E113748C07E0A90FEF790
:1083D00088FE01463B9880F82F113348007F0A90B1
:1083E000FEF77FFE01463B9880F830112E48407F13
:1083F0000A90FEF776FE01463B9880F83111012184
:108400003B9880F87D1200213B9880F87E123798C7
:1084100000EB4010C0EBC0013B9800F5997001449F
:108420003B988A6D00F27F200260CA6D4260B1F80D
:108430006010018100213B98A0F889123B9880F8D8
:108440008B1240F60D213B98A0F88C1200BFAFF6BE
:10845000F85014F0A7FA1321AFF68C0014F0A2FA2A
:10846000AFF6106014F09EFA00BF3B9901F59971C8
:108470003B9800F2191002F023FE01210B4880F80E
:10848000F712E6E4583000204454552053746F70BE
:108490002047554E203020636861726765000000F8
:1084A00014010020160100203C0E00207032002034
:1084B0004454552053746F702047554E203220632A
:1084C00068617267650000007C480020C1E4C0E478
:1084D00000BFAFF67C6014F065FA1821FEA014F01E
:1084E00061FAAFF6906014F05DFA00BF68213B9826
:1084F00080F8191100213B9880F81A113B9880F8F8
:108500001B113B9890F84E1380F81C1100213B98EA
:1085100080F81D113B9880F81E113B9880F81F11C0
:10852000F34801783B9880F82011F14841783B9856
:1085300080F82111EF4801783B9880F82211ED482E
:1085400041783B9880F82311EA4881783B9880F87D
:108550002411E848C1783B9880F82511E548017955
:108560003B9880F82611E34841793B9880F8271121
:10857000E04881793B9880F82811DE48C1793B9822
:1085800080F8291119213B9880F82A1118F000F978
:108590001420FEF7A6FD01463B9880F82B11D64823
:1085A000807E0A90FEF79DFD01463B9880F82C11D5
:1085B000D148007E0A90FEF794FD01463B9880F872
:1085C0002D11CD48407E0A90FEF78BFD01463B9869
:1085D00080F82E11C848C07E0A90FEF782FD014641
:1085E0003B9880F82F11C448007F0A90FEF779FD70
:1085F00001463B9880F83011BF48407F0A90FEF753
:1086000070FD01463B9880F8311100BFAFF6B8709D
:1086100014F0C8F91921AFF6482014F0C3F9AFF6E9
:10862000CC7014F0BFF900BF3B9901F599713B98EC
:1086300000F2191002F0DEFB642015F0A1FA01200F
:10864000AE49086004F0B6FD1BE71AE719E700BF62
:10865000AFF6FC7014F0A6F93421A9A014F0A2F929
:10866000ADA014F09FF900BF399800780890F9F791
:1086700083F93B9981F81902399840780890F9F705
:108680007BF901463B9880F81A1239988078089057
:10869000F9F772F901463B9880F81B123998C078B7
:1086A0000890F9F769F901463B9880F81C1239984F
:1086B00000790890F9F760F901463B9880F81D129F
:1086C000399840790890F9F757F901463B9880F8B6
:1086D0001E12399880790890F9F74EF901463B98B7
:1086E00080F81F1200BF8D4814F05CF93B9890F899
:1086F0001F1290F81E2290F81D3290F81C02CDE94E
:108700000132039100903B9890F81B0208903B982F
:1087100090F81A0207903B9890F8190206900146CB
:108720007FA0DDE9072314F03DF97BA014F03AF9AE
:1087300000BF3B9890F81A028DF827003B9890F8FC
:108740001B028DF825003B9890F81C028DF826003E
:108750003B9890F81D028DF828003B9890F81E1267
:1087600009A841713B9890F81F1209A88171DDE9B1
:10877000090118F01FF83B9890F8190271498876A2
:108780003B9890F81A126F48C1763B9890F81B12EC
:108790006C4801773B9890F81C126A4841773B98E7
:1087A00090F81D12674881773B9890F81E12654833
:1087B000C1773B9890F81F12624880F8201000BFE4
:1087C000564814F0EFF860A014F0ECF852A014F042
:1087D000E9F800BF5B49142008F093F868213B9842
:1087E00080F8191109213B9880F81A1100213B9853
:1087F00080F81B113B9890F84E1380F81C11002153
:108800003B9880F81D113B9880F81E113B9880F82A
:108810001F11374801783B9880F82011344841787F
:108820003B9880F82111334801783B9880F8221159
:10883000304841783B9880F823112E4881783B9846
:1088400080F824112B48C1783B9880F825112948DD
:1088500001793B9880F82611264841793B9880F8A9
:108860002711244881793B9880F828112148C17943
:108870003B9880F8291135213B9880F82A1117F090
:1088800087FF1420FEF72DFC01463B9880F82B1142
:108890001948807E0890FEF724FC01463B9880F83A
:1088A0002C111548007E0890FEF71BFC01463B98F2
:1088B00080F82D111048407E0890FEF712FC01460A
:1088C0003B9880F82E110C48C07E0890FEF709FCFA
:1088D00001463B9842E000004454552072782072D3
:1088E000657374617274203D253032780000000099
:1088F00014010020160100203C0E0020E00442423A
:10890000445455207278205345542054494D4520F5
:108910003D253032780000000A000000587600083B
:108920004454552072782054494D45203D256425F6
:10893000642D25642D25642025643A25643A256438
:10894000000000007C4800204454552053657420EA
:1089500047554E20322074696D65000080F82F1154
:10896000FE48007F0890FEF7BCFB01463B9880F86C
:108970003011FA48407F0890FEF7B3FB01463B9860
:1089800080F831113B9890F819020890FEF7A9FB86
:108990003B9981F822023B9890F81A020890FEF762
:1089A000A0FB01463B9880F823123B9890F81B02ED
:1089B0000890FEF796FB01463B9880F824123B98FE
:1089C00090F81C020890FEF78CFB01463B9880F85B
:1089D00025123B9890F81D020890FEF782FB014695
:1089E0003B9880F826123B9890F81E020890FEF7FC
:1089F00078FB01463B9880F827123B9890F81F02BD
:108A00000890FEF76EFB01463B9880F8281240F66E
:108A10000D213B98A0F8291200BFD14813F0C2FFE6
:108A20003521AFF6546013F0BDFFAFF2141013F010
:108A3000B9FF00BF3B9901F222213B9800F21910C7
:108A400002F0EEF965E300BFC54813F0ABFF362135
:108A5000C4A013F0A7FFAFF2401013F0A3FF00BFB4
:108A600068213B9880F819113C213B9880F81A1135
:108A700000213B9880F81B113B9890F84E1380F82A
:108A80001C1100213B9880F81D113B9880F81E11A5
:108A90003B9880F81F11B94801783B9880F8201165
:108AA000B64841783B9880F82111B54801783B9849
:108AB00080F82211B24841783B9880F82311B048E1
:108AC00081783B9880F82411AD48C1783B9880F8B4
:108AD0002511AB4801793B9880F82611A8484179C7
:108AE0003B9880F82711A64881793B9880F8281197
:108AF000A348C1793B9880F8291137213B9880F829
:108B00002A1117F045FE1420FEF7EBFA01463B98B8
:108B100080F82B119148807E0A90FEF7E2FA014618
:108B20003B9880F82C118D48007E0A90FEF7D9FA08
:108B300001463B9880F82D118848407E0A90FEF748
:108B4000D0FA01463B9880F82E118448C07E0A90E6
:108B5000FEF7C7FA01463B9880F82F117F48007F47
:108B60000A90FEF7BEFA01463B9880F830117B4828
:108B7000407F0A90FEF7B5FA01463B9880F8311124
:108B80003B9800F50071D0F86702C1F82B003B98C4
:108B9000B0F8770281B23B98A0F8331230223B98AC
:108BA00000F2872100F23520F7F7FEFB40F60D2199
:108BB0003B98A0F8651200BF694813F0F3FE372117
:108BC000AFF6F47013F0EEFEAFF2B42013F0EAFE4D
:108BD00000BF3B9901F22B213B9800F2191001F0E4
:108BE000CFF896E200BF5E4813F0DCFE382165A0A6
:108BF00013F0D8FEAFF2E02013F0D4FE00BF399896
:108C0000007801063998407841EA00413998807827
:108C100041EA00203999C97808433B99C1F86702B5
:108C20003998007901063998407941EA004139982C
:108C3000807941EA00213998C07901433B98C0F816
:108C40006B123998007A01063998407A41EA00415E
:108C50003998807A41EA00213998C07A01433B98DB
:108C6000C0F86F123998007B01063998407B41EAC1
:108C700000413998807B41EA00213998C07B01434B
:108C80003B98C0F873123998007C01063998407CF3
:108C900041EA00413998807C41EA00213998C07C42
:108CA00001433B98C0F877123998007D0106399846
:108CB000407D41EA00413998807D41EA00213998A0
:108CC000C07D01433B98C0F87B123998007E0106B5
:108CD0003998407E41EA00413998807E41EA00217E
:108CE0003998C07E01433B98C0F87F123998007FC5
:108CF00001063998407F41EA00413998807F41EA76
:108D000000213998C07F01433B98C0F8831200BF0F
:108D1000134813F047FE3B98D0F8730200903B983D
:108D2000D0F86F020A903B98D0F86B0209903B98FC
:108D3000D0F867020890014618A0DDE9092313F076
:108D400031FEAFF22C4013F02DFE00BF00BF0448EF
:108D500013F028FE3B98D0F883022DE03C0E002053
:108D6000587600084454552072782041534B2052C5
:108D7000415445203D253032780000001401002088
:108D80001601002044545520727820534554205237
:108D9000415445203D253032780000004454552090
:108DA00072782072617465203D2564202564202539
:108DB000642025640000000000903B98D0F87F02FA
:108DC0000A903B98D0F87B0209903B98D0F8770244
:108DD00008900146D1A0DDE9092313F0E3FDAFF2CD
:108DE000C84013F0DFFD00BF3B98B0F86702D249DE
:108DF000C8843B98B0F86B0281B2CF4801853B989C
:108E0000B0F86F0281B2CC4841853B98B0F873024C
:108E100081B2C94881853B98B0F87702C649C885B8
:108E20003B98B0F87B0281B2C34801863B98B0F80A
:108E30007F0281B2C04841863B98B0F8830281B27C
:108E4000BD48818600200B900BE03B9800F2872004
:108E50000B99425CB848363042540B98401CC0B263
:108E60000B900B983028F0DB00BFB44813F09AFD4C
:108E7000B3A013F097FDAFF2605013F093FD00BF65
:108E8000AD49162007F03DFD68213B9880F8191187
:108E900046213B9880F81A1100213B9880F81B115D
:108EA0003B9890F84E1380F81C1100213B9880F8F5
:108EB0001D113B9880F81E113B9880F81F11A548A2
:108EC00001783B9880F82011A24841783B9880F8BF
:108ED0002111A14801783B9880F822119E484178E1
:108EE0003B9880F823119C4881783B9880F82411A6
:108EF0009948C1783B9880F82511974801793B98AB
:108F000080F82611944841793B9880F827119248BF
:108F100081793B9880F828118F48C1793B9880F877
:108F2000291139213B9880F82A1117F031FC1421BE
:108F30003B9880F82B111420FEF7D3F801463B989C
:108F400080F82B118548807E0A90FEF7CAF801460A
:108F50003B9880F82C118148007E0A90FEF7C1F8FA
:108F600001463B9880F82D117C48407E0A90FEF720
:108F7000B8F801463B9880F82E117848C07E0A90D8
:108F8000FEF7AFF801463B9880F82F117348007F39
:108F90000A90FEF7A6F801463B9880F830116F481A
:108FA000407F0A90FEF79DF801463B9880F831110A
:108FB0003B9800F52071D0F86702C1F839003B9862
:108FC000D0F87712C0F8C91230223B9800F28721FE
:108FD00000F2CD20F7F7E8F940F60D213B98A0F814
:108FE000FD1200BF554813F0DDFC39215C4813F039
:108FF000D9FCAFF2DC6013F0D5FC00BF5948008803
:10900000401C584908803B9901F2B9213B9800F275
:10901000191001F0F8FE7CE07BE07AE001213B983A
:1090200080F8D51175E000BF444813F0BBFC552112
:109030004DA013F0B7FCAFF2207013F0B3FC00BFEB
:109040003B9890F81202012807D101213B9880F843
:109050000F1200213B9880F812123B9890F8F90209
:10906000012807D101213B9880F8F61200213B9896
:1090700080F8F912002142488166C16601674167A4
:10908000C167C0F880103F48C0F8E410A0F8E810AD
:10909000A0F8EA103DE03CE000BF284813F082FC55
:1090A000A22139A013F07EFCAFF2947013F07AFC89
:1090B00000BF1A223B9800F233303999F7F774F960
:1090C0003B98B0F83303000A224908703B9890F8A7
:1090D0003303487020493B98D0F835230A60D0F814
:1090E0003903486001213B9880F84D1311E010E0EE
:1090F0003B9A02F554723AA939980AF0D3FB08E07A
:109100003B9A02F554723AA939980AF0CBFB00E079
:1091100000BF00BF00BFFEF7A3B8000044545520B5
:10912000727820536572766572203D25642025642F
:1091300020256420256400007C4800205876000823
:10914000445455205365742047554E203220726197
:109150007465000014010020160100203C0E002060
:10916000D07B00082C0100204454552072782062E6
:10917000696C6C207265706C79203D253032780006
:10918000EC2A002058300020445455207278207278
:109190006567697374207265706C79203D25303283
:1091A000780000002DE9F84F05460C46924600274E
:1091B000BB46B4F8008048480068009000261DB106
:1091C00014B1BAF1000F0CD100BF44A013F0EAFBB8
:1091D00045A013F0E7FB4BA013F0E4FB00BFBDE894
:1091E000F88FB8F1190F0BD200BF3CA013F0DAFBD7
:1091F00045A013F0D7FB43A013F0D4FB00BFEEE76C
:1092000000BF002709E0E81901226946F7F71DF9B8
:1092100008B9FEB203E0781C87B24745F3DB00BF14
:10922000474511DB00BF2DA013F0BCFB3FA013F09E
:10923000B9FB34A013F0B6FB00BF21882846F7F72E
:10924000CCF800202080CAE7701C295CB01C285C88
:1092500041EA002B0BF119001FFA80F906EB090017
:1092600040450BDD00BF1DA013F09CFB35A013F0A3
:1092700099FB24A013F096FB00BFB0E7A9191922AF
:109280003B48F7F791F806F1190029185A46384873
:109290001930F7F789F853465A4635491931344899
:1092A000FDF7C0FF208806EB0901401A20802088C6
:1092B00030B1228806EB090041192846F7F774F807
:1092C0002288C2F580715019F7F787F8208800B11D
:1092D00097E700BF83E70000801602085B572F4422
:1092E00054555D2000000000447475206E756C6C50
:1092F00020706F696E746572206572726F720D0AEC
:10930000000000000A00000072782064617461208F
:109310006C657373207468616E207468652068657D
:109320006164206C65686774680D0A004E6F206880
:1093300065616420666F756E642C636C6561720D87
:109340000A00000072782064617461206C65737398
:10935000207468616E207468652077686F6C652082
:109360007061636B6574206C656E6774680D0A00CC
:109370007032002010B5794890F84E0301287DD155
:10938000764890F81702012817D1FBF7F9F9012860
:1093900013D1724890F8180250B900BF70A013F0B2
:1093A00001FB72A013F0FEFA76A013F0FBFA00BFE7
:1093B00001216A4880F8181257E0684890F81702AF
:1093C00001284AD1FBF7DCF9002846D1634890F820
:1093D0001802012841D10021604880F818120020AD
:1093E00001F03AFD17F0D4F91421674880F8D41041
:1093F0006648817E644880F8D5106448017E6248E2
:1094000080F8D6106148417E5F4880F8D7105F48E9
:10941000C17E5D4880F8D8105C48017F5A4880F8CA
:10942000D9105A48417F584880F8DA1058480168E6
:109430005548C0F8DC100121484880F8101200217E
:1094400080F8171200BF46A013F0ACFA51A013F039
:10945000A9FA4CA013F0A6FA07E0404890F81702CA
:1094600018B900213D4880F818123C4890F8FE02D7
:1094700001281AD1504890F8680000E06DE00128FA
:1094800013D1364890F8FF0250B900BF34A013F052
:1094900089FA4AA013F086FA3AA013F083FA00BFC3
:1094A00001212E4880F8FF1257E02C4890F8FE0268
:1094B00001284AD1404890F86800002845D1274843
:1094C00090F8FF02012840D10021244880F8FF12C3
:1094D000012001F0C1FC17F05BF91421364880F837
:1094E00090102A48817E344880F891102748017EE8
:1094F000314880F892102548417E2F4880F893101B
:109500002248C17E2C4880F894102048017F2A48C8
:1095100080F895101D48417F274880F89610D0F8B4
:10952000A010C0F8981001210C4880F8F712002113
:1095300080F8FE1200BF0AA013F034FA25A013F041
:1095400031FA10A013F02EFA07E0044890F8FE025A
:1095500018B90021014880F8FF1210BD70320020B8
:109560005B492F4454555D20000000006474752051
:1095700073746172742067756E2031207375636334
:10958000657373000A000000583000203C0E002074
:1095900060270020436865636B2067756E2031206B
:1095A00073746F70204E4554206368617267652C38
:1095B00074782062696C6C007C48002064747520AB
:1095C00073746172742067756E20322073756363E3
:1095D00065737300436865636B2067756E20322086
:1095E00073746F70204E4554206368617267652CF8
:1095F00074782062696C6C0070B505460C461A4898
:10960000B0F800012044B0F5807F18DD00BF17A03E
:1096100013F0C8F918A013F0C5F921A013F0C2F98E
:1096200000BF00201049A1F800014FF480710E48DE
:10963000F6F7D3FE01201B49086003F0BBFD0A4981
:10964000B1F80011084A881822462946F6F7ACFE00
:109650000548B0F8000120440349A1F80001124870
:10966000006813F067FE70BD6C3100205B572F441B
:1096700054555D20000000006474752062756666B4
:109680006572206973206E6F7420656E6F756768F0
:109690002C736F20636C61657220616C6C0000003C
:1096A0000A000000E00442420C01002010B5DEB0C8
:1096B00040F6B834FD4890F84E0300287ED1FC48AF
:1096C0000068032802D242F210741EE0F8480068D5
:1096D000032806D3F6480068122802D842F2107414
:1096E00013E00DF01FFC40F6B83014F049FA00BF4B
:1096F000F0A013F057F9F2A013F054F9F3A013F00F
:1097000051F900BF0020EA490860E848D0F8E003BA
:10971000A0421AD3E6480068401CE54908600020D2
:10972000EB49887701F09EFA0020E04981F84D036B
:10973000C1F8E00300BFDFA013F034F9E5A013F097
:1097400031F9E2A013F02EF900BFD84890F84D038C
:1097500001281CD10020D54981F84D0301F082FA7F
:109760000120D24981F84E030020C1F8DC03D04922
:109770000860CE49C1F8E00300BFCEA013F012F993
:10978000D8A013F00FF9D1A013F00CF900BFC7480F
:10979000D0F8DC03D74988427DD9C44890F8170235
:1097A00001285DD1AC2108A8F6F717FE03208DF83B
:1097B0002000D148816DCDF8211000E09CE0C16D02
:1097C000CDF82510B0F86000ADF8290000BFB9A0B1
:1097D00013F0E8F8C9A013F0E5F8BCA013F0E2F824
:1097E00000BF00BFB3A013F0DDF8B04890F89311AC
:1097F00090F8922190F8913190F89001CDE90432DF
:1098000006910390A94890F88F1190F88E2190F856
:109810008D01CDE901210090A44890F88C3190F899
:109820008B2190F88A11B9A013F0BCF8A7A013F00F
:10983000B9F800BF00219D4880F8171208A9BF4859
:10984000FAF7B4FD00BF9BA013F0ACF8BCA013F076
:10985000A9F89EA013F0A6F800BFFCF76DFD00BFAD
:10986000924890F8FE0201281BD100218F4880F811
:10987000FE12BC49122007F044F800BF8DA013F07F
:1098800091F8B9A013F08EF890A013F08BF800BFF8
:109890000120B44900E048E281F86600172007F093
:1098A00030F800BF83A013F07DF8B8A013F07AF869
:1098B00086A013F077F800BF002085498877042040
:1098C0008DF8CC00B5A00168CDF8CD104168CDF879
:1098D000D1100089ADF8D50033A99848FAF766FD94
:1098E00000BF74A013F05EF8AFA013F05BF877A090
:1098F00013F058F800BF18E26C48D0F8E00342F2C9
:109900001071884212D3AD48007800F0E5FEAB48F4
:109910000078401CA949087008460078012801DB3E
:109920000020087000206149C1F8E003A4480078D5
:1099300000EB4010C0EBC0016F48084490F8DD0018
:1099400001280BD09E48007800EB4010C0EBC0010E
:109950006948084490F8DF00142868DD0021984821
:10996000007800EB4010C0EBC0026348104480F860
:10997000DF109348007800EB4010C0EBC0025E4857
:10998000104480F8DE108E48007800EB4010C0EBE9
:10999000C00259481044C0F8E11000BF45A013F0C0
:1099A00001F88748017887A012F0FCFF47A012F069
:1099B000F9FF00BF00218248007800EB4010C0EBA7
:1099C000C0024D48104480F8DD107D48007810B981
:1099D000FCF7B2FC09E07A480078012805D161491A
:1099E00081F86600172006F08CFF7D48007801287A
:1099F0001DD1052072490978C1EB0111C1EBC101EC
:109A0000784A02EB410181F8860006206C4909780A
:109A1000C1EB0111C1EBC10102EB410181F88700EB
:109A200067490978491CC8B2114615F02BFE6448F5
:109A3000007800EB4010C0EBC0012F48084490F8BC
:109A4000DE00012831D15E48007800EB4010C0EB09
:109A5000C00129480844D0F8E10041F27071884201
:109A600023D35748007800EB4010C0EBC0012248D8
:109A7000084490F8DF00401CC1B25148007800EB68
:109A80004010C0EBC0021C48104480F8DF104C4866
:109A9000007800F097F900214948007800EB401069
:109AA000C0EBC002144810449EE0B8E070320020C1
:109AB000300100205B492F4454555D200000000018
:109AC0004454552052455354415254000A0000005A
:109AD0009C2A00204454552074782052656769738D
:109AE0007400000044545520526567697374206FF8
:109AF0006B00000020BF0200A23300204454552018
:109B000072782047756E4E756D3D30004454552077
:109B100072782055736572204E616D653D20257801
:109B20002025782025782025782025782025782064
:109B300025782025782025782025780058300020A9
:109B4000445455206C6F73742035206D696E202C41
:109B500053746F702047554E2031206368617267DF
:109B6000650000007C480020445455206C6F7374DD
:109B70002035206D696E202C53746F702047554E30
:109B8000203220636861726765000000736C617643
:109B9000652072782073746F7000000067756E30F6
:109BA000303030303031000047554E312053746F23
:109BB0007020636861726765000000002E0100205C
:109BC0002F0100204454552052782047756E3D25C2
:109BD000642042696C6C207265706C790000000032
:109BE000FD000020942E002080F8DD1055480078FC
:109BF00000EB4010C0EBC00253481044C0F8E11025
:109C000000BFAFF2501012F0CDFE4E4801784FA0C9
:109C100012F0C8FEAFF24C1012F0C4FE00BF49486B
:109C20000078401C4749087008460078012801DB8D
:109C3000002008704A48D0F8DC034A49884272D9AB
:109C4000474890F84E0301286DD1AC2133A8F6F7B0
:109C5000C4FB03208DF8CC003B48816DCDF8CD10BE
:109C6000C16DCDF8D110B0F86000ADF8D50000BFDF
:109C7000AFF2C01012F096FEAFF2801012F092FE1A
:109C8000AFF2B81012F08EFE00BF00BFAFF2DC10D2
:109C900012F088FE324890F8931190F8922190F8D3
:109CA000913190F89001CDE90432069103902C484F
:109CB00090F88F1190F88E2190F88D01CDE9012157
:109CC0000090274890F88C3190F88B2190F88A11F9
:109CD000AFF2C81012F066FEAFF2102012F062FE72
:109CE00000BF00211E4880F8171233A91E48FAF75A
:109CF0005DFBFCF721FB00201C498877184981F89F
:109D00004E034FF4FA60C1F8E00300BFAFF25C20ED
:109D100012F048FE16A012F045FEAFF2502012F0ED
:109D200041FE00BF00BFFFF725FB14480068B0F5F7
:109D3000FA6F04D3FDF730FA0020104908605EB0D6
:109D400010BD00002F010020A233002044545520F4
:109D500054782047756E3D25642042696C6C000084
:109D600070320020C0D40100583000209C2A00200E
:109D7000445455204C6F7374000000001001002003
:109D80002DE9F04105460C4626463C273A46314629
:109D9000284600F023FFBDE8F081000070B50546BD
:109DA0000C460648046039200549088008460288A8
:109DB00002480168284600F011FF70BD2001002014
:109DC0002401002030B587B004466820FE4981F8A0
:109DD00019013921FC4880F81A11002180F81B1163
:109DE00090F84E1380F81C11002180F81D1180F8A6
:109DF0001E1180F81F11F5480178F34880F82011F2
:109E0000F2484178F04880F82111F1480178EE4895
:109E100080F82211EE484178EB4880F82311EC4895
:109E20008178E94880F82411E948C178E64880F84B
:109E30002511E7480179E44880F82611E448417982
:109E4000E14880F82711E2488179DF4880F828113D
:109E5000DF48C179DC4880F82911542180F82A11A3
:109E600000BFDCA012F09EFD5421DDA012F09AFD8F
:109E7000E0A012F097FD00BF16F08AFC1420FDF759
:109E800030F9D14981F82B01DB49887EFDF729F9AA
:109E90000146CD4880F82C11D749087EFDF721F9FD
:109EA0000146C94880F82D11D349487EFDF719F9BC
:109EB0000146C54880F82E11CF49C87EFDF711F93B
:109EC0000146C14880F82F11CB49087FFDF709F9F9
:109ED0000146BD4880F83011C749487FFDF701F9B8
:109EE0000146B94880F8311104EB4410C0EBC001C1
:109EF000C248084480F8DA4004EB4410C0EBC001CB
:109F0000BE48084490F8DA0000287DD1BC4991F899
:109F1000C400FDF7E6F8AC4981F8D601B84991F8DC
:109F2000C500FDF7DEF80146A74880F8D711B4490F
:109F300091F8C600FDF7D5F80146A34880F8D8117E
:109F4000AF4991F8C700FDF7CCF801469E4880F86C
:109F5000D911AB4991F8C800FDF7C3F801469A48FA
:109F600080F8DA11A64991F8C900FDF7BAF8014660
:109F7000954880F8DB11A24991F8CA00FDF7B1F8C5
:109F80000146914880F8DC119D4991F8D400FDF715
:109F9000A8F801468C4880F8DD11994991F8D50060
:109FA000FDF79FF80146884880F8DE11944991F842
:109FB000D600FDF796F80146834880F8DF119049F6
:109FC00091F8D700FDF78DF801467F4880F8E01141
:109FD0008B4991F8D800FDF784F801467A4880F85B
:109FE000E111874991F8D900FDF77BF801467648E1
:109FF00080F8E211824991F8DA00FDF772F8014623
:10A00000714880F8E31100E045E000F5F2707DA1B1
:10A010000A6802604A684260098901817848D0F87C
:10A02000D0106948C0F8EE117548D0F8DC106648C9
:10A03000C0F8F2117248D0F8E4006421B0FBF1F1ED
:10A040006148C0F8F6116E48B0F8E80000EB8000F7
:10A0500041005D48C0F8FA110021C0F8FE11C0F8B7
:10A0600002126748B0F8EA0000EB80004100564851
:10A07000C0F80612002180F80A12614890F80E110B
:10A08000514880F80B1240F60A51A0F80D12012138
:10A0900080F81212F9E004EB4410C0EBC0015748FD
:10A0A000084490F8DA000128F4D1594991F8800069
:10A0B000FDF717F80146444880F8BD12544991F85D
:10A0C0008100FDF70EF801463F4880F8BE12504966
:10A0D00091F88200FDF705F801463B4880F8BF1271
:10A0E0004B4991F88300FCF7FCFF0146364880F8A5
:10A0F000C012474991F88400FCF7F3FF014632484B
:10A1000080F8C112424991F88500FCF7EAFF014648
:10A110002D4880F8C2123E4991F88600FCF7E1FF15
:10A120000146294880F8C312394991F89000FCF79C
:10A13000D8FF0146244880F8C412354991F89100AF
:10A14000FCF7CFFF0146204880F8C512304991F84E
:10A150009200FCF7C6FF01461B4880F8C6122C4946
:10A1600091F89300FCF7BDFF0146174880F8C7122D
:10A17000274991F89400FCF7B4FF0146124880F893
:10A18000C812234991F89500FCF7ABFF01460E4831
:10A1900080F8C9121E4991F89600FCF7A2FF01460B
:10A1A000094880F8CA1200F2CB201AA10A6802609E
:10A1B0004A684260098901811548D0F88C1002482C
:10A1C000C0F8D51212482BE0703200201401002094
:10A1D000160100205B492F4454555D20000000000B
:10A1E0004454552073656E672042696C6C2025309D
:10A1F000327800000A0000003C0E0020A23300204C
:10A200005830002067756E31313131313131000005
:10A210007C48002067756E323232323232320000B2
:10A22000D0F89810DA48C0F8D912DA48D0F8A0006F
:10A230006421B0FBF1F1D648C0F8DD12D548B0F882
:10A24000A40000EB80004100D148C0F8E1120021D9
:10A25000C0F8E512C0F8E912CE48B0F8A60000EB4D
:10A2600080004100CA48C0F8ED12002180F8F112C8
:10A27000C84890F8CA10C64880F8F21240F60A5151
:10A28000A0F8F412012180F8F91200BFAFF2BC006F
:10A2900012F088FB04EB4410C0EBC002BE4810442F
:10A2A00090F8DA10BDA012F07DFBAFF2B80012F00A
:10A2B00079FB00BF00BFAFF2E40012F073FB04EBC8
:10A2C0004410C0EBC001B448084490F8AA0004EB65
:10A2D0004411C1EBC102B049114491F8A91004EB3B
:10A2E0004412C2EBC203AC4A1A4492F8A82004EB11
:10A2F0004413C3EBC305A84B2B4493F8A730CDE917
:10A300000032CDE9021004EB4410C0EBC005A248B6
:10A31000284490F8A63004EB4410C0EBC0059E48DA
:10A32000284490F8A52004EB4410C0EBC0059A48DF
:10A33000284490F8A4109EA012F034FBAFF24C1009
:10A3400012F030FB00BF00BFAFF2781012F02AFB12
:10A3500004EB4410C0EBC0018F48084490F8B110E2
:10A3600004EB4410C0EBC0028B48104490F8B020BE
:10A3700004EB4410C0EBC0038748184490F8AF309A
:10A3800004EB4410C0EBC0058348284490F8AE00AD
:10A39000CDE901320391009004EB4410C0EBC005FD
:10A3A0007D48284490F8AD3004EB4410C0EBC00564
:10A3B0007948284490F8AC2004EB4410C0EBC00569
:10A3C0007548284490F8AB1084A012F0EBFAAFF275
:10A3D000DC1012F0E7FA00BF00BFAFF2082012F065
:10A3E000E1FA04EB4410C0EBC0016B48084490F85C
:10A3F000BB1004EB4410C0EBC0026748104490F857
:10A40000BA2004EB4410C0EBC0036348184490F832
:10A41000B93004EB4410C0EBC0055F48284490F805
:10A42000B800CDE904320691039004EB4410C0EB70
:10A43000C0015948084490F8B71004EB4410C0EB31
:10A44000C0025548104490F8B62004EB4410C0EB0D
:10A45000C0035148184490F8B500CDE9012100909F
:10A4600004EB4410C0EBC0054B48284490F8B430CE
:10A4700004EB4410C0EBC0054748284490F8B320D3
:10A4800004EB4410C0EBC0054348284490F8B210D8
:10A490005CA012F087FAAFF2A42012F083FA00BF9A
:10A4A00000BFAFF2D02012F07DFA04EB4410C0EBF5
:10A4B000C00239481044D0F8BC105EA012F072FA05
:10A4C000AFF2D02012F06EFA00BF00BFAFF2FC2056
:10A4D00012F068FA04EB4410C0EBC0022E4810449E
:10A4E000D0F8C0105BA012F05DFAAFF2F82012F0C5
:10A4F00059FA00BF00BFAFF2243012F053FA04EB58
:10A500004410C0EBC00224481044D0F8C41059A035
:10A5100012F048FAAFF2243012F044FA00BF00BF44
:10A52000AFF2503012F03EFA04EB4410C0EBC00220
:10A5300019481044D0F8C81054A012F033FAAFF202
:10A540004C3012F02FFA00BF00BFAFF2783012F09B
:10A5500029FA04EB4410C0EBC0020F481044D0F8B5
:10A56000D41050A012F01EFAAFF2783012F01AFA9E
:10A5700000BF04EB4410C0EBC0020748104400F1D8
:10A58000A40105481938FFF709FC07B030BD0000E9
:10A59000703200207C480020A23300204454552013
:10A5A00042696C6C2047756E4E756D3D25640000E8
:10A5B0004454552042696C6C205374617274205469
:10A5C000696D65203D256425642D25642D25642055
:10A5D00025643A25643A256400000000445455205F
:10A5E00042696C6C20656E642054696D65203D2560
:10A5F0006425642D25642D25642025643A25643A5C
:10A60000256400004454552042696C6C20557365E4
:10A610007249643D257820257820257820257820EA
:10A620002578202578202578202578202578202554
:10A63000780000004454552042696C6C20537461CA
:10A64000727445636C634D657465724E756D3D251E
:10A65000640000004454552042696C6C2053746FB0
:10A660007045636C634D657465724E756D3D256410
:10A67000000000004454552042696C6C204368611E
:10A680007267654B6D683D25640000004454552099
:10A6900042696C6C204368617267654D6F6E6579C5
:10A6A0003D2564004454552042696C6C205365720A
:10A6B0007665724D6F6E65793D2564002DE9F04138
:10A6C00005460C4626462E273A463146284600F0D7
:10A6D00085FABDE8F081000010B586B00446682018
:10A6E000FE4981F819012E21FC4880F81A11002139
:10A6F00080F81B1190F84E1380F81C11002180F88F
:10A700001D1180F81E1180F81F11F5480178F348DB
:10A7100080F82011F2484178F04880F82111F14882
:10A720000178EE4880F82211EE484178EB4880F835
:10A730002311EC488178E94880F82411E948C17870
:10A74000E64880F82511E7480179E44880F82611A9
:10A75000E4484179E14880F82711E2488179DF48EF
:10A7600080F82811DF48C179DC4880F8291151218F
:10A7700080F82A1116F00CF81420FCF7B2FCD74927
:10A7800081F82B01D849887EFCF7ABFC0146D34801
:10A7900080F82C11D449087EFCF7A3FC0146CF4871
:10A7A00080F82D11D049487EFCF79BFC0146CB4830
:10A7B00080F82E11CC49C87EFCF793FC0146C748AF
:10A7C00080F82F11C849087FFCF78BFC0146C3486D
:10A7D00080F83011C449487FFCF783FC0146BF482C
:10A7E00080F8311104EB4410C0EBC001BF480844AD
:10A7F00080F8754004EB4410C0EBC001BB4808442E
:10A8000090F8750000287CD1B94890F8AE10B34894
:10A8100080F8D21107F0E8FB20B10421AF4880F89E
:10A82000A81105E0B24890F8AC10AC4880F8A81127
:10A83000AF48D0F8E4006421B0FBF1F1A748C0F8BC
:10A84000A911AB48B0F8E80000EB80004100A8482F
:10A85000B0F8EA0000EB800001EB40019F48C0F82F
:10A86000AD11002180F8B11180F8B211A148406803
:10A87000642190FBF1F0C1B2984880F8B4119D4872
:10A880004068642190FBF1F0010A944880F8B5110A
:10A8900098484068642190FBF1F0010C8F4880F8E3
:10A8A000B61194488068642190FBF1F0C1B28B48E6
:10A8B00080F8B7118F488068642190FBF1F0010A9D
:10A8C000864880F8B8118B488068642190FBF1F0CD
:10A8D000010C824880F8B9118548D0F8E0004EF6A6
:10A8E0006021B0FBF1F0C1B27C4880F8BA11804819
:10A8F000D0F8E0004EF66021B0FBF1F0010A774895
:10A9000000E038E080F8BB117948D0F8E0004EF65E
:10A910006021B0FBF1F0010C704880F8BC110021FF
:10A9200080F8BD1180F8BE11734801786B4880F83B
:10A93000BF116F4890F8AE10684880F8C0116C489D
:10A9400090F8F010654880F8C1116948B0F8EC1033
:10A950006248A0F8C2116648D0F8B0105F48C0F84D
:10A96000C41100F5E47065A10A6802604A6842609B
:10A9700009890181D6E004EB4410C0EBC0015B48BB
:10A98000084490F875000128F4D15F4890F86A10E7
:10A99000524880F8B9125C4890F868104F4880F827
:10A9A0008F125948D0F8A0006421B0FBF1F14B4858
:10A9B000C0F890125448B0F8A40000EB80004100A9
:10A9C0005148B0F8A60000EB800001EB400143487D
:10A9D000C0F89412002180F8981280F899124A4821
:10A9E00090F8B20000EB80004006010E3B4880F872
:10A9F0009B124548B0F8B20000EB8000C0F3D711BD
:10AA0000364880F89C124048B0F8B20000EB800055
:10AA1000C0F3CF31314880F89D123B4890F8B40024
:10AA200000EB80004006010E2C4880F89E1236484C
:10AA3000B0F8B40000EB8000C0F3D711274880F8CD
:10AA40009F123148B0F8B40000EB8000C0F3CF3162
:10AA5000224880F8A0122C48D0F89C004EF66021C5
:10AA6000B0FBF1F0C1B21D4880F8A1122648D0F821
:10AA70009C004EF66021B0FBF1F0010A174880F807
:10AA8000A2122148D0F89C004EF66021B0FBF1F0F4
:10AA9000010C124880F8A312002180F8A41280F85B
:10AAA000A51280F8A612184890F86A100B4880F892
:10AAB000A712154890F8AC10084880F8A812124860
:10AAC000B0F8A8100548A0F8A9120F48C16E0348B5
:10AAD000C0F8AB1200F2AF200CA11DE070320020D4
:10AAE00014010020160100203C0E0020A23300209B
:10AAF00058300020602700202C01002067756E313F
:10AB000031313131313100007C48002067756E32BF
:10AB100032323232323200000A6802604A684260E1
:10AB20000989018100BF25A011F03CFF2648B0F83B
:10AB30001B032549D1F87712234AD2F86722234B09
:10AB40001B88CDE90232CDE9041004EB4410C0EBC0
:10AB5000C0011F480844D0F87B0004EB4411C1EB4E
:10AB6000C1021B491144D1F87710CDE9001004EB64
:10AB70004410C0EBC0011648084490F8763004EB4E
:10AB80004410C0EBC0011248084490F875205121D0
:10AB9000104811F007FF10A011F004FF00BF04EBF4
:10ABA0004410C0EBC0020A48104400F17501084887
:10ABB0001938FFF783FD06B010BD00005B492F4434
:10ABC00054555D2000000000703200202C01002050
:10ABD000A2330020B42802080A00000070B5ADF5C9
:10ABE000007D05460E4614464FF400716846F5F7A1
:10ABF000F4FB0020124908801920124908800846F9
:10AC0000028829466846F5F7CFFB6CB10D4A1288D9
:10AC10000DEB020022463146F5F7C6FB09480088D5
:10AC200020440749088003E006480088044908805A
:10AC3000034801886846FCF76DFA0DF5007D70BD8C
:10AC4000280100202A0100202DE9F04105460C468C
:10AC5000264634273A4631462846FFF7BFFFBDE86F
:10AC6000F08100001CB55CA103C9CDE9000168209A
:10AC70005B4981F819013421594880F81A110021E3
:10AC800080F81B1190F84E1380F81C11002180F8F9
:10AC90001D1180F81E1180F81F115248017850488C
:10ACA00080F820114F4841784D4880F821114E48D6
:10ACB00001784B4880F822114B484178484880F889
:10ACC000231149488178464880F824114648C178C4
:10ACD000434880F8251144480179414880F82611FD
:10ACE000414841793E4880F827113F4881793C48E6
:10ACF00080F828113C48C179394880F82911A121F0
:10AD000080F82A1115F044FD1420FCF7EAF93449C3
:10AD100081F82B013549887EFCF7E3F9014630487C
:10AD200080F82C113149087EFCF7DBF901462C48EC
:10AD300080F82D112D49487EFCF7D3F901462848AB
:10AD400080F82E112949C87EFCF7CBF9014624482A
:10AD500080F82F112549087FFCF7C3F901462048E8
:10AD600080F830112149487FFCF7BBF901461C48A7
:10AD700080F831111E481A49C1F8FF0201461848EF
:10AD8000C0F80313112180F80713002180F808137D
:10AD90000099C0F809130199C0F80D130021C0F8FB
:10ADA0001113C0F8151342F22501A0F819134FF43E
:10ADB0000671A0F81B13142100F21D30F5F70DFBEE
:10ADC00040F60D210648A0F8311300F2FF2100F2F1
:10ADD0001910FFF739FF1CBD20151011203824551C
:10ADE0007032002014010020160100203C0E0020CB
:10ADF0007856341270B504460D460022114620469E
:10AE0000FFF7ECFE70BD2DE9F04105460C462646E5
:10AE100046273A4631462846FFF7E0FEBDE8F08176
:10AE20002DE9F04105460C46264609273A463146AB
:10AE30002846FFF7D3FEBDE8F0812DE9F041054635
:10AE40000C4604F1160640273A4631462846FFF7DD
:10AE5000C5FEBDE8F081000010B5044668208649B3
:10AE600081F819011121844880F81A11002180F815
:10AE70001B1190F84E1380F81C11002180F81D1151
:10AE800080F81E1180F81F117C4801787A4880F8FC
:10AE900020117A484178784880F821117848017863
:10AEA000754880F8221176484178734880F823115C
:10AEB00073488178704880F824117148C1786E48D1
:10AEC00080F825116E4801796B4880F826116C488E
:10AED0004179694880F8271169488179664880F886
:10AEE00028116748C179644880F82911132180F836
:10AEF0002A1115F04DFC1420FCF7F3F85E4981F897
:10AF00002B016049887EFCF7ECF801465A4880F82E
:10AF10002C115C49087EFCF7E4F80146564880F89D
:10AF20002D115849487EFCF7DCF80146524880F85C
:10AF30002E115449C87EFCF7D4F801464E4880F8DB
:10AF40002F115049087FFCF7CCF801464A4880F899
:10AF500030114C49487FFCF7C4F80146464880F858
:10AF6000311104EB4410C0EBC0014748084480F89D
:10AF7000644004EB4410C0EBC0014348084490F81F
:10AF8000640090BB414890F8211004EB4410C0EBE2
:10AF9000C0023D48104480F8651004EB4410C0EB3B
:10AFA000C001394808443949491C0A68801C426676
:10AFB0004A6882660989A0F86C103448B0F8E0004D
:10AFC00081B204EB4410C0EBC0022F481044A0F83B
:10AFD00070102E4890F8F01004EB4410C0EBC00243
:10AFE0002948104480F8721030E0FFE72848817C3F
:10AFF00004EB4410C0EBC0022348104480F86510F5
:10B0000004EB4410C0EBC0011F48084421A10A68AA
:10B01000801C42664A6882660989A0F86C101C4848
:10B02000B0F89C0081B204EB4410C0EBC00216489B
:10B030001044A0F87010164890F8AC1004EB4410BF
:10B04000C0EBC0021048104480F8721000BF14A07A
:10B0500011F0A8FC132115A011F0A4FC17A011F009
:10B06000A1FC00BF04EB4410C0EBC002064811185D
:10B07000193800F025F810BD7032002014010020AE
:10B08000160100203C0E0020A23300205830002082
:10B090007C48002067756E32323232323232000024
:10B0A0005B492F4454555D20000000004454552056
:10B0B0007265706C79202530327800000A0000003B
:10B0C0002DE9F04105460C4604F1640611273A4685
:10B0D00031462846FFF782FDBDE8F08170B5054690
:10B0E0000C4607480480224629460648F5F75CF9D5
:10B0F000034802880349044804F0A4FA70BD000024
:10B10000BC00002078270020B84C002070B5044611
:10B110000D4616460E4A2946204604F0FBFA0C4816
:10B12000C068642148435D21B0FBF1F00949086023
:10B1300007484068642148435D21B0FBF1F00549B0
:10B14000886003480068486001488068C86070BD36
:10B15000600E00206027002010B50024002004F0BD
:10B1600007FB10BD10B506484069B0F57A7F05D3DE
:10B17000002000F017F800200149486110BD0000D0
:10B180006027002070B506460C46154606B105B985
:10B1900070BD04B9FCE72A4621463046FFF7B6FFEA
:10B1A00000BFF5E710B50446FFF7D6FF10BD00005D
:10B1B00070B505460C461248B0F800012044B0F5C1
:10B1C000807F08DD00200E49A1F800014FF4807156
:10B1D0000B48F5F702F90A49B1F80011084A881836
:10B1E00022462946F5F7E0F80548B0F8000120446A
:10B1F0000349A1F800010348006812F09BF870BDF4
:10B200005C260020B800002072B600BFFEE70000F8
:10B210000021074AD1610749096941F00401054A43
:10B2200011611146096941F0400111617047000048
:10B2300010550020002002400021074AD161074933
:10B24000096941F00201054A116111464861096925
:10B2500041F040011161704710550020002002406C
:10B260000022054BDA61054A126942F00102034BE4
:10B270001A61018070470000105500200020024034
:10B2800000201E49C96801F0100139B11C49C96983
:10B2900041F002011A4AD16140F010001749C96813
:10B2A00001F0040139B11649C96941F00101144A9C
:10B2B000D16140F004001149C96901F0010169B18F
:10B2C0000F49C96941F004010D4AD16100BF0B4922
:10B2D000C96921F00101094AD16100BF00BF40F2F4
:10B2E0000111884206D10549C96921F00101034ACB
:10B2F000D16101E00149C86000BF704700200240F1
:10B300001055002070B5044601F07CF8054609E0B0
:10B31000601C38B124B101F075F8401BA04201D97E
:10B32000032070BD1248C06800F001000028EFD172
:10B330000F48C06800F0200020B100BF20200C4959
:10B34000C86000BF0A48C06800F0100048B908484B
:10B35000C06900F0010020B90548C06800F0040091
:10B3600018B1FFF78DFF0120DBE70020D9E70000CF
:10B370000020024010B54378032B16D18378082BA8
:10B3800013D10379C47843EA042313808379447981
:10B3900043EA04235380037AC47943EA0423938065
:10B3A000837A447A43EA0423D38010BD10B586B073
:10B3B000044612A003C8CDE9040112A103C9CDE9D6
:10B3C000020112A103C9CDE9000124B1012C07D06B
:10B3D000022C0FD109E0082102A804F0DDF909E0F0
:10B3E000082104A804F0D8F904E00821684604F014
:10B3F000D3F900BF00BF06B010BD00000106010276
:10B400000011E9FA01060102000029F6010300100B
:10B41000000445CC10B503220349044800F0B4F9F8
:10B420000DF028FC10BD0000BE000020A04A002046
:10B4300038B5024600230020009000BF92F8240097
:10B44000012801D1022038BD012082F8240000BF6C
:10B450004868072812D21068406B0C79641E04EB10
:10B4600084051F24AC40A0430D796D1E05EB8505B6
:10B470000C68AC4020431468606327E048680D28DE
:10B4800012D21068006B0C79E41F04EB84051F24B2
:10B49000AC40A0430D79ED1F05EB85050C68AC4071
:10B4A00020431468206311E01068C06A0C790D3CD9
:10B4B00004EB84051F24AC40A0430D790D3D05EB42
:10B4C00085050C68AC4020431468E06208680A28CF
:10B4D00012D31068C0680C780A3C04EB44050724BA
:10B4E000AC40A0430D780A3D05EB45058C68AC40A7
:10B4F00020431468E0600FE0106800690C7804EBEA
:10B5000044050724AC40A0430D7805EB45058C6845
:10B51000AC402043146820610868102802D00868F5
:10B52000112827D1174C1068A0421ED110688068DE
:10B5300000F40000F0B91068806840F4000014685E
:10B54000A0600868102815D10F4800680F4CB0FBA8
:10B55000F4F000EB80004000009002E00098401EF4
:10B56000009000980028F9D104E0906A40F0200093
:10B570009062012300BF002082F8240000BF18461B
:10B5800061E70000002401404C01002040420F0010
:10B5900070477047704700002DE9F04104460027CE
:10B5A00000250026A84614B90120BDE8F081A06856
:10B5B00010B1207D00B100BFA06A30B90020E06268
:10B5C00084F82400204600F089F82046F5F7B3FD02
:10B5D0000746A06A00F01000002873D1002F71D137
:10B5E000A06A20F4885040F00200A062E16960681F
:10B5F0000843217B40EA41000643A068B0F5807F04
:10B6000002D0A068012802D14FF4807000E0002031
:10B610000543207D012811D1207B38B9A069401E47
:10B620004FF4006141EA4030054307E0A06A40F072
:10B630002000A062E06A40F00100E06220684068FB
:10B6400020F46940284321684860206880682149C7
:10B650000840304321688860A068B0F5807F02D040
:10B66000A068012802D14FF4807000E00020B0F5FE
:10B67000807F03D1208A401E4FEA00582068C06AAC
:10B6800020F4700040EA08002168C86220688068E1
:10B6900011490840B04208D10020E062A06A20F0C1
:10B6A000020040F00100A06211E0A06A20F0020058
:10B6B00040F01000A062E06A40F00100E062012763
:10B6C00005E0FFE7A06A40F01000A06201273846BD
:10B6D0006BE70000FDF7E1FFFE0E1FFF10B586B01F
:10B6E00004460020029003900490059021492068B0
:10B6F00088423DD100BF2048806940F400701E4957
:10B7000088610846806900F40070019000BF00BFA6
:10B7100000BF0846806940F00800886108468069DB
:10B7200000F00800019000BF00BF032002900390CA
:10B7300002A9124801F0A8FA114812490860002035
:10B74000486000210F4881608021C160490001618B
:10B7500089004161202181610021C16100F070FEFA
:10B7600008B1FFF751FD00BF06482062446200BFE8
:10B7700006B010BD0024014000100240000C014042
:10B7800008000240D04A00202DE9F04104460D4651
:10B790001646002757492068884203D0564920683A
:10B7A000884205D15348001D006800F4702000E075
:10B7B000002000287ED100BF94F82400012802D187
:10B7C0000220BDE8F081012084F8240000BF20465B
:10B7D000F5F71EFD0746002F6DD1A06A40F6016106
:10B7E000884340F48070A06243492068884209D1B0
:10B7F0004048001D006800F4702008B9012002E0F4
:10B80000002000E0012078B1A06A20F48010A0623E
:10B810002068406800F4806000B3A06A20F4005003
:10B8200040F48050A06219E0A06A40F48010A06249
:10B8300030492068884203D02F492068884205D1CA
:10B840002C48001D006800F4806000E0002028B152
:10B85000A06A20F4005040F48050A062A06A00F476
:10B86000805020B1E06A20F00600E06201E0002094
:10B87000E06200BF002084F8240000BF1F48216A56
:10B8800088621F48216AC8621E48216A08636FF0F7
:10B890000200216808602068806840F48070216898
:10B8A0008860226802F14C0133462A46206A01F082
:10B8B000C1F801E01AE014E02068806800F460201C
:10B8C000B0F5602F06D12068806840F4A0002168A0
:10B8D00088600CE02068806840F4801021688860EF
:10B8E00005E000BF002084F8240000E0012738466E
:10B8F00067E7000000240140002801409311000880
:10B9000003120008E511000810B5024692F8203035
:10B91000012B01D0022B06D110684069084314683E
:10B920006061002010BD506A40F480205062012008
:10B93000F8E7F0B504460D461E4694F820702068DE
:10B940008368A86800B900E000BF012F01D0022F72
:10B950007DD103F0806030B903F0006018B903F0C6
:10B96000805000287ED0C3F3016101208840306000
:10B97000A86860B9B5F800C0E86840EA4C5C206887
:10B9800000F5C07000EB0110C0F800C00FE0D5E971
:10B9900001C040EACC00D5F80CC040EA0C00D4F855
:10B9A00000C00CF5C07C0CEB011CCCF80000D5F8F5
:10B9B00010C0206800F5C07000EB0110C0F804C092
:10B9C000287D01280ED1206800F5C07000EB011021
:10B9D000406840F4807C206800F5C07000EB0110E6
:10B9E000C0F804C0D079000692F806C040EA0C40C6
:10B9F00092F805C040EA0C2092F804C040EA0C001E
:10BA0000D4F800C00CF5C07C0CEB011CCCF80C0089
:10BA1000D078000692F802C040EA0C4092F801C0CB
:10BA200040EA0C2092F800C040EA0C00D4F800C0B4
:10BA30000CF5C07C0CEB011CCCF80800206800F56C
:10BA4000C07000EB0110006840F0010C01E00FE055
:10BA500008E0206800F5C07000EB0110C0F800C0DD
:10BA60000020F0BD606A40F4001060620120F8E739
:10BA7000606A40F4802060620120F2E7F0B504467D
:10BA80000A46216894F82050012D01D0022D7ED164
:10BA9000424901F50071086840F00100086008683B
:10BAA00020F47C5008600868566A40EA0620086066
:10BAB000107D00F01F06012000FA06F3C8699843C4
:10BAC000C861A1F50071D069C8B9D1F80C029843DA
:10BAD000C1F80C02908880B2968940EA064601F5CA
:10BAE0001070576940F83760108880B2168940EAB4
:10BAF000064601F51070576900EBC7004660D06933
:10BB0000012819D1D1F80C021843C1F80C02908811
:10BB100080B2168840EA064601F51070576940F871
:10BB20003760908980B2168940EA064601F51070A8
:10BB3000576900EBC7004660906928B9D1F8040244
:10BB40009843C1F8040204E0D1F804021843C1F894
:10BB50000402106928B9D1F814029843C1F81402FC
:10BB600004E0D1F814021843C1F81402106A012845
:10BB700004D1D1F81C021843C1F81C02D1F800020C
:10BB800020F00100C1F800020020F0BDFFE7606A6C
:10BB900040F4802060620120F7E70000006400406C
:10BBA000704770B5044694F82050012D01D0022D45
:10BBB0007DD151B92068C06800F0030080B9606A87
:10BBC00040F400106062012070BD2068006900F040
:10BBD000030028B9606A40F4001060620120F3E7B6
:10BBE000206800F5D87000EB0110006800F0040038
:10BBF0009060906840B9206800F5D87000EB0110A3
:10BC00000068400D106007E0206800F5D87000EB78
:10BC100001100068C0085060206800F5D87000EB83
:10BC20000110006800F00200D060206800F5D870B4
:10BC300000EB0110406800F00F00082802D3082034
:10BC4000106108E0206800F5D87000EB0110406832
:10BC500000F00F001061206800F5D87000EB0110B3
:10BC6000406800F47F40000A9061206800F5D870B9
:10BC700000EB01104068000C5061206800F5D8709E
:10BC800000EB011080681870206800F5D87000EB98
:10BC90000110806800F47F40000A5870206800F5A9
:10BCA000D87000EB0110806800F47F0000E03CE0F9
:10BCB000000C9870206800F5D87000EB01108068C7
:10BCC000000ED870206800F5D87000EB0110C06835
:10BCD0001871206800F5D87000EB0110C06800F4FE
:10BCE0007F40000A5871206800F5D87000EB011001
:10BCF000C06800F47F00000C9871206800F5D870CF
:10BD000000EB0110C068000ED87131B92068C0681E
:10BD100040F020002668F06005E02068006940F0EF
:10BD200020002668306100204EE7606A40F48020E1
:10BD30006062012048E72DE9F05F04460025206895
:10BD400046692068D0F80490206887682068D0F899
:10BD50000CA02068D0F810B02068D0F8188006F049
:10BD60000100002855D007F00100C0B10120216872
:10BD7000886007F0020018B1204600F000FB0EE0DA
:10BD800007F0040010B145F4006508E007F0080072
:10BD900010B145F4805502E0204600F0EFFA07F4B8
:10BDA0008070C8B14FF480702168886007F400701B
:10BDB00018B1204600F0E5FA0EE007F4806010B1FB
:10BDC00045F4005508E007F4006010B145F48045E3
:10BDD00002E0204600F0D4FA07F48030C8B14FF4F6
:10BDE00080302168886007F4003018B1204600F0E8
:10BDF000CAFA0EE007F4802010B145F4004508E0CF
:10BE000007F4002010B145F4803502E0204600F030
:10BE1000B9FA06F0080038B10AF0100020B145F474
:10BE2000007510202168C86006F0040040B10AF0D7
:10BE3000080028B108202168C860204600F01EFADA
:10BE400006F0020038B12068C06800F0030010B1AD
:10BE5000204600F015FA06F0400038B10BF0100053
:10BE600020B145F4806510202168086106F02000AB
:10BE700040B10BF0080028B1082021680861204675
:10BE800000F04AFA06F0100038B12068006900F0AE
:10BE9000030010B1204600F040FA06F4003040B133
:10BEA00009F0100028B1102021684860204600F0F9
:10BEB00035FA06F4803040B109F0080028B10820B6
:10BEC00021684860204600F05FFA06F4004088B31D
:10BED00009F0040078B306F4807020B108F0010086
:10BEE00008B145F0010506F4007020B108F0020029
:10BEF00008B145F0020506F4806020B108F00400A6
:10BF000008B145F0040506F40060A0B108F0700027
:10BF100088B108F07000402817D006DC10280BD03C
:10BF200020280CD0302819D10CE0502810D06028DF
:10BF300014D110E01DE019E045F008050FE045F0D0
:10BF400010050CE045F0200509E045F0400506E04D
:10BF500045F0800503E045F4807500E000BF00BFB8
:10BF60002068806920F070002168886104202168C1
:10BF700048602DB1606A284360622046FFF710FEDA
:10BF8000BDE8F09F70B504460CB9012070BD94F86F
:10BF9000200010B9204600F0AFF82068006840F09B
:10BFA00001002168086000F02DFA05460DE000F060
:10BFB00029FA401B0A2808D9606A40F40030606200
:10BFC000052084F820000120E0E72068406800F0A8
:10BFD00001000028EBD02068006820F002002168F2
:10BFE000086000F00FFA05460DE000F00BFA401B68
:10BFF0000A2808D9606A40F400306062052084F89D
:10C0000020000120C2E72068406800F002000028FC
:10C01000EBD1207E012806D12068006840F0800026
:10C020002168086005E02068006820F08000216831
:10C030000860607E012806D12068006840F040005A
:10C040002168086005E02068006820F04000216851
:10C050000860A07E012806D12068006840F020001A
:10C060002168086005E02068006820F02000216851
:10C070000860E07E012806D12068006820F01000EA
:10C080002168086005E02068006840F01000216821
:10C090000860207F012806D12068006840F0080071
:10C0A0002168086005E02068006820F00800216829
:10C0B0000860607F012806D12068006840F0040015
:10C0C0002168086005E02068006820F0040021680D
:10C0D0000860D4E902010843216908436169084303
:10C0E0006168491E08432168C86100206062012020
:10C0F00084F82000002049E710B586B004460020EF
:10C1000002900390049005905649206888424CD1D3
:10C1100055480068401C54490860084600680128DA
:10C120000DD100BF5148C06940F000704F49C8614F
:10C130000846C06900F00070019000BF00BF00BF5A
:10C140004A48806940F0080048498861084680698B
:10C1500000F00800019000BF00BF88150290002089
:10C160000390049002A9424800F08EFD4FF4007045
:10C170000290022003900320059002A93C4800F0A1
:10C1800083FD00BF3B49486820F4C04040F0E060B8
:10C1900040F48040486000BF00221146142000F0A7
:10C1A000B7FF142000F0A4FF5AE03349206888420A
:10C1B00056D100BF2D48C06940F080602B49C8614E
:10C1C0000846C06900F08060019000BF00BF2648AB
:10C1D0000068401C244908600846006801280DD109
:10C1E00000BF2248C06940F000702049C86108467D
:10C1F000C06900F00070019000BF00BF00BF1B4885
:10C20000806940F00800194988610846806900F09B
:10C210000800019000BF00BF202002900020039082
:10C22000049002A9124800F02FFD40200290022045
:10C2300003900320059002A90D4800F025FD00BFE2
:10C240000C49486840F0E06040F48000486000BF5E
:10C2500000220221402000F05BFF402000F048FF58
:10C2600006B010BD006400403C01002000100240F8
:10C27000000C0140000001400068004070470000D1
:10C2800070B50446002500261A49206809688842CE
:10C290001FD1194B194A00212046FFF782FC17498C
:10C2A0000A7C174B4868144906F0D0FA144890F8F5
:10C2B000BC0001281CD11248B0F8C420114B00F179
:10C2C000C601BE30F5F722F800200D4981F8BC0008
:10C2D0000EE00D4920680968884209D10B4B0C4AD1
:10C2E00000212046FFF75DFC0A48006811F022F8A3
:10C2F00070BD0000144B002098000020B4200020E6
:10C30000F40E0020542500203C4B0020AC000020FF
:10C3100028260020A800002070477047704770B59D
:10C32000044694F82000012822D1022084F820003D
:10C330002068006820F001002168086000F062F8C1
:10C3400005460DE000F05EF8401B0A2808D9606A37
:10C3500040F400306062052084F82000012070BDA8
:10C360002068406800F001000028EBD16062F6E729
:10C37000606A40F4002060620120F0E77047704777
:10C38000704770477047704770470146002291F828
:10C390002100022808D00420886300BF002081F813
:10C3A000200000BF012070470868006820F00E00E0
:10C3B0000B6818600868006820F001000B681860BE
:10C3C00091F8403001209840CB6B5860012081F8F3
:10C3D000210000BF002081F8200000BF1046E2E7E6
:10C3E0000348006940F0800001490861002070475F
:10C3F000002002400AB1016101E00B0403617047B3
:10C4000066550000014800687047000040010020A8
:10C4100034120000012001490862704700000E42FA
:10C42000534E4443303036305F30303031000000FE
:10C4300000000000000000000000000000000000FC
:10C440000146002209B9012070471E4B0868984236
:10C450000BD21D4B0868C01A1423B0FBF3F0800008
:10C46000086419480838C8630AE0164B0868C01AFF
:10C470001423B0FBF3F08000086412480838C86346
:10C48000022081F821000868026843F6F0708243B8
:10C49000D1E901031843CB6818430B6918434B6972
:10C4A00018438B691843CB6918430243086802603C
:10C4B00000208863012081F82100002081F82000FD
:10C4C00000BFC1E70804024008000240024693682A
:10C4D0000B400BB1012000E00020704710B5C2688E
:10C4E00021EA020302EA010443EA0443036110BDA6
:10C4F0000090010070B50446002594F82100022840
:10C5000003D00420A0630125C1E02068006820F06A
:10C510000E00216808602068006820F00100216892
:10C5200008605C492068884252D95A4978392068A5
:10C53000884201D1012047E0564964392068884289
:10C5400001D1102040E0534950392068884201D180
:10C55000801539E04F493C392068884201D1801468
:10C5600032E04C4928392068884202D14FF48030AB
:10C570002AE0484914392068884202D14FF48010DB
:10C5800022E044492068884201D140041CE042492D
:10C590002068884201D1012016E03F49143120680B
:10C5A000884201D110200FE03B49283120688842A1
:10C5B00001D1801508E038493C312068884201D11A
:10C5C000801401E04FF480303349091F086051E0C6
:10C5D000304978392068884201D1012047E02D494F
:10C5E00064392068884201D1102040E0294950393F
:10C5F0002068884201D1801539E026493C392068FD
:10C60000884201D1801432E02249283920688842CA
:10C6100002D14FF480302AE01E4914392068884244
:10C6200002D14FF4801022E01A492068884201D1DB
:10C6300040041CE018492068884201D1012016E01E
:10C64000154914312068884201D110200FE01249A9
:10C6500028312068884201D1801508E00E493C311C
:10C660002068884201D1801401E04FF480300949EC
:10C6700080394860012084F8210000BF002084F840
:10C68000200000BF606B10B12046616B88472846D0
:10C6900070BD0000800002400804024070B50446EE
:10C6A000E06B05682068066894F840100420884014
:10C6B0002840002875D006F004000028FAD0206831
:10C6C000006800F0200028B92068006820F004000D
:10C6D00021680860D5492068884254D9D3497839FF
:10C6E0002068884201D1042049E0D049643920689B
:10C6F000884201D1402042E0CC495039206888422C
:10C7000001D100153BE0C9493C392068884202D17B
:10C710004FF4804033E0C54928392068884202D16F
:10C720004FF480202BE0C14914392068884202D19F
:10C730004FF4800023E0BD492068884201D1C00445
:10C740001DE0BB492068884201D1042017E0B849A8
:10C7500014312068884201D1402010E0B4492831CA
:10C760002068884201D1001509E0B1493C312068B8
:10C77000884202D14FF4804001E04FF48020AC4960
:10C78000091F086054E0A94978392068884201D11E
:10C7900004204AE0A54964392068884202D140203B
:10C7A00043E04CE0A14950392068884201D100158E
:10C7B0003BE09E493C392068884202D14FF48040DA
:10C7C00033E09A4928392068884202D14FF480200A
:10C7D0002BE0964914392068884202D14FF480003A
:10C7E00023E092492068884201D1C0041DE09049AD
:10C7F0002068884201D1042017E08D491431206857
:10C80000884201D1402010E08949283120688842BF
:10C8100001D1001509E086493C312068884202D1E7
:10C820004FF4804001E04FF4802080498039486017
:10C83000E06A002802D02046E16A8847F4E094F8D4
:10C840004010022088402840002871D006F00200E5
:10C850000028FAD02068006800F0200040B9206865
:10C86000006820F00A0021680860012084F8210097
:10C870006E492068884254D96C49783920688842CA
:10C8800001D1022049E0694964392068884201D118
:10C89000202042E0654950392068884201D1401586
:10C8A0003BE062493C392068884202D14FF4005095
:10C8B00033E05E4928392068884202D14FF40030C5
:10C8C0002BE05A4914392068884202D14FF40010F5
:10C8D00023E056492068884201D180041DE0544974
:10C8E0002068884201D1022017E0514914312068A4
:10C8F000884201D1202010E04D492831206888422B
:10C9000001D1401509E04A493C312068884202D1F2
:10C910004FF4005001E04FF400304549091F086012
:10C9200054E0424978392068884202D102204AE026
:10C9300057E03E4964392068884201D1202042E016
:10C940003A4950392068884201D140153BE03749C7
:10C950003C392068884202D14FF4005033E033491B
:10C9600028392068884202D14FF400302BE02F494B
:10C9700014392068884202D14FF4001023E02B497B
:10C980002068884201D180041DE02949206888423E
:10C9900001D1022017E0264914312068884201D1D4
:10C9A000202010E0224928312068884201D140151A
:10C9B00009E01F493C312068884202D14FF4005001
:10C9C00001E04FF4003019498039486000BF002071
:10C9D00084F8200000BFA06A30B32046A16A8847CF
:10C9E00022E094F84010082088402840E0B106F08A
:10C9F0000800C8B12068006820F00E0021680860B7
:10CA000094F8401001208840E16B48600120A06349
:10CA100084F8210000BF002084F8200000BF206BB4
:10CA200010B12046216B884770BD00008000024095
:10CA3000080402402DE9F04104460D4616461F4603
:10CA40004FF0000800BF94F82000012802D1022016
:10CA5000BDE8F081012084F8200000BF94F8210097
:10CA600001282CD1022084F821000020A063206836
:10CA7000006820F00100216808603B4632462946E4
:10CA80002046FAF7DDFAE06A30B12068006840F02D
:10CA90000E00216808600BE02068006820F00400A8
:10CAA000216808602068006840F00A00216808607A
:10CAB0002068006840F001002168086006E000BFBF
:10CAC000002084F8200000BF4FF002084046BFE776
:10CAD00070B50446FFF796FC06462546681C10B163
:10CAE00004480078054400BFFFF78CFC801BA84277
:10CAF000FAD370BD480100202DE9F04104460E46EE
:10CB00000127002500BF2648007E012802D102200F
:10CB1000BDE8F08101202249087600BF2068022884
:10CB200013D14CF25030FEF7EDFB90BB0120FEF725
:10CB30006FFB4CF25030FEF7E5FB074619480069E1
:10CB400020F004001749086123E04CF25030FEF752
:10CB5000D9FBF0B94FF0FF303060A56812E02846ED
:10CB6000FEF76AFB4CF25030FEF7CCFB07460D484F
:10CB7000006920F002000B4908610FB1356007E041
:10CB800005F50065D4E9021001EBC020A842E6D803
:10CB900000BF00BF00200249087600BF3846B7E753
:10CBA00010550020002002402DE9FE4F05468B461F
:10CBB00017469846012600240020029000BF244812
:10CBC000007E012802D10220BDE8FE8F012020490D
:10CBD000087600BF4CF25030FEF794FB064686BB49
:10CBE000012D02D10120029006E0022D02D1022087
:10CBF000029001E00420029000241EE02201B946C8
:10CC0000C24648465146F3F76AFB80B201900220C3
:10CC100000FB04B000900199FEF722FB4CF250306B
:10CC2000FEF770FB06460B48006920F00100094939
:10CC3000086106B104E0601CC4B202988442DDDBE6
:10CC400000BF00BF00200249087600BF3046BBE7A6
:10CC5000105500200020024000200849096901F019
:10CC6000800151B10649054A51600649516011469B
:10CC7000096901F0800101B10120704700200240E4
:10CC800023016745AB89EFCD2DE9F8470346002224
:10CC900094466EE14FF0010808FA02F4D1F80080E2
:10CCA00008EA0400A0427DD1DFF8DCA2D1F80480BC
:10CCB000A8EB0A09D0453AD014DCB8F1030F50D0E4
:10CCC00009DCB8F1000F31D0B8F1010F1CD0B8F178
:10CCD000020F49D120E0B8F1110F18D0B8F1120FAE
:10CCE00042D11EE0B9F5881F25D006DCB9F5803F9A
:10CCF00020D0B9F5801F37D11AE0B9F5001F18D040
:10CD0000B9F5041F30D117E0D1F80CC02DE0D1F8EF
:10CD10000C8008F1040C28E0D1F80C8008F1080C14
:10CD200023E0D1F80C8008F10C0C1EE000BF00BF1E
:10CD300000BF00BF00BF00BFD1F80880B8F1000FEE
:10CD400002D14FF0040C0BE0D1F80880B8F1010FCC
:10CD500003D14FF0080C1C6102E04FF0080C5C613D
:10CD600003E04FF0000C00E000BF00BFFF2801D837
:10CD7000984601E003F104084646FF2802D84FEA2E
:10CD8000820803E0A2F108084FEA88084746D6F86F
:10CD900000804FF00F0909FA07F928EA09080CFA90
:10CDA00007F900E088E048EA0908C6F80080D1F8F1
:10CDB000048008F08058B8F1805F7DD100BFDFF8B3
:10CDC000CC81D8F8188048F00108DFF8C091C9F884
:10CDD0001880C846D8F8188008F00108CDF80080FF
:10CDE00000BF00BF4FEAB9384FEA920958F82950FE
:10CDF0004FEA82784FEA18794FF00F0808FA09F8DD
:10CE000025EA0805DFF88881434502D14FF0000884
:10CE100016E0DFF88081434502D14FF001080FE0B2
:10CE2000DFF87481434502D14FF0020808E0DFF8D3
:10CE30006C81434502D14FF0030801E04FF0040834
:10CE40004FEA82794FEA197908FA09F848EA0505A4
:10CE5000DFF84C814FEA920948F82950D1F8048054
:10CE600008F48018B8F5801F0AD1DFF83881D8F8A7
:10CE7000008048EA0008DFF82C91C9F8008009E03A
:10CE8000DFF82081D8F8008028EA0008DFF8149144
:10CE9000C9F80080D1F8048008F40018B8F5001F24
:10CEA00010D1DFF8008108F10408D8F8008048EAC2
:10CEB0000008DFF8F09000E05AE009F10409C9F831
:10CEC00000800DE0DFF8DC8008F10408D8F800806D
:10CED00028EA0008DFF8CC9009F10409C9F80080BD
:10CEE000D1F8048008F40038B8F5003F0ED1DFF81F
:10CEF000B480A8F10408D8F8008048EA0008DFF8F8
:10CF0000A490A9F10409C9F800800DE0DFF894802D
:10CF1000A8F10408D8F8008028EA0008DFF8849017
:10CF2000A9F10409C9F80080D1F8048008F4803818
:10CF3000B8F5803F0ED1DFF86C80A8F10808D8F86A
:10CF4000008048EA0008DFF85C90A9F10809C9F8F8
:10CF500000800DE0DFF84C80A8F10808D8F80080C8
:10CF600028EA0008DFF83C90A9F10809C9F8008018
:10CF7000521CD1F8008028FA02F8B8F1000F7FF4B3
:10CF800089AEBDE8F88700000000111000100240D3
:10CF900000080140000C0140001001400014014055
:10CFA000080001400804014003480068034909786B
:10CFB00008440149086070474001002048010020F2
:10CFC00010B50848006840F01000064908600320CA
:10CFD00000F0DCF80F2000F007F800F05FF8002008
:10CFE00010BD0000002002402DE9F04188B0044649
:10CFF0000027B846002600BF2348C06940F0200043
:10D000002149C8610846C06900F02000019000BFB6
:10D0100000BF02A903A800F0B3FB069F1FB900F0F0
:10D02000D7FB054602E000F0D3FB45001748B5FBEF
:10D03000F0F0A0F1010816481649086040F2E73107
:10D040001448C160C0F804800021016181608161E1
:10D0500001F0F9FC064696B90E4801F029FD064696
:10D060006EB9372000F044F8102C07D20022214678
:10D07000372000F04DF80848046000E001263046F3
:10D0800008B0BDE8F08100000010024040420F00EF
:10D0900000140040C45400204401002008B500BF23
:10D0A0001148806940F001000F4988610846806995
:10D0B00000F00100009000BF00BF00BF0846C0693B
:10D0C00040F08050C8610846C06900F08050009070
:10D0D00000BF00BF00BF0549486820F0E06000BF06
:10D0E000486000BF08BD0000001002400000014081
:10D0F00001460846002809DB00F01F0301229A4080
:10D1000043099B0003F1E023C3F8002100BF7047EF
:10D110002DE9F05F80460D461646002707F096F988
:10D12000074639462A46334601F00700C0F1070A90
:10D13000BAF1040F02D94FF0040A01E0C0F1070A66
:10D14000D14600F1040ABAF1070F02D24FF0000AEB
:10D1500001E0A0F1030AD4464FF0010A0AFA09FAE5
:10D16000AAF1010A0AEA020A0AFA0CFA4FF0010BC4
:10D170000BFA0CFBABF1010B0BEA030B4AEA0B04B5
:10D180002146404607F06AF9BDE8F09F00BF00F075
:10D190000702064B19684FF6FF031940044B0B4377
:10D1A00043EA0221014B196000BF70470CED00E01B
:10D1B0000000FA0500BF00BF00BF00BF00BFBFF303
:10D1C0004F8F00BF00BF00BF0948006800F4E06057
:10D1D00008490843001D0649086000BF00BF00BFA2
:10D1E000BFF34F8F00BF00BF00BF00BF00BFFDE710
:10D1F0000CED00E00000FA052DE9F84F80464FF0F5
:10D20000000900250026AB46AA460027002400207E
:10D210000090B8F1040F59D006DCB8F1010F76D0B8
:10D22000B8F1020F74D1BFE0B8F1080F72D0B8F1B5
:10D23000100FF7D165484468006800F0807000283E
:10D2400043D06348C4F38341465C04F4803058B350
:10D250005E48C06A00F00F005E4911F800905B481C
:10D26000C06A00F48030A0B15848C06AC0F303100F
:10D27000471C5648C06AC0F3032000F1020B564811
:10D28000B0FBF7F000FB0BF0B0FBF9F000FB06F58C
:10D2900004E05148B0FBF9F000FB06F54C48407B38
:10D2A000B04204D16D0802E04C4806FB00F5474847
:10D2B000406800F48000B0F5800F01D1009504E0D3
:10D2C00068000321B0FBF1F000907AE03F48C06AAB
:10D2D00000F4003018B900F09BFA009016E03B48CB
:10D2E000006800F0805088B13848C06AC0F303106D
:10D2F000471C3648C06AC0F3033000F1020A3648C2
:10D30000B0FBF7F000FB0AF04000009059E022E08B
:10D3100056E0FFE72D48C06A00F4802018B900F0FD
:10D3200077FA009016E02948006800F0805088B134
:10D330002648C06AC0F30310471C2448C06AC0F3E3
:10D34000033000F1020A2448B0FBF7F000FB0AF0BA
:10D350004000009035E01D48046A04F44070B0F5C8
:10D36000807F06D104F0020018B14FF40040009015
:10D3700019E004F44070B0F5007F08D11348406A0A
:10D3800000F0020018B149F6404000900BE004F4B0
:10D390004070B0F5407F06D10C48006800F40030C2
:10D3A00008B10F4800900CE000F022FA07494968E4
:10D3B000C1F38131491C4900B0FBF1F0009000E05D
:10D3C00000BF00BF0098BDE8F88F000000100240C9
:10D3D000B2160208C016020840787D0100093D001F
:10D3E000F0FA02002DE9F843044600260025002744
:10D3F000207800F0010000286ED0A8467948C06966
:10D4000000F0805078B900BF7648C06940F0805085
:10D410007449C8610846C06900F08050009000BFA0
:10D4200000BF4FF001087048006800F48070B8B980
:10D430006D48006840F480706B490860FEF7E2FFB9
:10D44000064607E0FEF7DEFF801B642802D90320B2
:10D45000BDE8F8836448006800F480700028F1D0CB
:10D460006048006A00F440752DB3A08800F4407055
:10D47000A84220D05B48006A20F4407501205B4937
:10D480000860002008605748056205F0010090B16F
:10D49000FEF7B8FF064608E0FEF7B4FF801B41F236
:10D4A0008831884201D90320D2E74E48006A00F053
:10D4B00002000028F0D04B48006A20F440706168F8
:10D4C000084348490862B8F1010F04D10846C06911
:10D4D00020F08050C86100BF207800F002000228D0
:10D4E00007D14048406820F44040A16808433D49C6
:10D4F0004860207800F00400042807D13948C06A49
:10D5000020F40030E16808433649C862207800F012
:10D510000800082807D13348C06A20F48020216918
:10D5200008433049C8622F48C06A00F4003020B96F
:10D530002C48C06A00F4802000B10127012F41D19E
:10D540002848006800F0805090BB2648006800F032
:10D55000806040B12348C06A00F0F001A0698142B8
:10D5600001D0012074E71F48C06A20F0F000A169D3
:10D5700008431C49C8620846C06A20F470406169CB
:10D5800008431849C862012019490867FEF73AFFA5
:10D59000064606E0FEF736FF801B642801D903200B
:10D5A00056E71048006800F000500028F2D009E06B
:10D5B000FFE70C48C06A00F470406169884201D0FE
:10D5C000012045E7207800F01000102807D1054819
:10D5D000406820F48000E169084302494860002067
:10D5E00036E7000000100240007000404004424254
:10D5F0000000424270B504460D460CB9012070BDD2
:10D600005A48006800F00700A8420ED25748006848
:10D6100020F007002843554908600846006800F0DC
:10D620000700A84201D00120E9E7207800F00200BD
:10D6300002281DD1207800F00400042805D14C48B0
:10D64000406840F4E0604A494860207800F00800F3
:10D65000082805D14648406840F460504449486075
:10D660004348406820F0F000A16808434049486002
:10D67000207800F0010078B36068012806D13C48AA
:10D68000006800F4003090B90120B8E76068022813
:10D6900006D13748006800F0007040B90120AEE7BD
:10D6A0003348006800F0020008B90120A7E73048BD
:10D6B000406820F00300616808432D494860FEF788
:10D6C000A1FE064609E0FEF79DFE801B41F288316F
:10D6D000884202D9032092E707E02548406800F01D
:10D6E0000C006168B0EB810FEDD12048006800F0BC
:10D6F0000700A8420ED91D48006820F00700284303
:10D700001A4908600846006800F00700A84201D0E6
:10D71000012074E7207800F00400042807D11448A1
:10D72000406820F4E060E1680843114948602078CF
:10D7300000F00800082808D10D48406820F4605027
:10D74000216940EAC1000A49486000F061F80849CF
:10D750004968C1F30311074A515CC8400649086093
:10D7600006480068FFF740FC002048E70020024020
:10D7700000100240D01602084C0100204401002095
:10D780000F2202600D4A526802F0030242600B4A07
:10D79000526802F0F0028260084A526802F4E062C5
:10D7A000C260064A526802F46052D2080261044A1A
:10D7B000126802F007020A60704700000010024081
:10D7C0000020024001480068704700004C01002022
:10D7D00000B5FFF7F7FF04494968C1F30221034A86
:10D7E000515CC84000BD000000100240E016020875
:10D7F00000B5FFF7E7FF04494968C1F3C221034AB6
:10D80000515CC84000BD000000100240E016020854
:10D810002DE9FE4F4FF00009CB46CA4600240020F8
:10D820000290019000902F48D0F8049009F00C006D
:10D8300000284FD0042802D008284AD102E02A4804
:10D8400002904AE02948C9F38341445C09F48030DE
:10D85000C0B32448C06A00F00F00254911F800B099
:10D860002048C06A00F4803008B31E48C06AC0F384
:10D870000310401C01901B48C06AC0F30320801CA9
:10D8800000900198A0FB0B50064617490098A1FB99
:10D8900000120023A1FB047C02FB04C201FB032154
:10D8A0002A4633463846F2F7E9FC824603E00E4842
:10D8B0006043B0FBFBFA0D48407BA04206D14FEA23
:10D8C0005A0A03E0FFE70B4804FB00FACDF808A072
:10D8D00003E000BF0848029000BF00BF0298BDE807
:10D8E000FE8F00000010024040787D01941602086F
:10D8F000A216020800093D0000127A00F8B504469D
:10D900000CB90120F8BD207800F00100002878D083
:10D91000FD48406800F00C0004280CD0FA4840682C
:10D9200000F00C00082811D1F748406800F480305E
:10D93000B0F5803F0AD1F448006800F400300028B8
:10D940005FD0A06800285CD10120DBE700BFA068A1
:10D95000B0F5803F06D1EC48006840F48030EA49D9
:10D96000086028E0A06858B9E748006820F48030D3
:10D97000E54908600846006820F4802008601AE045
:10D98000A068B0F5A02F0BD1DF48006840F48020DC
:10D99000DD4908600846006840F4803008600AE00D
:10D9A000D948006820F48030D749086008460068EC
:10D9B00020F48020086000BFA06888B1FEF722FD37
:10D9C000054606E0FEF71EFD401B642801D9032032
:10D9D00098E7CD48006800F400300028F2D010E04D
:10D9E000FEF710FD054606E0FEF70CFD401B64281F
:10D9F00001D9032086E7C448006800F400300028FD
:10DA0000F2D1207800F00200022857D1BE484068C9
:10DA100000F00C0050B1BC48406800F00C00082831
:10DA200018D1B948406800F4803098B9B648006809
:10DA300000F0020020B16069012801D0012061E7F7
:10DA4000B148006820F0F800A16940EAC100AE4981
:10DA5000086033E06069E8B10120AC490860FEF776
:10DA6000D1FC054606E0FEF7CDFC401B022801D99B
:10DA7000032047E7A448006800F002000028F2D025
:10DA8000A148006820F0F800A16940EAC1009E4961
:10DA9000086013E000209D490860FEF7B3FC0546CE
:10DAA00006E0FEF7AFFC401B022801D9032029E75E
:10DAB0009548006800F002000028F2D1207800F0BC
:10DAC000080008282DD1E069B8B10120904908600C
:10DAD000FEF798FC054606E0FEF794FC401B022882
:10DAE00001D903200EE78848406A00F002000028B0
:10DAF000F2D0012003F0EAFC13E000208449086022
:10DB0000FEF780FC054606E0FEF77CFC401B022881
:10DB100001D90320F6E67C48406A00F002000028A4
:10DB2000F2D1207800F00400042873D10027764851
:10DB3000C06900F0805070B900BF7348C06940F000
:10DB400080507149C8610846C06900F0805000905B
:10DB500000BF00BF01276F48006800F48070B0B9B3
:10DB60006C48006840F480706A490860FEF74AFC1F
:10DB7000054606E0FEF746FC401B642801D9032059
:10DB8000C0E66448006800F480700028F2D000BF4E
:10DB90002069012806D15C48006A40F001005A491A
:10DBA000086227E0206958B95748006A20F0010050
:10DBB000554908620846006A20F00400086219E02E
:10DBC000206905280BD15048006A40F004004E49F6
:10DBD00008620846006A40F0010008620AE04A480C
:10DBE000006A20F00100484908620846006A20F0F7
:10DBF0000400086200BF2069A0B1FEF703FC0546DF
:10DC000009E0FEF7FFFB401B41F28831884202D950
:10DC1000032077E622E03C48006A00F0020000287A
:10DC2000EFD012E0FEF7EEFB054608E0FEF7EAFB58
:10DC3000401B41F28831884201D9032062E6324814
:10DC4000006A00F002000028F0D1012F05D12E4813
:10DC5000C06920F080502C49C86100BFE06AA0B3C1
:10DC60002948406800F48030B0F5803F0ED1264846
:10DC7000406800F00C00082808D12348C06A00F46E
:10DC80008030B0F5803F01D101203BE6E06A0228F8
:10DC900050D11D48006800F0805040B11A48C06A59
:10DCA00000F0F001606B814201D001202AE60020E3
:10DCB00016498866FEF7A6FB054607E0FEF7A2FBBD
:10DCC000401B642802D903201CE64DE00E48006882
:10DCD00000F000600028F1D10B48C06A20F0F0008D
:10DCE000616B08430849C8620846C06A20F4706046
:10DCF000216B08430449C862012004498866FEF785
:10DD000081FB05460FE00000001002400000424287
:10DD10008004424200700040FEF774FB401B642800
:10DD200001D90320EEE54E48006800F000600028AD
:10DD3000F2D019E04A48C06A20F480304849C862ED
:10DD4000002048498866FEF75DFB054606E0FEF7C1
:10DD500059FB401B642801D90320D3E540480068E3
:10DD600000F000600028F2D1206AE0B33C4840682F
:10DD700000F00C0008285ED0206A022846D100205E
:10DD800038490866FEF73EFB054606E0FEF73AFB1B
:10DD9000401B022801D90320B4E53148006800F097
:10DDA00000700028F2D1606AB0F5803F0DD12C4898
:10DDB000C06A616808432A49C8620846C06A20F000
:10DDC0000F00E16808432649C862D4E90901084305
:10DDD0002349496821F4741108432149486001200E
:10DDE0002049086600E038E0FEF70CFB054606E037
:10DDF000FEF708FB401B022801D9032082E51848E2
:10DE0000006800F000700028F2D026E000201549DC
:10DE10000866FEF7F7FA054606E0FEF7F3FA401B40
:10DE2000022801D903206DE50D48006800F000705C
:10DE30000028F2D111E0206A012800D162E50848EB
:10DE4000466806F48031606A814204D106F470119C
:10DE5000A06A814201D0012054E5002052E5000073
:10DE60000010024000004242F8B505460C46164636
:10DE70000020009005B10CB90120F8BD00226946D0
:10DE8000284600F01AF808B10120F6E7287B207038
:10DE9000E87BE070687B6070A87BA0705EB1E07882
:10DEA00003F033FBE070607803F02FFB6070A07824
:10DEB00003F02BFBA0700020DFE72DE9F047804640
:10DEC0000C46914600250026AA460027B8F1000F0F
:10DED00000D014B90120BDE8F087D8F800004068F0
:10DEE000C0F3800008B10120F5E7404603F0D4FB01
:10DEF00005464FF46160B5FBF0F7B5FBF0F100FBB0
:10DF000011503C21B0FBF1F060704FF46160B5FB43
:10DF1000F0F100FB11503C21B0FBF1F201FB1200CB
:10DF2000A070182F39D31820B7FBF0FAB7FBF0F127
:10DF300000FB11702070404603F0A2FB0646701CE7
:10DF400018B1AE4201D9761B01E04FF0FF360AEB63
:10DF50004A00C000C0EB4011C1EB0020A5EB00154A
:10DF60002946404603F00BFC08B10120B3E7701CC2
:10DF700038B12E443146404603F0EAFB40B101205F
:10DF8000A9E73146404603F0E3FB08B10120A2E7D0
:10DF90005146404603F0C6FA00E02770B9F1000F81
:10DFA0000BD0207803F0B1FA2070607803F0ADFA5E
:10DFB0006070A07803F0A9FAA07000208BE7000041
:10DFC00070B5044600250CB9012070BD607C20B9F5
:10DFD00000202074204600F053F802206074204690
:10DFE00000F058F918B1042060740120EDE72046D4
:10DFF00003F0F3FA18B1042060740120E5E720680B
:10E00000406820F0070021684860A06828B11B48DC
:10E01000006820F00100194908601848001F0068D6
:10E0200020F46070A16808431449091F0860606803
:10E03000401C08B1656809E00120FFF7DDF80546DE
:10E040001DB9042060740120BFE76D1EC5F30340B5
:10E0500021688860A8B22168C860204603F0DAFA17
:10E0600018B1042060740120AFE70021E1730121A1
:10E070006173A173012060740020A6E7306C00403A
:10E0800038B504460B492068884212D1FEF7C2F920
:10E0900000BF0948C06940F000600749C8610846F0
:10E0A000C06900F00060009000BF00BF012003497C
:10E0B000086038BD00280040001002403C04424285
:10E0C0002DE9F04704460D46904600260027B1464C
:10E0D00004B115B90120BDE8F08700BF207C0128FC
:10E0E00001D10220F7E70120207400BF02206074F4
:10E0F000B8F1000F06D1E978E17369786173A97806
:10E10000A1730BE0E87803F0F5F9E073687803F0A9
:10E11000F1F96073A87803F0EDF9A073A27B617B3D
:10E12000E07B03F0D3FA2073207B2870204603F0B5
:10E13000B3FA06464FF46160B6FBF0F9B9F1180F77
:10E140002FD91820B9FBF0F000EB4000C000C0EB65
:10E150004011C1EB0020A6EB00163146204603F02B
:10E160000EFB38B10420607400BF0020207400BF93
:10E170000120B0E7204603F083FA0746781C80B1FF
:10E18000B7420ED20B4807443946204603F0E0FA66
:10E1900038B10420607400BF0020207400BF01204B
:10E1A00099E70120607400BF0020207400BF00BF09
:10E1B00091E70000805101002DE9F04704460D462B
:10E1C00090460026002704B115B90120BDE8F0876C
:10E1D00000BF207C012801D10220F7E70120207434
:10E1E00000BF02206074B8F1000F0BD128784FF403
:10E1F000616148436978C1EB011100EB8100A978A6
:10E20000461812E0287803F075F94FF4616100FBBD
:10E2100001F9687803F06EF9C0EB001009EB800992
:10E22000A87803F067F909EB00063146204603F0B1
:10E23000A6FA38B10420607400BF0020207400BF2B
:10E240000120C3E72068406820F00500216848608D
:10E25000204603F015FA0746781C80B1B7420ED26B
:10E260000B4807443946204603F072FA38B10420BF
:10E27000607400BF0020207400BF0120A6E70120C9
:10E28000607400BF0020207400BF00BF9EE7000044
:10E290008051010070B5044600250CB9012070BD05
:10E2A0002068406820F0080021684860FEF7AAF85E
:10E2B000054607E0FEF7A6F8401BB0F57A7F01D9C6
:10E2C0000320ECE72068406800F008000028F1D047
:10E2D0000020E4E7014691F85100704710B504466C
:10E2E0000CB9012010BD606A38B96068B0F5827F52
:10E2F00000D105E00021E16102E0002121616161BE
:10E300000021A16294F8510028B9002084F850003F
:10E31000204600F043F8022084F85100206800688D
:10E3200020F0400021680860A08800F482702189F4
:10E3300001F404410843A18901F400610843217CF0
:10E3400001F002010843217D01F001010843218B06
:10E3500001F400710843217F01F0380108432021B6
:10E36000095D01F080010843218D01F4005108434B
:10E37000216808600421A06901EA10402168486012
:10E380002068C06920F400602168C86100206065D1
:10E39000012084F851000020A4E7000010B586B0E9
:10E3A00004460020029003900490059034492068B0
:10E3B00088422ED100BF3348806940F480503149F3
:10E3C00088610846806900F48050019000BF00BF5A
:10E3D00000BF0846806940F00400886108468069F3
:10E3E00000F00400019000BF00BFA02002900220B6
:10E3F00003900320059002A92348FEF745FC402026
:10E40000029000200390049002A91F48FEF73CFCF4
:10E4100033E01E49206888422FD100BF1948C069E7
:10E4200040F480401749C8610846C06900F4804044
:10E43000019000BF00BF00BF0846806940F008009F
:10E4400088610846806900F00800019000BF00BFA5
:10E450004FF420400290022003900320059002A96F
:10E460000B48FEF711FC4FF480400290002003900F
:10E47000049002A90648FEF707FC06B010BD000094
:10E480000030014000100240000801400038004008
:10E49000000C01402DE9F8430446884616461D4607
:10E4A0004FF0000994F85100012802D04FF0020902
:10E4B000A8E06068B0F5827F0DD1A06858B904204B
:10E4C00084F851003346424641462046009500F00C
:10E4D0007EF9BDE8F88300BF94F85000012801D10F
:10E4E0000220F6E7012084F8500000BFFDF78AFF04
:10E4F0000746B8F1000F00D016B94FF0010981E0CE
:10E50000042084F8510000206065C4F83880A68794
:10E51000E6872063A086E08620646064A068B0F58A
:10E52000004F0BD12068006820F04000216808608F
:10E530002068006820F48040216808602068006836
:10E5400000F04000402805D02068006840F04000FE
:10E5500021680860E06810BB1DE02068806800F05A
:10E56000010050B12068007BA16B0870A06B401CBB
:10E57000A063E08F401EE0870DE0FDF743FFC01B66
:10E58000A84201D3681C00B92DB94FF0030901203E
:10E5900084F8510036E0E08F0028DED121E01DE054
:10E5A0002068806800F0010050B12068C068A16B4D
:10E5B0000880A06B801CA063E08F401EE0870DE008
:10E5C000FDF720FFC01BA84201D3681C00B92DB97C
:10E5D0004FF00309012084F8510013E0E08F002878
:10E5E000DED13A462946204603F0E0F808B1202063
:10E5F0006065606D10B14FF0010902E0012084F800
:10E60000510000BF00BF002084F8500000BF484602
:10E610005FE72DE9F84F0446884616461D464FF041
:10E62000000A00BF94F85000012802D10220BDE882
:10E63000F88F012084F8500000BFFDF7E3FE074685
:10E64000B14694F85100012802D04FF0020AB7E019
:10E65000B8F1000F00D016B94FF0010AB0E0032066
:10E6600084F8510000206065C4F83080A686E686F4
:10E67000A063A087E08760642064A068B0F5004FC5
:10E680000BD12068006820F04000216808602068F5
:10E69000006840F48040216808602068006800F04D
:10E6A0004000402805D02068006840F04000216804
:10E6B0000860E068B0F5006F32D1606810B1B9F160
:10E6C000010F09D1206B00882168C860206B801C75
:10E6D0002063E08E401EE0861EE02068806800F027
:10E6E000020002280AD1206B00882168C860206BD4
:10E6F000801C2063E08E401EE0860DE0FDF782FE68
:10E70000C01BA84201D3681C00B92DB94FF0030A01
:10E71000012084F8510053E0E08E0028DDD131E083
:10E72000606810B1B9F1010F09D1206B0078216840
:10E730000873206B401C2063E08E401EE0861EE0C4
:10E740002068806800F0020002280AD1206B00785F
:10E7500021680873206B401C2063E08E401EE08619
:10E760000DE0FDF74FFEC01BA84201D3681C00B9A5
:10E770002DB94FF0030A012084F8510020E0E08E0B
:10E780000028DDD13A462946204603F04BF808B16F
:10E7900020206065A06850B900BF0020009020686C
:10E7A000C068009020688068009000BF00BF606D66
:10E7B00010B14FF0010A02E0012084F8510000BFBF
:10E7C00000BF002084F8500000BF50462FE72DE91D
:10E7D000FF5F0446884691461D460E9E012002902A
:10E7E0000020019000BF94F85000012803D10220BE
:10E7F00004B0BDE8F09F012084F8500000BFFDF791
:10E8000001FE074694F851B060680390AA46BBF138
:10E81000010F0BD00398B0F5827F04D1A06810B926
:10E82000BBF1040F02D002200190E9E0B8F1000F23
:10E8300003D0B9F1000F00D015B901200190DFE03D
:10E8400094F85100042802D0052084F851000020DB
:10E850006065C4F83890E587A587C4F83080E58600
:10E86000A586206460642068006800F040004028AD
:10E8700005D02068006840F0400021680860E0682A
:10E88000B0F5006F4DD1606810B1BAF1010F09D138
:10E89000206B00882168C860206B801C2063E08E9C
:10E8A000401EE08636E02068806800F00200022802
:10E8B00010D1E08E70B1029801280BD1206B008836
:10E8C0002168C860206B801C2063E08E401EE086BB
:10E8D000002002902068806800F0010068B1E08F9D
:10E8E00058B12068C068A16B0880A06B801CA06331
:10E8F000E08F401EE08701200290FDF783FDC01BE2
:10E90000B04207D3701C28B103200190012084F885
:10E91000510075E0E08E0028C5D1E08F0028C2D1FB
:10E920004DE0606810B1BAF1010F09D1206B007899
:10E9300021680873206B401C2063E08E401EE08637
:10E9400037E02068806800F00200022810D1E08ED5
:10E9500070B1029801280BD1206B007821680873F0
:10E96000206B401C2063E08E401EE0860020029059
:10E970002068806800F0010068B1E08F58B120681D
:10E98000C068A16B0870A06B401CA063E08F401EA4
:10E99000E08701200290FDF735FDC01BB04201D396
:10E9A000701C00B92EB903200190012084F8510099
:10E9B00026E0E08E0028C4D1E08F0028C1D13A467D
:10E9C0003146204602F02EFF20B101200190202088
:10E9D000606515E0A06850B900BF00200090206875
:10E9E000C068009020688068009000BF00BF606D24
:10E9F00010B10120019002E0012084F8510000BF15
:10EA000000BF002084F8500000BF0198F0E670B508
:10EA100004462546681EB0F1807F01D301200FE037
:10EA2000681E4FF0E02148610F214FF0FF3005F0E4
:10EA300015FD00204FF0E0218861072008610020CB
:10EA400070BD7047704710B504460CB9012010BD69
:10EA500094F83D0028B9002084F83C00204600F0DE
:10EA600025F8022084F83D00211D206803F0B6FB44
:10EA7000012084F8460000BF84F83E0001213F20B9
:10EA80000155402001554120015500BF00BF012024
:10EA900084F842004320015544200155452001558A
:10EAA00000BF012084F83D000020D0E7704700003F
:10EAB000014691F83D00012801D001207047022055
:10EAC00081F83D000868C06840F001000B68D8601C
:10EAD000144B086898420FD00868B0F1804F0BD0F3
:10EAE000114B0868984207D0104B0868984203D031
:10EAF0000F4B086898420CD10868806800F0070244
:10EB0000062A0CD00868006840F001000B68186005
:10EB100005E00868006840F001000B6818600020FC
:10EB2000CCE70000002C0140000400400008004039
:10EB3000000C0040704710B5044620680069C0F31F
:10EB40004000D8B12068C068C0F34000B0B16FF099
:10EB5000020021680861012020772068806900F0A8
:10EB6000030018B12046FFF7E5FF05E0204600F05E
:10EB7000ADF8204600F0ABF800202077206800694F
:10EB8000C0F38000D8B12068C068C0F38000B0B185
:10EB90006FF00400216808610220207720688069F6
:10EBA00000F4407018B12046FFF7C4FF05E020468E
:10EBB00000F08CF8204600F08AF8002020772068CA
:10EBC0000069C0F3C000D8B12068C068C0F3C000BD
:10EBD000B0B16FF008002168086104202077206838
:10EBE000C06900F0030018B12046FFF7A3FF05E05D
:10EBF000204600F06BF8204600F069F800202077EE
:10EC000020680069C0F30010D8B12068C068C0F364
:10EC10000010B0B16FF01000216808610820207763
:10EC20002068C06900F4407018B12046FFF782FFE9
:10EC300005E0204600F04AF8204600F048F80020A1
:10EC400020772068006900F0010058B12068C06892
:10EC500000F0010030B16FF001002168086120462A
:10EC600000F036F820680069C0F3C01058B1206881
:10EC7000C068C0F3C01030B16FF080002168086137
:10EC80002046FFF7DEFE20680069C0F3801058B10F
:10EC90002068C068C0F3801030B16FF04000216878
:10ECA0000861204600F020F820680069C0F3401099
:10ECB00058B12068C068C0F3401030B16FF0200038
:10ECC000216808612046FFF7BDFE10BD7047704700
:10ECD00010B5044603492068884201D1FEF764F963
:10ECE00010BD0000001400407047704770B5044626
:10ECF000002520684069C0F3C01594F84100212820
:10ED000017D1B5B100BF00BF2168143151E8001F11
:10ED100021F080002168143141E80002002AF3D17B
:10ED200000BFA06B10B1A06BFDF72FFB204604F0D5
:10ED300076F920684069C0F3801594F842002228D3
:10ED400017D1B5B100BF00BF2168143151E8001FD1
:10ED500021F040002168143141E80002002AF3D17B
:10ED600000BFE06B10B1E06BFDF70FFB204604F035
:10ED700010F9002070BD70472DE9F84F0446206857
:10ED800005682068C668206847694FF00009CA46D0
:10ED900005F00F09B9F1000F0AD105F0200038B1D4
:10EDA00006F0200020B1204604F04CF9BDE8F88FB1
:10EDB000B9F1000F7BD007F0010018B906F490708C
:10EDC000002874D005F0010030B106F4807018B14D
:10EDD000606C40F00100606405F0040030B107F0A1
:10EDE000010018B1606C40F00200606405F00200A0
:10EDF00030B107F0010018B1606C40F004006064AD
:10EE000005F0080048B106F0200010B907F0010035
:10EE100018B1606C40F008006064606C002845D058
:10EE200005F0200028B106F0200010B1204604F0C3
:10EE300009F920684069C0F3801A606C00F008008E
:10EE400010B9BAF1000F2CD0204604F0A2F82068C7
:10EE5000406900F0400000B300BF00BF21681431DA
:10EE600051E8001F21F040002168143141E8000200
:10EE7000002AF3D100BFE06B50B17748E16B4863E3
:10EE8000E06BFDF737FB88B1E06B416B88470DE025
:10EE90002046FFF770FF09E009E02046FFF76BFF0F
:10EEA00004E02046FFF767FF002060647EE7206BE8
:10EEB000012877D105F01000002873D006F010006B
:10EEC0000028FAD000BF0020009020680068009061
:10EED00020684068009000BF00BF2068406900F0D3
:10EEE000400000285FD0E06B006840681FFA80F89F
:10EEF000B8F1000F55D0A08D404552DDA4F82E800A
:10EF0000E06B8069202843D000BF00BF21680C312E
:10EF100051E8001F21F4807021680C3141E80002A3
:10EF2000002AF3D100BF00BF00BF2168143151E8AF
:10EF3000001F21F001002168143141E80002002A7D
:10EF4000F3D100BF00BF00BF2168143151E8001F9A
:10EF500021F040002168143141E80002002AF3D179
:10EF600000BF202084F842000020206300BF00BFC3
:10EF700021680C3151E8001F21F0100021680C318C
:10EF800041E80002002AF3D100BFE06BFDF7FDF974
:10EF900002206063A08DE28D801A81B22046FFF7C7
:10EFA000A4FE03E742E0A08DE18D401A1FFA80F82D
:10EFB000E08DD0B3B8F1000F37D000BF00BF21689B
:10EFC0000C3151E8001F21F4907021680C3141E8A8
:10EFD0000002002AF3D100BF00BF00BF2168143136
:10EFE00051E8001F21F001002168143141E80002BE
:10EFF000002AF3D100BF202084F8420000202063C3
:10F0000000BF00BF21680C3151E8001F21F0100043
:10F0100021680C3141E80002002AF3D100BF022030
:10F02000606341462046FFF760FEBFE605F08000C2
:10F0300030B106F0800018B1204604F063F9B5E65F
:10F0400005F0400030B106F0400018B1204603F052
:10F05000D6FFABE600BFA9E6F12D010810B50446C6
:10F060000CB9012010BDA06900B100E000BF94F808
:10F07000410028B9002084F84000204600F02AF81A
:10F08000242084F841002068C06820F400502168E2
:10F09000C860204604F054F82068006920F49040CD
:10F0A000216808612068406920F02A0021684861D1
:10F0B0002068C06840F400502168C8600020606487
:10F0C000202084F8410084F842000020606300BFE3
:10F0D000C8E7000010B586B00446002002900390F7
:10F0E00004900590FE49206888426AD100BFFD481F
:10F0F000C06940F40020FB49C8610846C06900F4BB
:10F100000020019000BF00BF00BF0846806940F0AA
:10F11000100088610846806900F01000019000BF6F
:10F1200000BF08150290022003900320059002A959
:10F13000ED48FDF7A9FD4FF4006002900020039018
:10F14000049002A9E848FDF79FFDE848E8490860F7
:10F15000002048600021E64881608021C1600021D4
:10F16000016141618161C161FDF76AF908B1FCF794
:10F170004BF800BFDE48E063446200BFDB48283044
:10F18000DC490860102048600021DA488160802155
:10F19000C1600021016141618161C161FDF750F9E8
:10F1A00008B1FCF731F800BFD248A063446200BF49
:10F1B000002202213420FDF7ABFF3420FDF798FF39
:10F1C000CAE1CD49206888423BD100BFC548C0692B
:10F1D00040F48010C349C8610846C06900F480103B
:10F1E000019000BF00BF00BF0846806940F01000DA
:10F1F00088610846806900F01000019000BF00BFE0
:10F2000000BF0846806940F0200088610846806998
:10F2100000F02000019000BF00BF8814029002207F
:10F2200003900320059002A9AF48FDF72DFD0420AF
:10F23000029000200390049002A9B048FDF724FD3D
:10F240008AE1AF49206888426AD100BFA548806939
:10F2500040F48040A34988610846806900F48040FA
:10F26000019000BF00BF00BF0846806940F0040065
:10F2700088610846806900F00400019000BF00BF6B
:10F2800048150290022003900320059002A99D4892
:10F29000FDF7FAFC4FF48060029000200390049088
:10F2A00002A99848FDF7F0FC9748984908600020AB
:10F2B00048600021954881608021C1600021016182
:10F2C00041618161C161FDF7BBF808B1FBF79CFFAB
:10F2D00000BF8E48E063446200BF8B4814388C49FD
:10F2E0000860102048600021894881608021C16049
:10F2F0000021016141618161C161FDF7A1F808B19F
:10F30000FBF782FF00BF8248A063446200BF002277
:10F3100002212520FDF7FCFE2520FDF7E9FE1BE17B
:10F320007C492068884274D100BF6E48C06940F4AF
:10F3300000306C49C8610846C06900F40030019093
:10F3400000BF00BF00BF0846806940F02000886110
:10F350000846806900F02000019000BF00BF202017
:10F360000290022003900320059002A96348FDF754
:10F370008BFC4020029000200390049002A95F487B
:10F38000FDF782FC00BF6449486840F0E06040F04F
:10F390000800486000BF5C481430604908600020E5
:10F3A000486000215D4881608021C16000210161C9
:10F3B00041618161C161FDF743F808B1FBF724FFAA
:10F3C00000BF5648E063446200BF4F4828305449AC
:10F3D0000860102048600021514881608021C16090
:10F3E0000021016141618161C161FDF729F808B126
:10F3F000FBF70AFF00BF4A48A063446200BF002237
:10F4000002212620FDF784FE2620FDF771FEA3E0F1
:10F41000FFE7444920688842F9D100BF3148C069FC
:10F4200040F480202F49C8610846C06900F480205C
:10F43000019000BF00BF00BF0846806940F0200077
:10F4400088610846806900F02000019000BF00BF7D
:10F4500088150290022003900320059002A92748F6
:10F46000FDF712FC4FF4007002900020039004900E
:10F4700002A92248FDF708FC00BF2749486820F090
:10F48000300040F0E06040F03000486000BF1E48AF
:10F490002838254908600020486000212248816002
:10F4A0008021C1600021016141618161C161FCF77E
:10F4B000C7FF08B1FBF7A8FE00BF1B48E06344622A
:10F4C00000BF11483C3819490860102048600021ED
:10F4D000164881608021C16000210161416127E0FF
:10F4E000004C004000100240001001403004024077
:10F4F000904D0020D44D00200050004000140140E9
:10F50000003801400008014058000240184E002019
:10F510005C4E00200044004000000140A04E00204E
:10F52000E44E002000480040284F00206C4F00208F
:10F530008161C161FCF784FF08B1FBF765FE00BF84
:10F540000648A063446200BF002202212720FDF785
:10F55000DFFD2720FDF7CCFD06B010BD6C4F00206D
:10F5600070B504460D46164694F8420020280BD18B
:10F5700005B10EB9012070BD002020633246294636
:10F58000204603F05BFEF6E70220F4E77047704781
:10F590002DE9F84F04460E46174699464FF0000AEB
:10F5A00094F8410020284AD106B117B90120BDE8DE
:10F5B000F88F00206064212084F84100FCF722FFCE
:10F5C0008246A784E784A068B0F5805F04D12069F3
:10F5D00010B90025B04602E035464FF000081BE0A8
:10F5E0005346002280212046CDF8009003F0BAFE59
:10F5F00008B10320DBE745B9B8F80000C0F3080004
:10F600002168486008F1020803E028782168486012
:10F610006D1CE08C401EE084E08C0028E0D1534655
:10F62000002240212046CDF8009003F09BFE08B157
:10F630000320BCE7202084F841000020B7E7022027
:10F64000B5E70000F7B50446154694F841002028B8
:10F6500036D1019800B10DB90120FEBD019820629C
:10F66000A584E58400206064212084F841001548C9
:10F67000A16B88621448A16BC8621448A16B08632F
:10F680000020A16B486301AE23681A1D31682B4628
:10F69000A06BFDF7CFF96FF040002168086000BF54
:10F6A00000BF2168143151E8001F41F0800021683B
:10F6B000143141E80002002AF3D100BF0020CCE75A
:10F6C0000220CAE72D2F0108852F0108052E010809
:10F6D00070477047024600201009092803DC00F13A
:10F6E00030030B7006E0092804DD102802DA00F16F
:10F6F00061030B7002F00F00092803DC00F13003F6
:10F700004B7006E0092804DD102802DA00F16103DD
:10F710004B70704710B5C3781B06047943EA044365
:10F72000447943EA0423847923431360C3791B0695
:10F73000047A43EA0443447A43EA0423847A234361
:10F740005360C37A1B06047B43EA0443447B43EAC9
:10F750000423847B23439360C37B1B06047C43EA1E
:10F760000443447C43EA0423847C2343D36010BDD8
:10F770001CB5044606A103C9CDE9000124B908213E
:10F780006846FBF7ABFC00E000BF00BF1CBD0000FB
:10F79000010300480008C41A70B505460C46074826
:10F7A0000480224629460648F0F7FEFD03480288F9
:10F7B00003490448FFF746FF70BD0000CC0000205D
:10F7C0009C290020004D002070B505460C461646C9
:10F7D000E1B2214A2846FBF7CDFD1F4800881F49AA
:10F7E00008801D48408848801B48808888801A48C7
:10F7F000C088C880084680884FF6FF71884227D0AD
:10F800001648C088884223D0144880881349C98884
:10F8100088420EDB114800880A2190FBF1F10F4865
:10F82000C0884FF47A72504390FBF1F00B49088185
:10F8300011E00A4800880A2190FBF1F1074880880E
:10F840004FF47A72504390FBF1F00449088102E0D2
:10F8500000200249088170BD860000208829002010
:10F8600010B504462046FBF7A1FD10BD70B5064655
:10F870000C46154606B15DB900BF0FA00DF092F819
:10F8800010A00DF08FF815A00DF08CF800BF70BD22
:10F890005CB900BF08A00DF085F811A00DF082F84A
:10F8A0000EA00DF07FF800BFF1E72A462146304652
:10F8B000FFF78AFF00BFEAE75B572F494E53555DBC
:10F8C00020000000496E7375206E756C6C20706F9F
:10F8D000696E746572206572726F72000A000000B2
:10F8E000496E73752064617461206C656E3D3020D3
:10F8F0006572726F7200000070B505460C461848BC
:10F90000B0F800012044B0F5807F13DD00BF15A0E2
:10F910000DF048F816A00DF045F81FA00DF042F8C4
:10F9200000BF00200E49A1F800014FF480710C487F
:10F93000F0F753FD0A49B1F80011094A8818224628
:10F940002946F0F731FD0648B0F80001204404498B
:10F95000A1F80001114800680DF0ECFC70BD00003A
:10F96000842800205B572F494E53555D200000002E
:10F97000696E737520627566666572206973206EA4
:10F980006F7420656E6F7567682C736F20636C6190
:10F99000657220616C6C00000A000000C800002045
:10F9A00010B504462046FFF75BFF10BD10B50648B2
:10F9B0000069B0F5FA6F05D30220FFF751FF002070
:10F9C0000149086110BD00008829002010B50446D7
:10F9D00014B109F003FF01E009F0F2FE10BD10B50B
:10F9E000044614B109F016FF01E009F005FF10BD4F
:10F9F00010B5044614B109F04DFF01E009F018FFFD
:10FA000010BD10B5044614B109F0A6FF01E009F0DD
:10FA100071FF10BD0EB500200090019002901E48AD
:10FA20001E49086081151D48816001210173002174
:10FA300001754FF46021C16100201849486003211D
:10FA400016480161FBF7A8FD08B1FBF7DDFB0820B4
:10FA50000090012001900720029069460F48FBF7B3
:10FA6000E7FC08B1FBF7D0FB0920009002200190D1
:10FA700069460A48FBF7DCFC08B1FBF7C5FB102020
:10FA800000900320019069460448FBF7D1FC08B1BF
:10FA9000FBF7BAFB0EBD000000240140A04A002085
:10FAA00010B50E480E4908601020486000210C482F
:10FAB0008160C1604FF44031016109014161002161
:10FAC00001764176012181760021C1760177417767
:10FAD000FCF758FA08B1FBF797FB10BD0064004033
:10FAE000144B002010B50F480F49086010204860E3
:10FAF00000210D488160C1604FF4002101614FF485
:10FB0000E0014161002101764176012181760021E9
:10FB1000C17601774177FCF735FA08B1FBF774FB42
:10FB200010BD0000006800403C4B002008B500BF3D
:10FB30003148406940F001002F494861084640695A
:10FB400000F00100009000BF00BF00BF0846406900
:10FB500040F0020048610846406900F00200009051
:10FB600000BF00BF002202210B20FDF7D1FA0B20BD
:10FB7000FDF7BEFA002202210C20FDF7C9FA0C2085
:10FB8000FDF7B6FA002202210D20FDF7C1FA0D2083
:10FB9000FDF7AEFA002202210E20FDF7B9FA0E2081
:10FBA000FDF7A6FA002202210F20FDF7B1FA0F207F
:10FBB000FDF79EFA002202211020FDF7A9FA10207D
:10FBC000FDF796FA002202211120FDF7A1FA11207B
:10FBD000FDF78EFA002211463A20FDF799FA3A20F5
:10FBE000FDF786FA002211463C20FDF791FA3C20F1
:10FBF000FDF77EFA08BD00000010024000B585B098
:10FC00000020019002900390049000BF5A48806940
:10FC100040F04000584988610846806900F0400083
:10FC2000009000BF00BF00BF0846806940F0100090
:10FC300088610846806900F01000009000BF00BF96
:10FC400000BF0846806940F004008861084680696A
:10FC500000F00400009000BF00BF00BF08468069AC
:10FC600040F0080088610846806900F008000090B4
:10FC700000BF00BF00BF0846806940F020008861D7
:10FC80000846806900F02000009000BF00BF0022FD
:10FC900040F67F413948FCF7ADFB002242F21D01DE
:10FCA0003748FCF7A7FB002219213648FCF7A2FBD6
:10FCB00000224FF484513448FCF79CFB40F67F400F
:10FCC000019001200290002003900220049001A9DD
:10FCD0002A48FCF7D9FF42F21D0001900120029052
:10FCE000002003900220049001A92548FCF7CCFFD6
:10FCF000192001900120029000200390022004901E
:10FD000001A92048FCF7C0FF4FF484500190002067
:10FD10000290039001A91948FCF7B6FF4FF48450F4
:10FD2000019001200290002003900220049001A97C
:10FD30001548FCF7A9FF4FF4004001900020029005
:10FD4000039001A91148FCF79FFF4FF470700190D8
:10FD500000200290039001A90948FCF795FF4FF499
:10FD6000C850019000200290039001A90548FCF7BB
:10FD70008BFF05B000BD00000010024000180140DC
:10FD80000010014000080140000C01400014014037
:10FD90001CB50020019000901848194908604FF0E8
:10FDA000FF3048604FF4807115488160FEF708F914
:10FDB00008B1FBF729FA00208DF804008DF8050042
:10FDC0008DF80600002201A90D48FEF7F5F908B1EB
:10FDD000FBF71AFA01208DF800008DF801008DF86C
:10FDE000020000208DF80300002269460448FEF757
:10FDF00067F908B1FBF708FA1CBD000000280040B5
:10FE0000644B002010B50E480E4908604FF4827014
:10FE1000486000210B488160C160016141614FF47D
:10FE2000007181610821C16100210162416281622A
:10FE30000A21C162FEF752FA08B1FBF7E5F910BDDD
:10FE400000300140784B002010B50E480E49086084
:10FE50004FF48270486000210B488160C1600161ED
:10FE600041614FF4007181610021C1610162416211
:10FE700081620A21C162FEF731FA08B1FBF7C4F9C9
:10FE800010BD000000380040D04B002010B50B48DA
:10FE90000B4908604FF461404860002108488160C8
:10FEA000C16001610C21416100218161C161FFF7E5
:10FEB000D5F808B1FBF7A8F910BD0000004C0040D0
:10FEC000284C002010B50B480B4908604FF4E13076
:10FED0004860002108488160C16001610C214161D6
:10FEE00000218161C161FFF7B9F808B1FBF78CF916
:10FEF00010BD000000500040704C002010B50B48B1
:10FF00000B4908604FF49650486000210848816012
:10FF1000C16001610C21416100218161C161FFF774
:10FF20009DF808B1FBF770F910BD000000380140E2
:10FF3000B84C002010B50B480B4908604FF4165020
:10FF40004860002108488160C16001610C21416165
:10FF500000218161C161FFF781F808B1FBF754F915
:10FF600010BD000000440040004D002010B50B48BB
:10FF70000B4908604FF4E130486000210848816077
:10FF8000C16001610C21416100218161C161FFF704
:10FF900065F808B1FBF738F910BD000000480040D3
:10FFA000484D002010B50446207C012872D16348DA
:10FFB000007850B900BF62A00CF0F4FC64A00CF013
:10FFC000F1FC6AA00CF0EEFC00BF207A012838D1C9
:10FFD0005A48007850B900BF59A00CF0E3FC64A067
:10FFE0000CF0E0FC61A00CF0DDFC00BF42F21071EF
:10FFF000E068884212D95148007800280DD100BF2E
:020000040801F1
:100000004FA00CF0CFFC60A00CF0CCFC57A00CF083
:10001000C9FC00BF207C494908708DE04748007842
:100020000028FAD100BF46A00CF0BCFC5EA00CF08A
:10003000B9FC4EA00CF0B6FC00BF207C3F49087014
:100040007AE0207A032839D13C48007850B900BFC3
:100050003BA00CF0A7FC5DA00CF0A4FC43A00CF0AE
:10006000A1FC00BF42F21071E068884213D9334806
:100070000078002860D100BF31A00CF093FC59A09B
:100080000CF090FC39A00CF08DFC00BF207C2B49BB
:10009000087051E04DE02948007800284CD100BF9D
:1000A00027A00CF07FFC40A00CF07CFC2FA00CF0F3
:1000B00079FC00BF207C214908703DE0207A0228AD
:1000C0003AD11E48007850B900BF1DA00CF06AFC60
:1000D0004CA00CF067FC25A00CF064FC00BF42F2C1
:1000E0001071E068884212D914480078002823D1A2
:1000F00000BF13A00CF056FC49A00CF053FC1BA051
:100100000CF050FC00BF207C0C49087014E00B4838
:10011000007888B900BF0AA00CF044FC22A00CF0C3
:1001200041FC12A00CF03EFC00BF207C034908708B
:1001300002E0207C0149087010BD00003B01002056
:100140005B492F4E4554504F52545D200000000033
:100150006D617374657220636865636B206163749D
:100160006976652073746F70000000000A0000005B
:100170006D61737465722073746F70206361726453
:1001800020737461727400006D6173746572206312
:100190006172642073746F7020726561736F6E2C6E
:1001A00074696D656F7574006D6173746572206339
:1001B0006172642073746F7020726561736F6E2C4E
:1001C00067756E20322073746F7000006D617374F8
:1001D00065722073746F702044545520737461727B
:1001E000740000006D61737465722064747520730F
:1001F000746F7020726561736F6E2C74696D656FBA
:10020000757400006D61737465722073746F702073
:1002100053637265656E2073746172740000000030
:100220006D61737465722073637265656E2073749B
:100230006F7020726561736F6E2C74696D656F7578
:100240007400000070B504460E4615460120287063
:1002500000206860207930B1012805D002282BD019
:1002600003287DD196E045E12079C8490978884284
:100270000DD000BFC6A00CF095FBC9A00CF092FBFE
:10028000CEA00CF08FFB00BF2079C04908706179C7
:100290006A204155A1796B204155E07985F86800C5
:1002A000207A617A40EA0120A17A40EA0140E17AAD
:1002B00040EA0161E9661DE12079B4490978884284
:1002C0000DD000BFB2A00CF06DFBBDA00CF06AFB1E
:1002D000BAA00CF067FB00BF2079AC4908706179C7
:1002E0006A204155A1796B204155E07985F8680075
:1002F000207A617A40EA0120A17A40EA0140E17A5D
:1003000040EA0161E966217B69204155607BA17B60
:1003100040EA0120E17B40EA0140217C40EA0161A2
:100320009C204151607CA17C40EA0121A0204151E8
:10033000E07C217D40EA0121A4204153607DA17D24
:1003400040EA0121A5F8A810E07D217E40EA0121C4
:10035000A5F8AA10617E85F8AC10A07EE17E00E0D1
:10036000C7E040EA0121A5F8AE10207F617F40EA96
:100370000121A5F8B010A07FE17F40EA0121A5F896
:10038000B21094F8200094F8211040EA0121A5F859
:10039000B410AFE020797D49097888420DD000BFC4
:1003A0007BA00CF0FFFA8DA00CF0FCFA83A00CF0FF
:1003B000F9FA00BF20797549087014F8051F6A2002
:1003C000415561786B204155A07885F86800E07848
:1003D000217940EA0120617940EA0140A17940EAAF
:1003E0000161E966E17969204155207A617A40EA44
:1003F0000120A17A40EA0140E17A40EA01619C20B3
:100400004151207B617B40EA0121A0204151A07B2A
:10041000E17B40EA0121A4204153207C617C40EA39
:100420000121A5F8A810A07CE17C40EA0121A5F8F3
:10043000AA10217D85F8AC10607DA17D40EA0121E4
:10044000A5F8AE10E07D217E40EA0121A5F8B010AC
:10045000607EA17E40EA0121A5F8B210E07E217FF6
:1004600040EA0121A5F8B410617F85F8B610A07F9D
:10047000E17F40EA0121A5F8B81094F8200094F833
:10048000211040EA0121A5F8BA1094F8220094F84E
:10049000231040EA0121A5F8BC1094F8240094F838
:1004A000251040EA0121A5F8BE1094F8260094F822
:1004B000271040EA0121A5F8C01094F8280094F80C
:1004C000291040EA0121A5F8C21094F82A1085F8F5
:1004D000C41094F82B0014F82C1F40EA0121A5F851
:1004E000C610617885F8C810A178313C85F8C9102C
:1004F00000E000BF00BF687A012815D195F86800B8
:10050000012811D1A87A50B900BF21A00CF04AFAF5
:1005100039A00CF047FA29A00CF044FA00BF0120E2
:10052000A8720020E86016E0687A012813D142F230
:100530001071E86888420ED900BF15A00CF032FA9D
:1005400036A00CF02FFA1DA00CF02CFA00BF0020F2
:10055000687201202874A87A012815D1687A0128C8
:1005600012D195F8680078B900206872A87201204D
:10057000287400BF06A00CF015FA2FA00CF012FA98
:100580000EA00CF00FFA00BF70BD00003A01002071
:100590005B492F4E4554504F52545D2000000000DF
:1005A0006D61737465722072782030783031206309
:1005B0006861726765206461746100000A00000070
:1005C0006D617374657220727820307830322063E8
:1005D0006861726765206461746100006D617374A5
:1005E00065722072782030783033206368617267DA
:1005F00065206461746100006D61737465722063CD
:100600006865636B2047756E203220737461727465
:10061000207375636365737366756C006D617374C5
:1006200065722073746172742047756E2032207475
:10063000696D656F757400006D6173746572206318
:100640006865636B2047756E20322073746F70206D
:10065000636861726765000070B504460D462078D6
:10066000152869D008DCA0F11000052876D2DFE853
:1006700000F010152D3F5100F02870D004DC162832
:1006800070D017286AD17FE0F1286AD0F228F9D11A
:100690009CE02946002000F0ADF9A3E0687A01282B
:1006A00011D12946002000F0F1F811214E4890F8B0
:1006B0000021F0308154F03890F80001401C4A4984
:1006C00081F8000101E0002020708BE000BF47A00E
:1006D0000CF068F949A00CF065F94CA00CF062F937
:1006E00000BF2946002000F0D4FA0020207079E0F5
:1006F00000BF3EA00CF056F945A00CF053F943A002
:100700000CF050F900BF2946012000F016F9002036
:10071000207067E000BF35A00CF044F942A00CF057
:1007200041F93AA00CF03EF900BF2946012000F043
:10073000FEF90020207055E000BF2CA00CF032F92B
:100740003EA00CF02FF931A00CF02CF900BF294687
:10075000012000F01AF90020207043E03DE027E07E
:1007600000E02CE000BF21A00CF01CF93BA00CF035
:1007700019F926A00CF016F900BF2946012000F057
:1007800011FA002020702DE000BF18A00CF00AF92B
:1007900037A00CF007F91DA00CF004F900BF2946A2
:1007A000012000F04CF9002085F86600207019E067
:1007B0002946012000F096F90020207012E0294619
:1007C000002000F08BFA002020700BE0294600206A
:1007D00000F05FF90020207004E02946002000F0BE
:1007E00009F900BF00BF70BD7C4800205B492F4E57
:1007F0004554504F52545D20000000006D617374E9
:1008000065722074782073746F7000000A00000015
:100810006D6173746572207478207377697463688E
:1008200020646174610000006D61737465722074EE
:1008300078207365742074696D6500006D61737450
:100840006572207478207365742066697420656C05
:100850006563206D6F6E6579000000006D617374D3
:10086000657220747820736574207261746500006D
:100870006D617374657220747820736574206F7075
:10088000656E2067756E206C6F636B0030B5A1B02C
:1008900005460C46802101A8EFF79FFD3A208DF810
:1008A000040009208DF8050000208DF806008DF861
:1008B000075011208DF80800A07C8DF80900207DDC
:1008C0008DF80A00A08A000A8DF80B00A07D8DF833
:1008D0000C00E07D8DF80D00207E8DF80E00607E0E
:1008E0008DF80F0000208DF810000D208DF81100FC
:1008F0000A208DF812000F2101A801F079FB21B028
:1009000030BD112808D14A7A1AB900228A720A74B5
:10091000CA6001224A7205E0122803D100224A72FD
:100920008A720A7491F8003101F1F002D05491F802
:100930000021521C81F80021704730B5A1B0054656
:100940000C46802101A8EFF748FD3A208DF80400FD
:1009500003208DF8050000208DF806008DF8075063
:1009600013208DF80800607C8DF8090000208DF8B8
:100970000A000D208DF80B000A208DF80C000921CB
:1009800001A801F035FB21B030BD30B5A1B005465E
:100990000C46802101A8EFF720FD3A208DF80400D5
:1009A00006208DF8050000208DF806008DF8075010
:1009B00015208DF8080094F822008DF80900608C4D
:1009C000000A8DF80A0094F824008DF80B00A08C22
:1009D000000A8DF80C0000208DF80D000D208DF818
:1009E0000E000A208DF80F000C2101A801F000FB79
:1009F00021B030BD30B5A1B004460D46802101A81C
:100A0000EFF7EBFC3A208DF8040002208DF805008A
:100A100000208DF806008DF8074010208DF80800A2
:100A200000208DF809000D208DF80A000A208DF8AD
:100A30000B00082101A801F0DBFA21B030BD70B530
:100A4000A0B004460D4680216846EFF7C6FC00269C
:100A50003A208DF8000003208DF8010000208DF869
:100A600002008DF8034017208DF8040095F8660009
:100A70008DF8050000208DF806000D208DF8070088
:100A80000A208DF808000921684601F0B1FA20B06B
:100A900070BD30B5A1B004460D46802101A8EFF726
:100AA0009CFC3A208DF8040004208DF805000020FD
:100AB0008DF806008DF80740F2208DF80800002020
:100AC0008DF809008DF80A008DF80B000D208DF8C7
:100AD0000C000A208DF80D000A2101A801F088FA07
:100AE00021B030BD30B5A1B004460D46802101A82B
:100AF000EFF773FC3A208DF8040002208DF8050012
:100B000000208DF806008DF80740F0208DF80800D1
:100B100000208DF809000D208DF80A000A208DF8BC
:100B20000B00082101A801F063FA21B030BD30B5F7
:100B3000A1B005460C46802101A8EFF74EFC3A20F3
:100B40008DF8040009208DF8050000208DF80600BE
:100B50008DF8075014208DF80800A07E8DF809004C
:100B6000E07E8DF80A00207F8DF80B00607F8DF805
:100B70000C00A07F8DF80D00E07F8DF80E00202086
:100B8000005D8DF80F0000208DF810000D208DF80D
:100B900011000A208DF812000F2101A801F028FA97
:100BA00021B030BD70B5A0B006460C468021684625
:100BB000EFF713FC00253A208DF8000042208DF855
:100BC000010000208DF802008DF8036016208DF8DA
:100BD000040094F826008DF80500E08C000A8DF8DA
:100BE00006002820005D8DF80700208D000A8DF892
:100BF00008002A20005D8DF80900608D000A8DF83C
:100C00000A002C20005D8DF80B00A08D000A8DF8E5
:100C10000C0094F82E008DF80D00E08D000A8DF880
:100C20000E003020005D8DF80F00208E000A8DF838
:100C300010003220005D8DF81100608E000A8DF8E2
:100C400012003420005D8DF81300A08E000A8DF88C
:100C5000140000BF08E004F13600415D05F1150005
:100C60000DF80010681CC5B2302DF4DB002105F131
:100C700015000DF800100D21401C0DF800100A2180
:100C8000401C0DF800104821684601F0B1F920B071
:100C900070BD30B5A1B004460D46802101A8EFF724
:100CA0009CFB3A208DF8040002208DF805000020FE
:100CB0008DF806008DF8074012208DF808000020FE
:100CC0008DF809000D208DF80A000A208DF80B0020
:100CD000082101A801F08CF921B030BD70B5A0B099
:100CE00006460D4680216846EFF777FB3A208DF8DF
:100CF000000028208DF8010000208DF802008DF8FA
:100D00000360F1208DF80400002400BF07E005F126
:100D1000CC00015D601D0DF80010601CC4B2202CD9
:100D2000F5D315F8EC1FA01D0DF800102978E01D73
:100D30000DF800102978401C0DF8001015F8EC197A
:100D400004F109000DF800100021401C0DF80010FE
:100D5000401C0DF80010401C0DF800100D21401C27
:100D60000DF800100A21401C0DF80010411C6846C7
:100D700001F03EF920B070BD00BFFEE72DE9F04163
:100D800005460E460024002765B900BF52A00BF0AF
:100D900009FE55A00BF006FE5AA00BF003FE00BFA3
:100DA000BDE8F0815EB900BF4BA00BF0FBFD56A083
:100DB0000BF0F8FD53A00BF0F5FD00BFF0E70024A9
:100DC00008E02819012257A1EFF73FFB00B903E023
:100DD000601C84B2B442F4DB00BFB4420FDB00BF3E
:100DE0003DA00BF0DFFD50A00BF0DCFD45A00BF0AB
:100DF000D9FD00BF31462846EFF7EFFAD0E7E01CF7
:100E000086420BDA00BF34A00BF0CCFD4CA00BF0F7
:100E1000C9FD3CA00BF0C6FD00BFC1E7601C2F5C04
:100E2000A01D3844B0420BDD00BF2BA00BF0BAFD73
:100E30004DA00BF0B7FD33A00BF0B4FD00BFAFE742
:100E4000201D3844285C0D2804D1601D3844285CDE
:100E50000A280FD000BF20A00BF0A4FD4DA00BF07E
:100E6000A1FD28A00BF09EFD00BF31462846EFF7FC
:100E7000B4FA95E7321B91B22819514AFFF7E2F90B
:100E80004F4890F8000130B94D484078E8B910203B
:100E90004B49487019E04A4890F8F00048494870BA
:100EA000002006E04649F031421C8A5C0A54411C8D
:100EB000C8B2434991F800118142F3DC404890F8F0
:100EC0000001401E3E4981F800013D49481CFFF7E2
:100ED000C3FB00BF64E700005B572F4E4554504FE3
:100EE00052545D2000000000536C617665206E75E1
:100EF0006C6C20706F696E746572206572726F72AF
:100F00000D0A00000A000000536C617665206461E0
:100F10007461206C656E3D30206572726F720D0ACF
:100F2000000000003A0000004E6F206865616420F8
:100F3000666F756E642C636C6561720D0A0000004B
:100F4000536C61766520646964206E6F74207265ED
:100F5000636569766520746865206C656E67746882
:100F6000206269740D0A0000536C61766520646923
:100F700064206E6F742072656365697665206120F8
:100F8000636F6D706C657465207061636B65740D63
:100F90000A000000536C61766520646964206E6FFE
:100FA000742066696E6420746865206461746120D1
:100FB0007461696C2C636C6561720D0A000000003D
:100FC0007C48002000BFFEE770B50446002520786D
:100FD00001283BD1A078012838D100BF46A00BF0F2
:100FE000E1FC48A00BF0DEFC4EA00BF0DBFC00BFE8
:100FF0006078012802D0E078012825D160780128A6
:101000000AD100BF3CA00BF0CDFC47A00BF0CAFCFE
:1010100044A00BF0C7FC0AE000BF37A00BF0C2FCF5
:1010200045A00BF0BFFC3FA00BF0BCFC00BF00BF15
:1010300031A00BF0B7FC44A00BF0B4FC39A00BF0CE
:10104000B1FC00BF002554E0012552E020780128C2
:101050001AD1A078002817D100BF27A00BF0A2FC5E
:101060003FA00BF09FFC2FA00BF09CFC00BF00BF2B
:1010700021A00BF097FC43A00BF094FC29A00BF0EF
:1010800091FC00BF012534E0207800281AD1A07817
:10109000012817D100BF18A00BF084FC40A00BF072
:1010A00081FC20A00BF07EFC00BF00BF12A00BF063
:1010B00079FC44A00BF076FC1AA00BF073FC00BF87
:1010C000012516E000BF0CA00BF06CFC44A00BF057
:1010D00069FC14A00BF066FC00BF00BF06A00BF07B
:1010E00061FC19A00BF05EFC0EA00BF05BFC00BFD6
:1010F0000025284670BD00005B442F504F574552D5
:101100005D2000006C696E65203120636F6E6E6536
:1011100063742C6C696E65203220636F6E6E65633C
:10112000740000000A0000006C696E6520312063C5
:1011300068617267650000006C696E65203220632B
:101140006861726765000000706F7765722064697E
:1011500076696465722073746174652036300000AE
:101160006C696E65203120636F6E6E6563742C6CE4
:10117000696E652032206E6F7420636F6E6E6563DA
:1011800074000000706F7765722064697669646529
:1011900072207374617465312031323000000000B8
:1011A0006C696E652031206E6F7420636F6E6E65A2
:1011B00063742C6C696E65203220636F6E6E65639C
:1011C00074000000706F77657220646976696465E9
:1011D0007220737461746532203132300000000077
:1011E0006C696E652031206E6F7420636F6E6E6562
:1011F00063742C6C696E652032206E6F7420636F8F
:101200006E6E6563740000007CB504460025FF2DFA
:101210007CD0002D7AD104F11600FFF7D5FEA07620
:10122000A07E10B1012872D136E0002000F028F92C
:10123000012020713C21E180012121726172002195
:10124000A17200BF6DA00BF0ADFB607A0090237A15
:10125000E28821796CA00BF0A5FB79A00BF0A2FB32
:1012600000BF022121733C21E1810121217403216E
:1012700061740021617400BF60A00BF093FB607C7F
:101280000090237CE289217B5FA00BF08BFB6CA09C
:101290000BF088FB00BFAEE0012000F0F1F82078F1
:1012A000012835D120717821E180022121720121AC
:1012B00061720321A17200BF50A00BF073FBA07AF2
:1012C000617ACDE90010237AE28821795DA00BF0E4
:1012D00069FB5BA00BF066FB00BF022121730021BC
:1012E000E18121746174A17400BF44A00BF05AFB2A
:1012F000A17C607CCDE90001237CE289217B42A0B6
:101300000BF050FB4EA00BF04DFB39E074E038E0E1
:101310002078022834D1012020710021E18021723F
:101320006172A17200BF35A00BF03CFBA07A617A1C
:10133000CDE90010237AE288217942A00BF032FB3C
:101340003FA00BF02FFB00BF022121737821E18128
:1013500002212174012161740321A17400BF27A01F
:101360000BF020FBA17C607CCDE90001237CE289AD
:10137000217B25A00BF016FB31A00BF013FB00BF67
:1013800039E0002000F07CF8002000F079F801201E
:1013900020713C21E1800121217261720021617282
:1013A00000BF16A00BF0FEFA607A0090237AE28864
:1013B000217915A00BF0F6FA21A00BF0F3FA00BF8B
:1013C000022121733C21E1810121217403216174F7
:1013D0000021617400BF09A00BF0E4FA607C00906A
:1013E000237CE289217B08A00BF0DCFA14A00BF02F
:1013F000D9FA00BF00BF00BF7CBD00005B442F5086
:101400004F5745525D200000706F77657220646110
:101410007461204E756D3D25642C706F7765723D4B
:1014200025642C67726F7570206E756D203D256484
:101430002C47726F757020616464723D25640000F2
:101440000A000000706F7765722064617461204E3D
:10145000756D3D25642C706F7765723D25642C6732
:10146000726F7570206E756D203D25642C47726F0C
:10147000757020616464723D25642025640000005D
:1014800010B50446204609F0DDFA00BF05A00BF0B8
:1014900089FA214606A00BF085FA0BA00BF082FA20
:1014A00000BF10BD5B442F504F5745525D200000D8
:1014B000706F776572207377697463682072656CEA
:1014C00061793D25640000000A00000008B5084964
:1014D0000968C9084FF47A72B1FBF2F141430091F7
:1014E00000BF00BF00994A1E00920029F9D108BD33
:1014F0004C010020014600BF080900EB80004200BB
:1015000001F00F001044C0B270470146002203E012
:10151000521CA1F10A00C1B20A29F9D2100741EA0E
:10152000106070472DE9F0470646884600270024E2
:101530000025A146F77B747BB57B00BF40E0012C02
:101540000BD0032C09D0052C07D0072C05D0082C74
:1015500003D00A2C01D00C2C0CD11F2D01D26D1CF4
:101560002CE00C2C02D0641C012527E0012401256D
:101570007F1C23E0042C05D0062C03D0092C01D0BD
:101580000B2C06D11E2D01D26D1C17E0641C012509
:1015900014E0022C12D11C2D01D26D1C0EE01C2D6A
:1015A00008D1B8B200F053F808B16D1C06E0641C15
:1015B000012503E01D2D01D1641C012509F101095C
:1015C000C145BCD3F7737473B573EAB2E1B2384660
:1015D00000F07CF83073BDE8F08770B50446002554
:1015E000FAF710FF054607E0FAF70CFF401BB0F5CD
:1015F0007A7F01D9032070BD2068406800F0200088
:101600000028F1D02068406840F010002168486050
:101610000020F0E770B5044600252068406820F0FF
:10162000100021684860FAF7EDFE054607E0FAF77A
:10163000E9FE401BB0F57A7F01D9032070BD206818
:10164000406800F020000028F1D00020F6E70146B5
:1016500001F0030008B1002070476420B1FBF0F2F4
:1016600000FB121008B10120F6E74FF4C870B1FB7F
:10167000F0F200FB121008B90120EDE70020EBE7C3
:101680000146002200230868006A82B20868406AA6
:1016900083B243EA0240704730B50146002200237E
:1016A000002400200D68AD69AAB20D68ED69ACB2E6
:1016B0000D68AD69ABB29A4205D00D68ED6963F370
:1016C0001F45284601E044EA024030BDF0B504461B
:1016D0000B460021002504F5FA61032B1BD2C3EB56
:1016E000C30000EB03100926B0FBF6F01044001D08
:1016F0004618481E06EB90066427B0FBF7F0361A32
:10170000481EBF00B0FBF7F030440726B0FBF6F7E9
:1017100006FB17051AE0C3EBC30000EB0310092614
:10172000B0FBF6F01044001D084400EB9100642665
:10173000B1FBF6F6801B4FF4C876B1FBF6F63044E9
:10174000801E0726B0FBF6F706FB1705E8B2F0BDD2
:1017500070B504460D4600262046FFF73EFF08B14F
:1017600001260AE0280C21680862A8B221684862B4
:101770002046FFF74FFF00B10126304670BD70B51F
:1017800004460D4600262046FFF727FF08B1012634
:101790000AE0280C21688861A8B22168C861204647
:1017A000FFF738FF00B10126304670BDF8B504469A
:1017B0000E4615466068B0F5827F0DD1A068B0F581
:1017C000004F03D0A068B0F5806F05D12068006895
:1017D00020F04000216808606068B0F5827F11D178
:1017E000A068B0F5806F0DD133460022012120465C
:1017F000009500F02BF898B1606D40F02000606516
:101800000320F8BD3346002280212046009500F0D9
:101810001DF828B1606D40F0200060650320F0E7FE
:101820000020EEE7F8B504460D4616462B4600228A
:1018300080212046009600F009F828B1606D40F044
:10184000200060650320F8BD0020FCE72DE9F84F7B
:1018500004460D4690461E46DDF82890FAF7D2FD64
:10186000A0EB0900371AFAF7CDFD82462C48006834
:10187000C0F3CB307843009045E0701C002842D084
:10188000FAF7C0FDA0EB0A00B84200D2A7BB20685F
:10189000406820F0E000216848606068B0F5827F11
:1018A0000DD1A068B0F5004F03D0A068B0F5806FEF
:1018B00005D12068006820F0400021680860A06A17
:1018C000B0F5005F0DD100BF2068006820F4005023
:1018D000216808602068006840F4005021680860B2
:1018E00000BF012084F8510000BF002084F85000A0
:1018F00000BF0320BDE8F88FFFE7009800B900277C
:101900000098401E0090206880682840A84201D1BD
:10191000012000E000204045AFD10020EAE70000B0
:101920004C01002010B51948006841F28831884206
:1019300012D90020164908701648007809788842A4
:101940001DD000BF14A00BF02DF816A00BF02AF844
:1019500019A00BF027F812E001200D4908700D487E
:101960000078097888420AD000BF0BA00BF01AF863
:1019700012A00BF017F810A00BF014F800BF0448E9
:101980000078044908700248007810BDF800002073
:10199000FD000020FF0000205B492F5343524545C6
:1019A0004E5D200053637265656E206C6F7374200A
:1019B000436F6E6E656374000A00000053637265C6
:1019C000656E20436F6E6E656374000070B5ACB0D9
:1019D00005460E4600242878FF287DD02878312837
:1019E0000AD10124FE4804700120C4EB0411C1EBAC
:1019F000C10106F811000CE02878322809D1022430
:101A0000F74804700220C4EB0411C1EBC10106F8D1
:101A100011006878302812D008DC0A287ED00B2804
:101A20007DD00D287CD00E287BD195E136280BD0B7
:101A300037280ED0382875D03928F5D1FBE00021A1
:101A400020460DF09FFE2EE2062120460DF09AFE64
:101A500029E2A8783038C1B2601EC0EB0010C0EB9C
:101A6000C00006EB400080F8A210E87830384FF450
:101A70007A7148432979303901EBC10202EB011137
:101A800000EB81016879303800EB800001EB400108
:101A9000A8793038084481B2601EC0EB0010C0EB5A
:101AA000C00006EB4000A0F8A410E8793038012807
:101AB0007DD1601EC0EB0010C0EBC00006EB400003
:101AC00040790028F4D1C7480470C74890F8AE00A8
:101AD000C4498875C44800E0E9E190F8AC10C148F9
:101AE000C175C24890F86A10BE480176BF4890F8A8
:101AF0006810BC484176FFF787FB012C46D10220D5
:101B00008DF80400BAA00168CDF805104168CDF841
:101B100009100089ADF80D00601E04E0FCE000E152
:101B200004E1B2E182E0C0EB0010C0EBC00006EBC4
:101B3000400090F8A2008DF82500601EC0EB001058
:101B4000C0EBC00006EB4000B0F8A400ADF82600E2
:101B500000208DF82800ADF82A00ADF82C000021F7
:101B6000A14880F8111180F8121180F8131101A911
:101B7000F2F7D6F900BFA1A00AF014FFA2A00AF064
:101B800011FFA5A00AF00EFF00BF31E00120974928
:101B90000872601EC0EB0010C0EBC00006EB4000F6
:101BA00090F8A2008874601EC0EB001000E038E0DE
:101BB000C0EBC00006EB4000B0F8A4008882894862
:101BC000007CC8758748407C08768648817C8748B9
:101BD000417600BF89A00AF0E5FE90A00AF0E2FE7F
:101BE0008DA00AF0DFFE00BF80491120FEF789FEBC
:101BF0000521601EC0EB0010C0EBC0008B4A02EB59
