


ARM Macro Assembler    Page 1 


    1 00000000         ;******************** (C) COPYRIGHT 2017 STMicroelectron
                       ics ********************
    2 00000000         ;* File Name          : startup_stm32f107xc.s
    3 00000000         ;* Author             : MCD Application Team
    4 00000000         ;* Description        : STM32F107xC Devices vector table
                        for MDK-ARM toolchain. 
    5 00000000         ;*                      This module performs:
    6 00000000         ;*                      - Set the initial SP
    7 00000000         ;*                      - Set the initial PC == Reset_Ha
                       ndler
    8 00000000         ;*                      - Set the vector table entries w
                       ith the exceptions ISR address
    9 00000000         ;*                      - Configure the clock system
   10 00000000         ;*                      - Branches to __main in the C li
                       brary (which eventually
   11 00000000         ;*                        calls main()).
   12 00000000         ;*                      After Reset the Cortex-M3 proces
                       sor is in Thread mode,
   13 00000000         ;*                      priority is Privileged, and the 
                       Stack is set to Main.
   14 00000000         ;*******************************************************
                       ***********************
   15 00000000         ;* @attention
   16 00000000         ;*
   17 00000000         ;* Copyright (c) 2017-2021 STMicroelectronics.
   18 00000000         ;* All rights reserved.
   19 00000000         ;*
   20 00000000         ;* This software is licensed under terms that can be fou
                       nd in the LICENSE file
   21 00000000         ;* in the root directory of this software component.
   22 00000000         ;* If no LICENSE file comes with this software, it is pr
                       ovided AS-IS.
   23 00000000         ;*
   24 00000000         ;*******************************************************
                       ***********************
   25 00000000         
   26 00000000         ; Amount of memory (in bytes) allocated for Stack
   27 00000000         ; Tailor this value to your application needs
   28 00000000         ; <h> Stack Configuration
   29 00000000         ;   <o> Stack Size (in Bytes) <0x0-0xFFFFFFFF:8>
   30 00000000         ; </h>
   31 00000000         
   32 00000000 00000400 
                       Stack_Size
                               EQU              0x400
   33 00000000         
   34 00000000                 AREA             STACK, NOINIT, READWRITE, ALIGN
=3
   35 00000000         Stack_Mem
                               SPACE            Stack_Size
   36 00000400         __initial_sp
   37 00000400         
   38 00000400         
   39 00000400         ; <h> Heap Configuration
   40 00000400         ;   <o>  Heap Size (in Bytes) <0x0-0xFFFFFFFF:8>
   41 00000400         ; </h>
   42 00000400         
   43 00000400 00000200 
                       Heap_Size



ARM Macro Assembler    Page 2 


                               EQU              0x200
   44 00000400         
   45 00000400                 AREA             HEAP, NOINIT, READWRITE, ALIGN=
3
   46 00000000         __heap_base
   47 00000000         Heap_Mem
                               SPACE            Heap_Size
   48 00000200         __heap_limit
   49 00000200         
   50 00000200                 PRESERVE8
   51 00000200                 THUMB
   52 00000200         
   53 00000200         
   54 00000200         ; Vector Table Mapped to Address 0 at Reset
   55 00000200                 AREA             RESET, DATA, READONLY
   56 00000000                 EXPORT           __Vectors
   57 00000000                 EXPORT           __Vectors_End
   58 00000000                 EXPORT           __Vectors_Size
   59 00000000         
   60 00000000 00000000 
                       __Vectors
                               DCD              __initial_sp ; Top of Stack
   61 00000004 00000000        DCD              Reset_Handler ; Reset Handler
   62 00000008 00000000        DCD              NMI_Handler ; NMI Handler
   63 0000000C 00000000        DCD              HardFault_Handler ; Hard Fault 
                                                            Handler
   64 00000010 00000000        DCD              MemManage_Handler 
                                                            ; MPU Fault Handler
                                                            
   65 00000014 00000000        DCD              BusFault_Handler 
                                                            ; Bus Fault Handler
                                                            
   66 00000018 00000000        DCD              UsageFault_Handler ; Usage Faul
                                                            t Handler
   67 0000001C 00000000        DCD              0           ; Reserved
   68 00000020 00000000        DCD              0           ; Reserved
   69 00000024 00000000        DCD              0           ; Reserved
   70 00000028 00000000        DCD              0           ; Reserved
   71 0000002C 00000000        DCD              SVC_Handler ; SVCall Handler
   72 00000030 00000000        DCD              DebugMon_Handler ; Debug Monito
                                                            r Handler
   73 00000034 00000000        DCD              0           ; Reserved
   74 00000038 00000000        DCD              PendSV_Handler ; PendSV Handler
                                                            
   75 0000003C 00000000        DCD              SysTick_Handler 
                                                            ; SysTick Handler
   76 00000040         
   77 00000040         ; External Interrupts
   78 00000040 00000000        DCD              WWDG_IRQHandler 
                                                            ; Window Watchdog
   79 00000044 00000000        DCD              PVD_IRQHandler ; PVD through EX
                                                            TI Line detect
   80 00000048 00000000        DCD              TAMPER_IRQHandler ; Tamper
   81 0000004C 00000000        DCD              RTC_IRQHandler ; RTC
   82 00000050 00000000        DCD              FLASH_IRQHandler ; Flash
   83 00000054 00000000        DCD              RCC_IRQHandler ; RCC
   84 00000058 00000000        DCD              EXTI0_IRQHandler ; EXTI Line 0
   85 0000005C 00000000        DCD              EXTI1_IRQHandler ; EXTI Line 1
   86 00000060 00000000        DCD              EXTI2_IRQHandler ; EXTI Line 2



ARM Macro Assembler    Page 3 


   87 00000064 00000000        DCD              EXTI3_IRQHandler ; EXTI Line 3
   88 00000068 00000000        DCD              EXTI4_IRQHandler ; EXTI Line 4
   89 0000006C 00000000        DCD              DMA1_Channel1_IRQHandler 
                                                            ; DMA1 Channel 1
   90 00000070 00000000        DCD              DMA1_Channel2_IRQHandler 
                                                            ; DMA1 Channel 2
   91 00000074 00000000        DCD              DMA1_Channel3_IRQHandler 
                                                            ; DMA1 Channel 3
   92 00000078 00000000        DCD              DMA1_Channel4_IRQHandler 
                                                            ; DMA1 Channel 4
   93 0000007C 00000000        DCD              DMA1_Channel5_IRQHandler 
                                                            ; DMA1 Channel 5
   94 00000080 00000000        DCD              DMA1_Channel6_IRQHandler 
                                                            ; DMA1 Channel 6
   95 00000084 00000000        DCD              DMA1_Channel7_IRQHandler 
                                                            ; DMA1 Channel 7
   96 00000088 00000000        DCD              ADC1_2_IRQHandler 
                                                            ; ADC1 and ADC2
   97 0000008C 00000000        DCD              CAN1_TX_IRQHandler ; CAN1 TX
   98 00000090 00000000        DCD              CAN1_RX0_IRQHandler ; CAN1 RX0
   99 00000094 00000000        DCD              CAN1_RX1_IRQHandler ; CAN1 RX1
  100 00000098 00000000        DCD              CAN1_SCE_IRQHandler ; CAN1 SCE
  101 0000009C 00000000        DCD              EXTI9_5_IRQHandler 
                                                            ; EXTI Line 9..5
  102 000000A0 00000000        DCD              TIM1_BRK_IRQHandler 
                                                            ; TIM1 Break
  103 000000A4 00000000        DCD              TIM1_UP_IRQHandler 
                                                            ; TIM1 Update
  104 000000A8 00000000        DCD              TIM1_TRG_COM_IRQHandler ; TIM1 
                                                            Trigger and Commuta
                                                            tion
  105 000000AC 00000000        DCD              TIM1_CC_IRQHandler ; TIM1 Captu
                                                            re Compare
  106 000000B0 00000000        DCD              TIM2_IRQHandler ; TIM2
  107 000000B4 00000000        DCD              TIM3_IRQHandler ; TIM3
  108 000000B8 00000000        DCD              TIM4_IRQHandler ; TIM4
  109 000000BC 00000000        DCD              I2C1_EV_IRQHandler ; I2C1 Event
                                                            
  110 000000C0 00000000        DCD              I2C1_ER_IRQHandler ; I2C1 Error
                                                            
  111 000000C4 00000000        DCD              I2C2_EV_IRQHandler ; I2C2 Event
                                                            
  112 000000C8 00000000        DCD              I2C2_ER_IRQHandler ; I2C1 Error
                                                            
  113 000000CC 00000000        DCD              SPI1_IRQHandler ; SPI1
  114 000000D0 00000000        DCD              SPI2_IRQHandler ; SPI2
  115 000000D4 00000000        DCD              USART1_IRQHandler ; USART1
  116 000000D8 00000000        DCD              USART2_IRQHandler ; USART2
  117 000000DC 00000000        DCD              USART3_IRQHandler ; USART3
  118 000000E0 00000000        DCD              EXTI15_10_IRQHandler 
                                                            ; EXTI Line 15..10
  119 000000E4 00000000        DCD              RTC_Alarm_IRQHandler ; RTC alar
                                                            m through EXTI line
                                                            
  120 000000E8 00000000        DCD              OTG_FS_WKUP_IRQHandler ; USB OT
                                                            G FS Wakeup through
                                                             EXTI line
  121 000000EC 00000000        DCD              0           ; Reserved
  122 000000F0 00000000        DCD              0           ; Reserved



ARM Macro Assembler    Page 4 


  123 000000F4 00000000        DCD              0           ; Reserved
  124 000000F8 00000000        DCD              0           ; Reserved
  125 000000FC 00000000        DCD              0           ; Reserved
  126 00000100 00000000        DCD              0           ; Reserved
  127 00000104 00000000        DCD              0           ; Reserved
  128 00000108 00000000        DCD              TIM5_IRQHandler ; TIM5
  129 0000010C 00000000        DCD              SPI3_IRQHandler ; SPI3
  130 00000110 00000000        DCD              UART4_IRQHandler ; UART4
  131 00000114 00000000        DCD              UART5_IRQHandler ; UART5
  132 00000118 00000000        DCD              TIM6_IRQHandler ; TIM6
  133 0000011C 00000000        DCD              TIM7_IRQHandler ; TIM7
  134 00000120 00000000        DCD              DMA2_Channel1_IRQHandler 
                                                            ; DMA2 Channel1
  135 00000124 00000000        DCD              DMA2_Channel2_IRQHandler 
                                                            ; DMA2 Channel2
  136 00000128 00000000        DCD              DMA2_Channel3_IRQHandler 
                                                            ; DMA2 Channel3
  137 0000012C 00000000        DCD              DMA2_Channel4_IRQHandler 
                                                            ; DMA2 Channel4
  138 00000130 00000000        DCD              DMA2_Channel5_IRQHandler 
                                                            ; DMA2 Channel5
  139 00000134 00000000        DCD              ETH_IRQHandler ; Ethernet
  140 00000138 00000000        DCD              ETH_WKUP_IRQHandler ; Ethernet 
                                                            Wakeup through EXTI
                                                             line
  141 0000013C 00000000        DCD              CAN2_TX_IRQHandler ; CAN2 TX
  142 00000140 00000000        DCD              CAN2_RX0_IRQHandler ; CAN2 RX0
  143 00000144 00000000        DCD              CAN2_RX1_IRQHandler ; CAN2 RX1
  144 00000148 00000000        DCD              CAN2_SCE_IRQHandler ; CAN2 SCE
  145 0000014C 00000000        DCD              OTG_FS_IRQHandler ; USB OTG FS
  146 00000150         __Vectors_End
  147 00000150         
  148 00000150 00000150 
                       __Vectors_Size
                               EQU              __Vectors_End - __Vectors
  149 00000150         
  150 00000150                 AREA             |.text|, CODE, READONLY
  151 00000000         
  152 00000000         ; Reset handler
  153 00000000         Reset_Handler
                               PROC
  154 00000000                 EXPORT           Reset_Handler             [WEAK
]
  155 00000000                 IMPORT           SystemInit
  156 00000000                 IMPORT           __main
  157 00000000 4806            LDR              R0, =SystemInit
  158 00000002 4780            BLX              R0
  159 00000004 4806            LDR              R0, =__main
  160 00000006 4700            BX               R0
  161 00000008                 ENDP
  162 00000008         
  163 00000008         ; Dummy Exception Handlers (infinite loops which can be 
                       modified)
  164 00000008         
  165 00000008         NMI_Handler
                               PROC
  166 00000008                 EXPORT           NMI_Handler                [WEA
K]
  167 00000008 E7FE            B                .



ARM Macro Assembler    Page 5 


  168 0000000A                 ENDP
  170 0000000A         HardFault_Handler
                               PROC
  171 0000000A                 EXPORT           HardFault_Handler          [WEA
K]
  172 0000000A E7FE            B                .
  173 0000000C                 ENDP
  175 0000000C         MemManage_Handler
                               PROC
  176 0000000C                 EXPORT           MemManage_Handler          [WEA
K]
  177 0000000C E7FE            B                .
  178 0000000E                 ENDP
  180 0000000E         BusFault_Handler
                               PROC
  181 0000000E                 EXPORT           BusFault_Handler           [WEA
K]
  182 0000000E E7FE            B                .
  183 00000010                 ENDP
  185 00000010         UsageFault_Handler
                               PROC
  186 00000010                 EXPORT           UsageFault_Handler         [WEA
K]
  187 00000010 E7FE            B                .
  188 00000012                 ENDP
  189 00000012         SVC_Handler
                               PROC
  190 00000012                 EXPORT           SVC_Handler                [WEA
K]
  191 00000012 E7FE            B                .
  192 00000014                 ENDP
  194 00000014         DebugMon_Handler
                               PROC
  195 00000014                 EXPORT           DebugMon_Handler           [WEA
K]
  196 00000014 E7FE            B                .
  197 00000016                 ENDP
  198 00000016         PendSV_Handler
                               PROC
  199 00000016                 EXPORT           PendSV_Handler             [WEA
K]
  200 00000016 E7FE            B                .
  201 00000018                 ENDP
  202 00000018         SysTick_Handler
                               PROC
  203 00000018                 EXPORT           SysTick_Handler            [WEA
K]
  204 00000018 E7FE            B                .
  205 0000001A                 ENDP
  206 0000001A         
  207 0000001A         Default_Handler
                               PROC
  208 0000001A         
  209 0000001A                 EXPORT           WWDG_IRQHandler            [WEA
K]
  210 0000001A                 EXPORT           PVD_IRQHandler             [WEA
K]
  211 0000001A                 EXPORT           TAMPER_IRQHandler          [WEA
K]



ARM Macro Assembler    Page 6 


  212 0000001A                 EXPORT           RTC_IRQHandler             [WEA
K]
  213 0000001A                 EXPORT           FLASH_IRQHandler           [WEA
K]
  214 0000001A                 EXPORT           RCC_IRQHandler             [WEA
K]
  215 0000001A                 EXPORT           EXTI0_IRQHandler           [WEA
K]
  216 0000001A                 EXPORT           EXTI1_IRQHandler           [WEA
K]
  217 0000001A                 EXPORT           EXTI2_IRQHandler           [WEA
K]
  218 0000001A                 EXPORT           EXTI3_IRQHandler           [WEA
K]
  219 0000001A                 EXPORT           EXTI4_IRQHandler           [WEA
K]
  220 0000001A                 EXPORT           DMA1_Channel1_IRQHandler   [WEA
K]
  221 0000001A                 EXPORT           DMA1_Channel2_IRQHandler   [WEA
K]
  222 0000001A                 EXPORT           DMA1_Channel3_IRQHandler   [WEA
K]
  223 0000001A                 EXPORT           DMA1_Channel4_IRQHandler   [WEA
K]
  224 0000001A                 EXPORT           DMA1_Channel5_IRQHandler   [WEA
K]
  225 0000001A                 EXPORT           DMA1_Channel6_IRQHandler   [WEA
K]
  226 0000001A                 EXPORT           DMA1_Channel7_IRQHandler   [WEA
K]
  227 0000001A                 EXPORT           ADC1_2_IRQHandler          [WEA
K]
  228 0000001A                 EXPORT           CAN1_TX_IRQHandler         [WEA
K]
  229 0000001A                 EXPORT           CAN1_RX0_IRQHandler        [WEA
K]
  230 0000001A                 EXPORT           CAN1_RX1_IRQHandler        [WEA
K]
  231 0000001A                 EXPORT           CAN1_SCE_IRQHandler        [WEA
K]
  232 0000001A                 EXPORT           EXTI9_5_IRQHandler         [WEA
K]
  233 0000001A                 EXPORT           TIM1_BRK_IRQHandler        [WEA
K]
  234 0000001A                 EXPORT           TIM1_UP_IRQHandler         [WEA
K]
  235 0000001A                 EXPORT           TIM1_TRG_COM_IRQHandler    [WEA
K]
  236 0000001A                 EXPORT           TIM1_CC_IRQHandler         [WEA
K]
  237 0000001A                 EXPORT           TIM2_IRQHandler            [WEA
K]
  238 0000001A                 EXPORT           TIM3_IRQHandler            [WEA
K]
  239 0000001A                 EXPORT           TIM4_IRQHandler            [WEA
K]
  240 0000001A                 EXPORT           I2C1_EV_IRQHandler         [WEA
K]
  241 0000001A                 EXPORT           I2C1_ER_IRQHandler         [WEA



ARM Macro Assembler    Page 7 


K]
  242 0000001A                 EXPORT           I2C2_EV_IRQHandler         [WEA
K]
  243 0000001A                 EXPORT           I2C2_ER_IRQHandler         [WEA
K]
  244 0000001A                 EXPORT           SPI1_IRQHandler            [WEA
K]
  245 0000001A                 EXPORT           SPI2_IRQHandler            [WEA
K]
  246 0000001A                 EXPORT           USART1_IRQHandler          [WEA
K]
  247 0000001A                 EXPORT           USART2_IRQHandler          [WEA
K]
  248 0000001A                 EXPORT           USART3_IRQHandler          [WEA
K]
  249 0000001A                 EXPORT           EXTI15_10_IRQHandler       [WEA
K]
  250 0000001A                 EXPORT           RTC_Alarm_IRQHandler        [WE
AK]
  251 0000001A                 EXPORT           OTG_FS_WKUP_IRQHandler     [WEA
K]
  252 0000001A                 EXPORT           TIM5_IRQHandler            [WEA
K]
  253 0000001A                 EXPORT           SPI3_IRQHandler            [WEA
K]
  254 0000001A                 EXPORT           UART4_IRQHandler           [WEA
K]
  255 0000001A                 EXPORT           UART5_IRQHandler           [WEA
K]
  256 0000001A                 EXPORT           TIM6_IRQHandler            [WEA
K]
  257 0000001A                 EXPORT           TIM7_IRQHandler            [WEA
K]
  258 0000001A                 EXPORT           DMA2_Channel1_IRQHandler   [WEA
K]
  259 0000001A                 EXPORT           DMA2_Channel2_IRQHandler   [WEA
K]
  260 0000001A                 EXPORT           DMA2_Channel3_IRQHandler   [WEA
K]
  261 0000001A                 EXPORT           DMA2_Channel4_IRQHandler   [WEA
K]
  262 0000001A                 EXPORT           DMA2_Channel5_IRQHandler   [WEA
K]
  263 0000001A                 EXPORT           ETH_IRQHandler             [WEA
K]
  264 0000001A                 EXPORT           ETH_WKUP_IRQHandler        [WEA
K]
  265 0000001A                 EXPORT           CAN2_TX_IRQHandler         [WEA
K]
  266 0000001A                 EXPORT           CAN2_RX0_IRQHandler        [WEA
K]
  267 0000001A                 EXPORT           CAN2_RX1_IRQHandler        [WEA
K]
  268 0000001A                 EXPORT           CAN2_SCE_IRQHandler        [WEA
K]
  269 0000001A                 EXPORT           OTG_FS_IRQHandler          [WEA
K]
  270 0000001A         
  271 0000001A         WWDG_IRQHandler



ARM Macro Assembler    Page 8 


  272 0000001A         PVD_IRQHandler
  273 0000001A         TAMPER_IRQHandler
  274 0000001A         RTC_IRQHandler
  275 0000001A         FLASH_IRQHandler
  276 0000001A         RCC_IRQHandler
  277 0000001A         EXTI0_IRQHandler
  278 0000001A         EXTI1_IRQHandler
  279 0000001A         EXTI2_IRQHandler
  280 0000001A         EXTI3_IRQHandler
  281 0000001A         EXTI4_IRQHandler
  282 0000001A         DMA1_Channel1_IRQHandler
  283 0000001A         DMA1_Channel2_IRQHandler
  284 0000001A         DMA1_Channel3_IRQHandler
  285 0000001A         DMA1_Channel4_IRQHandler
  286 0000001A         DMA1_Channel5_IRQHandler
  287 0000001A         DMA1_Channel6_IRQHandler
  288 0000001A         DMA1_Channel7_IRQHandler
  289 0000001A         ADC1_2_IRQHandler
  290 0000001A         CAN1_TX_IRQHandler
  291 0000001A         CAN1_RX0_IRQHandler
  292 0000001A         CAN1_RX1_IRQHandler
  293 0000001A         CAN1_SCE_IRQHandler
  294 0000001A         EXTI9_5_IRQHandler
  295 0000001A         TIM1_BRK_IRQHandler
  296 0000001A         TIM1_UP_IRQHandler
  297 0000001A         TIM1_TRG_COM_IRQHandler
  298 0000001A         TIM1_CC_IRQHandler
  299 0000001A         TIM2_IRQHandler
  300 0000001A         TIM3_IRQHandler
  301 0000001A         TIM4_IRQHandler
  302 0000001A         I2C1_EV_IRQHandler
  303 0000001A         I2C1_ER_IRQHandler
  304 0000001A         I2C2_EV_IRQHandler
  305 0000001A         I2C2_ER_IRQHandler
  306 0000001A         SPI1_IRQHandler
  307 0000001A         SPI2_IRQHandler
  308 0000001A         USART1_IRQHandler
  309 0000001A         USART2_IRQHandler
  310 0000001A         USART3_IRQHandler
  311 0000001A         EXTI15_10_IRQHandler
  312 0000001A         RTC_Alarm_IRQHandler
  313 0000001A         OTG_FS_WKUP_IRQHandler
  314 0000001A         TIM5_IRQHandler
  315 0000001A         SPI3_IRQHandler
  316 0000001A         UART4_IRQHandler
  317 0000001A         UART5_IRQHandler
  318 0000001A         TIM6_IRQHandler
  319 0000001A         TIM7_IRQHandler
  320 0000001A         DMA2_Channel1_IRQHandler
  321 0000001A         DMA2_Channel2_IRQHandler
  322 0000001A         DMA2_Channel3_IRQHandler
  323 0000001A         DMA2_Channel4_IRQHandler
  324 0000001A         DMA2_Channel5_IRQHandler
  325 0000001A         ETH_IRQHandler
  326 0000001A         ETH_WKUP_IRQHandler
  327 0000001A         CAN2_TX_IRQHandler
  328 0000001A         CAN2_RX0_IRQHandler
  329 0000001A         CAN2_RX1_IRQHandler
  330 0000001A         CAN2_SCE_IRQHandler



ARM Macro Assembler    Page 9 


  331 0000001A         OTG_FS_IRQHandler
  332 0000001A         
  333 0000001A E7FE            B                .
  334 0000001C         
  335 0000001C                 ENDP
  336 0000001C         
  337 0000001C                 ALIGN
  338 0000001C         
  339 0000001C         ;*******************************************************
                       ************************
  340 0000001C         ; User Stack and Heap initialization
  341 0000001C         ;*******************************************************
                       ************************
  342 0000001C                 IF               :DEF:__MICROLIB
  343 0000001C         
  344 0000001C                 EXPORT           __initial_sp
  345 0000001C                 EXPORT           __heap_base
  346 0000001C                 EXPORT           __heap_limit
  347 0000001C         
  348 0000001C                 ELSE
  363                          ENDIF
  364 0000001C         
  365 0000001C                 END
              00000000 
              00000000 
Command Line: --debug --xref --diag_suppress=9931 --cpu=Cortex-M3 --apcs=interw
ork --depend=stm32f107\startup_stm32f107xc.d -ostm32f107\startup_stm32f107xc.o 
-I.\RTE\_stm32f107 -ID:\Users\Admin\AppData\Local\Arm\Packs\ARM\CMSIS\5.8.0\CMS
IS\Core\Include -ID:\Users\Admin\AppData\Local\Arm\Packs\Keil\STM32F1xx_DFP\2.4
.1\Device\Include --predefine="__MICROLIB SETA 1" --predefine="__UVISION_VERSIO
N SETA 525" --predefine="_RTE_ SETA 1" --predefine="STM32F10X_CL SETA 1" --list
=startup_stm32f107xc.lst startup_stm32f107xc.s



ARM Macro Assembler    Page 1 Alphabetic symbol ordering
Relocatable symbols

STACK 00000000

Symbol: STACK
   Definitions
      At line 34 in file startup_stm32f107xc.s
   Uses
      None
Comment: STACK unused
Stack_Mem 00000000

Symbol: Stack_Mem
   Definitions
      At line 35 in file startup_stm32f107xc.s
   Uses
      None
Comment: Stack_Mem unused
__initial_sp 00000400

Symbol: __initial_sp
   Definitions
      At line 36 in file startup_stm32f107xc.s
   Uses
      At line 60 in file startup_stm32f107xc.s
      At line 344 in file startup_stm32f107xc.s

3 symbols



ARM Macro Assembler    Page 1 Alphabetic symbol ordering
Relocatable symbols

HEAP 00000000

Symbol: HEAP
   Definitions
      At line 45 in file startup_stm32f107xc.s
   Uses
      None
Comment: HEAP unused
Heap_Mem 00000000

Symbol: Heap_Mem
   Definitions
      At line 47 in file startup_stm32f107xc.s
   Uses
      None
Comment: Heap_Mem unused
__heap_base 00000000

Symbol: __heap_base
   Definitions
      At line 46 in file startup_stm32f107xc.s
   Uses
      At line 345 in file startup_stm32f107xc.s
Comment: __heap_base used once
__heap_limit 00000200

Symbol: __heap_limit
   Definitions
      At line 48 in file startup_stm32f107xc.s
   Uses
      At line 346 in file startup_stm32f107xc.s
Comment: __heap_limit used once
4 symbols



ARM Macro Assembler    Page 1 Alphabetic symbol ordering
Relocatable symbols

RESET 00000000

Symbol: RESET
   Definitions
      At line 55 in file startup_stm32f107xc.s
   Uses
      None
Comment: RESET unused
__Vectors 00000000

Symbol: __Vectors
   Definitions
      At line 60 in file startup_stm32f107xc.s
   Uses
      At line 56 in file startup_stm32f107xc.s
      At line 148 in file startup_stm32f107xc.s

__Vectors_End 00000150

Symbol: __Vectors_End
   Definitions
      At line 146 in file startup_stm32f107xc.s
   Uses
      At line 57 in file startup_stm32f107xc.s
      At line 148 in file startup_stm32f107xc.s

3 symbols



ARM Macro Assembler    Page 1 Alphabetic symbol ordering
Relocatable symbols

.text 00000000

Symbol: .text
   Definitions
      At line 150 in file startup_stm32f107xc.s
   Uses
      None
Comment: .text unused
ADC1_2_IRQHandler 0000001A

Symbol: ADC1_2_IRQHandler
   Definitions
      At line 289 in file startup_stm32f107xc.s
   Uses
      At line 96 in file startup_stm32f107xc.s
      At line 227 in file startup_stm32f107xc.s

BusFault_Handler 0000000E

Symbol: BusFault_Handler
   Definitions
      At line 180 in file startup_stm32f107xc.s
   Uses
      At line 65 in file startup_stm32f107xc.s
      At line 181 in file startup_stm32f107xc.s

CAN1_RX0_IRQHandler 0000001A

Symbol: CAN1_RX0_IRQHandler
   Definitions
      At line 291 in file startup_stm32f107xc.s
   Uses
      At line 98 in file startup_stm32f107xc.s
      At line 229 in file startup_stm32f107xc.s

CAN1_RX1_IRQHandler 0000001A

Symbol: CAN1_RX1_IRQHandler
   Definitions
      At line 292 in file startup_stm32f107xc.s
   Uses
      At line 99 in file startup_stm32f107xc.s
      At line 230 in file startup_stm32f107xc.s

CAN1_SCE_IRQHandler 0000001A

Symbol: CAN1_SCE_IRQHandler
   Definitions
      At line 293 in file startup_stm32f107xc.s
   Uses
      At line 100 in file startup_stm32f107xc.s
      At line 231 in file startup_stm32f107xc.s

CAN1_TX_IRQHandler 0000001A

Symbol: CAN1_TX_IRQHandler
   Definitions
      At line 290 in file startup_stm32f107xc.s
   Uses



ARM Macro Assembler    Page 2 Alphabetic symbol ordering
Relocatable symbols

      At line 97 in file startup_stm32f107xc.s
      At line 228 in file startup_stm32f107xc.s

CAN2_RX0_IRQHandler 0000001A

Symbol: CAN2_RX0_IRQHandler
   Definitions
      At line 328 in file startup_stm32f107xc.s
   Uses
      At line 142 in file startup_stm32f107xc.s
      At line 266 in file startup_stm32f107xc.s

CAN2_RX1_IRQHandler 0000001A

Symbol: CAN2_RX1_IRQHandler
   Definitions
      At line 329 in file startup_stm32f107xc.s
   Uses
      At line 143 in file startup_stm32f107xc.s
      At line 267 in file startup_stm32f107xc.s

CAN2_SCE_IRQHandler 0000001A

Symbol: CAN2_SCE_IRQHandler
   Definitions
      At line 330 in file startup_stm32f107xc.s
   Uses
      At line 144 in file startup_stm32f107xc.s
      At line 268 in file startup_stm32f107xc.s

CAN2_TX_IRQHandler 0000001A

Symbol: CAN2_TX_IRQHandler
   Definitions
      At line 327 in file startup_stm32f107xc.s
   Uses
      At line 141 in file startup_stm32f107xc.s
      At line 265 in file startup_stm32f107xc.s

DMA1_Channel1_IRQHandler 0000001A

Symbol: DMA1_Channel1_IRQHandler
   Definitions
      At line 282 in file startup_stm32f107xc.s
   Uses
      At line 89 in file startup_stm32f107xc.s
      At line 220 in file startup_stm32f107xc.s

DMA1_Channel2_IRQHandler 0000001A

Symbol: DMA1_Channel2_IRQHandler
   Definitions
      At line 283 in file startup_stm32f107xc.s
   Uses
      At line 90 in file startup_stm32f107xc.s
      At line 221 in file startup_stm32f107xc.s

DMA1_Channel3_IRQHandler 0000001A




ARM Macro Assembler    Page 3 Alphabetic symbol ordering
Relocatable symbols

Symbol: DMA1_Channel3_IRQHandler
   Definitions
      At line 284 in file startup_stm32f107xc.s
   Uses
      At line 91 in file startup_stm32f107xc.s
      At line 222 in file startup_stm32f107xc.s

DMA1_Channel4_IRQHandler 0000001A

Symbol: DMA1_Channel4_IRQHandler
   Definitions
      At line 285 in file startup_stm32f107xc.s
   Uses
      At line 92 in file startup_stm32f107xc.s
      At line 223 in file startup_stm32f107xc.s

DMA1_Channel5_IRQHandler 0000001A

Symbol: DMA1_Channel5_IRQHandler
   Definitions
      At line 286 in file startup_stm32f107xc.s
   Uses
      At line 93 in file startup_stm32f107xc.s
      At line 224 in file startup_stm32f107xc.s

DMA1_Channel6_IRQHandler 0000001A

Symbol: DMA1_Channel6_IRQHandler
   Definitions
      At line 287 in file startup_stm32f107xc.s
   Uses
      At line 94 in file startup_stm32f107xc.s
      At line 225 in file startup_stm32f107xc.s

DMA1_Channel7_IRQHandler 0000001A

Symbol: DMA1_Channel7_IRQHandler
   Definitions
      At line 288 in file startup_stm32f107xc.s
   Uses
      At line 95 in file startup_stm32f107xc.s
      At line 226 in file startup_stm32f107xc.s

DMA2_Channel1_IRQHandler 0000001A

Symbol: DMA2_Channel1_IRQHandler
   Definitions
      At line 320 in file startup_stm32f107xc.s
   Uses
      At line 134 in file startup_stm32f107xc.s
      At line 258 in file startup_stm32f107xc.s

DMA2_Channel2_IRQHandler 0000001A

Symbol: DMA2_Channel2_IRQHandler
   Definitions
      At line 321 in file startup_stm32f107xc.s
   Uses
      At line 135 in file startup_stm32f107xc.s



ARM Macro Assembler    Page 4 Alphabetic symbol ordering
Relocatable symbols

      At line 259 in file startup_stm32f107xc.s

DMA2_Channel3_IRQHandler 0000001A

Symbol: DMA2_Channel3_IRQHandler
   Definitions
      At line 322 in file startup_stm32f107xc.s
   Uses
      At line 136 in file startup_stm32f107xc.s
      At line 260 in file startup_stm32f107xc.s

DMA2_Channel4_IRQHandler 0000001A

Symbol: DMA2_Channel4_IRQHandler
   Definitions
      At line 323 in file startup_stm32f107xc.s
   Uses
      At line 137 in file startup_stm32f107xc.s
      At line 261 in file startup_stm32f107xc.s

DMA2_Channel5_IRQHandler 0000001A

Symbol: DMA2_Channel5_IRQHandler
   Definitions
      At line 324 in file startup_stm32f107xc.s
   Uses
      At line 138 in file startup_stm32f107xc.s
      At line 262 in file startup_stm32f107xc.s

DebugMon_Handler 00000014

Symbol: DebugMon_Handler
   Definitions
      At line 194 in file startup_stm32f107xc.s
   Uses
      At line 72 in file startup_stm32f107xc.s
      At line 195 in file startup_stm32f107xc.s

Default_Handler 0000001A

Symbol: Default_Handler
   Definitions
      At line 207 in file startup_stm32f107xc.s
   Uses
      None
Comment: Default_Handler unused
ETH_IRQHandler 0000001A

Symbol: ETH_IRQHandler
   Definitions
      At line 325 in file startup_stm32f107xc.s
   Uses
      At line 139 in file startup_stm32f107xc.s
      At line 263 in file startup_stm32f107xc.s

ETH_WKUP_IRQHandler 0000001A

Symbol: ETH_WKUP_IRQHandler
   Definitions



ARM Macro Assembler    Page 5 Alphabetic symbol ordering
Relocatable symbols

      At line 326 in file startup_stm32f107xc.s
   Uses
      At line 140 in file startup_stm32f107xc.s
      At line 264 in file startup_stm32f107xc.s

EXTI0_IRQHandler 0000001A

Symbol: EXTI0_IRQHandler
   Definitions
      At line 277 in file startup_stm32f107xc.s
   Uses
      At line 84 in file startup_stm32f107xc.s
      At line 215 in file startup_stm32f107xc.s

EXTI15_10_IRQHandler 0000001A

Symbol: EXTI15_10_IRQHandler
   Definitions
      At line 311 in file startup_stm32f107xc.s
   Uses
      At line 118 in file startup_stm32f107xc.s
      At line 249 in file startup_stm32f107xc.s

EXTI1_IRQHandler 0000001A

Symbol: EXTI1_IRQHandler
   Definitions
      At line 278 in file startup_stm32f107xc.s
   Uses
      At line 85 in file startup_stm32f107xc.s
      At line 216 in file startup_stm32f107xc.s

EXTI2_IRQHandler 0000001A

Symbol: EXTI2_IRQHandler
   Definitions
      At line 279 in file startup_stm32f107xc.s
   Uses
      At line 86 in file startup_stm32f107xc.s
      At line 217 in file startup_stm32f107xc.s

EXTI3_IRQHandler 0000001A

Symbol: EXTI3_IRQHandler
   Definitions
      At line 280 in file startup_stm32f107xc.s
   Uses
      At line 87 in file startup_stm32f107xc.s
      At line 218 in file startup_stm32f107xc.s

EXTI4_IRQHandler 0000001A

Symbol: EXTI4_IRQHandler
   Definitions
      At line 281 in file startup_stm32f107xc.s
   Uses
      At line 88 in file startup_stm32f107xc.s
      At line 219 in file startup_stm32f107xc.s




ARM Macro Assembler    Page 6 Alphabetic symbol ordering
Relocatable symbols

EXTI9_5_IRQHandler 0000001A

Symbol: EXTI9_5_IRQHandler
   Definitions
      At line 294 in file startup_stm32f107xc.s
   Uses
      At line 101 in file startup_stm32f107xc.s
      At line 232 in file startup_stm32f107xc.s

FLASH_IRQHandler 0000001A

Symbol: FLASH_IRQHandler
   Definitions
      At line 275 in file startup_stm32f107xc.s
   Uses
      At line 82 in file startup_stm32f107xc.s
      At line 213 in file startup_stm32f107xc.s

HardFault_Handler 0000000A

Symbol: HardFault_Handler
   Definitions
      At line 170 in file startup_stm32f107xc.s
   Uses
      At line 63 in file startup_stm32f107xc.s
      At line 171 in file startup_stm32f107xc.s

I2C1_ER_IRQHandler 0000001A

Symbol: I2C1_ER_IRQHandler
   Definitions
      At line 303 in file startup_stm32f107xc.s
   Uses
      At line 110 in file startup_stm32f107xc.s
      At line 241 in file startup_stm32f107xc.s

I2C1_EV_IRQHandler 0000001A

Symbol: I2C1_EV_IRQHandler
   Definitions
      At line 302 in file startup_stm32f107xc.s
   Uses
      At line 109 in file startup_stm32f107xc.s
      At line 240 in file startup_stm32f107xc.s

I2C2_ER_IRQHandler 0000001A

Symbol: I2C2_ER_IRQHandler
   Definitions
      At line 305 in file startup_stm32f107xc.s
   Uses
      At line 112 in file startup_stm32f107xc.s
      At line 243 in file startup_stm32f107xc.s

I2C2_EV_IRQHandler 0000001A

Symbol: I2C2_EV_IRQHandler
   Definitions
      At line 304 in file startup_stm32f107xc.s



ARM Macro Assembler    Page 7 Alphabetic symbol ordering
Relocatable symbols

   Uses
      At line 111 in file startup_stm32f107xc.s
      At line 242 in file startup_stm32f107xc.s

MemManage_Handler 0000000C

Symbol: MemManage_Handler
   Definitions
      At line 175 in file startup_stm32f107xc.s
   Uses
      At line 64 in file startup_stm32f107xc.s
      At line 176 in file startup_stm32f107xc.s

NMI_Handler 00000008

Symbol: NMI_Handler
   Definitions
      At line 165 in file startup_stm32f107xc.s
   Uses
      At line 62 in file startup_stm32f107xc.s
      At line 166 in file startup_stm32f107xc.s

OTG_FS_IRQHandler 0000001A

Symbol: OTG_FS_IRQHandler
   Definitions
      At line 331 in file startup_stm32f107xc.s
   Uses
      At line 145 in file startup_stm32f107xc.s
      At line 269 in file startup_stm32f107xc.s

OTG_FS_WKUP_IRQHandler 0000001A

Symbol: OTG_FS_WKUP_IRQHandler
   Definitions
      At line 313 in file startup_stm32f107xc.s
   Uses
      At line 120 in file startup_stm32f107xc.s
      At line 251 in file startup_stm32f107xc.s

PVD_IRQHandler 0000001A

Symbol: PVD_IRQHandler
   Definitions
      At line 272 in file startup_stm32f107xc.s
   Uses
      At line 79 in file startup_stm32f107xc.s
      At line 210 in file startup_stm32f107xc.s

PendSV_Handler 00000016

Symbol: PendSV_Handler
   Definitions
      At line 198 in file startup_stm32f107xc.s
   Uses
      At line 74 in file startup_stm32f107xc.s
      At line 199 in file startup_stm32f107xc.s

RCC_IRQHandler 0000001A



ARM Macro Assembler    Page 8 Alphabetic symbol ordering
Relocatable symbols


Symbol: RCC_IRQHandler
   Definitions
      At line 276 in file startup_stm32f107xc.s
   Uses
      At line 83 in file startup_stm32f107xc.s
      At line 214 in file startup_stm32f107xc.s

RTC_Alarm_IRQHandler 0000001A

Symbol: RTC_Alarm_IRQHandler
   Definitions
      At line 312 in file startup_stm32f107xc.s
   Uses
      At line 119 in file startup_stm32f107xc.s
      At line 250 in file startup_stm32f107xc.s

RTC_IRQHandler 0000001A

Symbol: RTC_IRQHandler
   Definitions
      At line 274 in file startup_stm32f107xc.s
   Uses
      At line 81 in file startup_stm32f107xc.s
      At line 212 in file startup_stm32f107xc.s

Reset_Handler 00000000

Symbol: Reset_Handler
   Definitions
      At line 153 in file startup_stm32f107xc.s
   Uses
      At line 61 in file startup_stm32f107xc.s
      At line 154 in file startup_stm32f107xc.s

SPI1_IRQHandler 0000001A

Symbol: SPI1_IRQHandler
   Definitions
      At line 306 in file startup_stm32f107xc.s
   Uses
      At line 113 in file startup_stm32f107xc.s
      At line 244 in file startup_stm32f107xc.s

SPI2_IRQHandler 0000001A

Symbol: SPI2_IRQHandler
   Definitions
      At line 307 in file startup_stm32f107xc.s
   Uses
      At line 114 in file startup_stm32f107xc.s
      At line 245 in file startup_stm32f107xc.s

SPI3_IRQHandler 0000001A

Symbol: SPI3_IRQHandler
   Definitions
      At line 315 in file startup_stm32f107xc.s
   Uses



ARM Macro Assembler    Page 9 Alphabetic symbol ordering
Relocatable symbols

      At line 129 in file startup_stm32f107xc.s
      At line 253 in file startup_stm32f107xc.s

SVC_Handler 00000012

Symbol: SVC_Handler
   Definitions
      At line 189 in file startup_stm32f107xc.s
   Uses
      At line 71 in file startup_stm32f107xc.s
      At line 190 in file startup_stm32f107xc.s

SysTick_Handler 00000018

Symbol: SysTick_Handler
   Definitions
      At line 202 in file startup_stm32f107xc.s
   Uses
      At line 75 in file startup_stm32f107xc.s
      At line 203 in file startup_stm32f107xc.s

TAMPER_IRQHandler 0000001A

Symbol: TAMPER_IRQHandler
   Definitions
      At line 273 in file startup_stm32f107xc.s
   Uses
      At line 80 in file startup_stm32f107xc.s
      At line 211 in file startup_stm32f107xc.s

TIM1_BRK_IRQHandler 0000001A

Symbol: TIM1_BRK_IRQHandler
   Definitions
      At line 295 in file startup_stm32f107xc.s
   Uses
      At line 102 in file startup_stm32f107xc.s
      At line 233 in file startup_stm32f107xc.s

TIM1_CC_IRQHandler 0000001A

Symbol: TIM1_CC_IRQHandler
   Definitions
      At line 298 in file startup_stm32f107xc.s
   Uses
      At line 105 in file startup_stm32f107xc.s
      At line 236 in file startup_stm32f107xc.s

TIM1_TRG_COM_IRQHandler 0000001A

Symbol: TIM1_TRG_COM_IRQHandler
   Definitions
      At line 297 in file startup_stm32f107xc.s
   Uses
      At line 104 in file startup_stm32f107xc.s
      At line 235 in file startup_stm32f107xc.s

TIM1_UP_IRQHandler 0000001A




ARM Macro Assembler    Page 10 Alphabetic symbol ordering
Relocatable symbols

Symbol: TIM1_UP_IRQHandler
   Definitions
      At line 296 in file startup_stm32f107xc.s
   Uses
      At line 103 in file startup_stm32f107xc.s
      At line 234 in file startup_stm32f107xc.s

TIM2_IRQHandler 0000001A

Symbol: TIM2_IRQHandler
   Definitions
      At line 299 in file startup_stm32f107xc.s
   Uses
      At line 106 in file startup_stm32f107xc.s
      At line 237 in file startup_stm32f107xc.s

TIM3_IRQHandler 0000001A

Symbol: TIM3_IRQHandler
   Definitions
      At line 300 in file startup_stm32f107xc.s
   Uses
      At line 107 in file startup_stm32f107xc.s
      At line 238 in file startup_stm32f107xc.s

TIM4_IRQHandler 0000001A

Symbol: TIM4_IRQHandler
   Definitions
      At line 301 in file startup_stm32f107xc.s
   Uses
      At line 108 in file startup_stm32f107xc.s
      At line 239 in file startup_stm32f107xc.s

TIM5_IRQHandler 0000001A

Symbol: TIM5_IRQHandler
   Definitions
      At line 314 in file startup_stm32f107xc.s
   Uses
      At line 128 in file startup_stm32f107xc.s
      At line 252 in file startup_stm32f107xc.s

TIM6_IRQHandler 0000001A

Symbol: TIM6_IRQHandler
   Definitions
      At line 318 in file startup_stm32f107xc.s
   Uses
      At line 132 in file startup_stm32f107xc.s
      At line 256 in file startup_stm32f107xc.s

TIM7_IRQHandler 0000001A

Symbol: TIM7_IRQHandler
   Definitions
      At line 319 in file startup_stm32f107xc.s
   Uses
      At line 133 in file startup_stm32f107xc.s



ARM Macro Assembler    Page 11 Alphabetic symbol ordering
Relocatable symbols

      At line 257 in file startup_stm32f107xc.s

UART4_IRQHandler 0000001A

Symbol: UART4_IRQHandler
   Definitions
      At line 316 in file startup_stm32f107xc.s
   Uses
      At line 130 in file startup_stm32f107xc.s
      At line 254 in file startup_stm32f107xc.s

UART5_IRQHandler 0000001A

Symbol: UART5_IRQHandler
   Definitions
      At line 317 in file startup_stm32f107xc.s
   Uses
      At line 131 in file startup_stm32f107xc.s
      At line 255 in file startup_stm32f107xc.s

USART1_IRQHandler 0000001A

Symbol: USART1_IRQHandler
   Definitions
      At line 308 in file startup_stm32f107xc.s
   Uses
      At line 115 in file startup_stm32f107xc.s
      At line 246 in file startup_stm32f107xc.s

USART2_IRQHandler 0000001A

Symbol: USART2_IRQHandler
   Definitions
      At line 309 in file startup_stm32f107xc.s
   Uses
      At line 116 in file startup_stm32f107xc.s
      At line 247 in file startup_stm32f107xc.s

USART3_IRQHandler 0000001A

Symbol: USART3_IRQHandler
   Definitions
      At line 310 in file startup_stm32f107xc.s
   Uses
      At line 117 in file startup_stm32f107xc.s
      At line 248 in file startup_stm32f107xc.s

UsageFault_Handler 00000010

Symbol: UsageFault_Handler
   Definitions
      At line 185 in file startup_stm32f107xc.s
   Uses
      At line 66 in file startup_stm32f107xc.s
      At line 186 in file startup_stm32f107xc.s

WWDG_IRQHandler 0000001A

Symbol: WWDG_IRQHandler



ARM Macro Assembler    Page 12 Alphabetic symbol ordering
Relocatable symbols

   Definitions
      At line 271 in file startup_stm32f107xc.s
   Uses
      At line 78 in file startup_stm32f107xc.s
      At line 209 in file startup_stm32f107xc.s

73 symbols



ARM Macro Assembler    Page 1 Alphabetic symbol ordering
Absolute symbols

Heap_Size 00000200

Symbol: Heap_Size
   Definitions
      At line 43 in file startup_stm32f107xc.s
   Uses
      At line 47 in file startup_stm32f107xc.s
Comment: Heap_Size used once
Stack_Size 00000400

Symbol: Stack_Size
   Definitions
      At line 32 in file startup_stm32f107xc.s
   Uses
      At line 35 in file startup_stm32f107xc.s
Comment: Stack_Size used once
__Vectors_Size 00000150

Symbol: __Vectors_Size
   Definitions
      At line 148 in file startup_stm32f107xc.s
   Uses
      At line 58 in file startup_stm32f107xc.s
Comment: __Vectors_Size used once
3 symbols



ARM Macro Assembler    Page 1 Alphabetic symbol ordering
External symbols

SystemInit 00000000

Symbol: SystemInit
   Definitions
      At line 155 in file startup_stm32f107xc.s
   Uses
      At line 157 in file startup_stm32f107xc.s
Comment: SystemInit used once
__main 00000000

Symbol: __main
   Definitions
      At line 156 in file startup_stm32f107xc.s
   Uses
      At line 159 in file startup_stm32f107xc.s
Comment: __main used once
2 symbols
424 symbols in table
